:020000040801F1
:10000000000002203D010208F9EF010801F001089B
:1000100009F0010811F0010819F0010800000000C2
:10002000000000000000000000000000C1AF020856
:1000300021F001080000000011B2020879B20208A4
:100040008D0102088D0102088D0102088D01020850
:100050008D0102088D0102088D0102088D01020840
:100060008D0102082FF001088D0102088D010208A0
:100070008D0102088D0102088D0102088D01020820
:100080003DF0010851F001088D0102088D010208C0
:100090008D0102088D0102088D0102088D01020800
:1000A0008D01020865F001088D01020879F0010850
:1000B0008D0102088DF00108A1F001088D010208F0
:1000C0008D0102088D0102088D0102088D010208D0
:1000D0008D0102088D010208B5F001088D010208AA
:1000E000C9F001088D0102088D0102088D01020886
:1000F0008D0102088D0102088D0102088D010208A0
:100100008D0102088D0102088D0102088D0102088F
:100110008D0102088D010208E9F0010805F10108CE
:100120008D0102088D0102088D0102088D0102086F
:100130008D01020819F101088D0102088D010208E4
:100140008D0102088D0102088D0102088D0102084F
:100150008D0102088D0102088D0102088D0102083F
:100160008D0102088D0102088D0102088D0102082F
:100170008D0102088D0102088D01020800000000B7
:080180008D0102088D01020847
:100188000000000000000000000000000000000067
:100198000000000000000000000000000000000057
:1001A8000000000000000000000000000000000047
:1001B8000000000000000000000000000000000037
:1001C8000000000000000000000000000000000027
:1001D8000000000000000000000000000000000017
:1001E8000000000000000000000000000000000007
:1001F8000000000000000000EFBEADDE04000000BB
:100208004D6F746F7220436F6E74726F6C6C657291
:100218002044657669636500000000000000000066
:1002280000000000000000000000000000000000C6
:1002380000000000000000000000000000000000B6
:1002480000000000000000000000000000000000A6
:100258000000000000000000000000000000000096
:100268000000000000000000000000000000000086
:100278000000000000000000000000000000000076
:100288000000000000000000000000000000000066
:1002A00010B5054C237833B9044B13B10448AFF3B0
:1002B00000800123237010BDA8030020000000006F
:1002C000DC02060808B5034B1BB103490348AFF332
:1002D000008008BD00000000AC030020DC0206081E
:1002E00010F8012B11F8013B012A28BF9A42F7D0E0
:1002F000D01A70470000000000000000000000005D
:1003000001F0FF01102A2BDB10F0070F08D010F8C6
:10031000013B013A8B422DD010F0070F42B3F6D1CA
:10032000F0B441EA012141EA014122F007047FF0E3
:1003300000070023F0E80256083C85EA010586EA3A
:10034000010685FA47F5A3FA87F586FA47F6A5FA76
:1003500087F68EB9EED1F0BC01F0FF0102F0070282
:1003600032B110F8013B013A83EA010313B1F8D12D
:100370000020704701387047002D06BF354603380E
:10038000073815F0010F07D1013015F4807F02BF47
:10039000013015F4C03F0130F0BC0138704700BF98
:1003A000034613F8012B002AFBD1181A01387047B5
:1003B00081F0004102E000BF83F0004330B54FEA16
:1003C00041044FEA430594EA050F08BF90EA020F83
:1003D0001FBF54EA000C55EA020C7FEA645C7FEA16
:1003E000655C00F0E2804FEA5454D4EB5555B8BF39
:1003F0006D420CDD2C4480EA020281EA030382EAAA
:10040000000083EA010180EA020281EA0303362D3B
:1004100088BF30BD11F0004F4FEA01314FF4801C0E
:100420004CEA113102D0404261EB410113F0004F20
:100430004FEA03334CEA133302D0524263EB4303D7
:1004400094EA050F00F0A780A4F10104D5F1200E75
:100450000DDB02FA0EFC22FA05F2801841F10001D0
:1004600003FA0EF2801843FA05F359410EE0A5F1A4
:1004700020050EF1200E012A03FA0EFC28BF4CF0D5
:10048000020C43FA05F3C01851EBE37101F000458B
:1004900007D54FF0000EDCF1000C7EEB00006EEB98
:1004A0000101B1F5801F1BD3B1F5001F0CD3490822
:1004B0005FEA30004FEA3C0C04F101044FEA445279
:1004C00012F5800F80F09A80BCF1004F08BF5FEA00
:1004D000500C50F1000041EB045141EA050130BDE0
:1004E0005FEA4C0C404141EB0101013C28BFB1F5F2
:1004F000801FE9D291F0000F04BF01460020B1FA3D
:1005000081F308BF2033A3F10B03B3F120020CDA0F
:100510000C3208DD02F1140CC2F10C0201FA0CF0ED
:1005200021FA02F10CE002F11402D8BFC2F1200C52
:1005300001FA02F120FA0CFCDCBF41EA0C01904008
:10054000E41AA2BF01EB0451294330BD6FEA040451
:100550001F3C1CDA0C340EDC04F11404C4F120023C
:1005600020FA04F001FA02F340EA030021FA04F34E
:1005700045EA030130BDC4F10C04C4F1200220FAA5
:1005800002F001FA04F340EA0300294630BD21FAE3
:1005900004F0294630BD94F0000F83F4801306BFA9
:1005A00081F480110134013D4EE77FEA645C18BF9D
:1005B0007FEA655C29D094EA050F08BF90EA020F34
:1005C00005D054EA000C04BF1946104630BD91EA2C
:1005D000030F1EBF0021002030BD5FEA545C05D12F
:1005E0004000494128BF41F0004130BD14F580046E
:1005F0003CBF01F5801130BD01F0004545F0FE41E2
:1006000041F470014FF0000030BD7FEA645C1ABF16
:10061000194610467FEA655C1CBF0B46024650EA4D
:10062000013406BF52EA033591EA030F41F4002179
:1006300030BD00BF90F0000F04BF0021704730B5FF
:100640004FF4806404F132044FF000054FF00001D4
:1006500050E700BF90F0000F04BF0021704730B595
:100660004FF4806404F1320410F0004548BF40426A
:100670004FF000013EE700BF42004FEAE2014FEABF
:1006800031014FEA02701FBF12F07F4393F07F4F9A
:1006900081F06051704732F07F4208BF704793F09D
:1006A0007F4F04BF41F40021704730B54FF46074B0
:1006B00001F0004521F000411CE700BF50EA0102B3
:1006C00008BF704730B54FF000050AE050EA01025C
:1006D00008BF704730B511F0004502D5404261EBCC
:1006E00041014FF4806404F132045FEA915C3FF40D
:1006F000D8AE4FF003025FEADC0C18BF03325FEAAA
:10070000DC0C18BF033202EBDC02C2F1200300FA5A
:1007100003FC20FA02F001FA03FE40EA0E0021FA7F
:1007200002F11444BDE600BF70B54FF0FF0C4CF46D
:10073000E06C1CEA11541DBF1CEA135594EA0C0F1F
:1007400095EA0C0F00F0DEF82C4481EA030621EA5A
:100750004C5123EA4C5350EA013518BF52EA033595
:1007600041F4801143F4801338D0A0FB02CE4FF047
:100770000005E1FB02E506F00042E0FB03E54FF077
:100780000006E1FB03569CF0000F18BF4EF0010E6F
:10079000A4F1FF04B6F5007F64F5407404D25FEA6B
:1007A0004E0E6D4146EB060642EAC62141EA55511E
:1007B0004FEAC52040EA5E504FEACE2EB4F1FD0C60
:1007C00088BFBCF5E06F1ED8BEF1004F08BF5FEADE
:1007D000500E50F1000041EB045170BD06F0004690
:1007E00046EA010140EA020081EA0301B4EB5C043D
:1007F000C2BFD4EB0C0541EA045170BD41F4801135
:100800004FF0000E013C00F3AB8014F1360FDEBF59
:10081000002001F0004170BDC4F10004203C35DA35
:100820000C341BDC04F11404C4F1200500FA05F3B8
:1008300020FA04F001FA05F240EA020001F0004259
:1008400021F0004110EBD37021FA04F642EB0601CF
:100850005EEA430E08BF20EAD37070BDC4F10C04F9
:10086000C4F1200500FA04F320FA05F001FA04F2BD
:1008700040EA020001F0004110EBD37041F10001A9
:100880005EEA430E08BF20EAD37070BDC4F12005B4
:1008900000FA05F24EEA020E20FA04F301FA05F21C
:1008A00043EA020321FA04F001F0004121FA04F2C4
:1008B00020EA020000EBD3705EEA430E08BF20EA94
:1008C000D37070BD94F0000F0FD101F000464000CE
:1008D00041EB010111F4801F08BF013CF7D041EA50
:1008E000060195F0000F18BF704703F00046520054
:1008F00043EB030313F4801F08BF013DF7D043EA25
:100900000603704794EA0C0F0CEA135518BF95EADA
:100910000C0F0CD050EA410618BF52EA4306D1D161
:1009200081EA030101F000414FF0000070BD50EA80
:10093000410606BF1046194652EA430619D094EA0A
:100940000C0F02D150EA013613D195EA0C0F05D1F4
:1009500052EA03361CBF104619460AD181EA030148
:1009600001F0004141F0FE4141F470014FF0000000
:1009700070BD41F0FE4141F4780170BD70B54FF09B
:10098000FF0C4CF4E06C1CEA11541DBF1CEA13551B
:1009900094EA0C0F95EA0C0F00F0A7F8A4EB0504FD
:1009A00081EA030E52EA03354FEA013100F08880F4
:1009B0004FEA03334FF0805545EA131343EA1263BD
:1009C0004FEA022245EA111545EA10654FEA002672
:1009D0000EF000419D4208BF964244F1FD0404F52B
:1009E000407402D25B084FEA3202B61A65EB030587
:1009F0005B084FEA32024FF480104FF4002CB6EB44
:100A0000020E75EB030E22BFB61A754640EA0C00C3
:100A10005B084FEA3202B6EB020E75EB030E22BF03
:100A2000B61A754640EA5C005B084FEA3202B6EB44
:100A3000020E75EB030E22BFB61A754640EA9C0003
:100A40005B084FEA3202B6EB020E75EB030E22BFD3
:100A5000B61A754640EADC0055EA060E18D04FEA91
:100A6000051545EA16754FEA06164FEAC30343EA31
:100A700052734FEAC2025FEA1C1CC0D111F4801FFE
:100A80000BD141EA00014FF000004FF0004CB6E7F7
:100A900011F4801F04BF01430020B4F1FD0C88BF96
:100AA000BCF5E06F3FF6AFAEB5EB030C04BFB6EBA1
:100AB000020C5FEA500C50F1000041EB045170BD94
:100AC0000EF0004E4EEA113114EB5C04C2BFD4EBC1
:100AD0000C0541EA045170BD41F480114FF0000E45
:100AE000013C90E645EA060E8DE60CEA135594EAC1
:100AF0000C0F08BF95EA0C0F3FF43BAF94EA0C0FC4
:100B00000AD150EA01347FF434AF95EA0C0F7FF438
:100B100025AF104619462CE795EA0C0F06D152EA8C
:100B200003353FF4FDAE1046194622E750EA410670
:100B300018BF52EA43067FF4C5AE50EA41047FF481
:100B40000DAF52EA43057FF4EBAE12E74FF0FF3CE6
:100B500006E000BF4FF0010C02E000BF4FF0010CB7
:100B60004DF804CD4FEA410C7FEA6C5C4FEA430C30
:100B700018BF7FEA6C5C1BD001B050EA410C0CBF7F
:100B800052EA430C91EA030F02BF90EA020F0020E1
:100B9000704710F1000F91EA030F58BF994208BF48
:100BA00090422CBFD8176FEAE37040F00100704705
:100BB0004FEA410C7FEA6C5C02D150EA013C07D15C
:100BC0004FEA430C7FEA6C5CD6D152EA033CD3D0A7
:100BD0005DF8040B704700BF8446104662468C46A1
:100BE0001946634600E000BF01B5FFF7B7FF0028D4
:100BF00048BF10F1000F01BD4DF808EDFFF7F4FFFD
:100C00000CBF012000205DF808FB00BF4DF808ED87
:100C1000FFF7EAFF34BF012000205DF808FB00BFAA
:100C20004DF808EDFFF7E0FF94BF012000205DF8CC
:100C300008FB00BF4DF808EDFFF7CEFF94BF012081
:100C400000205DF808FB00BF4DF808EDFFF7C4FF7A
:100C500034BF012000205DF808FB00BF4FEA410CC3
:100C60007FEA6C5C02D150EA013C0AD14FEA430CA6
:100C70007FEA6C5C02D152EA033C02D14FF00000E3
:100C800070474FF0010070474FEA410212F5001221
:100C900015D211D56FF47873B3EB625212D94FEAC3
:100CA000C12343F0004343EA505311F0004F23FAAD
:100CB00002F018BF404270474FF00000704750EA02
:100CC000013005D111F0004008BF6FF000407047BF
:100CD0004FF00000704700BF4A0011D212F5001219
:100CE00011D20DD56FF47873B3EB62520ED44FEA84
:100CF000C12343F0004343EA505323FA02F0704704
:100D00004FF00000704750EA013002D14FF0FF3041
:100D100070474FF0000070474FEA4102B2F1E043E4
:100D200024BFB3F5001CDCF1FE5C0DD901F0004CD2
:100D30004FEAC0024CEA5070B2F1004F40EB830022
:100D400008BF20F00100704711F0804F21D113F14E
:100D50003872BCBF01F00040704741F480114FEA87
:100D60005252C2F11802C2F1200C10FA0CF320FA10
:100D700002F018BF40F001004FEAC1234FEAD3232D
:100D800003FA0CFC40EA0C0023FA02F34FEA430397
:100D9000CCE77FEA625307D150EA01331EBF4FF020
:100DA000FE4040F44000704701F0004040F0FE403B
:100DB00040F40000704700BF53B94AB9002908BF8A
:100DC00000281CBF4FF0FF314FF0FF3000F0A0B9FA
:100DD000ADF1080C6DE904CE00F03CF8DDF804E05C
:100DE000DDE9022304B0704738B500220023044631
:100DF0000D46FFF70BFF28B920462946BDE83840CD
:100E000000F00AB8204605F1004100F005F8404224
:100E100061EB410138BD00BFD0B50C4B0022064646
:100E20000F46FFF781FCFFF757FF0446FFF702FC70
:100E3000074B0022FFF778FC02460B463046394646
:100E4000FFF7BAFAFFF748FF2146D0BD0000F03D9A
:100E50000000F0412DE9F047089D0C46002B4ED1D3
:100E600094468C458646B2FA82F262D94AB1C2F102
:100E70002003914020FA03F30CFA02FC194300FA14
:100E800002FE4FEA1C471FFA8CF6B1FBF7F44FEA5B
:100E90001E4307FB141143EA014304FB06F1994288
:100EA0000AD91CEB030304F1FF3080F01281994250
:100EB00040F20F81023C6344591A1FFA8EF3B1FBD2
:100EC000F7F007FB101143EA014300FB06F69E42D0
:100ED0000AD91CEB030300F1FF3180F0FC809E4235
:100EE00040F2F980634402389B1B40EA0440002131
:100EF0001DB1D3400022C5E90032BDE8F0878B4226
:100F000005D90DB1C5E9000100210846F5E7B3FA9E
:100F100083F1002946D1A34202D39042C0F0F08071
:100F2000861A64EB03030120002DE6D0C5E90063B7
:100F3000E3E7002A40F09080A1EB0C044FEA1C4844
:100F40001FFA8CF70121B4FBF8F64FEA1E4308FBA9
:100F5000164443EA044307FB06F0984208D91CEB09
:100F6000030306F1FF3402D2984200F2CD802646F8
:100F70001C1A1FFA8EF3B4FBF8F008FB104443EA86
:100F8000044300FB07F79F4208D91CEB030300F161
:100F9000FF3402D29F4200F2B0802046DB1B40EAC1
:100FA0000640A5E7C1F120068B4022FA06F71F4351
:100FB00020FA06FC04FA01F343EA0C03F44000FAB9
:100FC00001F8380C4FEA1349B4FBF0FE1FFA87FC16
:100FD00000FB1E4449EA04440EFB0CF9A14502FA49
:100FE00001F20AD93C190EF1FF3A80F08480A14544
:100FF00040F28180AEF1020E3C44A4EB09041FFADA
:1010000083F9B4FBF0F300FB134449EA044403FB07
:101010000CFCA44507D93C1903F1FF3067D2A44565
:1010200065D9023B3C4443EA0E40A0FB0293A4EB8B
:101030000C049C42CE469C4651D34ED055B1B8EBE1
:101040000E0364EB0C0404FA06F6CB401E43CC40BE
:10105000C5E90064002150E7C2F1200320FA03F142
:101060000CFA02FC24FA03F394400C434FEA1C48A8
:1010700000FA02FE1FFA8CF7B3FBF8F008FB103100
:10108000230C43EA014300FB07F1994208D91CEB0A
:10109000030300F1FF362CD299422AD90238634467
:1010A0005B1AA4B2B3FBF8F108FB113344EA034422
:1010B00001FB07F3A34208D91CEB040401F1FF363E
:1010C00013D2A34211D902396444E41A41EA00411F
:1010D00039E70446F0E6084606E7C845AED2B9EB64
:1010E000020E63EB070C0138A8E73146EDE7034633
:1010F00099E73046D4E7D6467FE7634402384DE7A8
:101100000646234608460FE7023E634430E700BF29
:10111000704700BF80B582B000AF78607B685B6AC3
:10112000002B40F0AA807B68DB69022B50D0022B99
:1011300000F39F80002B3BD0012B40F09A807B680E
:101140001A697B685B689A422CD17B681B6A002B0A
:1011500015D17B68986A7B689B8D0122194612F035
:10116000F1F87B685A697B689B69D21A7B681A61BF
:101170007B6800225A607B6801221A627CE07B68EF
:10118000986A7B689B8D0022194612F0DBF87B6819
:101190009A697B681A617B6800225A607B6800222A
:1011A0001A6269E07B685B685A1C7B685A6063E07E
:1011B0007B681B6A012B5ED17B68986A7B689B8D7C
:1011C0000022194612F0BEF87B6800221A6252E033
:1011D0007B681A697B685B689A4244D17B681B6AAA
:1011E000002B2DD17B68986A7B689B8D0122194664
:1011F00012F0A8F87B685A697B689B69D21A7B68F1
:101200001A617B6800225A607B6801221A627B683F
:101210009A687B68DB689A420CD17B6801225A622B
:101220007B680022DA617B6800229A607B6800227A
:10123000DA6021E07B689B685A1C7B689A601BE03F
:101240007B68986A7B689B8D0022194612F07AF8B9
:101250007B689A697B681A617B6800225A607B68A8
:1012600000221A6208E07B685B685A1C7B685A603F
:1012700002E000BF0FE000BF0DE07B68986A7B686A
:101280009B8D0122194612F05DF87B6800225A609E
:101290007B6801221A6200BF0837BD4680BD80B559
:1012A00084B000AFF860B9601346FB80FB68BA6891
:1012B0009A62FB68FA889A85FB8801221946B86809
:1012C00012F040F8FB6801221A6000BF1037BD46DB
:1012D00080BD80B483B000AF78607B6800225A6222
:1012E00000BF0C37BD465DF8047B704780B483B007
:1012F00000AF78607B6801225A6200BF0C37BD46A0
:101300005DF8047B704780B485B000AFF860B960C9
:101310007A603B60FB68BA68DA61FB687A685A6198
:10132000FB683A689A6100BF1437BD465DF8047BDC
:10133000704780B483B000AF786039607B683A68EA
:10134000DA6100BF0C37BD465DF8047B704780B49E
:1013500083B000AF78607B6800221A607B6800224F
:101360005A607B6800229A607B680022DA607B68A2
:1013700000221A617B684FF47A725A617B6864229A
:101380009A617B680122DA617B6801221A627B68BC
:1013900001225A627B6818460C37BD465DF8047B13
:1013A000704780B483B000AF78607B6818460C3714
:1013B000BD465DF8047B704780B584B000AF3B4606
:1013C00000221A605A609A60DA60214B214A1A6042
:1013D0001F4B4FF480325A601D4B00229A601C4B09
:1013E00000221A611A4B00221A76194B002283F848
:1013F0002020174B0022DA62154B174A9A62144BD1
:101400000022DA60124B0122DA61114B002283F8CC
:1014100030200F4B01225A610D480FF07FF8034630
:10142000002B01D00DF052FC03233B6001237B60B5
:101430000023BB603B46194605480FF0B3F803464E
:10144000002B01D00DF042FC00BF1037BD4680BD1F
:10145000C4030020002001400100000F80B58AB0C5
:1014600000AF786007F1140300221A605A609A6096
:10147000DA601A617B681B68174A934227D1002300
:101480003B61164B5B6C154A43F480735364134BFA
:101490005B6C03F480733B613B690023FB600F4B83
:1014A0001B6B0E4A43F0010313630C4B1B6B03F0E1
:1014B0000103FB60FB6808237B610323BB610023FE
:1014C000FB6107F114031946054811F087FD00BFC1
:1014D0002837BD4680BD00BF0020014000380240D3
:1014E0000000024080B582B000AF7860786802F0FA
:1014F0001CF90346002B03D14FF00002064B02E01B
:101500007B68D3E9062343EC172BB0EE470AF0EED5
:10151000670A0837BD4680BD0000F87F80B485B0FB
:1015200000AF786039607B68002B02D03B68002BED
:1015300001D1012356E07A683B689A420DD100231D
:1015400050E07B681B78002B01D100234AE07B68C8
:1015500001337B603B6801333B607B681B78FB7326
:10156000FB7B0133224A13441B7803F00303012B56
:1015700003D1FB7B03F1200200E0FA7B3B681B7880
:10158000BB73BB7B01331A490B441B7803F0030385
:10159000012B02D1BB7B203300E0BB7B9A42D0D031
:1015A0007B681B787B737B7B0133114A13441B7868
:1015B00003F00303012B03D17B7B03F1200200E046
:1015C0007A7B3B681B783B733B7B013308490B44B8
:1015D0001B7803F00303012B02D13B7B203300E097
:1015E0003B7BD31A18461437BD465DF8047B704721
:1015F0005292060880B584B000AF7860396000234D
:10160000FB600023BB607B68002B01D1002315E049
:101610007868FEF7C5FE03460133FB603B681B6834
:10162000F8689847B860BB68002B01D1002305E03B
:10163000FA687968B8684AF056FFBB6818461037F0
:10164000BD4680BD80B584B000AF78607B681B6804
:1016500028209847F860FB68002B04D0282200213E
:10166000F86848F085FEFB6818461037BD4680BD17
:1016700080B584B000AF78600023FB603DE07B68FC
:101680001B68FB607B68DB6803F48073002B08D168
:101690007B689B68002B04D07B689B681846FFF72B
:1016A000E7FF7B68DB6803F48073002B0CD17B6859
:1016B0001B69002B08D0154B5B687A6812691046CD
:1016C00098477B6800221A617B68DB6803F400732B
:1016D000002B0CD17B681B6A002B08D00B4B5B687E
:1016E0007A68126A104698477B6800221A62074B94
:1016F0005B6878689847FB687B607B68002BBED18D
:1017000000BF00BF1037BD4680BD00BF04000020F1
:1017100080B400AF2E231846BD465DF8047B7047A9
:1017200080B598B000AF786039604FF000024FF09C
:101730000003C7E914230023BB64FFF7E9FF034656
:1017400087F84F300023FB653B68002B03D03B68D4
:101750001B68002B01D10023A0E00023FB653DE0C6
:101760003B681A683B689968FB6D0B4413441B780F
:10177000452B17DC2B2B40DB2B3B01229A404C4B9B
:101780001340002B14BF01230023DBB2002B0BD12D
:1017900002F00803002B14BF01230023DBB2002B4F
:1017A00011D12AE0652B28D13B681A683B689968FB
:1017B000FB6D0B441344197807F10802FB6D1344C9
:1017C0000A461A7007E007F10802FB6D134497F808
:1017D0004F201A7000BFFB6D0133FB65FB6D3E2B84
:1017E0000DD83B68002B0AD03B689A68FB6D1A4401
:1017F0003B685B689A42B3D301E000BF00E000BFE2
:1018000007F10802FB6D134400221A7007F1480229
:1018100007F108031146184646F006FF87ED140B42
:10182000BA6C07F108039A4201D1002336E07968C7
:10183000D7E91423C1E906231BA3D3E90023D7E981
:101840001401FFF7F7F90346002B04D07B686FF013
:1018500000425A6115E04FF00002164BD7E914011F
:10186000FFF7DEF90346002B04D07B684FF00042FF
:101870005A6106E0D7E91401FFF706FA02467B68D1
:101880005A617B680822DA603B689B68B96C07F193
:1018900008028A1A1A443B689A6001231846603786
:1018A000BD4680BDAFF300800000C0FFFFFFDF41F9
:1018B000E57F00040000E0C180B584B000AF78602F
:1018C00039600023FB600023BB607B68002B03D0E2
:1018D0007B681B68002B01D1002383E07B685B6879
:1018E000002B07D07B689A687B685B689A4201D3BB
:1018F000002377E03B68002B01DA002372E07B686D
:101900009A683B68134401333B607B685B683A68C4
:101910009A4205D87B681A687B689B68134461E02B
:101920007B681B69002B01D000235BE03B68B3F1AF
:10193000804F08D33B68002B03DB6FF00043BB6094
:1019400004E000234EE03B685B00BB607B681B6AE1
:10195000002B18D07B681B6A7A681268B968104639
:101960009847F860FB68002B32D17B68DB697A68A6
:101970001268104698477B6800225A607B680022F4
:101980001A6000232EE07B689B69B8689847F8606E
:10199000FB68002B0DD17B68DB697A681268104602
:1019A00098477B6800225A607B6800221A600023F7
:1019B00018E07B6819687B689B6801331A46F868F1
:1019C0004AF091FD7B68DB697A6812681046984797
:1019D0007B68BA685A607B68FA681A607B689B68A3
:1019E000FA68134418461037BD4680BD90B585B0DF
:1019F00000AF78600023FB607B68002B13D07B680E
:101A00001B68002B0FD07B681A687B689B681344A7
:101A1000FB607B689C68F868FEF7C2FC0346E2182E
:101A20007B689A6000E000BF1437BD4690BD00009F
:101A30002DE9F04387B000AF87ED020B87ED001B67
:101A4000B868FE6826F000413A687E6826F00043D8
:101A5000FFF7FAF80346002B04D0BC68FB6823F0BC
:101A6000004503E03C687B6823F00045C7E9044576
:101A7000D7E90023D7E90201FEF79EFC02460B4698
:101A8000904623F000494FF000020C4BD7E90401C7
:101A9000FEF74AFE02460B4601210C4640464946E7
:101AA000FFF7BEF80346002B01D100231C46E3B22A
:101AB00018461C37BD46BDE8F08300BF0000B03CAF
:101AC000F0B593B000AF786039600023FB637B68AA
:101AD000D3E90623C7E90C2300237B6400233B647E
:101AE00000237B6107F1180300221A605A609A6094
:101AF000DA601A619A82FFF70BFE034687F82F30EF
:101B00004FF000024FF00003C7E902233B68002BAF
:101B100001D10023B4E0D7E90C23D7E90C01FFF78A
:101B20009DF80346002B21D13C6B7B6B23F00045D5
:101B300001231E464FF0FF32534B20462946FFF744
:101B40008DF80346002B0BD14FF0FF324E4B204651
:101B50002946FFF765F80346002B01D100231E46F6
:101B6000F3B283F00103DBB2002B07D007F11403BB
:101B70004649184648F070F878643FE07B685B6936
:101B80001846FEF767FD02460B46D7E90C01FFF742
:101B900033F80346002B09D07B685A6907F1140318
:101BA0003B49184648F058F8786427E007F11400DC
:101BB000D7E90C23374948F04FF8786407F1080259
:101BC00007F114033449184648F066F80346012B20
:101BD0000CD197ED027B97ED0C1BB0EE470AF0EEAF
:101BE000670AFFF725FF0346002B07D107F1140012
:101BF000D7E90C23294948F02FF878647B6C002B37
:101C000002DB7B6C192B01DD002339E07B6C013397
:101C100019463868FFF750FEF863FB6B002B01D1C3
:101C200000232DE000233B641AE007F114023B6C13
:101C300013441B7897F82F209A4205D1FA6B3B6C1E
:101C400013442E221A7008E0FA6B3B6C134407F120
:101C500014013A6C0A4412781A703B6C01333B64ED
:101C60007B6C3A6C9A42E0D3FA6B3B6C13440022D3
:101C70001A703B689A687B6C1A443B689A6001232F
:101C800018464C37BD46F0BDFFFFEF7F0403060842
:101C90000C03060810030608180306081C030608B0
:101CA00080B485B000AF78600023FB600023BB6088
:101CB0000023BB604CE07A68BB6813441B782F2B71
:101CC0000FD97A68BB6813441B78392B09D87A6816
:101CD000BB6813441B781A46FB681344303BFB6017
:101CE0002DE07A68BB6813441B78402B0FD97A68C3
:101CF000BB6813441B78462B09D87A68BB68134429
:101D00001B781A46FB681344373BFB6017E07A6880
:101D1000BB6813441B78602B0FD97A68BB681344E7
:101D20001B78662B09D87A68BB6813441B781A465F
:101D3000FB681344573BFB6001E000230CE0BB68E9
:101D4000022B02D8FB681B01FB60BB680133BB6040
:101D5000BB68032BAFD9FB6818461437BD465DF846
:101D6000047B704780B58AB000AFF860B9607A60D4
:101D700000237B620023FB61FB68BB61002387F8C3
:101D80002330002387F82230002387F821300023F6
:101D900087F82030BA68BB69D31A052B40F3B780A7
:101DA000BB6902331846FFF77BFFF861FB69B3F5A7
:101DB0005C4F04D3FB69B3F5604FC0F0AA80FB69A8
:101DC000B3F5584F37D3FB69B3F55C4F33D2BB69DA
:101DD00006337B6100233B610C2387F82130BA680E
:101DE0007B69D31A052B40F396807B691B785C2BAB
:101DF00040F093807B6901331B78752B40F08D8018
:101E00007B6902331846FFF74BFF38613B69B3F536
:101E10005C4FC0F084803B69B3F5604F7FD2FB69B3
:101E20009A02434B13403A69C2F30902134303F584
:101E300080337B6204E0062387F82130FB697B62F4
:101E40007B6A7F2B03D8012387F823301FE07B6A4E
:101E5000B3F5006F06D2022387F82330C02387F83A
:101E6000203014E07B6AB3F5803F06D2032387F865
:101E70002330E02387F8203009E07B6AB3F5881F20
:101E80004FD2042387F82330F02387F8203097F8C7
:101E90002330013B87F8223015E07B6ADBB203F088
:101EA0003F03DAB27B68196897F822300B4462F07E
:101EB0007F02D2B21A707B6A9B097B6297F822304C
:101EC000013B87F8223097F82230002BE5D197F8B4
:101ED0002330012B09D97B6AD9B27B681B6897F83C
:101EE00020200A43D2B21A7007E07B6ADAB27B681C
:101EF0001B6802F07F02D2B21A707B681A6897F8EA
:101F000023301A447B681A6097F821300BE000BF39
:101F100008E000BF06E000BF04E000BF02E000BF31
:101F200000E000BF002318462837BD4680BD00BF33
:101F300000FC0F0080B58AB000AF786039603B6864
:101F40001A683B689B68013313447B623B681A68DC
:101F50003B689B68013313443B620023FB60002312
:101F6000FB613B681A683B689B6813441B78222B13
:101F700040F0038100233B610023BB6117E03B6A13
:101F80001B785C2B10D13B6A5A1C3B681B68D31A28
:101F90001A463B685B689A4280F0F180BB69013366
:101FA000BB613B6A01333B623B6A01333B623B6886
:101FB0001B683A6AD31A1A463B685B689A4203D296
:101FC0003B6A1B78222BDAD13B681B683A6AD31A2A
:101FD0001A463B685B689A4280F0D3803B6A1B7864
:101FE000222B40F0CE803B681A683B689B68134404
:101FF0003A6AD31A1A46BB69D31A3B613B681B691C
:102000003A69013210469847F861FB69002B00F0ED
:10201000BA80FB69FB6094E07B6A1B785C2B08D07C
:102020007A6A531C7B62FB68591CF96012781A703B
:1020300087E00223FB753A6A7B6AD31A002B40F3D0
:10204000A4807B6A01331B78752B00F3A0805C2B86
:1020500004DA222B5CD02F2B5AD098E05C3B192B52
:1020600000F2958001A252F823F000BF112101086F
:102070008F2101088F2101088F2101088F2101087C
:102080008F210108D52001088F2101088F21010827
:102090008F210108E12001088F2101088F2101080B
:1020A0008F2101088F2101088F2101088F2101084C
:1020B0008F210108ED2001088F2101088F210108DF
:1020C0008F210108F92001088F210108052101084D
:1020D00021210108FB685A1CFA6008221A702CE0C2
:1020E000FB685A1CFA600C221A7026E0FB685A1C26
:1020F000FA600A221A7020E0FB685A1CFA600D226E
:102100001A701AE0FB685A1CFA6009221A7014E06F
:102110007B6A5A1CFB68591CF96012781A700CE033
:1021200007F10C031A46396A786AFFF71BFE03466B
:10213000FB75FB7D002B2CD000BFFB7D7A6A13441E
:102140007B627A6A3B6A9A42FFF466AFFB680022C0
:102150001A707B681022DA607B68FA691A613B6842
:102160001B683A6AD31A1A463B689A603B689B68B8
:102170005A1C3B689A60012320E000BF0AE000BFC0
:1021800008E000BF06E000BF04E000BF02E000BFBF
:1021900000E000BFFB69002B05D03B685B69F86974
:1021A00098470023FB617B6A002B06D03B681B68C5
:1021B0007A6AD31A1A463B689A6000231846283771
:1021C000BD4680BD80B588B000AF7860396000231F
:1021D000FB6100233B610023BB610023FB60002304
:1021E0007B613B68002B01D1002310E17B68002B51
:1021F00011D103213868FFF75FFB38613B69002B81
:1022000001D1002303E13B69834A11889278198048
:102210009A700123FBE07B68FB6124E0FB691B787B
:10222000222B0FDC082B13DB083B7C4A22FA03F33A
:1022300003F00103002B14BF01230023DBB2002BAA
:1022400002D105E05C2B03D17B6901337B6107E0A0
:10225000FB691B781F2B02D87B6905337B6100BFAC
:10226000FB690133FB61FB691B78002BD6D1FA694E
:102270007B68D31A1A467B691344FB60FB680333FF
:1022800019463868FFF718FB38613B69002B01D10C
:102290000023BCE07B69002B17D13B6922221A7016
:1022A0003B690133FA68796818464AF01CF9FB6803
:1022B00001333A69134422221A70FB6802333A69E7
:1022C000134400221A700123A1E03B6922221A70F4
:1022D0003B690133BB617B68FB6186E0FB691B786E
:1022E0001F2B0CD9FB691B78222B08D0FB691B78AC
:1022F0005C2B04D0FB691A78BB691A706FE0BB696C
:102300005A1CBA615C221A70FB691B78222B3DDCD7
:10231000082B59DB083B1A2B56D801A252F823F0A0
:10232000A1230108C1230108B1230108C923010821
:10233000A9230108B9230108C9230108C9230108F9
:10234000C9230108C9230108C9230108C9230108B9
:10235000C9230108C9230108C9230108C9230108A9
:10236000C9230108C9230108C9230108C923010899
:10237000C9230108C9230108C9230108C923010889
:10238000C9230108C9230108992301085C2B1BD12B
:10239000BB695C221A7022E0BB6922221A701EE01F
:1023A000BB6962221A701AE0BB6966221A7016E0D5
:1023B000BB696E221A7012E0BB6972221A700EE0BD
:1023C000BB6974221A700AE0FB691B781A4614492B
:1023D000B86947F041FCBB690433BB6100BFFB69CE
:1023E0000133FB61BB690133BB61FB691B78002BC7
:1023F0007FF474AFFB6801333A69134422221A70E8
:10240000FB6802333A69134400221A70012318460C
:102410002037BD4680BD00BF2403060837000004F6
:102420002803060880B582B000AF786039607B6809
:102430001B6939681846FFF7C5FE0346184608377A
:10244000BD4680BD80B483B000AF78607B68002B50
:1024500003D07B681B68002B01D100232CE07B6834
:10246000002B05D07B689A687B685B689A4206D32C
:102470007B6821E07B689B685A1C7B689A607B685C
:10248000002B0DD07B689A687B685B689A4207D204
:102490007B681A687B689B6813441B78202BE9D9FA
:1024A0007B689A687B685B689A4204D17B689B680A
:1024B0005A1E7B689A607B6818460C37BD465DF8EB
:1024C000047B704780B582B000AF78607B68002BDA
:1024D00007D07B681B68002B03D07B689B68002BB0
:1024E00001D000231CE07B68002B18D07B689B6820
:1024F0001A1D7B685B689A4211D27B681A687B68F8
:102500009B68134403220849184648F047F90346DC
:10251000002B04D17B689B68DA1C7B689A607B681F
:1025200018460837BD4680BD3003060880B586B022
:1025300000AFF860B9607A60FB68002B01D100231E
:102540000CE0F868FDF72CFF034601337B617B68E4
:10255000BA687969F86800F005F803461846183734
:10256000BD4680BD80B58EB000AFF860B9607A60BE
:102570003B6007F1180300221A605A609A60DA6023
:102580001A615A619A6100237B63414B00221A60F1
:102590003F4B00225A60FB68002B42D0BB68002BE7
:1025A0003FD0FB68BB61BB68FB6100233B62394ADB
:1025B00007F1280307CA83E807003648FFF742F807
:1025C00078637B6B002B2ED007F118031846FFF7BA
:1025D00079FF03461846FFF735FF03461946786B27
:1025E00000F002F90346002B1FD03B68002B0ED0F1
:1025F00007F118031846FFF725FF3A6AFB699A426C
:1026000015D2BA693B6A13441B78002B0FD17B6843
:10261000002B04D0BA693B6A1A447B681A607B6B52
:1026200031E000BF04E000BF02E000BF00E000BFF7
:102630007B6B002B02D0786BFFF71AF8FB68002B3E
:1026400020D0FB683B6100237B613A6AFB699A42B8
:1026500002D23B6A7B6105E0FB69002B02D0FB697B
:10266000013B7B617B68002B04D03A697B691A448B
:102670007B681A60064B1A4607F1100393E80300C3
:1026800082E80300002318463837BD4680BD00BFEE
:102690000C0400200400002080B582B000AF7860F8
:1026A000002200217868FFF741FF034618460837EB
:1026B000BD4680BD80B58EB000AFF860B9607A606D
:1026C00000237B6307F1100324220021184647F002
:1026D0004FFE7B681B683B4A1268104698470346CA
:1026E0003B61384B1B687B61BB687B627A6807F192
:1026F000280307CA83E807003B69002B42D007F193
:1027000010031946F86800F05BF90346002B3BD034
:1027100007F110031846FFF769F97B689B68002BE7
:102720000DD07B689B683869BA69013211469847B9
:1027300078637B6B002B29D000233B6120E07B6812
:102740001B68BA6901321046984778637B6B002B8F
:102750001ED03969BB695A1C7B69934228BF134656
:102760001A46786B49F0BFFEBB697A6B13440022AE
:102770001A707B685B683A691046984700233B6192
:102780007B6B1AE000BF04E000BF02E000BF00E086
:1027900000BF3B69002B06D07B685B683A69104636
:1027A000984700233B617B6B002B05D07B685B68FF
:1027B000786B984700237B63002318463837BD4663
:1027C00080BD00BFB455060880B582B000AF786008
:1027D000044A01217868FFF76DFF03461846083761
:1027E000BD4680BD0400002080B582B000AF786097
:1027F00039603B68002B03D03B681B68002B01D17C
:102800000023D2E03B68002B1DD03B689B681A1D5B
:102810003B685B689A4216D83B681A683B689B68BD
:10282000134404226349184647F0B8FF0346002BBF
:1028300009D17B680422DA603B689B681A1D3B68FB
:102840009A600123B1E03B68002B1DD03B689B6878
:102850005A1D3B685B689A4216D83B681A683B6809
:102860009B68134405225449184647F097FF0346D6
:10287000002B09D17B680122DA603B689B685A1DF6
:102880003B689A60012390E03B68002B20D03B68B6
:102890009B681A1D3B685B689A4219D83B681A68A6
:1028A0003B689B68134404224449184647F076FF6E
:1028B0000346002B0CD17B680222DA607B68012280
:1028C0005A613B689B681A1D3B689A6001236CE063
:1028D0003B68002B13D03B689A683B685B689A4260
:1028E0000DD23B681A683B689B6813441B78222B07
:1028F00005D139687868FFF71DFB034655E03B6852
:10290000002B23D03B689A683B685B689A421DD2D3
:102910003B681A683B689B6813441B782D2B0FD0CB
:102920003B681A683B689B6813441B782F2B0DD9B2
:102930003B681A683B689B6813441B78392B05D8A1
:1029400039687868FEF7ECFE03462EE03B68002B02
:1029500013D03B689A683B685B689A420DD23B682B
:102960001A683B689B6813441B785B2B05D1396858
:10297000786800F009F9034617E03B68002B13D094
:102980003B689A683B685B689A420DD23B681A685C
:102990003B689B6813441B787B2B05D139687868AA
:1029A00000F03CFA034600E0002318460837BD4615
:1029B00080BD00BF04030608340306083C03060874
:1029C00080B584B000AF786039600023FB607B681D
:1029D000002B02D03B68002B01D10023C9E07B68AB
:1029E000DB68DBB2802B00F08E80802B00F3C08090
:1029F000202B49DC002B40F3BB80013B1F2B00F256
:102A0000B78001A252F823F0B32A0108D72A01089F
:102A1000712B01088F2A0108712B0108712B010805
:102A2000712B0108FB2A0108712B0108712B010889
:102A3000712B0108712B0108712B0108712B010802
:102A4000712B01084D2B0108712B0108712B010816
:102A5000712B0108712B0108712B0108712B0108E2
:102A6000712B0108712B0108712B0108712B0108D2
:102A7000712B0108712B0108712B0108712B0108C2
:102A8000712B0108592B0108402B6BD070E00521F8
:102A90003868FEF711FFF860FB68002B01D10023B6
:102AA00067E0FB68354A1068186012791A710123D3
:102AB0005FE006213868FEF7FFFEF860FB68002B38
:102AC00001D1002355E0FB682D4A106818609288F8
:102AD0009A8001234DE005213868FEF7EDFEF8608D
:102AE000FB68002B01D1002343E0FB68254A1068F6
:102AF000186012791A7101233BE039687868FEF793
:102B0000DFFF034635E00023BB607B681B69002BB9
:102B100001D100232DE07B681B691846FDF740FCBE
:102B200003460133BB60B9683868FEF7C5FEF8603C
:102B3000FB68002B01D100231BE07B681B69BA688E
:102B40001946F86849F0CFFC012312E0396878682B
:102B5000FFF768FC03460CE03968786800F0D8F8A5
:102B6000034606E03968786800F064FA034600E03E
:102B7000002318461037BD4680BD00BF0403060879
:102B8000340306083C03060880B586B000AF7860C1
:102B9000396000237B6100233B613B68DB68B3F550
:102BA0007A7F01D30023AFE03B68DB685A1C3B68A7
:102BB000DA603B681A683B689B6813441B785B2BA0
:102BC00040F094803B689B685A1C3B689A60386868
:102BD000FFF738FC3B68002B0DD03B689A683B68D8
:102BE0005B689A4207D23B681A683B689B6813444B
:102BF0001B785D2B61D03B68002B05D03B689A6841
:102C00003B685B689A4205D33B689B685A1E3B68E9
:102C10009A6072E03B689B685A1E3B689A603B680A
:102C200010331846FEF70EFDF860FB68002B5FD0EE
:102C30007B69002B04D1FB687B617B693B6107E00A
:102C40003B69FA681A60FB683A695A60FB683B6145
:102C50003B689B685A1C3B689A603868FFF7F2FB38
:102C600039683869FFF7C0FD0346002B42D0386849
:102C7000FFF7E8FB3B68002B0DD03B689A683B6888
:102C80005B689A4207D23B681A683B689B681344AA
:102C90001B782C2BC3D03B68002B2DD03B689A6847
:102CA0003B685B689A4227D23B681A683B689B681E
:102CB00013441B785D2B1FD100E000BF3B68DB682D
:102CC0005A1E3B68DA607B69002B02D07B693A6947
:102CD0005A607B682022DA607B687A699A603B6878
:102CE0009B685A1C3B689A6001230DE000BF04E01A
:102CF00000BF02E000BF00E000BF7B69002B02D0F4
:102D00007869FEF7B5FC002318461837BD4680BD2C
:102D100080B586B000AF7860396000237B61002306
:102D2000FB607B689B683B613B68002B01D1002303
:102D300070E001213868FEF7BFFD78617B69002BE8
:102D400001D1002366E07B695B221A703B689B68B7
:102D50005A1C3B689A603B68DB685A1C3B68DA6027
:102D60003DE039683869FFF72BFE0346002B01D19F
:102D700000234FE03868FEF739FE3B691B68002BE3
:102D80002AD03B685B69002B01D0022300E00123BD
:102D9000FB60FB68013319463868FEF78DFD7861EA
:102DA0007B69002B01D1002334E07B695A1C7A61D6
:102DB0002C221A703B685B69002B04D07B695A1C7B
:102DC0007A6120221A707B6900221A703B689A6827
:102DD000FB681A443B689A603B691B683B613B692E
:102DE000002BBED102213868FEF766FD78617B6951
:102DF000002B01D100230DE07B695A1C7A615D2212
:102E00001A707B6900221A703B68DB685A1E3B68A7
:102E1000DA60012318461837BD4680BD80B586B0FC
:102E200000AF7860396000237B6100233B613B6821
:102E3000DB68B3F57A7F01D30023F7E03B68DB68FA
:102E40005A1C3B68DA603B68002B00F0DB803B6873
:102E50009A683B685B689A4280F0D4803B681A6845
:102E60003B689B6813441B787B2B40F0CB803B680E
:102E70009B685A1C3B689A603868FFF7E3FA3B6826
:102E8000002B0ED03B689A683B685B689A4208D278
:102E90003B681A683B689B6813441B787D2B00F0E5
:102EA00098803B68002B05D03B689A683B685B685C
:102EB0009A4205D33B689B685A1E3B689A60AEE015
:102EC0003B689B685A1E3B689A603B681033184603
:102ED000FEF7B8FBF860FB68002B00F095807B697B
:102EE000002B04D1FB687B617B693B6107E03B6998
:102EF000FA681A60FB683A695A60FB683B613B6894
:102F0000002B00F083803B689B685A1C3B685B6821
:102F10009A427BD23B689B685A1C3B689A6038682F
:102F2000FFF790FA39683869FFF704F80346002B79
:102F30006ED03868FFF786FA3B691A693B691A62F6
:102F40003B6900221A613B68002B63D03B689A689A
:102F50003B685B689A425DD23B681A683B689B6835
:102F600013441B783A2B55D13B689B685A1C3B682D
:102F70009A603868FFF766FA39683869FFF734FCF9
:102F80000346002B48D03868FFF75CFA3B68002BFB
:102F90000DD03B689A683B685B689A4207D23B68F1
:102FA0001A683B689B6813441B782C2B8DD03B68B8
:102FB000002B33D03B689A683B685B689A422DD2FD
:102FC0003B681A683B689B6813441B787D2B25D1AE
:102FD00000E000BF3B68DB685A1E3B68DA607B6933
:102FE000002B02D07B693A695A607B684022DA6024
:102FF0007B687A699A603B689B685A1C3B689A6058
:10300000012313E000BF0AE000BF08E000BF06E0B4
:1030100000BF04E000BF02E000BF00E000BF7B692A
:10302000002B02D07869FEF723FB002318461837DF
:10303000BD4680BD80B588B000AF786039600023A0
:10304000FB610023FB607B689B68BB613B68002BD6
:1030500001D1002308E13B685B69002B01D002230A
:1030600000E00123FB60FB68013319463868FEF776
:1030700023FCF861FB69002B01D10023F4E0FB691C
:103080005A1CFA617B221A703B68DB685A1C3B6849
:10309000DA603B685B69002B04D0FB695A1CFA615B
:1030A0000A221A703B689A68FB681A443B689A6067
:1030B000A0E03B685B69002B22D03B68DB681946C7
:1030C0003868FEF7F9FBF861FB69002B01D100239A
:1030D000CAE000237B6107E0FB695A1CFA61092200
:1030E0001A707B6901337B613B68DB687A699A42BD
:1030F000F2D33B689A683B68DB681A443B689A6085
:10310000BB691B6A39681846FFF75CF80346002B59
:1031100001D10023A8E03868FEF768FC3B685B69D2
:10312000002B01D0022300E00123FB60F96838681E
:10313000FEF7C2FBF861FB69002B01D1002393E08D
:10314000FB695A1CFA613A221A703B685B69002BD2
:1031500004D0FB695A1CFA6109221A703B689A680C
:10316000FB681A443B689A603968B869FFF728FC25
:103170000346002B01D1002376E03868FEF736FCC9
:103180003B685B69002B01D0012200E00022BB6993
:103190001B68002B01D0012300E000231344FB60D7
:1031A000FB68013319463868FEF786FBF861FB6956
:1031B000002B01D1002357E0BB691B68002B04D012
:1031C000FB695A1CFA612C221A703B685B69002B60
:1031D00004D0FB695A1CFA610A221A70FB690022AA
:1031E0001A703B689A68FB681A443B689A60BB692E
:1031F0001B68BB61BB69002B7FF45BAF3B685B69FD
:10320000002B03D03B68DB68013300E00223194642
:103210003868FEF751FBF861FB69002B01D10023F0
:1032200022E03B685B69002B10D000233B6107E084
:10323000FB695A1CFA6109221A703B6901333B6130
:103240003B68DB68013B3A699A42F1D3FB695A1C3F
:10325000FA617D221A70FB6900221A703B68DB68F4
:103260005A1E3B68DA60012318462037BD4680BDF0
:1032700080B586B000AFF860B9607A6000237B61EA
:10328000FB68002B02D0BB68002B01D1002333E088
:10329000FB689B687B617B68002B17D002E07B6931
:1032A0001B687B617B69002B1CD07B691B6A002B30
:1032B00018D07B691B6A1946B868FDF711F80346F8
:1032C000002BECD10EE07B691B687B617B69002BD6
:1032D00008D07B691B6A1946B868FEF71FF90346D8
:1032E000002BF0D17B69002B03D07B691B6A002B7C
:1032F00001D1002300E07B6918461837BD4680BD28
:1033000080B582B000AF7860396001223968786892
:10331000FFF7AEFF034618460837BD4680BD80B4B0
:1033200083B000AF786039607B683A681A603B68A8
:103330007A685A6000BF0C37BD465DF8047B704761
:1033400080B584B000AF786039600023FB603B68D3
:10335000002B06D07B68002B03D07A683B689A422A
:1033600001D100231EE07B689B68FB60FB68002B9B
:1033700009D17B683A689A603B683A685A603B6852
:1033800000221A600DE0FB685B68002B09D0FB6827
:103390005B6839681846FFF7C2FF7B689B683A682C
:1033A0005A60012318461037BD4680BD80B483B0F3
:1033B00000AF78607B6818460C37BD465DF8047B2B
:1033C000704780B586B000AFF860B9607A603B6046
:1033D00000237B6100233B61FB68002B09D0BB68A5
:1033E000002B06D07B68002B03D0FA687B689A42DA
:1033F00001D1002336E03B6A002B09D0B868FFF703
:10340000D5FF78617B68DB6843F400733B610EE0B5
:103410003968B868FEF7EEF878617B69002B01D156
:1034200000231FE07B68DB6823F400733B617B684B
:10343000DB6803F40073002B09D17B681B6A002B47
:1034400005D03B685B687A68126A104698477B68CB
:103450007A691A627B683A69DA607968F868FFF716
:103460006FFF034618461837BD4680BD80B586B04D
:1034700002AFF860B9607A6000230093054B7A6868
:10348000B968F868FFF79DFF034618461037BD4638
:1034900080BD00BF0400002080B586B002AF786018
:1034A000396000F07FF8F86000230093094BFA6858
:1034B00039687868FFF785FF0346002B01D0FB6869
:1034C00003E0F868FEF7D4F8002318461037BD462D
:1034D00080BD00BF0400002080B586B002AF7860D8
:1034E000396000F073F8F86000230093094BFA6824
:1034F00039687868FFF765FF0346002B01D0FB6849
:1035000003E0F868FEF7B4F8002318461037BD460C
:1035100080BD00BF0400002080B588B002AFF86015
:10352000B96087ED000B97ED000B00F065F878614E
:1035300000230093094B7A69B968F868FFF741FFE7
:103540000346002B01D07B6903E07869FEF790F811
:10355000002318461837BD4680BD00BF0400002078
:1035600080B588B002AFF860B9607A60786800F022
:103570008BF8786100230093094B7A69B968F86881
:10358000FFF71FFF0346002B01D07B6903E078693A
:10359000FEF76EF8002318461837BD4680BD00BF01
:1035A0000400002080B582B000AF0748FEF74AF85B
:1035B00078607B68002B02D07B680222DA607B682F
:1035C00018460837BD4680BD0400002080B582B093
:1035D00000AF0748FEF736F878607B68002B02D012
:1035E0007B680122DA607B6818460837BD4680BDDB
:1035F000040000200000000080B584B000AF87ED1B
:10360000000B1F48FEF71EF8F860FB68002B2CD05B
:10361000FB680822DA60F968D7E90023C1E90623CC
:1036200015A3D3E90023D7E90001FDF703FB034607
:10363000002B04D0FB686FF000425A6115E04FF098
:103640000002104BD7E90001FDF7EAFA0346002B10
:1036500004D0FB684FF000425A6106E0D7E9000150
:10366000FDF712FB0246FB685A61FB6818461037EB
:10367000BD4680BDAFF300800000C0FFFFFFDF410B
:10368000040000200000E0C180B584B000AF786085
:103690000F48FDF7D7FFF860FB68002B12D0FB68DE
:1036A0001022DA600A497868FDF7A4FF0246FB6839
:1036B0001A61FB681B69002B04D1F868FDF7D8FF7D
:1036C000002300E0FB6818461037BD4680BD00BFF0
:1036D0000400002080B582B000AF0748FDF7B2FFBC
:1036E00078607B68002B02D07B684022DA607B68C0
:1036F00018460837BD4680BD0400002080B483B062
:1037000000AF78607B68002B01D1002307E07B6865
:10371000DB68DBB2022B0CBF01230023DBB21846AF
:103720000C37BD465DF8047B704780B483B000AFB2
:1037300078607B68002B01D1002307E07B68DB68A1
:10374000DBB2082B0CBF01230023DBB218460C3779
:10375000BD465DF8047B704780B483B000AF7860ED
:103760007B68002B01D1002307E07B68DB68DBB2BC
:10377000102B0CBF01230023DBB218460C37BD46CB
:103780005DF8047B7047000080B582B000AF7860C0
:10379000044B5B687868984700237B6000BF08375C
:1037A000BD4680BD0400002080B489B000AFF86041
:1037B000B9607A60FB68FB617B68DB43BB611AE040
:1037C000FB695A1CFA611B781A46BB695340BB61FE
:1037D00000237B610CE0BB695A08BB6903F001035D
:1037E00059420E4B0B405340BB617B6901337B61F7
:1037F0007B69072BEFDDBB685A1EBA60002B14BF34
:1038000001230023DBB2002BDAD1BB69DB4318466E
:103810002437BD465DF8047B704700BF2083B8EDB8
:1038200080B48BB000AF786039604FF0FF337B61BC
:103830000023FB602C4B1B6B2B4A43F48053136318
:10384000294B1B6B03F48053FB60FB68274B012261
:103850009A6000237B6209E07B6A9B007A681344CC
:10386000224A1B6813607B6A01337B623B689B08BA
:103870007A6A9A42F0D33B6803F003033B613B69E9
:10388000002B20D000233B623A683B69D31A7A6848
:103890001344FB610023BB610EE0FB695A1CFA6113
:1038A0001B781A46BB69DB0002FA03F33A6A13433A
:1038B0003B62BB690133BB61BA693B699A42ECD395
:1038C0000A4A3B6A1360094B1B687B61064B1B6B02
:1038D000054A23F4805313637B6918462C37BD4691
:1038E0005DF8047B704700BF0038024000300240A2
:1038F00080B582B000AF3B4600221A605A600F4B81
:103900000F4A1A600D480DF04DF90346002B01D007
:103910000BF0DCF900233B6000237B603B46002278
:10392000194606480DF0C0F90346002B01D00BF0F4
:10393000CDF900BF0837BD4680BD00BF140400208C
:103940000074004080B58AB000AF786007F11403BE
:1039500000221A605A609A60DA601A617B681B68FC
:103960001B4A93422FD100233B611A4B1B6C194A0F
:1039700043F000531364174B1B6C03F000533B617F
:103980003B690023FB60134B1B6B124A43F001039E
:103990001363104B1B6B03F00103FB60FB681023E8
:1039A0007B610323BB610023FB6107F1140319460C
:1039B00009480FF013FB0022052136200DF0C8F84E
:1039C00036200DF0E1F800BF2837BD4680BD00BFAE
:1039D00000740040003802400000024080B400AF94
:1039E000BFF34F8F00BF064BDB6803F4E06204496E
:1039F000044B1343CB60BFF34F8F00BF00BFFDE705
:103A000000ED00E00400FA0580B582B000AF7860F8
:103A10007868FCF7C5FC034618460837BD4680BDEC
:103A200080B483B000AF786039603B6818460C37CB
:103A3000BD465DF8047B704780B586B002AFF86084
:103A4000B9607A60F8683BF07CFC02467B680093C2
:103A5000BB680449044801F0FFFE034618461037CE
:103A6000BD4680BD440306080188050890B585B0B1
:103A700000AF786039600A21386801F033FF0446EE
:103A800007F10C03184628F0B2F807F10C030022E6
:103A9000214678683BF0A2F907F10C03184628F09C
:103AA000A8F8002178683BF02CFA044678683BF0CF
:103AB000C3F903463A681946204601F053FF00BF98
:103AC00078681437BD4690BD80B483B000AF78608D
:103AD0007B681B6BD3F8843018460C37BD465DF805
:103AE000047B704780B582B000AF7860786801F0E1
:103AF0009FFF7B6818460837BD4680BD80B582B001
:103B000000AF78607B68184601F082FF7B6818463A
:103B10000837BD4680BD80B582B000AF78607B6855
:103B20001846FFF7EBFF7B6818460837BD4680BD97
:103B300080B582B000AF7860786801F0CEFF7B6816
:103B400018460837BD4680BD80B582B000AF7860AA
:103B50007B68184601F0B1FF7B6818460837BD4600
:103B600080BD80B582B000AF78607B681846FFF7F3
:103B7000EBFF7B6818460837BD4680BD80B582B034
:103B800000AF78607B6800221A747B68183318468F
:103B90003BF016F97B68002283F830207B681846DA
:103BA0000837BD4680BD80B582B000AF78607B68C5
:103BB000183318463BF03AF97B6818460837BD467B
:103BC00080BD0000B0B5ADF51A7D22AF07F5F073EA
:103BD000A3F5EE73186007F5F073A3F5F0731960A1
:103BE00007F148031846FFF796FF07F13C03184614
:103BF000FFF7B7FF0023C7F8DC31CA483BF01EF9D6
:103C0000C7F8C801002387F8DB3126E0D7F8C421C4
:103C1000D7F8DC31D31A013307F5F072A2F5C6707C
:103C200007F5F072A2F5F071D7F8DC2109683BF0D6
:103C300037FC07F1540207F148031146184601F01A
:103C400092FF07F1540318463BF0F0F8D7F8C4216F
:103C5000D7F8C8311344C7F8DC3107F5F073A3F582
:103C6000F073D7F8DC21AF4918683BF09EFBC7F82A
:103C7000C401D7F8C431B3F1FF3F14BF01230023BF
:103C8000DBB2002BC2D107F14803184601F07CFFDC
:103C90000346002B14BF01230023DBB2002B00F0EE
:103CA000FA8207F14803184601F06EFF0346C7F891
:103CB000C0310023C7F8D431E5E20023C7F8DC3176
:103CC0000023C7F8C4310023C7F8BC310023C7F86C
:103CD000B8310023C7F8B4310023C7F8B03100234E
:103CE000C7F8AC3107F108031846FFF747FF8E48C5
:103CF0003BF0A4F8C7F8C801D7F8D42107F148036E
:103D00001146184601F056FF034600228649184620
:103D10003BF04BFBC7F8C401D7F8C431C7F8BC313E
:103D2000D7F8C431B3F1FF3F13D107F108031833BB
:103D30007E4918463BF001FA012387F8DB3107F191
:103D4000080207F13C031146184601F046FF002423
:103D50008EE2D7F8C421D7F8C8311344C7F8DC3154
:103D600073483BF06BF8C7F8C801D7F8D42107F1C6
:103D700048031146184601F01DFF0346D7F8DC2121
:103D80006B4918463BF011FBC7F8C401D7F8C431A2
:103D9000C7F8B831D7F8C431B3F1FF3F13D107F1F9
:103DA00008031833634918463BF0C7F9012387F825
:103DB000DB3107F1080207F13C031146184601F018
:103DC0000CFF002454E2D7F8C421D7F8C8311344BB
:103DD000C7F8DC3158483BF031F8C7F8C801D7F8CC
:103DE000D42107F148031146184601F0E3FE0346CB
:103DF000D7F8DC21504918463BF0D7FAC7F8C40180
:103E0000D7F8C431C7F8B431D7F8C431B3F1FF3FA4
:103E100013D107F108031833484918463BF08DF9D0
:103E2000012387F8DB3107F1080207F13C03114653
:103E3000184601F0D2FE00241AE2D7F8C421D7F8C0
:103E4000C8311344C7F8DC313D483AF0F7FFC7F8F2
:103E5000C801D7F8D42107F148031146184601F0EC
:103E6000A9FE0346D7F8DC21354918463BF09DFAF8
:103E7000C7F8C401D7F8C431C7F8B031D7F8C43196
:103E8000B3F1FF3F13D107F1080318332D4918464A
:103E90003BF053F9012387F8DB3107F1080207F102
:103EA0003C031146184601F098FE0024E0E1D7F8E3
:103EB000C421D7F8C8311344C7F8DC3119483AF0A7
:103EC000BDFFC7F8C801D7F8D42107F14803114650
:103ED000184601F06FFE0346D7F8DC211149184659
:103EE0003BF063FAC7F8C401D7F8C431C7F8AC3166
:103EF000D7F8C431B3F1FF3F28D107F108031833D5
:103F0000114918463BF019F9012387F8DB3107F115
:103F1000080207F13C031146184601F05EFE00243A
:103F2000A6E100BF8C0400202C0400204C030608EE
:103F300044040020640306085C0400207C03060897
:103F40007404002094030608AC030608D7F8D421B3
:103F500007F148031146184601F02CFE0446D7F835
:103F6000BC31591CD7F8B821D7F8BC31D31A013B62
:103F700007F5F072A2F5BA700A4621463BF090FAB6
:103F800007F16C03184601F019FC034687F8AB31C2
:103F900007F16C0318463AF049FF97F8AB31002B54
:103FA00000F05381D7F8D42107F148031146184691
:103FB00001F000FE0446D7F8BC31591CD7F8B821EF
:103FC000D7F8BC31D31A013B07F5F072A2F5AE70F9
:103FD0000A4621463BF064FA07F184030A220021D5
:103FE0001846FFF729FD03461A4607F5F073A3F5B7
:103FF000EC731A6007F1840318463AF017FFD7F8FC
:10400000D42107F148031146184601F0D3FD0446B8
:10401000D7F8B831591CD7F8B421D7F8B831D31A2A
:10402000013B07F5F072A2F5A2700A4621463BF06B
:1040300037FA07F19C03184601F0C0FB034687F8E6
:10404000AB3107F19C0318463AF0F0FE97F8AB311C
:10405000002B00F0EF80D7F8D42107F14803114678
:10406000184601F0A7FD0446D7F8B831591CD7F817
:10407000B421D7F8B831D31A013B07F5F072A2F595
:1040800096700A4621463BF00BFA07F1B4030A2268
:1040900000211846FFF7D0FC03461A4607F5F073D7
:1040A000A3F5EC735A6007F1B40318463AF0BEFE6C
:1040B000D7F8D42107F148031146184601F07AFDDC
:1040C0000446D7F8B431591CD7F8B021D7F8B43129
:1040D000D31A013B07F5F072A2F58A700A46214611
:1040E0003BF0DEF907F1CC03184601F067FB03460D
:1040F00087F8AB3107F1CC0318463AF097FE97F8F2
:10410000AB31002B00F08B80D7F8D42107F14803A6
:104110001146184601F04EFD0446D7F8B431591C3B
:10412000D7F8B021D7F8B431D31A013B07F1E40036
:104130000A4621463BF0B4F907F1E4030A220021C4
:104140001846FFF779FC03461A4607F5F073A3F506
:10415000EC739A6007F1E40318463AF067FED7F86B
:10416000D42107F148031146184601F023FD044607
:10417000D7F8B031591CD7F8AC21D7F8B031D31AE1
:10418000013B07F1FC000A4621463BF089F907F1A3
:10419000FC03184601F012FB034687F8AB3107F128
:1041A000FC0318463AF042FE97F8AB31002B2BD0B7
:1041B000D7F8D42107F148031146184601F0FAFC5C
:1041C0000446D7F8B031591CD7F8AC21D7F8B03134
:1041D000D31A013B07F58A700A4621463BF060F985
:1041E00007F58A730A2200211846FFF725FC0346CB
:1041F0001A4607F5F073A3F5EC73DA6007F58A73D6
:1042000018463AF013FE2AE007F108031833D349A1
:1042100018463AF092FF012387F8DB311FE007F1DF
:1042200008031833CE4918463AF087FF012387F870
:10423000DB3114E007F108031833CA4918463AF095
:104240007CFF012387F8DB3109E007F1080318330D
:10425000C54918463AF071FF012387F8DB3107F1B1
:10426000080207F13C031146184601F0B6FC012490
:1042700007F108031846FFF796FC012CD7F8D43154
:104280000133C7F8D431D7F8D421D7F8C0319A42D6
:10429000FFF613AD1BE007F108031846FFF76EFCAD
:1042A00007F108031833B14918463AF046FF07F101
:1042B000080207F13C031146184601F08EFC012369
:1042C00087F8DB3107F108031846FFF76CFC07F1AC
:1042D0003C03184601F0A8FC0346C7F8A43197F840
:1042E000DB3183F00103DBB2002B01F04F810023AF
:1042F000C7F8D03101F043B9D7F8D02107F13C031A
:104300001146184601F0A6FC03461B68013B1D2B15
:1043100001F2068101A252F823F000BF9543010883
:104320003145010889450108215501086146010808
:104330005948010857550108194A0108694B0108F5
:10434000554C01080D4D0108554D0108994D0108C6
:10435000D14D0108214E0108714E0108C14E0108DE
:1043600021550108215501080D4F0108C54F0108CD
:104370003351010899510108FF510108B152010858
:1043800021550108955301083354010821550108AE
:10439000AB540108D7F8D02107F13C031146184669
:1043A00001F058FC03465B68012B0CBF012300237E
:1043B000DBB2002B2CD06E4B1B68184604F03DFB83
:1043C00003461C46D7F8D02107F13C031146184696
:1043D00001F040FC034622465A61D7F8D02107F18C
:1043E0003C031146184601F035FC034601221A74BD
:1043F000D7F8D02107F13C031146184601F02AFCFA
:10440000034618335B4918463AF097FE01F0B2B8FC
:10441000574B1B68184603F027F90346012B0CBFC6
:1044200001230023DBB2002B1BD0D7F8D02107F1EA
:104430003C031146184601F00DFC034618334E4963
:1044400018463AF07AFED7F8D02107F13C0311461E
:10445000184601F0FFFB0346012283F8302001F0EB
:1044600089B8D7F8D02107F13C031146184601F06E
:10447000F1FB03469B68002B02D0012B1BD046E0CA
:104480003B4B1B680021184603F07CFD384B1B6832
:104490000121184603F00AFDD7F8D02107F13C03AB
:1044A0001146184601F0D6FB034618333149184629
:1044B0003AF043FE3AE02E4B1B680121184603F008
:1044C00061FD2B4B1B68184604F030FF0346002BA0
:1044D0000ED0D7F8D02107F13C031146184601F061
:1044E000B9FB03461833234918463AF026FE1DE06F
:1044F000D7F8D02107F13C031146184601F0AAFB7A
:10450000034618331D4918463AF017FE0EE0D7F857
:10451000D02107F13C031146184601F09BFB0346EE
:104520001833174918463AF008FE00BF01F022B8C8
:104530000F4B1B68184604F087F8D7F8D02107F115
:104540003C031146184601F085FB034618330D491C
:1045500018463AF0F2FD01F00DB800BFC40306089A
:10456000E0030608FC0306081804060834040608DD
:10457000480C002048040608500406086004060899
:104580006C04060874040608D7F8D02107F13C0330
:104590001146184601F05EFB03465B68002B0CBF1A
:1045A00001230023DBB2002B2FD0CD4B1C68D7F8A2
:1045B000D02107F13C031146184601F04BFB03469E
:1045C0009B681946204604F04DF8C54B1C68D7F887
:1045D000D02107F13C031146184601F03BFB03468E
:1045E000DB681946204604F0CCF8D7F8D02107F153
:1045F0003C031146184601F02DFB03461833B94918
:1046000018463AF09AFD00F0B5BFB54B1D68D7F8D3
:10461000D02107F13C031146184601F01BFB04466C
:10462000284604F09DF903466361D7F8D02107F1CD
:104630003C031146184601F00DFB034601221A7493
:10464000D7F8D02107F13C031146184601F002FBD0
:1046500003461833A34918463AF06FFD00F08ABFAD
:10466000D7F8D02107F13C031146184601F0F2FAC1
:1046700003465B68032B00F2D28001A252F823F0BC
:1046800091460108E94601083F47010893470108A0
:10469000934B1B68184604F0EAF903461C46D7F80A
:1046A000D02107F13C031146184601F0D3FA034626
:1046B00022465A61D7F8D02107F13C03114618462B
:1046C00001F0C8FA034601221A74D7F8D02107F185
:1046D0003C031146184601F0BDFA034618338149E0
:1046E00018463AF02AFDB5E07D4B1B68184604F0E9
:1046F00067F90446D7F8D02107F13C031146184664
:1047000001F0A8FA034622465A61D7F8D02107F1F2
:104710003C031146184601F09DFA034601221A7423
:10472000D7F8D02107F13C031146184601F092FA60
:10473000034618336B4918463AF0FFFC8AE0684B91
:104740001D68D7F8D02107F13C031146184601F047
:1047500081FA0446284604F0CDFA03466361D7F88F
:10476000D02107F13C031146184601F073FA0346C5
:1047700001221A74D7F8D02107F13C0311461846DC
:1047800001F068FA03461833564918463AF0D5FC4A
:1047900060E0534B1B68184602F066FF03461C4658
:1047A000D7F8D02107F13C031146184601F052FA20
:1047B000034622465A61D7F8D02107F13C0311463F
:1047C000184601F047FA034601221A74444B1B684D
:1047D000184602F08DFF034683F00103DBB2002B85
:1047E0000ED0D7F8D02107F13C031146184601F04E
:1047F00031FA034618333C4918463AF09EFC29E04A
:10480000D7F8D02107F13C031146184601F022FAEF
:1048100003461833334918463AF08FFC1AE0D7F8AC
:10482000D02107F13C031146184601F013FA034664
:1048300018332E4918463AF080FCD7F8D02107F1FA
:104840003C031146184601F005FA0346012283F89D
:10485000302000BF00F08EBED7F8D02107F13C0316
:104860001146184601F0F6F903465B68032B00F287
:10487000B68001A252F823F089480108F9480108DE
:104880004D4901088B490108154B1C68D7F8D02108
:1048900007F13C031146184601F0DCF903469B681A
:1048A0001946204603F08DFF114C684604F10C03B5
:1048B0008422194647F017FE94E80E000D4806F0D2
:1048C000F2FBD7F8D02107F13C031146184601F05E
:1048D000C1F903461833034918463AF02EFC99E013
:1048E000480C0020480406088404060898040608BA
:1048F00010000020C42C0020D14B1D68D7F8D02117
:1049000007F13C031146184601F0A4F90446284675
:1049100004F00CF803466361D7F8D02107F13C039B
:104920001146184601F096F9034601221A74D7F889
:10493000D02107F13C031146184601F08BF90346DC
:104940001833C04918463AF0F8FB63E0BC4B1C68CA
:10495000D7F8D02107F13C031146184601F07AF947
:1049600003469B681946204603F03BFFD7F8D02149
:1049700007F13C031146184601F06CF90346183361
:10498000B04918463AF0D9FB44E0AD4B1D68D7F862
:10499000D02107F13C031146184601F05BF90446AB
:1049A000284603F0D0FF03466361D7F8D02107F112
:1049B0003C031146184601F04DF9034601221A74D2
:1049C000D7F8D02107F13C031146184601F042F90F
:1049D000034618339B4918463AF0AFFB1AE0D7F864
:1049E000D02107F13C031146184601F033F9034684
:1049F0001833954918463AF0A0FBD7F8D02107F1B3
:104A00003C031146184601F025F90346012283F8BC
:104A1000302000BF00F0AEBDD7F8D02107F13C0335
:104A20001146184601F016F903465B68002B0CBFCF
:104A300001230023DBB2002B69D0D7F8D02107F186
:104A40003C031146184601F005F903469B68002B0C
:104A500009D17B4B1B68184603F0EFFF0346012B7F
:104A600001D1012300E00023002B06D0744B1B680A
:104A70000021184603F04AFF39E0D7F8D02107F1AA
:104A80003C031146184601F0E5F803469B68002BED
:104A900009D06B4B1B68184603F0CFFF0346012B70
:104AA00001D1012300E00023002B06D0644B1B68DA
:104AB0000121184603F02AFF19E0D7F8D02107F1A9
:104AC0003C031146184601F0C5F8034618335F4908
:104AD00018463AF032FBD7F8D02107F13C031146D3
:104AE000184601F0B7F80346012283F83020D7F8C2
:104AF000D02107F13C031146184601F0ABF80346FC
:104B00001833504918463AF018FB00F033BD4C4BAF
:104B10001B68184603F084FF03461C46D7F8D021D3
:104B200007F13C031146184601F094F8034622466B
:104B30005A61D7F8D02107F13C031146184601F01D
:104B400089F8034601221A74D7F8D02107F13C03F3
:104B50001146184601F07EF80346183339491846C5
:104B60003AF0EBFA00F006BDD7F8D02107F13C038C
:104B70001146184601F06EF803465B68002B02D020
:104B8000012B20D04BE02E4B1C68D7F8D02107F129
:104B90003C031146184601F05DF803469B68DBB202
:104BA0001946204603F03CFED7F8D02107F13C031C
:104BB0001146184601F04EF80346183321491846AD
:104BC0003AF0BBFA3AE01E4B1B68184603F042FF6E
:104BD00003461C46D7F8D02107F13C03114618467E
:104BE00001F038F8034622465A61D7F8D02107F180
:104BF0003C031146184601F02DF8034601221A74B1
:104C0000D7F8D02107F13C031146184601F022F8ED
:104C1000034618330B4918463AF08FFA0EE0D7F8DE
:104C2000D02107F13C031146184601F013F8034662
:104C30001833074918463AF080FA00BF00F09ABCD2
:104C4000480C00204804060898040608B00406082A
:104C5000C4040608D7F8D02107F13C0311461846D2
:104C600000F0F8FF03465B68002B0CBF0123002314
:104C7000DBB2002B1FD0CD4B1C68D7F8D02107F139
:104C80003C031146184600F0E5FF03469B681946B1
:104C9000204603F0B6FDD7F8D02107F13C031146BA
:104CA000184600F0D7FF03461833C14918463AF0BA
:104CB00044FA00F05FBCBD4B1D68D7F8D02107F166
:104CC0003C031146184600F0C5FF0446284603F091
:104CD00069FE03466361D7F8D02107F13C03114612
:104CE000184600F0B7FF034601221A74D7F8D02106
:104CF00007F13C031146184600F0ACFF0346183399
:104D0000AB4918463AF019FA00F034BC0021A94822
:104D100006F087FC052013F0F9FCA74C684604F167
:104D20000C038422194647F0DEFB94E80E00A148EC
:104D300006F0B9F9D7F8D02107F13C03114618461F
:104D400000F088FF034618339C4918463AF0F5F9FD
:104D500000F010BCD7F8D02107F13C0311461846EB
:104D600000F078FF03469B68002B14BF012300234B
:104D7000DBB2002B01D0FEF731FED7F8D02107F1CE
:104D80003C031146184600F065FF034618338B4973
:104D900018463AF0D2F9EDE3D7F8D02107F13C03F9
:104DA0001146184600F056FF03469B68DAB2824B64
:104DB0009A74D7F8D02107F13C031146184600F049
:104DC00049FF034618337D4918463AF0B6F9D1E356
:104DD000D7F8D02107F13C031146184600F03AFFFE
:104DE00003469C68D7F8D02107F13C0311461846CA
:104DF00000F030FF03465B68E1B26F4A13440A4695
:104E00009A71D7F8D02107F13C031146184600F0FB
:104E100021FF03461833694918463AF08EF9A9E391
:104E2000D7F8D02107F13C031146184600F012FFD5
:104E300003469C68D7F8D02107F13C031146184679
:104E400000F008FF03465B68E1B25B4A13440A4680
:104E50009A72D7F8D02107F13C031146184600F0AA
:104E6000F9FE03461833554918463AF066F981E3CE
:104E7000D7F8D02107F13C031146184600F0EAFEAE
:104E800003469C68D7F8D02107F13C031146184629
:104E900000F0E0FE03465B68E1B2474A13440A466D
:104EA0009A73D7F8D02107F13C031146184600F059
:104EB000D1FE03461833414918463AF03EF959E30A
:104EC000D7F8D02107F13C031146184600F0C2FE86
:104ED00003469C68D7F8D02107F13C0311461846D9
:104EE00000F0B8FE03465B68E1B2334AD154D7F80C
:104EF000D02107F13C031146184600F0ABFE0346F3
:104F000018332E4918463AF018F933E3D7F8D02170
:104F100007F13C031146184600F09CFE03465B680F
:104F2000002B0CBF01230023DBB2002B00F0158304
:104F30001E4B1C68D7F8D02107F13C0311461846D8
:104F400000F088FE03469B681946204603F09EFE4B
:104F50000346002B0ED0D7F8D02107F13C031146B1
:104F6000184600F077FE03461833114918463AF008
:104F7000E4F8F2E2D7F8D02107F13C0311461846D5
:104F800000F068FE034618330D4918463AF0D5F88C
:104F9000D7F8D02107F13C031146184600F05AFE1D
:104FA0000346012283F83020D7E200BF480C0020DE
:104FB00048040608C42C002010000020CC04060879
:104FC000D0040608D7F8D02107F13C031146184653
:104FD00000F040FE03465B68012B0CBF0123002359
:104FE000DBB2002B29D0AD4B1D68D7F8D02107F1DB
:104FF0003C031146184600F02DFE0446284603F0F7
:1050000079FE03466361D7F8D02107F13C031146CE
:10501000184600F01FFE034601221A74D7F8D0216B
:1050200007F13C031146184600F014FE03461833FE
:105030009B4918463AF081F891E2D7F8D02107F160
:105040003C031146184600F005FE03465B68022B40
:105050000CBF01230023DBB2002B29D08F4B1D682E
:10506000D7F8D02107F13C031146184600F0F2FDB5
:1050700004462846FEF728FD03466361D7F8D02191
:1050800007F13C031146184600F0E4FD03460122F7
:105090001A74D7F8D02107F13C031146184600F0E6
:1050A000D9FD034618337E4918463AF046F856E2D1
:1050B000D7F8D02107F13C031146184600F0CAFD8D
:1050C00003465B68032B0CBF01230023DBB2002BDC
:1050D00000F04582714B1B68184604F045F9034601
:1050E000002B01D0012400E00024D7F8D02107F1E3
:1050F0003C031146184600F0ADFD03465C61D7F84D
:10510000D02107F13C031146184600F0A3FD0346E9
:1051100001221A74D7F8D02107F13C031146184632
:1051200000F098FD034618335D4918463AF005F83B
:1051300015E25A4B1B680021184603F057FE034640
:10514000002B0ED0D7F8D02107F13C0311461846AA
:1051500000F080FD034618335149184639F0EDFF41
:1051600008E2D7F8D02107F13C031146184600F0B9
:1051700071FD034618334B49184639F0DEFFD7F866
:10518000D02107F13C031146184600F063FD0346A9
:10519000012283F83020EDE1404B1B6801211846C5
:1051A00003F024FE0346002B0ED0D7F8D02107F1E0
:1051B0003C031146184600F04DFD034618333849AC
:1051C000184639F0BAFFD5E1D7F8D02107F13C03F2
:1051D0001146184600F03EFD034618333249184682
:1051E00039F0ABFFD7F8D02107F13C031146184640
:1051F00000F030FD0346012283F83020BAE1D7F8F1
:10520000D02107F13C031146184600F023FD034668
:105210005B68002B0CBF01230023DBB2002B00F0E6
:10522000A0811E4B1C68D7F8D02107F13C03114622
:10523000184600F00FFD03469B681946204603F010
:1052400081FD0346002B0ED0D7F8D02107F13C0397
:105250001146184600F0FEFC034618331049184664
:1052600039F06BFF7DE1D7F8D02107F13C031146FF
:10527000184600F0EFFC034618330C49184639F085
:105280005CFFD7F8D02107F13C031146184600F027
:10529000E1FC0346012283F8302062E1480C002043
:1052A00048040608E804060800050608180506086C
:1052B000D7F8D02107F13C031146184600F0CAFC8C
:1052C00003465B68012B0CBF01230023DBB2002BDC
:1052D00000F04981D7F8D02107F13C031146184668
:1052E00000F0B8FC03469B68092B94BF0123002300
:1052F000DBB2002B33D0D7F8D02107F13C031146A5
:10530000184600F0A7FC03469C68D7F8D02107F1A7
:105310003C031146184600F09DFC0246A54904F1E5
:1053200014039B000B445B685361D7F8D02107F14D
:105330003C031146184600F08DFC034601221A7406
:10534000D7F8D02107F13C031146184600F082FC43
:10535000034618339849184639F0EFFE03E1D7F8B1
:10536000D02107F13C031146184600F073FC0346B8
:1053700018339249184639F0E0FED7F8D02107F1EA
:105380003C031146184600F065FC0346012283F8F1
:105390003020E8E0D7F8D02107F13C031146184649
:1053A00000F058FC03465B68002B0CBF0123002370
:1053B000DBB2002B00F0D980814B1C68D7F8D021DC
:1053C00007F13C031146184600F044FC03469B6875
:1053D0001946204603F034FF0346002B0ED0D7F8C1
:1053E000D02107F13C031146184600F033FC034678
:1053F00018337149184639F0A0FEB6E0D7F8D0212D
:1054000007F13C031146184600F024FC034618330C
:105410006C49184639F091FED7F8D02107F13C03CA
:105420001146184600F016FC0346012283F830208E
:105430009BE0D7F8D02107F13C031146184600F055
:1054400009FC03465B68012B0CBF01230023DBB280
:10545000002B00F08C805A4B1D68D7F8D02107F143
:105460003C031146184600F0F5FB0446284603F0BD
:10547000BCFE03466361D7F8D02107F13C03114617
:10548000184600F0E7FB034601221A74D7F8D02132
:1054900007F13C031146184600F0DCFB03461833C5
:1054A0004549184639F049FE61E0D7F8D02107F1A7
:1054B0003C031146184600F0CDFB03465B68002B09
:1054C0000CBF01230023DBB2002B52D03C4B1C68E5
:1054D000D7F8D02107F13C031146184600F0BAFB7B
:1054E0000346DD68D7F8D02107F13C031146184682
:1054F00000F0B0FB03469B681A462946204603F09D
:105500008BFED7F8D02107F13C031146184600F076
:10551000A1FB034618332849184639F00EFE28E04F
:10552000D7F8D02107F13C031146184600F092FB52
:10553000034618332449184639F0FFFDD7F8D02127
:1055400007F13C031146184600F084FB0346012294
:1055500083F830200EE000BF0CE000BF0AE000BF7F
:1055600008E000BF06E000BF04E000BF02E000BFAB
:1055700000E000BFD7F8D0310133C7F8D031D7F8F9
:10558000D021D7F8A4319A42FEF6B6AE07F5F073F3
:10559000A3F5EE73186839F013FC97F8DB3183F04C
:1055A0000103DBB2002B00F0D2800023C7F8CC311E
:1055B000C5E000BF100000204804060830050608BA
:1055C000480C00204805060864050608D7F8CC21D9
:1055D00007F13C031146184600F03CFB034693F8E4
:1055E0003030002B0CBF01230023DBB2002B00F076
:1055F0008E80D7F8CC2107F13C031146184600F005
:1056000029FB03461A6807F5A27311461846FEF7F0
:105610002DFA07F5967307F5A2726449184600F053
:105620002BFB07F5967207F5F073A3F5EE731146A1
:10563000186839F0DDFD07F59673184639F0F6FB6A
:1056400007F5A273184639F0F1FBD7F8CC2107F122
:105650003C031146184600F0FDFA03461B7C002B64
:105660002CD0D7F8CC2107F13C031146184600F0A6
:10567000F1FA03465A6907F5BA7311461846FEF760
:10568000F5F907F5AE7307F5BA724949184600F007
:10569000F3FA07F5AE7207F5F073A3F5EE73114652
:1056A000186839F0A5FD07F5AE73184639F0BEFB52
:1056B00007F5BA73184639F0B9FB1FE0D7F8CC21CB
:1056C00007F13C031146184600F0C4FA034603F103
:1056D000180207F5C6733749184600F0E5FA07F5D2
:1056E000C67207F5F073A3F5EE731146186839F02A
:1056F0007FFD07F5C673184639F098FB07F5F07380
:10570000A3F5EE732C49186839F072FD12E0D7F852
:10571000CC2107F13C031146184600F09BFA0346E2
:1057200003F1180207F5F073A3F5EE73114618683C
:1057300039F05EFDD7F8CC310133C7F8CC31D7F85A
:10574000CC21D7F8A4319A42FFF640AF10E007F120
:105750003C030021184600F07DFA034603F11802CD
:1057600007F5F073A3F5EE731146186839F040FDA4
:1057700000BF07F13C03184600F0DAF907F14803CF
:10578000184600F07FF907F5F073A3F5EE7307F5FF
:10579000F072A2F5EE7212681A6007F5F073A3F5C5
:1057A000EE73186807F5F077BD46B0BD2C040020F5
:1057B0005C0400207C0506088C04002080B584B0C1
:1057C00000AF7860786839F0BCFD07F10C030A225D
:1057D000194643F015F8FB681B78002B0CBF01231A
:1057E0000023DBB218461037BD4680BD80B483B0BD
:1057F00000AF7860064B1A687B681A60044B002281
:105800001A607B6818460C37BD465DF8047B70470C
:10581000D8FC002080B483B000AF7860074B1B68D1
:10582000002B03D17B681B68044A13607B68184611
:105830000C37BD465DF8047B704700BFD8FC0020E4
:1058400080B483B000AF78603970002318460C37FD
:10585000BD465DF8047B704790B58BB000AFF86033
:10586000B9607A603B6007F114031846FFF7BEFF8A
:1058700007F11801FB68BA6B786898477862BB69D2
:105880007A689A4202D1B86832F039FE144B1B682C
:10589000222B06D02146786AFFF7D2FF0346002B61
:1058A00001D0012300E00023002B02D0B86832F0C1
:1058B0002CFE7B6A3B623B68002B05D0BA697B6893
:1058C000D31A1A463B681A603C6A07F1140318465B
:1058D000FFF7A0FF234618462C37BD4690BD00BFFA
:1058E000D8FC002080B487B000AF78603960012315
:1058F0007B613B6803FB03F33B613A683B6902FB56
:1059000003F3FB603A68FB6802FB03F3BB603B6890
:105910007A689A4201D27B691DE07A683B699A42B3
:1059200002D27B69013316E07A68FB689A4202D2A0
:105930007B6902330FE07A68BB689A4202D27B69C6
:10594000033308E07A68BB68B2FBF3F37B607B69E2
:1059500004337B61DBE718461C37BD465DF8047BEA
:105960007047000080B489B000AFF860B9607A6019
:10597000BB68013BFB6124E07A68234BA3FB021365
:105980005B09642101FB03F3D31A5B007B617B6835
:105990001D4AA2FB03235B097B607B695A1CF968E3
:1059A000FB690B4419498A5C1A70FB69013BFA6870
:1059B000134416497A690A4412781A70FB69023B4B
:1059C000FB617B68632BD7D87B68092B10D97B6878
:1059D0005B00BB61BB695A1CFB6801330B498A5CE5
:1059E0001A700A4ABB6913441A78FB681A7005E0FA
:1059F0007B68DBB23033DAB2FB681A7000BF243741
:105A0000BD465DF8047B70471F85EB51B85506080D
:105A100080B582B000AF7860786800F090F97B685C
:105A2000184600F098F97B6818460837BD4680BDD7
:105A300080B582B000AF7860786800F0A0F97B682C
:105A400018460837BD4680BD80B582B000AF78608B
:105A50007B6819687B689A687B681B68D31ADB10BF
:105A6000074A02FB03F31A46786800F093F97B6853
:105A70001846FEF737F87B6818460837BD4680BDE4
:105A8000ABAAAAAAB0B582B000AF78607B681C68E8
:105A90007B685D687B68184600F08FF903461A46FC
:105AA0002946204600F094F97B681846FFF7CCFFA2
:105AB0007B6818460837BD46B0BD80B582B000AFE0
:105AC0007860786800F092F97B68184600F09AF9DF
:105AD0007B6818460837BD4680BD80B582B000AFF0
