:020000040801F1
:10000000000002204D640308F93E0108053F010885
:10001000193F0108213F0108293F010800000000A5
:10002000000000000000000000000000215C020849
:10003000313F010800000000715E0208D95E02082D
:100040009D6403089D6403089D6403089D64030880
:100050009D6403089D6403089D6403089D64030870
:100060009D6403089D6403089D6403089D64030860
:100070009D6403089D6403089D6403089D64030850
:100080009D6403089D6403089D6403089D64030840
:100090009D6403089D6403089D6403089D64030830
:1000A0009D6403089D6403089D6403089D64030820
:1000B0009D6403089D6403089D6403089D64030810
:1000C0009D6403089D6403089D6403089D64030800
:1000D0009D640308413F0108553F01089D640308E2
:1000E0009D6403089D6403089D6403089D640308E0
:1000F0009D6403089D6403089D6403089D640308D0
:100100009D6403089D6403089D6403089D640308BF
:100110009D6403089D6403089D640308693F01080A
:100120009D6403087D3F0108913F01089D64030819
:100130009D640308A53F01089D6403089D640308AE
:100140009D6403089D6403089D6403089D6403087F
:100150009D640308B93F01089D640308CD3F010871
:100160009D6403089D6403089D6403089D6403085F
:100170009D6403089D6403089D640308000000005B
:080180009D6403089D6403085F
:100188000000000000000000000000000000000067
:100198000000000000000000000000000000000057
:1001A8000000000000000000000000000000000047
:1001B8000000000000000000000000000000000037
:1001C8000000000000000000000000000000000027
:1001D8000000000000000000000000000000000017
:1001E8000000000000000000000000000000000007
:1001F8000000000000000000EFBEADDE08000000B7
:10020800436F6E74726F6C205057520000000000EC
:1002180000000000000000000000000000000000D6
:1002280000000000000000000000000000000000C6
:1002380000000000000000000000000000000000B6
:1002480000000000000000000000000000000000A6
:100258000000000000000000000000000000000096
:100268000000000000000000000000000000000086
:100278000000000000000000000000000000000076
:100288000000000000000000000000000000000066
:1002A00010B5054C237833B9044B13B10448AFF3B0
:1002B00000800123237010BD6002002000000000B8
:1002C0002CA1030808B5034B1BB103490348AFF346
:1002D000008008BD00000000640200202CA103087B
:1002E00010F8012B11F8013B012A28BF9A42F7D0E0
:1002F000D01A7047034613F8012B002AFBD1181AB5
:1003000001387047000000000000000000000000FD
:1003100001F0FF01102A2BDB10F0070F08D010F8B6
:10032000013B013A8B422DD010F0070F42B3F6D1BA
:10033000F0B441EA012141EA014122F007047FF0D3
:1003400000070023F0E80256083C85EA010586EA2A
:10035000010685FA47F5A3FA87F586FA47F6A5FA66
:1003600087F68EB9EED1F0BC01F0FF0102F0070272
:1003700032B110F8013B013A83EA010313B1F8D11D
:100380000020704701387047002D06BF35460338FE
:10039000073815F0010F07D1013015F4807F02BF37
:1003A000013015F4C03F0130F0BC0138704700BF88
:1003B00081F0004102E000BF83F0004330B54FEA16
:1003C00041044FEA430594EA050F08BF90EA020F83
:1003D0001FBF54EA000C55EA020C7FEA645C7FEA16
:1003E000655C00F0E2804FEA5454D4EB5555B8BF39
:1003F0006D420CDD2C4480EA020281EA030382EAAA
:10040000000083EA010180EA020281EA0303362D3B
:1004100088BF30BD11F0004F4FEA01314FF4801C0E
:100420004CEA113102D0404261EB410113F0004F20
:100430004FEA03334CEA133302D0524263EB4303D7
:1004400094EA050F00F0A780A4F10104D5F1200E75
:100450000DDB02FA0EFC22FA05F2801841F10001D0
:1004600003FA0EF2801843FA05F359410EE0A5F1A4
:1004700020050EF1200E012A03FA0EFC28BF4CF0D5
:10048000020C43FA05F3C01851EBE37101F000458B
:1004900007D54FF0000EDCF1000C7EEB00006EEB98
:1004A0000101B1F5801F1BD3B1F5001F0CD3490822
:1004B0005FEA30004FEA3C0C04F101044FEA445279
:1004C00012F5800F80F09A80BCF1004F08BF5FEA00
:1004D000500C50F1000041EB045141EA050130BDE0
:1004E0005FEA4C0C404141EB0101013C28BFB1F5F2
:1004F000801FE9D291F0000F04BF01460020B1FA3D
:1005000081F308BF2033A3F10B03B3F120020CDA0F
:100510000C3208DD02F1140CC2F10C0201FA0CF0ED
:1005200021FA02F10CE002F11402D8BFC2F1200C52
:1005300001FA02F120FA0CFCDCBF41EA0C01904008
:10054000E41AA2BF01EB0451294330BD6FEA040451
:100550001F3C1CDA0C340EDC04F11404C4F120023C
:1005600020FA04F001FA02F340EA030021FA04F34E
:1005700045EA030130BDC4F10C04C4F1200220FAA5
:1005800002F001FA04F340EA0300294630BD21FAE3
:1005900004F0294630BD94F0000F83F4801306BFA9
:1005A00081F480110134013D4EE77FEA645C18BF9D
:1005B0007FEA655C29D094EA050F08BF90EA020F34
:1005C00005D054EA000C04BF1946104630BD91EA2C
:1005D000030F1EBF0021002030BD5FEA545C05D12F
:1005E0004000494128BF41F0004130BD14F580046E
:1005F0003CBF01F5801130BD01F0004545F0FE41E2
:1006000041F470014FF0000030BD7FEA645C1ABF16
:10061000194610467FEA655C1CBF0B46024650EA4D
:10062000013406BF52EA033591EA030F41F4002179
:1006300030BD00BF90F0000F04BF0021704730B5FF
:100640004FF4806404F132044FF000054FF00001D4
:1006500050E700BF90F0000F04BF0021704730B595
:100660004FF4806404F1320410F0004548BF40426A
:100670004FF000013EE700BF42004FEAE2014FEABF
:1006800031014FEA02701FBF12F07F4393F07F4F9A
:1006900081F06051704732F07F4208BF704793F09D
:1006A0007F4F04BF41F40021704730B54FF46074B0
:1006B00001F0004521F000411CE700BF50EA0102B3
:1006C00008BF704730B54FF000050AE050EA01025C
:1006D00008BF704730B511F0004502D5404261EBCC
:1006E00041014FF4806404F132045FEA915C3FF40D
:1006F000D8AE4FF003025FEADC0C18BF03325FEAAA
:10070000DC0C18BF033202EBDC02C2F1200300FA5A
:1007100003FC20FA02F001FA03FE40EA0E0021FA7F
:1007200002F11444BDE600BF70B54FF0FF0C4CF46D
:10073000E06C1CEA11541DBF1CEA135594EA0C0F1F
:1007400095EA0C0F00F0DEF82C4481EA030621EA5A
:100750004C5123EA4C5350EA013518BF52EA033595
:1007600041F4801143F4801338D0A0FB02CE4FF047
:100770000005E1FB02E506F00042E0FB03E54FF077
:100780000006E1FB03569CF0000F18BF4EF0010E6F
:10079000A4F1FF04B6F5007F64F5407404D25FEA6B
:1007A0004E0E6D4146EB060642EAC62141EA55511E
:1007B0004FEAC52040EA5E504FEACE2EB4F1FD0C60
:1007C00088BFBCF5E06F1ED8BEF1004F08BF5FEADE
:1007D000500E50F1000041EB045170BD06F0004690
:1007E00046EA010140EA020081EA0301B4EB5C043D
:1007F000C2BFD4EB0C0541EA045170BD41F4801135
:100800004FF0000E013C00F3AB8014F1360FDEBF59
:10081000002001F0004170BDC4F10004203C35DA35
:100820000C341BDC04F11404C4F1200500FA05F3B8
:1008300020FA04F001FA05F240EA020001F0004259
:1008400021F0004110EBD37021FA04F642EB0601CF
:100850005EEA430E08BF20EAD37070BDC4F10C04F9
:10086000C4F1200500FA04F320FA05F001FA04F2BD
:1008700040EA020001F0004110EBD37041F10001A9
:100880005EEA430E08BF20EAD37070BDC4F12005B4
:1008900000FA05F24EEA020E20FA04F301FA05F21C
:1008A00043EA020321FA04F001F0004121FA04F2C4
:1008B00020EA020000EBD3705EEA430E08BF20EA94
:1008C000D37070BD94F0000F0FD101F000464000CE
:1008D00041EB010111F4801F08BF013CF7D041EA50
:1008E000060195F0000F18BF704703F00046520054
:1008F00043EB030313F4801F08BF013DF7D043EA25
:100900000603704794EA0C0F0CEA135518BF95EADA
:100910000C0F0CD050EA410618BF52EA4306D1D161
:1009200081EA030101F000414FF0000070BD50EA80
:10093000410606BF1046194652EA430619D094EA0A
:100940000C0F02D150EA013613D195EA0C0F05D1F4
:1009500052EA03361CBF104619460AD181EA030148
:1009600001F0004141F0FE4141F470014FF0000000
:1009700070BD41F0FE4141F4780170BD70B54FF09B
:10098000FF0C4CF4E06C1CEA11541DBF1CEA13551B
:1009900094EA0C0F95EA0C0F00F0A7F8A4EB0504FD
:1009A00081EA030E52EA03354FEA013100F08880F4
:1009B0004FEA03334FF0805545EA131343EA1263BD
:1009C0004FEA022245EA111545EA10654FEA002672
:1009D0000EF000419D4208BF964244F1FD0404F52B
:1009E000407402D25B084FEA3202B61A65EB030587
:1009F0005B084FEA32024FF480104FF4002CB6EB44
:100A0000020E75EB030E22BFB61A754640EA0C00C3
:100A10005B084FEA3202B6EB020E75EB030E22BF03
:100A2000B61A754640EA5C005B084FEA3202B6EB44
:100A3000020E75EB030E22BFB61A754640EA9C0003
:100A40005B084FEA3202B6EB020E75EB030E22BFD3
:100A5000B61A754640EADC0055EA060E18D04FEA91
:100A6000051545EA16754FEA06164FEAC30343EA31
:100A700052734FEAC2025FEA1C1CC0D111F4801FFE
:100A80000BD141EA00014FF000004FF0004CB6E7F7
:100A900011F4801F04BF01430020B4F1FD0C88BF96
:100AA000BCF5E06F3FF6AFAEB5EB030C04BFB6EBA1
:100AB000020C5FEA500C50F1000041EB045170BD94
:100AC0000EF0004E4EEA113114EB5C04C2BFD4EBC1
:100AD0000C0541EA045170BD41F480114FF0000E45
:100AE000013C90E645EA060E8DE60CEA135594EAC1
:100AF0000C0F08BF95EA0C0F3FF43BAF94EA0C0FC4
:100B00000AD150EA01347FF434AF95EA0C0F7FF438
:100B100025AF104619462CE795EA0C0F06D152EA8C
:100B200003353FF4FDAE1046194622E750EA410670
:100B300018BF52EA43067FF4C5AE50EA41047FF481
:100B40000DAF52EA43057FF4EBAE12E74FF0FF3CE6
:100B500006E000BF4FF0010C02E000BF4FF0010CB7
:100B60004DF804CD4FEA410C7FEA6C5C4FEA430C30
:100B700018BF7FEA6C5C1BD001B050EA410C0CBF7F
:100B800052EA430C91EA030F02BF90EA020F0020E1
:100B9000704710F1000F91EA030F58BF994208BF48
:100BA00090422CBFD8176FEAE37040F00100704705
:100BB0004FEA410C7FEA6C5C02D150EA013C07D15C
:100BC0004FEA430C7FEA6C5CD6D152EA033CD3D0A7
:100BD0005DF8040B704700BF8446104662468C46A1
:100BE0001946634600E000BF01B5FFF7B7FF0028D4
:100BF00048BF10F1000F01BD4DF808EDFFF7F4FFFD
:100C00000CBF012000205DF808FB00BF4DF808ED87
:100C1000FFF7EAFF34BF012000205DF808FB00BFAA
:100C20004DF808EDFFF7E0FF94BF012000205DF8CC
:100C300008FB00BF4DF808EDFFF7CEFF94BF012081
:100C400000205DF808FB00BF4DF808EDFFF7C4FF7A
:100C500034BF012000205DF808FB00BF4FEA410CC3
:100C60007FEA6C5C02D150EA013C0AD14FEA430CA6
:100C70007FEA6C5C02D152EA033C02D14FF00000E3
:100C800070474FF0010070474FEA410212F5001221
:100C900015D211D56FF47873B3EB625212D94FEAC3
:100CA000C12343F0004343EA505311F0004F23FAAD
:100CB00002F018BF404270474FF00000704750EA02
:100CC000013005D111F0004008BF6FF000407047BF
:100CD0004FF00000704700BF4A0011D212F5001219
:100CE00011D20DD56FF47873B3EB62520ED44FEA84
:100CF000C12343F0004343EA505323FA02F0704704
:100D00004FF00000704750EA013002D14FF0FF3041
:100D100070474FF00000704753B94AB9002908BF27
:100D200000281CBF4FF0FF314FF0FF3000F0A0B99A
:100D3000ADF1080C6DE904CE00F03CF8DDF804E0FC
:100D4000DDE9022304B0704738B5002200230446D1
:100D50000D46FFF75BFF28B920462946BDE838401D
:100D600000F00AB8204605F1004100F005F84042C5
:100D700061EB410138BD00BFD0B50C4B00220646E7
:100D80000F46FFF7D1FCFFF7A7FF0446FFF752FC21
:100D9000074B0022FFF7C8FC02460B463046394697
:100DA000FFF70AFBFFF798FF2146D0BD0000F03D9A
:100DB0000000F0412DE9F047089D0C46002B4ED174
:100DC00094468C458646B2FA82F262D94AB1C2F1A3
:100DD0002003914020FA03F30CFA02FC194300FAB5
:100DE00002FE4FEA1C471FFA8CF6B1FBF7F44FEAFC
:100DF0001E4307FB141143EA014304FB06F1994229
:100E00000AD91CEB030304F1FF3080F012819942F0
:100E100040F20F81023C6344591A1FFA8EF3B1FB72
:100E2000F7F007FB101143EA014300FB06F69E4270
:100E30000AD91CEB030300F1FF3180F0FC809E42D5
:100E400040F2F980634402389B1B40EA04400021D1
:100E50001DB1D3400022C5E90032BDE8F0878B42C6
:100E600005D90DB1C5E9000100210846F5E7B3FA3F
:100E700083F1002946D1A34202D39042C0F0F08012
:100E8000861A64EB03030120002DE6D0C5E9006358
:100E9000E3E7002A40F09080A1EB0C044FEA1C48E5
:100EA0001FFA8CF70121B4FBF8F64FEA1E4308FB4A
:100EB000164443EA044307FB06F0984208D91CEBAA
:100EC000030306F1FF3402D2984200F2CD80264699
:100ED0001C1A1FFA8EF3B4FBF8F008FB104443EA27
:100EE000044300FB07F79F4208D91CEB030300F102
:100EF000FF3402D29F4200F2B0802046DB1B40EA62
:100F00000640A5E7C1F120068B4022FA06F71F43F1
:100F100020FA06FC04FA01F343EA0C03F44000FA59
:100F200001F8380C4FEA1349B4FBF0FE1FFA87FCB6
:100F300000FB1E4449EA04440EFB0CF9A14502FAE9
:100F400001F20AD93C190EF1FF3A80F08480A145E4
:100F500040F28180AEF1020E3C44A4EB09041FFA7A
:100F600083F9B4FBF0F300FB134449EA044403FBA8
:100F70000CFCA44507D93C1903F1FF3067D2A44506
:100F800065D9023B3C4443EA0E40A0FB0293A4EB2C
:100F90000C049C42CE469C4651D34ED055B1B8EB82
:100FA0000E0364EB0C0404FA06F6CB401E43CC405F
:100FB000C5E90064002150E7C2F1200320FA03F1E3
:100FC0000CFA02FC24FA03F394400C434FEA1C4849
:100FD00000FA02FE1FFA8CF7B3FBF8F008FB1031A1
:100FE000230C43EA014300FB07F1994208D91CEBAB
:100FF000030300F1FF362CD299422AD90238634408
:101000005B1AA4B2B3FBF8F108FB113344EA0344C2
:1010100001FB07F3A34208D91CEB040401F1FF36DE
:1010200013D2A34211D902396444E41A41EA0041BF
:1010300039E70446F0E6084606E7C845AED2B9EB04
:10104000020E63EB070C0138A8E73146EDE70346D3
:1010500099E73046D4E7D6467FE7634402384DE748
:101060000646234608460FE7023E634430E700BFCA
:10107000704700BFF0B58DB00AAF764B764A9A60E4
:1010800062B600BF0EF02EFA00F000F900F090FBFF
:1010900002F0A2FC02F0D0FC02F04CFD02F074FD64
:1010A00002F09CFD6D4B002205926D4903AA03C915
:1010B00082E803006B4901AA03C982E803005A6869
:1010C00000921B6800226849684808F073F8684974
:1010D000664807F015FF01224FF4005165480DF0F6
:1010E00003FD01224FF4004162480DF0FDFC012296
:1010F0004FF480415F480DF0F7FC0023FB70642340
:10110000BB70012201215C480DF0EEFC584B9B7D29
:10111000002B0CBF01230023DAB2554B9B7DFF2B24
:101120000CBF01230023DBB21343DAB2534B1B780D
:101130001343DBB2002B6AD0514808F0C1FF4C4B7F
:101140000022DA714A4B01221A72494B01225A7568
:10115000474B00221A70464BC0225A72444BA822B9
:101160009A72434B0122DA72414ABB781373404BA7
:10117000FF225A733E4BFF229A733D4BFF22DA73D4
:101180003B4B00221A743A4BC0225A74384BA822A7
:101190009A74374B0122DA74354B01221A75344B9D
:1011A00044225A70324B84229A70314B2322DA70D7
:1011B0002F4B84221A712E4B44225A712C4AFB78F1
:1011C00093712B4B0022DA75294B00225A760022AC
:1011D0009A76274B2E229A75254E6C4606F10C0501
:1011E0000FCD0FC40FCD0FC495E803002060043469
:1011F000218002340B0C237096E80E001B4807F088
:1012000093FE1B49194807F07BFE00F0B5F8184B18
:101210001C4AC3F81B2000237B600DE01A4A7B6840
:10122000002142F83310184A7B68DB001344FF2288
:101230001A717B6801337B607B68602BEEDD0121D6
:101240000A4808F005F900F0CBFB13F0B1FF00BF2E
:10125000FDE700BF00ED00E00000010804000020F1
:10126000140000200C000020F45800200C0D002079
:101270001C0000200008024000000240600D002019
:1012800048A10308945900207C02002080B594B046
:1012900000AF07F1200330220021184626F0C4FBDE
:1012A00007F10C0300221A605A609A60DA601A6132
:1012B0000023BB602E4B1B6C2D4A43F080531364FC
:1012C0002B4B1B6C03F08053BB60BB6800237B601F
:1012D000284B1B68274A43F480431360254B1B6847
:1012E00003F480437B607B6801233B624FF48033CF
:1012F0007B620223BB634FF48003FB6306233B64E2
:10130000A0237B640223BB640423FB6407F1200356
:1013100018460CF0C3FA0346002B14BF0123002328
:10132000DBB2002B01D000F0EFF90F23FB600223AA
:101330003B6100237B614FF4A053BB614FF48053AA
:10134000FB6107F10C03052118460CF01FFD034655
:10135000002B14BF01230023DBB2002B01D000F0CF
:10136000D3F90CF0F9FD00BF5037BD4680BD00BF7A
:10137000003802400070004080B582B000AF01220A
:101380004FF400412E480DF0AFFB01224FF4005105
:101390002B480DF0A9FB01224FF4804128480DF0A5
:1013A000A3FB00237B6032E000224FF480412448FD
:1013B0000DF09AFB4FF496700EF0D6F801224FF420
:1013C00080411F480DF090FB00224FF400511C4853
:1013D0000DF08AFB4FF496700EF0C6F801224FF420
:1013E000005117480DF080FB00224FF400411448D3
:1013F0000DF07AFB4FF496700EF0B6F801224FF420
:1014000000410F480DF070FB7B6801337B607B6807
:10141000042BC9DD01224FF4004109480DF064FBA3
:1014200001224FF4005106480DF05EFB01224FF4FB
:10143000804103480DF058FB00BF0837BD4680BD12
:101440000008024080B590B000AF78610B467B8207
:101450007B691A687D4BD3F81B301B689A4210D108
:101460007B4A7B8A1380794BD3F81B304FF4807210
:101470007849184610F099FA774B1B68184614F013
:101480002BF87B691B68754A934240F09E80744B31
:101490001B887A8AD31AFB87786910F040FBB863FF
:1014A000BB6B002B65D0BB6B022B7BD16D4B1B88BC
:1014B0001A466D4B13446A4A128811466B4A11440E
:1014C000FA8F184626F0D7FB664B1B881A46FB8F0F
:1014D0001344013B644AD35C0D2B09D0614B1B883C
:1014E0001A46FB8F1344013B5F4AD35C002B35D176
:1014F0005C4B1B881A46FB8F13445B4A0021D15476
:101500005B4B1B68574A128811460022184614F09C
:1015100055F878637B6B002B19D0554B19683B4607
:101520000022184614F08AF807F124033A4607CA45
:1015300083E807007B6A102BEFD04D4B1B68494AAC
:10154000128811460022184614F038F87863494B87
:1015500000221A80434B00221A8006E0414B1A8871
:10156000FB8F13449AB23F4B1A803D4A7B8A13800B
:101570001DE03C4B1B881A463B4B1344384A1288EB
:1015800011463A4A1144FA8F184626F074FB354B3F
:101590001A88FB8F13449AB2324B1A80304B0022C8
:1015A0001A8004E0B96B344808F08AFD00BF4FF49C
:1015B00000722E49786910F055FA304B1B681A6892
:1015C0002E4B1B6822F008021A607B691B682C4AAC
:1015D000934236D17B8A1A462A49234826F04BFB90
:1015E000294B1B68798A0022184613F0E7FF3863FD
:1015F0003B6B002B17D0244B19683B460022184642
:1016000014F01CF807F118033A4607CA83E80700EC
:10161000BB69102BEFD01C4B1B68798A002218463F
:1016200013F0CCFF386340F205121649786910F0C8
:1016300019FA164B1B681A68144B1B6822F0080233
:101640001A6000BF4037BD4680BD00BF1C000020AF
:10165000EC4C0020E44A00206C51002000140140B2
:10166000B0470020AC470020AC430020AC45002030
:101670005C510020AE47002058A10308845A002086
:1016800000100140C848002060510020245A00206A
:1016900080B582B000AF78607B681B68064A9342D1
:1016A00005D1786810F002F9044B01221A7000BFCE
:1016B0000837BD4680BD00BF001001404F0000202C
:1016C00080B582B000AF7860054B1B687A689A429B
:1016D00001D108F0D9FC00BF0837BD4680BD00BF6E
:1016E000800D002080B582B000AF78607B681B68F9
:1016F000044A934201D10DF017FF00BF0837BD46E1
:1017000080BD00BF0014004080B500AF034808F062
:10171000D7FC72B600BF00BFFDE700BF90A1030871
:1017200080B582B000AF786039607B68012B24D12E
:101730003B684FF6FF7293421FD1124808F00DFB31
:10174000114A12490F4824F0AAFE114808F005FB7F
:101750000D4A0E490E4824F0A2FE0E4808F0FDFA8C
:10176000094A0A490B4824F09AFE0B4808F0A8F9E8
:10177000054A0A49084824F092FE00BF0837BD46D2
:1017800080BD00BF7C0C002000000020BB9D010834
:10179000AC0C0020DC0C00200C0D0020DD9A0108B0
:1017A00080B500AF4FF6FF710120FFF7B9FF80BD94
:1017B00080B58CB000AF07F11C0300221A605A609C
:1017C0009A60DA601A610023BB615C4B1B6B5B4A59
:1017D00043F010031363594B1B6B03F01003BB6101
:1017E000BB6900237B61554B1B6B544A43F00403D8
:1017F0001363524B1B6B03F004037B617B69002373
:101800003B614E4B1B6B4D4A43F0800313634B4BC4
:101810001B6B03F080033B613B690023FB60474B7C
:101820001B6B464A43F001031363444B1B6B03F0ED
:101830000103FB60FB680023BB60404B1B6B3F4A0E
:1018400043F0020313633D4B1B6B03F00203BB60C9
:10185000BB6800237B60394B1B6B384A43F008039D
:101860001363364B1B6B03F008037B607B6800221D
:101870004FF4604132480DF037F9002248F201017F
:1018800030480DF031F9002213212F480DF02CF9CA
:101890000423FB6100233B6202237B6207F11C03EC
:1018A00019462A480CF084FF4FF46043FB61012382
:1018B0003B6200237B620023BB6207F11C031946D5
:1018C0001F480CF075FF48F20103FB6101233B62E6
:1018D00000237B620023BB6207F11C0319461948F1
:1018E0000CF066FF1823FB6103233B6200237B623D
:1018F00007F11C03194613480CF05AFF4FF47F43BD
:10190000FB6100233B6202237B6207F11C03194643
:101910000D480CF04DFF1323FB6101233B620023B4
:101920007B620023BB6207F11C03194606480CF0DA
:101930003FFF00BF3037BD4680BD00BF00380240CA
:101940000008024000000240000C0240001002406B
:1019500080B400AFBFF34F8F00BF064BDB6803F4CA
:10196000E0620449044B1343CB60BFF34F8F00BFC9
:1019700000BFFDE700ED00E00400FA0580B584B08B
:1019800000AF78600DF0E4FDF860FA687B689A4279
:1019900003D3FA687B68D31A03E0FA687B68D31A2A
:1019A000013B18461037BD4680BD000080B485B0AD
:1019B00000AFF860B9607A60FB68074A1A60BB68DC
:1019C000064A1A607B6880221A6000BF1437BD4641
:1019D0005DF8047B704700BF78510020F052002072
:1019E000B0B5C6B000AF0023C7F810310023C7F868
:1019F000143107F58873184613F051FC03467B4AEF
:101A000013600023C7F808310023C7F80C3107F52D
:101A10008473184613F043FC0346754A1360002391
:101A2000C7F800310023C7F8043107F5807301219E
:101A3000184613F0D1FC03466E4A13600023C7F822
:101A4000F8300023C7F8FC3007F1F80301211846ED
:101A500013F0C2FC0346684A13600023C7F8F03055
:101A60000023C7F8F43007F1F0030121184613F002
:101A7000B3FC0346614A13600023C7F8E830002333
:101A8000C7F8EC3007F1E8030121184613F0A4FC75
:101A900003465B4A13605B4B07F1D8040FCB84E825
:101AA0000F0007F1D8030021184613F05EFD03462E
:101AB000554A1360554B07F1C8040FCB84E80F005B
:101AC00007F1C8030021184613F04FFD0346504AA2
:101AD0001360504B07F1AC041D460FCD0FC495E8C1
:101AE000070084E8070007F1AC030021184613F053
:101AF00076FB0346484A1360484B07F190041D46A5
:101B00000FCD0FC495E8070084E8070007F19003A4
:101B10000021184613F063FB0346414A1360414B12
:101B200007F174041D460FCD0FC495E8070084E843
:101B3000070007F174030021184613F050FB034619
:101B4000394A1360394B07F158041D460FCD0FC4B5
:101B500095E8070084E8070007F1580300211846BC
:101B600013F03DFB0346324A1360324B07F13C044D
:101B70001D460FCD0FC495E8070084E8070007F164
:101B80003C030021184613F02AFB03462A4A13603F
:101B90002A4B07F120041D460FCD0FC495E807001E
:101BA00084E8070007F120030021184613F017FB13
:101BB0000346234A136007F58C73A3F58A73214A01
:101BC0001C4615460FCD0FC495E8070084E80700B2
:101BD0003B1D0021184613F002FB03461A4A13600E
:101BE00000BF07F58C77BD46B0BD00BF385100205F
:101BF0003C51002064510020685100206C510020AD
:101C000070510020A0A103085C510020B0A103087E
:101C100060510020CCA1030840510020ECA1030832
:101C20004451002010A203084851002038A20308A4
:101C30004C51002060A203085051002088A20308E4
:101C400054510020B0A203085851002080B586B03E
:101C500000AF6B4808F034FA10216A4809F008F91F
:101C60007860694A7B6813607968684808F028FAE8
:101C700000237B6158E0664B3B6162497A691346F9
:101C8000DB009B1A1B010B446C331B780A2B02D11F
:101C9000604B3B6136E05B497A691346DB009B1A77
:101CA0001B010B446C331B780B2B02D15A4B3B614D
:101CB00028E054497A691346DB009B1A1B010B4448
:101CC0006C331B78142B02D1544B3B611AE04D4905
:101CD0007A691346DB009B1A1B010B446C331B789B
:101CE0001E2B02D14E4B3B610CE046497A691346EC
:101CF000DB009B1A1B010B446C331B781F2B01D19B
:101D0000484B3B613F497A691346DB009B1A1B0134
:101D10000B4460331B781A463B697969424808F0E6
:101D2000CFF97B6901337B617A697B689A4202D281
:101D30007B690F2B9FD93D4B1B684FF0FF31184635
:101D400013F0C6FA0023FB6049E02E49FA681346F7
:101D5000DB009B1A1B010B4460331B78002B3BD02C
:101D60002849FA681346DB009B1A1B010B446033B9
:101D70001B78112B30D80023BB602AE02149FA6878
:101D80001346DB009B1ABA6813441B010B440C3347
:101D90001B781946FA681346DB009B1A1B01194A87
:101DA0001344234A42F831301649FA681346DB00DF
:101DB0009B1ABA6813441B010B440C331B78BA6896
:101DC000D1B21B4ADB0013440A461A71BB680133C7
:101DD000BB60BB68022BD1DDFB680133FB60FA6896
:101DE0007B689A42B1D3114B1B68184613F0BEFAB8
:101DF000104808F065F900BF1837BD4680BD00BF28
:101E0000CCA203087C050020B4470020F0A2030800
:101E10000CA3030814A303081CA3030828A30308A6
:101E200030A303083CA3030848A303083C51002047
:101E30007C02002068A3030880B586B000AF7860FC
:101E40000AF0B0FF444808F04DF8082243494448DE
:101E500008F036F9434806F0B7FF0346002B14BFDD
:101E600001230023DBB2002B03D03F4808F028F900
:101E700007E03E4808F024F907F012F83C4808F063
:101E80001FF93C4805F0B6FD09F04EFD09F06EFD66
:101E9000394808F015F900237B820023FB6040F2EB
:101EA0000512364936480FF0DDFD364B1B681A68BF
:101EB000344B1B6822F008021A60FFF7C7FE324B52
:101EC0001B684FF0FF31184613F002FA00237B61C4
:101ED00019E02E497A691346DB009B1A1B010B445B
:101EE00060331B78002B0AD07A691346DB009B1AFB
:101EF0001B01264A1344184609F0B8FA00E000BF57
:101F00007B6901337B617A69214B1B689A42E0D37C
:101F10001D4B1B68184613F029FA0A2013F0ABF981
:101F20000DF016FB02461B4B1B68D31A47F22F52CB
:101F300093428CBF01230023DBB2002BBFD00DF0F6
:101F400007FB0346134A1360114B1B68DBB21946AB
:101F50000E4806F087FCB2E7DC59002090A3030886
:101F60009CA30308404D0020B4A30308D4A3030896
:101F7000FCA303080C0D00201CA40308C848002083
:101F80004C590020245A00203C5100207C050020A0
:101F9000B4470020F054002080B582B000AF7860D4
:101FA00001224FF4005120480CF09EFD01224FF415
:101FB00080411D480CF098FD01224FF400411A4861
:101FC0000CF092FD4FF480421749184807F056FE76
:101FD0004FF400521449164807F050FE4FF40042E7
:101FE0001149144807F04AFE0021104807F0A7FEE7
:101FF00000210F4807F0A3FE64234FF4FA62012189
:102000000C4807F086FE0B4807F052FE074807F021
:1020100070FD074807F06DFD064807F06AFD0120D6
:1020200013F029F900BFF1E7000802407C0C002002
:10203000AC0C0020DC0C002090B58DB002AF7860B5
:1020400002E0012013F017F9634B5B68002BF8D016
:10205000624807F02DFE4FF47A7013F00CF95F48D8
:1020600007F04AFE5E4823F041F903461322194661
:102070005C4825F013FD5B4B0022DA7400233B61C2
:102080000023FB8100220021102014F0ABF87862BD
:102090007B6A002B00F09B8051220021786A14F0AB
:1020A0005BF90346FB75FB7D5BB2002B0CBF012384
:1020B0000023DBB2002B00F08A80FF21786A14F045
:1020C00083F907F11C031946786A14F0A9F903464D
:1020D000BB75BB7D5BB2002B0CBF01230023DBB2C1
:1020E000002B6CD03D4807F0E3FD3F4807F0E8FFC8
:1020F00045E0BB6907F10E0207F11001184616F022
:1021000031F9FB8940F2FF12934228BF13469BB27C
:102110003B623B693A6A1946344825F0ACFD334AC4
:102120003B6A134400221A703049314807F0C8FF57
:102130003B6A002B14D02F4B00221A704FF4007210
:102140002C492A4804F0DAFBFC692A48FEF7D2F849
:1021500002460023009301232649204614F0E2FBA7
:10216000BB69184616F048F90346DB43DBB2DB09CE
:10217000DBB2002BBDD1BB69184616F0D3F8FB6962
:1021800007F118021146184614F052FB03461A468E
:10219000BA75002B0CBF01230023DBB2002BA8D1A2
:1021A000FB69184614F0C0FCFB69184614F0B8F837
:1021B000114807F085FF094807F09EFD03E0FB6921
:1021C000184614F0ADF8142013F055F879E7012003
:1021D00013F051F856E700BF94C000207C0C00209B
:1021E00098C00020D049002034A40308F4540020F3
:1021F00044A40308F456002050A4030880B586B018
:1022000002AF78603E4BD3F81B304FF480723D49EB
:1022100018460FF0CAFB0346FB733B4B1B684FF09D
:10222000FF31184613F00AF9384B1B681B78102B46
:102230005FD10DF08DF90346354A9360344B5B68EE
:102240001846FFF79BFB0346314A53612C4BDB7D5D
:10225000002B02D0012B38D043E00DF079F9034672
:102260002B4AD3602A4B9B681846FFF787FB03462F
:10227000274A9361274B1B881946274B1B88274AFF
:10228000204808F0D7F8B860214B1969204B5A69EB
:102290001F4B9B69224807F013FFBB68002B0ADC29
:1022A000BB6813F1020F03D11E4807F009FF02E0DB
:1022B0001D4807F005FF154B1868BA680023009306
:1022C0000123164914F02EFB0FE0104B1868114B38
:1022D0001B881A460023009301230A4914F022FBAD
:1022E00003E0124807F0ECFE00BF0A4B00221A8000
:1022F00002E0084B00221A80012012F0BCFF8CE79C
:102300001C000020E44A00206C51002054000020F2
:10231000640D0020EC4C0020B8470020E84B002062
:1023200060A40308A4A40308C4A40308ECA403083D
:1023300080B58CB000AF786002E0012012F09BFF06
:102340006F4B5B68002BF8D007F118037B6100230B
:102350003B610023FB8100220021102013F042FF8B
:102360000346684A1360674B1B68002B00F0C3806C
:10237000644B1B684FF4FB720021184613F0ECFF0E
:10238000034687F82F3097F92F30002B40F0B380A9
:102390005C4B1B68FF21184614F016F8594B1B685C
:1023A0005949184614F03CF8034687F82E3097F93F
:1023B0002E30002B40F0968078E07B6907F10E020A
:1023C00007F11001184615F0CDFF0DF0C1F80346D6
:1023D0004E4A13604E4BDB7D002B02D0012B3FD0C9
:1023E00051E03869FB8919464A4B4B4A07F0E7FF31
:1023F000B862BB6A002B2FDDB96A474807F0B0FF0F
:102400000346002B14BF01230023DBB2002B02D1B3
:10241000424807F055FE0DF09BF803463B4A5360D7
:102420003A4B1B681846FFF7A9FA0346374A13616F
:10243000012210213A480CF057FB354BD3F81B0012
:10244000BB6A9AB2642334490FF034F90022102198
:1024500033480CF049FB1AE0324825F023F916E026
:10246000012210212E480CF03FFB294BD3F81B0012
:102470003969FA8964230FF01DF9002210212848D8
:102480000CF032FB03E0284807F01AFE00BF7B691E
:10249000184615F0B1FF0346DB43DBB2DB09DBB2C4
:1024A000002B8AD17B69184615F03CFF164B1B6840
:1024B00007F114021146184614F0BAF90346002B2E
:1024C0000CBF01230023DBB2002B7FF476AF0E4B51
:1024D0001B68184614F028FB0B4B1B68184613F0BA
:1024E0001FFF04E0084B1B68184613F019FF01207A
:1024F00012F0C1FE52E70A2012F0BDFE2BE700BF2A
:1025000094C000205000002054000020640D0020E2
:102510001C000020B8470020E449002000A5030863
:10252000000C024018A50308ECA4030880B58CB089
:1025300000AF78604FF400725F4960480FF092FA84
:102540005F4B1B681A685E4B1B6822F008021A601A
:102550005C4B196807F10C0341F28832184613F0FE
:102560006DF8FB68102B40F0A3800121564807F05E
:10257000ACFB564802F0B8FFB862BB6A002B00F013
:1025800094805349B86A03F0E3FD78625149B86A10
:1025900003F0DEFD38625049B86A03F0D9FDF861F6
:1025A0004E49B86A03F0D4FDB861786A04F041F886
:1025B0000346002B0ED0786A01F096FE51EC100B0A
:1025C0004FF00002464BFEF717FB0346002B01D0ED
:1025D000012300E00023002B60D0002387F82F3078
:1025E000F86904F00FF80346002B14BF0123002301
:1025F000DBB2002B03D0012387F82F3002E0002349
:1026000087F82F30386A04F014F80346002B14BF03
:1026100001230023DBB2002B3CD03B6A5B69013B0A
:10262000062B33D801A252F823F000BF4926010837
:10263000572601085F26010867260108772601084A
:10264000852601086F26010897F82F301946B869CA
:1026500000F05CF825E0B86900F0DAFA21E0B8692A
:1026600000F08CFB1DE0B86900F02AFD19E0B869A4
:1026700000F09EFE15E097F82F301946B86901F07A
:102680002BF80EE0B86901F0FFF80AE0154807F0F2
:1026900017FD06E0144807F013FD02E0134807F0A9
:1026A0000FFDB86A01F0E6FE02E0114807F008FDF0
:1026B0000A2012F0E0FD4BE7AC450020DC59002079
:1026C000845A00205C510020AC0C0020AC43002058
:1026D00034A5030838A5030844A5030854A5030836
:1026E0000000F03F58A5030874A5030888A5030857
:1026F00098A5030880B582B000AF786007F034FC7D
:10270000012012F0B8FD00BFF8E700002DE9F0430A
:10271000B1B00AAF78600B46FB709749786803F058
:1027200017FDC7F890009549786803F011FDC7F8C8
:102730008C009349786803F00BFDC7F88800914935
:10274000786803F005FDC7F884008F49786803F0C6
:10275000FFFCC7F880008D49786803F0F9FCF86742
:102760008B49786803F0F4FCB8678A49786803F00D
:10277000EFFC78678849786803F0EAFC3867874996
:10278000786803F0E5FCF8668549786803F0E0FCBA
:10279000B8668449786803F0DBFC7866002387F824
:1027A0009730D7F88C30002B13D0D7F88C0003F07B
:1027B00029FF0346002B0CD0D7F89030002B08D00F
:1027C000D7F8900003F04CFF0346002B01D0012303
:1027D00000E00023002B44D0D7F890301B693B6603
:1027E0003B6E002B3DD03B6E1B78002B39D007F1A0
:1027F0004C0107F1500207F14403019307F148032C
:1028000000930B466849386E24F0A8FF0346042B5A
:102810000DD13B6DFF2B0AD8FB6CFF2B07D8BB6C8F
:10282000FF2B04D87B6CFF2B01D8012300E0002391
:10283000002B13D03B6DDAB25C4B5A72FB6CDAB2F0
:102840005A4B9A72BB6CDAB2584BDA727B6CDAB2C2
:10285000564B1A73012387F8973002E0544807F06B
:102860002FFCD7F88430002B13D0D7F8840003F066
:10287000C9FE0346002B0CD0D7F88830002B08D0B7
:10288000D7F8880003F0ECFE0346002B01D00123AB
:1028900000E00023002B58D0D7F888301B69FB6577
:1028A000FB6D002B51D0FB6D1B78002B4DD007F139
:1028B0003C0107F1400207F12C03039307F13003B9
:1028C000029307F13403019307F1380300930B4699
:1028D0003849F86D24F042FF0346062B13D13B6CB8
:1028E000FF2B10D8FB6BFF2B0DD8BB6BFF2B0AD82F
:1028F0007B6BFF2B07D83B6BFF2B04D8FB6AFF2BAE
:1029000001D8012300E00023002B1BD03B6CDAB27E
:10291000264B5A70FB6BDAB2244B9A70BB6BDAB25F
:10292000224BDA707B6BDAB2204B1A713B6BDAB256
:102930001E4B5A71FB6ADAB21C4B9A71012387F85D
:10294000973002E01C4807F0BBFBFB6F002B35D033
:10295000F86F03F057FE0346002B2FD0D7F88030D6
:10296000002B2BD0D7F8800003F07AFE0346002B13
:1029700024D0012323E000BFA8A50308ACA50308C9
:10298000B4A50308B8A50308C0A50308C8A5030893
:10299000D4A50308DCA50308E4A50308E8A50308FB
:1029A000F0A50308F8A5030800A603081C000020F2
:1029B0000CA603082CA6030840A603080023002B3E
:1029C00044D0D7F880301B69BB65BB6D002B3DD070
:1029D000BB6D1B78002B39D007F1240107F12802C9
:1029E00007F11C03019307F1200300930B467E4976
:1029F000B86D24F0B3FE0346042B0DD1BB6AFF2B48
:102A00000AD87B6AFF2B07D83B6AFF2B04D8FB69E7
:102A1000FF2B01D8012300E00023002B13D0BB6A59
:102A2000DAB2724B5A747B6ADAB2704B9A743B6AB0
:102A3000DAB26E4BDA74FB69DAB26C4B1A750123A9
:102A400087F8973002E06A4807F03AFB7B6F002B6B
:102A500010D0786F03F0D6FD0346002B0AD0BB6F71
:102A6000002B07D0B86F03F0FBFD0346002B01D00D
:102A7000012300E00023002B43D0BB6F1B697B6563
:102A80007B6D002B3DD07B6D1B78002B39D007F17F
:102A9000140107F1180207F10C03019307F1100369
:102AA00000930B465049786D24F058FE0346042BE2
:102AB0000DD1BB69FF2B0AD87B69FF2B07D83B6977
:102AC000FF2B04D8FB68FF2B01D8012300E0002373
:102AD000002B13D0BB69DAB2444B5A737B69DAB26C
:102AE000424B9A733B69DAB2404BDA73FB68DAB255
:102AF0003E4B1A74012387F8973002E03D4807F0F7
:102B0000DFFAFB6E002B0DD0F86E03F07BFD034661
:102B1000002B07D03B6F002B04D0386F03F0A0FDD3
:102B20000346002B7B6E002B0AD0786E03F06AFD03
:102B30000346002B04D0BB6E002B01D0012300E024
:102B40000023002B0DD0B86E03F05CFD0346002B74
:102B500001D0012200E00022244B5A75012387F89E
:102B6000973097F89730002B36D0234807F0A8FA13
:102B7000FB78002B33D01D4B1A6891465A6890465B
:102B80009A68964603F10C046E4604F1200C354613
:102B90002346186859689A68DB680FC510341036E8
:102BA0006445F4D1334622461068186091889279C2
:102BB00099809A71494642467346104806F0B4F926
:102BC0000346002B04D033210D4807F079FA06E0C4
:102BD0000C4807F075FA02E00B4807F071FA00BFE5
:102BE0009C37BD46BDE8F08300A603081C0000200A
:102BF00060A6030884A60308A4A603080C0D002001
:102C0000BCA60308D8A60308ECA603080000000031
:102C100080B588B000AF78604B4B1B78002B00F07C
:102C2000818003F0DBFCB86103F0C4FC7861474BA2
:102C30001B684FF0FF31184612F04AFB0023FB617E
:102C400040E003F0CBFCF860414AFB69DB00134431
:102C50001B79FB723E4AFB6952F83320FB7A1B0159
:102C600013440C331B781846FDF7E4FC02460B4670
:102C700043EC102B3749F86803F0A6FB344AFB6994
:102C800052F8333093F860301846FDF7D3FC024613
:102C90000B4643EC102B3049F86803F095FBFB7AA8
:102CA0001846FDF7C7FC02460B4643EC102B2B4998
:102CB000F86803F089FBF968786903F09FFAFB690B
:102CC0000133FB61204B1B781A46FB699342B8DB4A
:102CD0001E4B1B68184612F049FB9FED170B20494D
:102CE000B86903F071FB1F4A1F49B86903F090FBF4
:102CF0009FED130B1D49B86903F066FB7A691C4907
:102D0000B86903F0E9FAB86902F086FC38613969FC
:102D1000184807F0D5F9386923F0CEFBB86901F0FF
:102D2000A9FB02E0144807F0CBF900BF2037BD46ED
:102D300080BD00BFAFF30080000000000000F03F46
:102D400000000000000000401C0000203C5100205A
:102D50007C02002008A703080CA7030818A7030893
:102D600034A5030890A3030820A7030838A5030887
:102D700054A503082CA7030830A703082DE9F04346
:102D8000A1B00AAF7860B849786803F0E1F9386516
:102D9000386D01F0A9FA53EC102B10461946FDF7D7
:102DA00073FF0346FB64FB6C013B042B00F2528172
:102DB00001A252F823F000BFCD2D01087F2E01089B
:102DC000E12E0108E92E010843300108A74978687F
:102DD00003F0BEF97861A649786803F0B9F9386163
:102DE000786901F081FA53EC102B10461946FDF773
:102DF0004BFF0346FB60386901F076FA53EC102B69
:102E000010461946FDF740FF0346BB60994807F09E
:102E100057F9FEF71BFF984B1A6891465A6890467F
:102E20009A68964603F10C046E4604F1200C354670
:102E30002346186859689A68DB680FC51034103645
:102E40006445F4D13346224610681860918892791F
:102E500099809A71494642467346884806F064F85C
:102E60000346002B04D03321854807F029F902E0FE
:102E7000844807F025F9844807F022F9EEE08349F9
:102E8000786803F065F9F8628149786803F060F9C1
:102E9000B8628049786803F05BF97862F86A01F0FB
:102EA00023FA53EC102B10461946FDF7EDFE0346AE
:102EB0003B62B86A01F018FA53EC102B1046194621
:102EC000FDF7E2FE0346FB61786A01F00DFA53EC70
:102ED000102B10461946FDF7D7FE0346BB61BDE037
:102EE0006D4807F0EDF8B9E06849786803F030F90B
:102EF000B8646A49786803F02BF97864684978689F
:102F000003F026F938646749786803F021F9F8631B
:102F1000B86C01F0E9F953EC102B10461946FDF797
:102F2000B3FE0346BB63786C01F0DEF953EC102B63
:102F300010461946FDF7A8FE03467B63386C03F084
:102F400061FB0346002B14BF0123002387F83330B5
:102F5000F86B03F057FB0346002B14BF012300233B
:102F600087F83230504B1B684FF0FF31184612F093
:102F7000AFF997F83230002B31D000237B6527E082
:102F80004A4A7B6D52F83330002B1ED0474A7B6D86
:102F9000DB0013441B7987F83030444A7B6D52F8CC
:102FA000331097F830307A6B1B010B4404331A60EE
:102FB0003E4A7B6D52F8332097F8303097F8331043
:102FC0001B0113440B330A461A707B6D01337B657A
:102FD0007B6D5F2BD4DD364807F072F82BE0334A67
:102FE000BB6B52F83330002B22D0304ABB6BDB0076
:102FF00013441B7987F831302C4ABB6B52F83310DD
:1030000097F831307A6B1B010B4404331A60274A5E
:10301000BB6B52F8332097F8313097F833101B010F
:1030200013440B330A461A70214807F049F802E0AE
:10303000204807F045F81C4B1B68184612F096F91B
:103040000CE01D4807F03CF840F6B83012F013F9D8
:10305000FEF77EFC194807F033F800BF00BF5C376D
:10306000BD46BDE8F08300BF40A7030848A703089A
:1030700054A7030860A703081C0000200C0D0020C3
:10308000BCA60308D8A6030884A7030894A70308CE
:1030900098A70308A4A70308ACA70308BCA70308C4
:1030A000C0A70308C4A703083C5100207C020020ED
:1030B000C8A70308CCA70308DCA70308ECA70308EC
:1030C000F0B5A9B006AF786003F088FAB86703F0EE
:1030D00071FA786703F082FA38679FED990B9E4981
:1030E000B86F03F071F99D4A9D49B86F03F090F9EC
:1030F0009FED950B9B49B86F03F066F99A4B5B7A8D
:103100001C46994B9B7A1A46974BDB7A1946964B8D
:103110001B7B07F144000293019100922346934ADE
:10312000142124F0C7FA07F144031A469049386F76
:1031300003F06EF98C4B5B781E468B4B9B781A46DE
:10314000894BDB781946884B1B791C46864B5B798B
:103150001D46854B9B7907F130000493039502943B
:10316000019100923346834A142124F0A3FA07F117
:1031700030031A468049386F03F04AF97A4B5B7C7A
:103180001C46794B9B7C1A46774BDB7C1946764B69
:103190001B7D07F11C000293019100922346734AA4
:1031A000142124F087FA07F11C031A467349386F7B
:1031B00003F02EF96C4B5B7B1C466B4B9B7B1A46DA
:1031C000694BDB7B1946684B1B7C07F108000293B7
:1031D000019100922346654A142124F06BFA07F10D
:1031E00008031A466649386F03F012F9654A6649C2
:1031F000386F03F00DF95C4B5B7D002B04D0634905
:10320000386F03F07FF803E06049386F03F09AF8F5
:103210000023C7F884300023C7F8803010E05C4AF0
:10322000D7F8803052F83330002B0ED0D7F88430E6
:103230000133C7F88430D7F880300133C7F88030C5
:10324000D7F880305F2BEADD00E000BF03F0C6F95D
:10325000F866D7F88400FDF7FDF902460B4643EC0B
:10326000102B4C49F86E03F0AFF89FED390B4A492B
:10327000F86E03F0A9F8FA6E4849B86F03F02CF81D
:10328000786F01F0F7F83A6F4549B86F03F024F80A
:10329000B86F02F0C1F9B866B86EFDF72BF8786622
:1032A00040F2FD533B667B6E40F2FD52934207D8DD
:1032B000B96E3C4806F08CFF3B4806F089FF34E0CD
:1032C0000023FB672AE07A6EFB6FD31A40F2FD52AF
:1032D000934228BF1346FB65FA6FFB6D1344BA6E29
:1032E00013441B7887F85B30FA6FFB6D1344BA6E9A
:1032F000134400221A70BA6EFB6F13441946294812
:1033000006F066FFFA6FFB6D1344BA6E134497F82C
:103310005B201A70FA6FFB6D1344FB67FA6F7B6ECC
:103320009A42D0D3204806F053FFB86E03F0B0F9AC
:10333000B86F01F09FF800BF8C37BD46F0BD00BFED
:10334000000000000000F03F0000000000001040FE
:10335000000000000000584034A5030890A30308B3
:1033600020A7030838A503081C00002000A60308B6
:10337000A8A503082CA60308B4A50308C0A5030844
:10338000D4A50308FCA70308E4A50308F0A50308D7
:103390007C02002004A803080CA8030814A8030852
:1033A00020A803082CA7030828A803080000000091
:1033B00080B594B000AF78609749786802F0C8FE95
:1033C00078639649786802F0C3FE38637B6B002B04
:1033D00008D0786B03F02DF90346002B02D07B6BED
:1033E0005B6900E00023FB643B6B002B08D0386B6B
:1033F00003F01FF90346002B02D03B6B5B6900E032
:103400006023BB64BB6C142B01DD1423BB64FB6C19
:10341000002B01DA0023FB64FB6C5F2B01DD5F23D3
:10342000FB6403F0DBF8F86203F0C4F8B8629FEDC8
:10343000760B7B49F86A02F0C7FF7A4A7A49F86A44
:1034400002F0E6FF9FED720B7849F86A02F0BCFFCC
:1034500000237B64FA6CBB6C13443B643B6C602BB5
:1034600001DD60233B64FB6CFB636CE0704AFB6B2B
:1034700052F83330002B6FD003F0B0F878626C4A0A
:10348000FB6BDB0013441B7987F82330F86BFDF7E7
:10349000E1F802460B4643EC102B6649786A02F0CD
:1034A00093FF634AFB6B52F8333093F86030184651
:1034B000FDF7C0F802460B4643EC102B5E49786AD4
:1034C00002F082FF97F823301846FDF7B3F8024662
:1034D0000B4643EC102B5949786A02F075FF544AA9
:1034E000FB6B52F8332097F823301B01134404334D
:1034F0001B681846FDF79EF802460B4643EC102B5E
:103500004F49786A02F060FF494AFB6B52F833205A
:1035100097F823301B0113440B331B78002B04D086
:103520004849786A02F0EEFE03E04649786A02F004
:1035300009FF796AB86A02F061FE7B6C01337B6433
:10354000FB6B0133FB63FA6B3B6C9A4205DA7A6CD6
:10355000BB6C9A428ADB00E000BFF86CFDF77AF89A
:1035600002460B4643EC102B2B49F86A02F02CFF65
:10357000B86CFDF76FF802460B4643EC102B274959
:10358000F86A02F021FF786CFDF764F802460B46FA
:1035900043EC102B2C49F86A02F016FFFA6C7B6C96
:1035A00013445F2B09DCFA6C7B6C1344204A52F8FD
:1035B0003330002B01D0012300E000231A462349B9
:1035C000F86A02F0DFFEBA6A2149F86A02F084FE66
:1035D000F86A02F021F8F861F869FCF78BFEB8612F
:1035E00040F2FD537B61BB6940F2FD52934207D824
:1035F000F969184806F0ECFD174806F0E9FD5DE0B2
:103600000023BB6353E000BF000000000000F03F58
:103610000000000000001C402CA8030834A8030888
:1036200034A5030890A3030820A7030838A50308BE
:103630007C02002008A703083CA8030844A803084C
:1036400048A803084CA8030804A8030854A80308C2
:1036500060A803082CA7030828A80308BA69BB6B55
:10366000D31A40F2FD52934228BF13463B61BA6B16
:103670003B691344FA6913441B78FB73BA6B3B69CB
:103680001344FA69134400221A70FA69BB6B13449D
:1036900019460F4806F09CFDBA6B3B691344FA6962
:1036A0001344FA7B1A70BA6B3B691344BB63BA6B61
:1036B000BB699A42D2D3074806F08AFDF86902F046
:1036C000E7FFF86A00F0D6FE00BF5037BD4680BD68
:1036D0002CA7030828A803082DE9F04393B00AAFEC
:1036E00078600B46FB705C49786802F031FDB86188
:1036F0005A49786802F02CFD78615949786802F0DF
:1037000027FD38615749786802F022FDF8600023F0
:10371000FB777B69002B07D0786902F073FF0346C3
:10372000002B01D0012300E00023002B1ED0BB6939
:10373000002B07D0B86902F07CFF0346002B01D0B4
:10374000012300E00023002B0DD0BB695B69FB72F5
:10375000454BDB7DFA7A9A4208D0434AFB7AD3750F
:103760000123FB7702E0414806F0AAFCFB68002B2E
:1037700007D0F86802F046FF0346002B01D0012372
:1037800000E00023002B21D03B69002B07D03869D3
:1037900002F04FFF0346002B01D0012300E000237D
:1037A000002B10D03B695B693B812F4BB3F819307C
:1037B0009BB23A899A4209D02B4B3A89A3F8192037
:1037C0000123FB7702E02A4806F07AFCFB7F002BFE
:1037D00033D0FB78002B30D0234B1A6891465A68BF
:1037E00090469A68964603F10C046E4604F1200C4C
:1037F00035462346186859689A68DB680FC5103447
:1038000010366445F4D1334622461068186091881A
:10381000927999809A71494642467346154805F057
:1038200083FB0346002B04D03321134806F048FCE9
:103830000DE0124806F044FC09E0FB7F83F0010331
:10384000DBB2002B03D00E4806F03AFCFFE700BFC6
:103850002437BD46BDE8F08368A8030870A80308B4
:1038600078A8030880A803081C00002088A8030883
:10387000ACA803080C0D0020BCA60308D8A60308BA
:10388000D0A803080000000080B586B000AF7860C3
:1038900002F0A4FE786102F0A1FE38619FED2C0BCE
:1038A0002F49786902F090FD2E4A2F49786902F07D
:1038B000AFFD9FED290B2D49786902F085FD2C4B5A
:1038C000DB7D1846FCF7B6FE02460B4643EC102B98
:1038D0002849386902F078FD254BB3F819309BB2BE
:1038E0001846FCF7A7FE02460B4643EC102B224974
:1038F000386902F069FD1E4BD3F81B305B6818462F
:10390000FCF798FE02460B4643EC102B1B49386926
:1039100002F05AFD3A691A49786902F0DDFC7869CB
:1039200001F07AFEF860FB68002B09D0F9681548B1
:1039300006F04EFC144806F04BFCF86802F0A8FEB6
:10394000786900F097FD00BF1837BD4680BD00BF05
:10395000000000000000F03F0000000000001840E0
:1039600034A5030890A3030820A7030838A503087B
:103970001C00002068A8030878A80308F0A8030822
:1039800054A503082CA7030828A8030880B582B013
:1039900000AF786039607B68012B0DD13B684FF632
:1039A000FF72934208D10AF0A9FB0346044AA2FB26
:1039B00003235B0B034A136000BF0837BD4680BD7D
:1039C00073B2E745BC47002080B500AF4FF6FF71EA
:1039D0000120FFF7DBFF80BD80B582B000AF002380
:1039E0007B60144B1B6B134A43F480031363114B2E
:1039F0001B6B03F480037B607B6800220521392068
:103A00000BF046FD39200BF05FFD002205213A2026
:103A10000BF03EFD3A200BF057FD0022052145201A
:103A20000BF036FD45200BF04FFD00BF0837BD46BB
:103A300080BD00BF0038024080B500AF174B184A68
:103A40001A60164B4FF482725A60144B00229A602F
:103A5000124B0022DA60114B00221A610F4B002238
:103A60005A610E4B4FF400729A610C4B1022DA61CE
:103A70000A4B00221A62094B00225A62074B0022AD
:103A80009A62064B0A22DA6204480CF0EDFF034604
:103A9000002B01D0FDF738FE00BF80BDF458002098
:103AA000003C004080B58AB000AF786007F1140395
:103AB00000221A605A609A60DA601A617B681B689B
:103AC000194A93422CD100233B61184B1B6C174AB7
:103AD00043F400431364154B1B6C03F400433B6138
:103AE0003B690023FB60114B1B6B104A43F004033E
:103AF00013630E4B1B6B03F00403FB60FB684FF476
:103B0000E0537B610223BB610023FB6103233B6223
:103B100006237B6207F11403194605480AF048FEA4
:103B200000BF2837BD4680BD003C00400038024041
:103B30000008024080B500AF114B124A1A60104BCA
:103B40004FF4E1325A600E4B00229A600C4B002277
:103B5000DA600B4B00221A61094B0C225A61084BA8
:103B600000229A61064B0022DA6105480DF052FDF1
:103B70000346002B01D0FDF7C7FD00BF80BD00BF8D
:103B80004C5900200010014080B500AF114B124A83
:103B90001A60104B4FF4E1325A600E4B00229A60CB
:103BA0000C4B0022DA600B4B00221A61094B0C22ED
:103BB0005A61084B00229A61064B0022DA610548DF
:103BC0000DF028FD0346002B01D0FDF79DFD00BF41
:103BD00080BD00BF945900200044004080B500AF74
:103BE000114B124A1A60104B4FF4E1325A600E4BDF
:103BF00000229A600C4B0022DA600B4B00221A6103
:103C0000094B0C225A61084B00229A61064B002294
:103C1000DA6105480DF0FEFC0346002B01D0FDF7EC
:103C200073FD00BF80BD00BFDC59002000140140BF
:103C300080B58EB000AF786007F1240300221A60CF
:103C40005A609A60DA601A617B681B689D4A9342E9
:103C500063D100233B629C4B5B6C9B4A43F0100397
:103C60005364994B5B6C03F010033B623B6A002387
:103C7000FB61954B1B6B944A43F002031363924B19
:103C80001B6B03F00203FB61FB69C0237B62022311
:103C9000BB620023FB6203233B6307237B6307F1C3
:103CA0002403194689480AF083FD894B894A1A6022
:103CB000874B4FF000625A60854B00229A60844B1C
:103CC0000022DA60824B4FF480621A61804B00223E
:103CD0005A617F4B00229A617D4B4FF48072DA610A
:103CE0007B4B00221A627A4B00225A6278480AF013
:103CF00015FF0346002B01D0FDF706FD7B68744AD3
:103D0000DA63734A7B6893630022052125200BF058
:103D1000BFFB25200BF0D8FBD0E07B681B686E4A08
:103D2000934234D10023BB61674B1B6C664A43F45A
:103D300000331364644B1B6C03F40033BB61BB6939
:103D400000237B61604B1B6B5F4A43F008031363E6
:103D50005D4B1B6B03F008037B617B6960237B6217
:103D60000223BB620023FB6203233B6307237B63C5
:103D700007F12403194659480AF01AFD00220521CB
:103D800026200BF085FB26200BF09EFB96E07B683F
:103D90001B68534A934240F0918000233B614A4B99
:103DA0005B6C494A43F020035364474B5B6C03F060
:103DB00020033B613B690023FB60434B1B6B424A82
:103DC00043F004031363404B1B6B03F00403FB60DD
:103DD000FB68C0237B620223BB620023FB620323D8
:103DE0003B6308237B6307F1240319463D480AF02F
:103DF000DFFC3D4B3D4A1A603B4B4FF020625A605E
:103E0000394B00229A60384B0022DA60364B4FF46F
:103E100080621A61344B00225A61334B00229A614E
:103E2000314B4FF48072DA612F4B00221A622E4B15
:103E300000225A622C480AF071FE0346002B01D082
:103E4000FDF762FC7B68284ADA63274A7B68936344
:103E5000274B284A1A60264B4FF020625A60244BA9
:103E600040229A60224B0022DA60214B4FF480629C
:103E70001A611F4B00225A611D4B00229A611C4B94
:103E80000022DA611A4B00221A62194B00225A6290
:103E900017480AF043FE0346002B01D0FDF734FC1F
:103EA0007B68134A9A63124A7B6893630022052158
:103EB00047200BF0EDFA47200BF006FB00BF383728
:103EC000BD4680BD001001400038024000040240A1
:103ED000245A00204064024000440040000C02408C
:103EE0000014014000080240845A00202864024067
:103EF000E45A0020A064024080B500AF0AF064F9E3
:103F000000BFFDE780B500AF024806F0D9F800BF5A
:103F1000FDE700BFF4A8030880B400AF00BFFDE7D1
:103F200080B400AF00BFFDE780B400AF00BFFDE785
:103F300080B400AF00BFBD465DF8047B7047000051
:103F400080B500AF02480DF0F7FD00BF80BD00BF97
:103F50004C59002080B500AF02480DF0EDFD00BFC8
:103F600080BD00BF9459002080B500AF024809F021
:103F7000BDFA00BF80BD00BF445B002080B500AF2C
:103F800002480AF063FF00BF80BD00BF845A0020D2
:103F900080B500AF02480AF059FF00BF80BD00BFE6
:103FA000245A002080B500AF02480BF087FE00BF06
:103FB00080BD00BF8CBF002080B500AF02480AF072
:103FC00045FF00BF80BD00BFE45A002080B500AFB0
:103FD00002480DF0B1FD00BF80BD00BFDC590020DC
:103FE00080B582B000AF00237B60124B5B6C114A3E
:103FF00043F4804353640F4B5B6C03F480437B605A
:104000007B6800233B600B4B1B6C0A4A43F08053D8
:104010001364084B1B6C03F080533B603B68002229
:104020000F216FF001000BF033FA00BF0837BD46D7
:1040300080BD00BF0038024080B58EB000AF786010
:104040000023FB620023BB620023FB60334B1B6C2D
:10405000324A43F020031364304B1B6C03F02003FF
:10406000FB60FB6807F1100207F1140311461846C4
:104070000AF078F83B6AFB62FB6A002B03D10AF076
:1040800049F8786304E00AF045F803465B007B6377
:104090007B6B234AA2FB03239B0C013BBB62214B9E
:1040A000214A1A601F4B40F2E732DA601D4ABB6AB0
:1040B00053601C4B00221A611A4B00229A60194B64
:1040C00000229A61174809F048F9034687F833300F
:1040D00097F83330002B1BD1124809F097F90346AB
:1040E00087F8333097F83330002B11D137200BF09D
:1040F000EBF97B680F2B08D80022796837200BF08A
:10410000C7F90A4A7B68136002E0012387F833305D
:1041100097F8333018463837BD4680BD0038024026
:1041200083DE1B43445B0020001400407C00002021
:1041300080B400AF064BD3F88830054A43F47003CF
:10414000C2F8883000BFBD465DF8047B704700BFF1
:1041500000ED00E080B400AF01231846BD465DF8D5
:10416000047B704780B483B000AF78603960054B42
:1041700016221A604FF0FF3318460C37BD465DF823
:10418000047B7047F082012080B582B000AF786078
:104190004FF0FF317868FFF7E5FF00BFFDE780B51E
:1041A00086B000AFF860B9607A6000237B610AE0F6
:1041B000AFF300800146BB685A1CBA60CAB21A70DD
:1041C0007B6901337B617A697B689A42F0DB7B68AB
:1041D00018461837BD4680BD80B586B000AFF86080
:1041E000B9607A6000237B6109E0BB685A1CBA6041
:1041F0001B781846AFF300807B6901337B617A69D5
:104200007B689A42F1DB7B6818461837BD4680BD53
:1042100080B483B000AF78604FF0FF3318460C379E
:10422000BD465DF8047B704780B483B000AF786012
:1042300039603B684FF400525A60002318460C372F
:10424000BD465DF8047B704780B483B000AF7860F2
:10425000012318460C37BD465DF8047B704780B4D7
:1042600085B000AFF860B9607A6000231846143753
:10427000BD465DF8047B704780B487B000AF7860BE
:10428000144A154BD31A7B617B693B61134B1B6846
:10429000002B02D1114B124A1A60104B1A687B682E
:1042A00013443A699A4205D20E4B0C221A604FF021
:1042B000FF3309E0094B1B68FB60084B1A687B68F9
:1042C0001344064A1360FB6818461C37BD465DF868
:1042D000047B704700000220002000008C5B00205F
:1042E000F8820120F082012080B582B000AF7860B2
:1042F000786802F09EF90346002B03D14FF00002CC
:10430000064B02E07B68D3E9062343EC172BB0EEA3
:10431000470AF0EE670A0837BD4680BD0000F87F07
:1043200080B485B000AF786039607B68002B02D024
:104330003B68002B01D1012356E07A683B689A4222
:104340000DD1002350E07B681B78002B01D10023A6
:104350004AE07B6801337B603B6801333B607B68EC
:104360001B78FB73FB7B0133224A13441B7803F059
:104370000303012B03D1FB7B03F1200200E0FA7B56
:104380003B681B78BB73BB7B01331A490B441B781A
:1043900003F00303012B02D1BB7B203300E0BB7B86
:1043A0009A42D0D07B681B787B737B7B0133114AA8
:1043B00013441B7803F00303012B03D17B7B03F130
:1043C000200200E07A7B3B681B783B733B7B013328
:1043D00008490B441B7803F00303012B02D13B7BFC
:1043E000203300E03B7BD31A18461437BD465DF8F6
:1043F000047B7047F809040880B584B000AF78608A
:1044000039600023FB600023BB607B68002B01D177
:10441000002315E07868FBF76DFF03460133FB606E
:104420003B681B68F8689847B860BB68002B01D1EF
:10443000002305E0FA687968B86823F01CFCBB68C3
:1044400018461037BD4680BD80B584B000AF786097
:104450007B681B6828209847F860FB68002B04D015
:1044600028220021F86823F0DFFAFB68184610378D
:10447000BD4680BD80B584B000AF78600023FB608E
:104480003DE07B681B68FB607B68DB6803F480733E
:10449000002B08D17B689B68002B04D07B689B684D
:1044A0001846FFF7E7FF7B68DB6803F48073002B97
:1044B0000CD17B681B69002B08D0154B5B687A68B0
:1044C0001269104698477B6800221A617B68DB6896
:1044D00003F40073002B0CD17B681B6A002B08D0FF
:1044E0000B4B5B687A68126A104698477B6800221B
:1044F0001A62074B5B6878689847FB687B607B684B
:10450000002BBED100BF00BF1037BD4680BD00BF2D
:104510005C00002080B400AF2E231846BD465DF835
:10452000047B70470000000080B58CB000AF78605D
:1045300039604FF000024FF00003C7E90623002363
:10454000FB60FFF7E7FF0346FB750023FB620023D8
:10455000BB6200237B623B68002B03D03B681B6877
:10456000002B01D10023C1E00023FB6230E03B6857
:104570001A683B689968FB6A0B4413441B78452B07
:1045800017DC2B2B30DB2B3B01229A405C4B13407A
:10459000002B14BF01230023DBB2002B0BD102F050
:1045A0000803002B14BF01230023DBB2002B06D12C
:1045B0001AE0652B18D1BB6A0133BB6205E0BB6A08
:1045C0000133BB6201237B6200BFFB6A0133FB62E4
:1045D0003B68002B0AD03B689A68FB6A1A443B6828
:1045E0005B689A42C3D301E000BF00E000BF3B68B4
:1045F0001B69BA6A01321046984738613B69002B43
:1046000001D1002372E03B681A683B689B68134441
:10461000BA6A1946386923F02EFB3A69BB6A13441B
:1046200000221A707B6A002B14D00023FB620DE07D
:104630003A69FB6A13441B782E2B04D13A69FB6A52
:104640001344FA7D1A70FB6A0133FB62FA6ABB6A93
:104650009A42EDD307F10C031946386922F058FE4F
:1046600087ED060BFB683A699A4205D13B685B69A6
:1046700038699847002339E07968D7E90623C1E90A
:1046800006231DA3D3E90023D7E90601FCF7D2FADC
:104690000346002B04D07B686FF000425A6115E09E
:1046A0004FF00002174BD7E90601FCF7B9FA0346B1
:1046B000002B04D07B684FF000425A6106E0D7E936
:1046C0000601FCF7E1FA02467B685A617B68082222
:1046D000DA603B689B68F9683A698A1A1A443B6851
:1046E0009A603B685B693869984701231846303700
:1046F000BD4680BDAFF300800000C0FFFFFFDF417B
:10470000E57F00040000E0C180B584B000AF7860B0
:1047100039600023FB600023BB607B68002B03D063
:104720007B681B68002B01D1002383E07B685B68FA
:10473000002B07D07B689A687B685B689A4201D33C
:10474000002377E03B68002B01DA002372E07B68EE
:104750009A683B68134401333B607B685B683A6846
:104760009A4205D87B681A687B689B68134461E0AD
:104770007B681B69002B01D000235BE03B68B3F131
:10478000804F08D33B68002B03DB6FF00043BB6016
:1047900004E000234EE03B685B00BB607B681B6A63
:1047A000002B18D07B681B6A7A681268B9681046BB
:1047B0009847F860FB68002B32D17B68DB697A6828
:1047C0001268104698477B6800225A607B68002276
:1047D0001A6000232EE07B689B69B8689847F860F0
:1047E000FB68002B0DD17B68DB697A681268104684
:1047F00098477B6800225A607B6800221A60002379
:1048000018E07B6819687B689B6801331A46F86872
:1048100023F031FA7B68DB697A68126810469847A2
:104820007B68BA685A607B68FA681A607B689B6824
:10483000FA68134418461037BD4680BD90B585B060
:1048400000AF78600023FB607B68002B13D07B688F
:104850001B68002B0FD07B681A687B689B68134429
:10486000FB607B689C68F868FBF744FD0346E21830
:104870007B689A6000E000BF1437BD4690BD000021
:104880002DE9F04387B000AF87ED020B87ED001BE9
:10489000B868FE6826F000413A687E6826F000435A
:1048A000FCF7D2F90346002B04D0BC68FB6823F068
:1048B000004503E03C687B6823F00045C7E90445F8
:1048C000D7E90023D7E90201FBF776FD02460B4644
:1048D000904623F000494FF000020C4BD7E9040149
:1048E000FBF722FF02460B4601210C464046494693
:1048F000FCF796F90346002B01D100231C46E3B2D6
:1049000018461C37BD46BDE8F08300BF0000B03C30
:10491000F0B593B000AF786039600023FB637B682B
:10492000D3E90623C7E90C2300237B6400233B64FF
:1049300000237B6107F1180300221A605A609A6015
:10494000DA601A619A82FFF7E5FD034687F82F3097
:104950004FF000024FF00003C7E902233B68002B31
:1049600001D10023B4E0D7E90C23D7E90C01FCF70F
:1049700075F90346002B21D13C6B7B6B23F000457E
:1049800001231E464FF0FF32534B20462946FCF7C9
:1049900065F90346002B0BD14FF0FF324E4B2046FA
:1049A0002946FCF73DF90346002B01D100231E46A2
:1049B000F3B283F00103DBB2002B07D007F114033D
:1049C0004649184622F0AAFE78643FE07B685B699E
:1049D0001846FBF73FFE02460B46D7E90C01FCF7F1
:1049E0000BF90346002B09D07B685A6907F11403C1
:1049F0003B49184622F092FE786427E007F1140044
:104A0000D7E90C23374922F089FE786407F10802C0
:104A100007F114033449184622F0A0FE0346012B87
:104A20000CD197ED027B97ED0C1BB0EE470AF0EE30
:104A3000670AFFF725FF0346002B07D107F1140093
:104A4000D7E90C23294922F069FE78647B6C002B9E
:104A500002DB7B6C192B01DD002339E07B6C013319
:104A600019463868FFF750FEF863FB6B002B01D145
:104A700000232DE000233B641AE007F114023B6C95
:104A800013441B7897F82F209A4205D1FA6B3B6CA0
:104A900013442E221A7008E0FA6B3B6C134407F1A2
:104AA00014013A6C0A4412781A703B6C01333B646F
:104AB0007B6C3A6C9A42E0D3FA6B3B6C1344002255
:104AC0001A703B689A687B6C1A443B689A600123B1
:104AD00018464C37BD46F0BDFFFFEF7F0CA9030819
:104AE00014A9030818A9030820A9030824A9030886
:104AF00080B485B000AF78600023FB600023BB600A
:104B00000023BB604CE07A68BB6813441B782F2BF2
:104B10000FD97A68BB6813441B78392B09D87A6897
:104B2000BB6813441B781A46FB681344303BFB6098
:104B30002DE07A68BB6813441B78402B0FD97A6844
:104B4000BB6813441B78462B09D87A68BB681344AA
:104B50001B781A46FB681344373BFB6017E07A6802
:104B6000BB6813441B78602B0FD97A68BB68134469
:104B70001B78662B09D87A68BB6813441B781A46E1
:104B8000FB681344573BFB6001E000230CE0BB686B
:104B9000022B02D8FB681B01FB60BB680133BB60C2
:104BA000BB68032BAFD9FB6818461437BD465DF8C8
:104BB000047B704780B58AB000AFF860B9607A6056
:104BC00000237B620023FB61FB68BB61002387F845
:104BD0002330002387F82230002387F82130002378
:104BE00087F82030BA68BB69D31A052B40F3B78029
:104BF000BB6902331846FFF77BFFF861FB69B3F529
:104C00005C4F04D3FB69B3F5604FC0F0AA80FB6929
:104C1000B3F5584F37D3FB69B3F55C4F33D2BB695B
:104C200006337B6100233B610C2387F82130BA688F
:104C30007B69D31A052B40F396807B691B785C2B2C
:104C400040F093807B6901331B78752B40F08D8099
:104C50007B6902331846FFF74BFF38613B69B3F5B8
:104C60005C4FC0F084803B69B3F5604F7FD2FB6935
:104C70009A02434B13403A69C2F30902134303F506
:104C800080337B6204E0062387F82130FB697B6276
:104C90007B6A7F2B03D8012387F823301FE07B6AD0
:104CA000B3F5006F06D2022387F82330C02387F8BC
:104CB000203014E07B6AB3F5803F06D2032387F8E7
:104CC0002330E02387F8203009E07B6AB3F5881FA2
:104CD0004FD2042387F82330F02387F8203097F849
:104CE0002330013B87F8223015E07B6ADBB203F00A
:104CF0003F03DAB27B68196897F822300B4462F000
:104D00007F02D2B21A707B6A9B097B6297F82230CD
:104D1000013B87F8223097F82230002BE5D197F835
:104D20002330012B09D97B6AD9B27B681B6897F8BD
:104D300020200A43D2B21A7007E07B6ADAB27B689D
:104D40001B6802F07F02D2B21A707B681A6897F86B
:104D500023301A447B681A6097F821300BE000BFBB
:104D600008E000BF06E000BF04E000BF02E000BFB3
:104D700000E000BF002318462837BD4680BD00BFB5
:104D800000FC0F0080B58AB000AF786039603B68E6
:104D90001A683B689B68013313447B623B681A685E
:104DA0003B689B68013313443B620023FB60002394
:104DB000FB613B681A683B689B6813441B78222B95
:104DC00040F0038100233B610023BB6117E03B6A95
:104DD0001B785C2B10D13B6A5A1C3B681B68D31AAA
:104DE0001A463B685B689A4280F0F180BB690133E8
:104DF000BB613B6A01333B623B6A01333B623B6808
:104E00001B683A6AD31A1A463B685B689A4203D217
:104E10003B6A1B78222BDAD13B681B683A6AD31AAB
:104E20001A463B685B689A4280F0D3803B6A1B78E5
:104E3000222B40F0CE803B681A683B689B68134485
:104E40003A6AD31A1A46BB69D31A3B613B681B699D
:104E50003A69013210469847F861FB69002B00F06F
:104E6000BA80FB69FB6094E07B6A1B785C2B08D0FE
:104E70007A6A531C7B62FB68591CF96012781A70BD
:104E800087E00223FB753A6A7B6AD31A002B40F352
:104E9000A4807B6A01331B78752B00F3A0805C2B08
:104EA00004DA222B5CD02F2B5AD098E05C3B192BD4
:104EB00000F2958001A252F823F000BF614F010873
:104EC000DF4F0108DF4F0108DF4F0108DF4F010806
:104ED000DF4F0108254F0108DF4F0108DF4F0108B0
:104EE000DF4F0108314F0108DF4F0108DF4F010894
:104EF000DF4F0108DF4F0108DF4F0108DF4F0108D6
:104F0000DF4F01083D4F0108DF4F0108DF4F010867
:104F1000DF4F0108494F0108DF4F0108554F0108D5
:104F2000714F0108FB685A1CFA6008221A702CE0C5
:104F3000FB685A1CFA600C221A7026E0FB685A1CA7
:104F4000FA600A221A7020E0FB685A1CFA600D22EF
:104F50001A701AE0FB685A1CFA6009221A7014E0F1
:104F60007B6A5A1CFB68591CF96012781A700CE0B5
:104F700007F10C031A46396A786AFFF71BFE0346ED
:104F8000FB75FB7D002B2CD000BFFB7D7A6A1344A0
:104F90007B627A6A3B6A9A42FFF466AFFB68002242
:104FA0001A707B681022DA607B68FA691A613B68C4
:104FB0001B683A6AD31A1A463B689A603B689B683A
:104FC0005A1C3B689A60012320E000BF0AE000BF42
:104FD00008E000BF06E000BF04E000BF02E000BF41
:104FE00000E000BFFB69002B05D03B685B69F869F6
:104FF00098470023FB617B6A002B06D03B681B6847
:105000007A6AD31A1A463B689A60002318462837F2
:10501000BD4680BD80B588B000AF786039600023A0
:10502000FB6100233B610023BB610023FB60002385
:105030007B613B68002B01D1002310E17B68002BD2
:1050400011D103213868FFF75FFB38613B69002B02
:1050500001D1002303E13B69834A118892781980CA
:105060009A700123FBE07B68FB6124E0FB691B78FD
:10507000222B0FDC082B13DB083B7C4A22FA03F3BC
:1050800003F00103002B14BF01230023DBB2002B2C
:1050900002D105E05C2B03D17B6901337B6107E022
:1050A000FB691B781F2B02D87B6905337B6100BF2E
:1050B000FB690133FB61FB691B78002BD6D1FA69D0
:1050C0007B68D31A1A467B691344FB60FB68033381
:1050D00019463868FFF718FB38613B69002B01D18E
:1050E0000023BCE07B69002B17D13B6922221A7098
:1050F0003B690133FA687968184622F0BCFDFB6809
:1051000001333A69134422221A70FB6802333A6968
:10511000134400221A700123A1E03B6922221A7075
:105120003B690133BB617B68FB6186E0FB691B78EF
:105130001F2B0CD9FB691B78222B08D0FB691B782D
:105140005C2B04D0FB691A78BB691A706FE0BB69ED
:105150005A1CBA615C221A70FB691B78222B3DDC59
:10516000082B59DB083B1A2B56D801A252F823F022
:10517000F1510108115201080152010819520108A8
:10518000F951010809520108195201081952010880
:10519000195201081952010819520108195201083F
:1051A000195201081952010819520108195201082F
:1051B000195201081952010819520108195201081F
:1051C000195201081952010819520108195201080F
:1051D0001952010819520108E95101085C2B1BD131
:1051E000BB695C221A7022E0BB6922221A701EE0A1
:1051F000BB6962221A701AE0BB6966221A7016E057
:10520000BB696E221A7012E0BB6972221A700EE03E
:10521000BB6974221A700AE0FB691B781A461449AC
:10522000B86922F07BFABB690433BB6100BFFB693C
:105230000133FB61BB690133BB61FB691B78002B48
:105240007FF474AFFB6801333A69134422221A7069
:10525000FB6802333A69134400221A70012318468E
:105260002037BD4680BD00BF2CA9030837000004CD
:1052700030A9030880B582B000AF786039607B68E0
:105280001B6939681846FFF7C5FE034618460837FC
:10529000BD4680BD80B483B000AF78607B68002BD2
:1052A00003D07B681B68002B01D100232CE07B68B6
:1052B000002B05D07B689A687B685B689A4206D3AE
:1052C0007B6821E07B689B685A1C7B689A607B68DE
:1052D000002B0DD07B689A687B685B689A4207D286
:1052E0007B681A687B689B6813441B78202BE9D97C
:1052F0007B689A687B685B689A4204D17B689B688C
:105300005A1E7B689A607B6818460C37BD465DF86C
:10531000047B704780B582B000AF78607B68002B5B
:1053200007D07B681B68002B03D07B689B68002B31
:1053300001D000231CE07B68002B18D07B689B68A1
:105340001A1D7B685B689A4211D27B681A687B6879
:105350009B68134403220849184622F08DFB03463C
:10536000002B04D17B689B68DA1C7B689A607B68A1
:1053700018460837BD4680BD38A9030880B586B0F9
:1053800000AFF860B9607A60FB68002B01D10023A0
:105390000CE0F868FAF7AEFF034601337B617B68E7
:1053A000BA687969F86800F005F8034618461837B6
:1053B000BD4680BD80B58EB000AFF860B9607A6040
:1053C0003B6007F1180300221A605A609A60DA60A5
:1053D0001A615A619A6100237B63414B00221A6073
:1053E0003F4B00225A60FB68002B42D0BB68002B69
:1053F0003FD0FB68BB61BB68FB6100233B62394A5D
:1054000007F1280307CA83E807003648FFF71CF8AE
:1054100078637B6B002B2ED007F118031846FFF73B
:1054200079FF03461846FFF735FF03461946786BA8
:1054300000F002F90346002B1FD03B68002B0ED072
:1054400007F118031846FFF725FF3A6AFB699A42ED
:1054500015D2BA693B6A13441B78002B0FD17B68C5
:10546000002B04D0BA693B6A1A447B681A607B6BD4
:1054700031E000BF04E000BF02E000BF00E000BF79
:105480007B6B002B02D0786BFEF7F4FFFB68002BE0
:1054900020D0FB683B6100237B613A6AFB699A423A
:1054A00002D23B6A7B6105E0FB69002B02D0FB69FD
:1054B000013B7B617B68002B04D03A697B691A440D
:1054C0007B681A60064B1A4607F1100393E8030045
:1054D00082E80300002318463837BD4680BD00BF70
:1054E000905B00205C00002080B582B000AF786047
:1054F000002200217868FFF741FF0346184608376D
:10550000BD4680BD80B58EB000AFF860B9607A60EE
:1055100000237B6307F1100324220021184622F0A8
:1055200083FA7B681B683B4A12681046984703461B
:105530003B61384B1B687B61BB687B627A6807F113
:10554000280307CA83E807003B69002B42D007F114
:1055500010031946F86800F05BF90346002B3BD0B6
:1055600007F110031846FFF769F97B689B68002B69
:105570000DD07B689B683869BA690132114698473B
:1055800078637B6B002B29D000233B6120E07B6894
:105590001B68BA6901321046984778637B6B002B11
:1055A0001ED03969BB695A1C7B69934228BF1346D8
:1055B0001A46786B22F05FFBBB697A6B13440022BA
:1055C0001A707B685B683A691046984700233B6114
:1055D0007B6B1AE000BF04E000BF02E000BF00E008
:1055E00000BF3B69002B06D07B685B683A691046B8
:1055F000984700233B617B6B002B05D07B685B6881
:10560000786B984700237B63002318463837BD46E4
:1056100080BD00BFB4FF030880B582B000AF7860E2
:10562000044A01217868FFF76DFF034618460837E2
:10563000BD4680BD5C00002080B582B000AF7860C0
:1056400039603B68002B03D03B681B68002B01D1FD
:105650000023D2E03B68002B1DD03B689B681A1DDD
:105660003B685B689A4216D83B681A683B689B683F
:10567000134404226349184622F0FEF90346002B26
:1056800009D17B680422DA603B689B681A1D3B687D
:105690009A600123B1E03B68002B1DD03B689B68FA
:1056A0005A1D3B685B689A4216D83B681A683B688B
:1056B0009B68134405225449184622F0DDF903463D
:1056C000002B09D17B680122DA603B689B685A1D78
:1056D0003B689A60012390E03B68002B20D03B6838
:1056E0009B681A1D3B685B689A4219D83B681A6828
:1056F0003B689B68134404224449184622F0BCF9D5
:105700000346002B0CD17B680222DA607B68012201
:105710005A613B689B681A1D3B689A6001236CE0E4
:105720003B68002B13D03B689A683B685B689A42E1
:105730000DD23B681A683B689B6813441B78222B88
:1057400005D139687868FFF71DFB034655E03B68D3
:10575000002B23D03B689A683B685B689A421DD255
:105760003B681A683B689B6813441B782D2B0FD04D
:105770003B681A683B689B6813441B782F2B0DD934
:105780003B681A683B689B6813441B78392B05D823
:1057900039687868FEF7C8FE03462EE03B68002BA8
:1057A00013D03B689A683B685B689A420DD23B68AD
:1057B0001A683B689B6813441B785B2B05D13968DA
:1057C000786800F009F9034617E03B68002B13D016
:1057D0003B689A683B685B689A420DD23B681A68DE
:1057E0003B689B6813441B787B2B05D1396878682C
:1057F00000F03CFA034600E0002318460837BD4697
:1058000080BD00BF0CA903083CA9030844A90308F4
:1058100080B584B000AF786039600023FB607B689E
:10582000002B02D03B68002B01D10023C9E07B682C
:10583000DB68DBB2802B00F08E80802B00F3C08011
:10584000202B49DC002B40F3BB80013B1F2B00F2D7
:10585000B78001A252F823F0035901082759010823
:10586000C1590108DF580108C1590108C15901088F
:10587000C15901084B590108C1590108C159010812
:10588000C1590108C1590108C1590108C15901088C
:10589000C15901089D590108C1590108C1590108A0
:1058A000C1590108C1590108C1590108C15901086C
:1058B000C1590108C1590108C1590108C15901085C
:1058C000C1590108C1590108C1590108C15901084C
:1058D000C1590108A9590108402B6BD070E005217E
:1058E0003868FEF711FFF860FB68002B01D1002338
:1058F00067E0FB68354A1068186012791A71012355
:105900005FE006213868FEF7FFFEF860FB68002BB9
:1059100001D1002355E0FB682D4A10681860928879
:105920009A8001234DE005213868FEF7EDFEF8600E
:10593000FB68002B01D1002343E0FB68254A106877
:10594000186012791A7101233BE039687868FEF714
:10595000DFFF034635E00023BB607B681B69002B3B
:1059600001D100232DE07B681B691846FAF7C2FCC1
:1059700003460133BB60B9683868FEF7C5FEF860BE
:10598000FB68002B01D100231BE07B681B69BA6810
:105990001946F86822F06FF9012312E03968786837
:1059A000FFF768FC03460CE03968786800F0D8F827
:1059B000034606E03968786800F064FA034600E0C0
:1059C000002318461037BD4680BD00BF0CA9030850
:1059D0003CA9030844A9030880B586B000AF7860ED
:1059E000396000237B6100233B613B68DB68B3F5D2
:1059F0007A7F01D30023AFE03B68DB685A1C3B6829
:105A0000DA603B681A683B689B6813441B785B2B21
:105A100040F094803B689B685A1C3B689A603868E9
:105A2000FFF738FC3B68002B0DD03B689A683B6859
:105A30005B689A4207D23B681A683B689B681344CC
:105A40001B785D2B61D03B68002B05D03B689A68C2
:105A50003B685B689A4205D33B689B685A1E3B686B
:105A60009A6072E03B689B685A1E3B689A603B688C
:105A700010331846FEF7E8FCF860FB68002B5FD097
:105A80007B69002B04D1FB687B617B693B6107E08C
:105A90003B69FA681A60FB683A695A60FB683B61C7
:105AA0003B689B685A1C3B689A603868FFF7F2FBBA
:105AB00039683869FFF7C0FD0346002B42D03868CB
:105AC000FFF7E8FB3B68002B0DD03B689A683B680A
:105AD0005B689A4207D23B681A683B689B6813442C
