:020000040801F1
:10000000000002205D660308953F0108A13F01083A
:10001000B53F0108BD3F0108C53F010800000000D1
:10002000000000000000000000000000315E020837
:10003000CD3F01080000000081600208E96002086D
:10004000AD660308AD660308AD660308AD66030838
:10005000AD660308AD660308AD660308AD66030828
:10006000AD660308AD660308AD660308AD66030818
:10007000AD660308AD660308AD660308AD66030808
:10008000AD660308AD660308AD660308AD660308F8
:10009000AD660308AD660308AD660308AD660308E8
:1000A000AD660308AD660308AD660308AD660308D8
:1000B000AD660308AD660308AD660308AD660308C8
:1000C000AD660308AD660308AD660308AD660308B8
:1000D000AD660308DD3F0108F13F0108AD66030886
:1000E000AD660308AD660308AD660308AD66030898
:1000F000AD660308AD660308AD660308AD66030888
:10010000AD660308AD660308AD660308AD66030877
:10011000AD660308AD660308AD6603080540010837
:10012000AD660308194001082D400108AD660308BB
:10013000AD66030841400108AD660308AD660308DB
:10014000AD660308AD660308AD660308AD66030837
:10015000AD66030869400108554001087D4001086B
:10016000AD660308AD660308AD660308AD66030817
:10017000AD660308AD660308AD6603080000000025
:08018000AD660308AD6603083B
:100188000000000000000000000000000000000067
:100198000000000000000000000000000000000057
:1001A8000000000000000000000000000000000047
:1001B8000000000000000000000000000000000037
:1001C8000000000000000000000000000000000027
:1001D8000000000000000000000000000000000017
:1001E8000000000000000000000000000000000007
:1001F8000000000000000000EFBEADDE10000000AF
:10020800436F6E74726F6C205057520000000000EC
:1002180000000000000000000000000000000000D6
:1002280000000000000000000000000000000000C6
:1002380000000000000000000000000000000000B6
:1002480000000000000000000000000000000000A6
:100258000000000000000000000000000000000096
:100268000000000000000000000000000000000086
:100278000000000000000000000000000000000076
:100288000000000000000000000000000000000066
:1002A00010B5054C237833B9044B13B10448AFF3B0
:1002B00000800123237010BD6002002000000000B8
:1002C0003CA3030808B5034B1BB103490348AFF334
:1002D000008008BD00000000640200203CA3030869
:1002E00010F8012B11F8013B012A28BF9A42F7D0E0
:1002F000D01A7047034613F8012B002AFBD1181AB5
:1003000001387047000000000000000000000000FD
:1003100001F0FF01102A2BDB10F0070F08D010F8B6
:10032000013B013A8B422DD010F0070F42B3F6D1BA
:10033000F0B441EA012141EA014122F007047FF0D3
:1003400000070023F0E80256083C85EA010586EA2A
:10035000010685FA47F5A3FA87F586FA47F6A5FA66
:1003600087F68EB9EED1F0BC01F0FF0102F0070272
:1003700032B110F8013B013A83EA010313B1F8D11D
:100380000020704701387047002D06BF35460338FE
:10039000073815F0010F07D1013015F4807F02BF37
:1003A000013015F4C03F0130F0BC0138704700BF88
:1003B00081F0004102E000BF83F0004330B54FEA16
:1003C00041044FEA430594EA050F08BF90EA020F83
:1003D0001FBF54EA000C55EA020C7FEA645C7FEA16
:1003E000655C00F0E2804FEA5454D4EB5555B8BF39
:1003F0006D420CDD2C4480EA020281EA030382EAAA
:10040000000083EA010180EA020281EA0303362D3B
:1004100088BF30BD11F0004F4FEA01314FF4801C0E
:100420004CEA113102D0404261EB410113F0004F20
:100430004FEA03334CEA133302D0524263EB4303D7
:1004400094EA050F00F0A780A4F10104D5F1200E75
:100450000DDB02FA0EFC22FA05F2801841F10001D0
:1004600003FA0EF2801843FA05F359410EE0A5F1A4
:1004700020050EF1200E012A03FA0EFC28BF4CF0D5
:10048000020C43FA05F3C01851EBE37101F000458B
:1004900007D54FF0000EDCF1000C7EEB00006EEB98
:1004A0000101B1F5801F1BD3B1F5001F0CD3490822
:1004B0005FEA30004FEA3C0C04F101044FEA445279
:1004C00012F5800F80F09A80BCF1004F08BF5FEA00
:1004D000500C50F1000041EB045141EA050130BDE0
:1004E0005FEA4C0C404141EB0101013C28BFB1F5F2
:1004F000801FE9D291F0000F04BF01460020B1FA3D
:1005000081F308BF2033A3F10B03B3F120020CDA0F
:100510000C3208DD02F1140CC2F10C0201FA0CF0ED
:1005200021FA02F10CE002F11402D8BFC2F1200C52
:1005300001FA02F120FA0CFCDCBF41EA0C01904008
:10054000E41AA2BF01EB0451294330BD6FEA040451
:100550001F3C1CDA0C340EDC04F11404C4F120023C
:1005600020FA04F001FA02F340EA030021FA04F34E
:1005700045EA030130BDC4F10C04C4F1200220FAA5
:1005800002F001FA04F340EA0300294630BD21FAE3
:1005900004F0294630BD94F0000F83F4801306BFA9
:1005A00081F480110134013D4EE77FEA645C18BF9D
:1005B0007FEA655C29D094EA050F08BF90EA020F34
:1005C00005D054EA000C04BF1946104630BD91EA2C
:1005D000030F1EBF0021002030BD5FEA545C05D12F
:1005E0004000494128BF41F0004130BD14F580046E
:1005F0003CBF01F5801130BD01F0004545F0FE41E2
:1006000041F470014FF0000030BD7FEA645C1ABF16
:10061000194610467FEA655C1CBF0B46024650EA4D
:10062000013406BF52EA033591EA030F41F4002179
:1006300030BD00BF90F0000F04BF0021704730B5FF
:100640004FF4806404F132044FF000054FF00001D4
:1006500050E700BF90F0000F04BF0021704730B595
:100660004FF4806404F1320410F0004548BF40426A
:100670004FF000013EE700BF42004FEAE2014FEABF
:1006800031014FEA02701FBF12F07F4393F07F4F9A
:1006900081F06051704732F07F4208BF704793F09D
:1006A0007F4F04BF41F40021704730B54FF46074B0
:1006B00001F0004521F000411CE700BF50EA0102B3
:1006C00008BF704730B54FF000050AE050EA01025C
:1006D00008BF704730B511F0004502D5404261EBCC
:1006E00041014FF4806404F132045FEA915C3FF40D
:1006F000D8AE4FF003025FEADC0C18BF03325FEAAA
:10070000DC0C18BF033202EBDC02C2F1200300FA5A
:1007100003FC20FA02F001FA03FE40EA0E0021FA7F
:1007200002F11444BDE600BF70B54FF0FF0C4CF46D
:10073000E06C1CEA11541DBF1CEA135594EA0C0F1F
:1007400095EA0C0F00F0DEF82C4481EA030621EA5A
:100750004C5123EA4C5350EA013518BF52EA033595
:1007600041F4801143F4801338D0A0FB02CE4FF047
:100770000005E1FB02E506F00042E0FB03E54FF077
:100780000006E1FB03569CF0000F18BF4EF0010E6F
:10079000A4F1FF04B6F5007F64F5407404D25FEA6B
:1007A0004E0E6D4146EB060642EAC62141EA55511E
:1007B0004FEAC52040EA5E504FEACE2EB4F1FD0C60
:1007C00088BFBCF5E06F1ED8BEF1004F08BF5FEADE
:1007D000500E50F1000041EB045170BD06F0004690
:1007E00046EA010140EA020081EA0301B4EB5C043D
:1007F000C2BFD4EB0C0541EA045170BD41F4801135
:100800004FF0000E013C00F3AB8014F1360FDEBF59
:10081000002001F0004170BDC4F10004203C35DA35
:100820000C341BDC04F11404C4F1200500FA05F3B8
:1008300020FA04F001FA05F240EA020001F0004259
:1008400021F0004110EBD37021FA04F642EB0601CF
:100850005EEA430E08BF20EAD37070BDC4F10C04F9
:10086000C4F1200500FA04F320FA05F001FA04F2BD
:1008700040EA020001F0004110EBD37041F10001A9
:100880005EEA430E08BF20EAD37070BDC4F12005B4
:1008900000FA05F24EEA020E20FA04F301FA05F21C
:1008A00043EA020321FA04F001F0004121FA04F2C4
:1008B00020EA020000EBD3705EEA430E08BF20EA94
:1008C000D37070BD94F0000F0FD101F000464000CE
:1008D00041EB010111F4801F08BF013CF7D041EA50
:1008E000060195F0000F18BF704703F00046520054
:1008F00043EB030313F4801F08BF013DF7D043EA25
:100900000603704794EA0C0F0CEA135518BF95EADA
:100910000C0F0CD050EA410618BF52EA4306D1D161
:1009200081EA030101F000414FF0000070BD50EA80
:10093000410606BF1046194652EA430619D094EA0A
:100940000C0F02D150EA013613D195EA0C0F05D1F4
:1009500052EA03361CBF104619460AD181EA030148
:1009600001F0004141F0FE4141F470014FF0000000
:1009700070BD41F0FE4141F4780170BD70B54FF09B
:10098000FF0C4CF4E06C1CEA11541DBF1CEA13551B
:1009900094EA0C0F95EA0C0F00F0A7F8A4EB0504FD
:1009A00081EA030E52EA03354FEA013100F08880F4
:1009B0004FEA03334FF0805545EA131343EA1263BD
:1009C0004FEA022245EA111545EA10654FEA002672
:1009D0000EF000419D4208BF964244F1FD0404F52B
:1009E000407402D25B084FEA3202B61A65EB030587
:1009F0005B084FEA32024FF480104FF4002CB6EB44
:100A0000020E75EB030E22BFB61A754640EA0C00C3
:100A10005B084FEA3202B6EB020E75EB030E22BF03
:100A2000B61A754640EA5C005B084FEA3202B6EB44
:100A3000020E75EB030E22BFB61A754640EA9C0003
:100A40005B084FEA3202B6EB020E75EB030E22BFD3
:100A5000B61A754640EADC0055EA060E18D04FEA91
:100A6000051545EA16754FEA06164FEAC30343EA31
:100A700052734FEAC2025FEA1C1CC0D111F4801FFE
:100A80000BD141EA00014FF000004FF0004CB6E7F7
:100A900011F4801F04BF01430020B4F1FD0C88BF96
:100AA000BCF5E06F3FF6AFAEB5EB030C04BFB6EBA1
:100AB000020C5FEA500C50F1000041EB045170BD94
:100AC0000EF0004E4EEA113114EB5C04C2BFD4EBC1
:100AD0000C0541EA045170BD41F480114FF0000E45
:100AE000013C90E645EA060E8DE60CEA135594EAC1
:100AF0000C0F08BF95EA0C0F3FF43BAF94EA0C0FC4
:100B00000AD150EA01347FF434AF95EA0C0F7FF438
:100B100025AF104619462CE795EA0C0F06D152EA8C
:100B200003353FF4FDAE1046194622E750EA410670
:100B300018BF52EA43067FF4C5AE50EA41047FF481
:100B40000DAF52EA43057FF4EBAE12E74FF0FF3CE6
:100B500006E000BF4FF0010C02E000BF4FF0010CB7
:100B60004DF804CD4FEA410C7FEA6C5C4FEA430C30
:100B700018BF7FEA6C5C1BD001B050EA410C0CBF7F
:100B800052EA430C91EA030F02BF90EA020F0020E1
:100B9000704710F1000F91EA030F58BF994208BF48
:100BA00090422CBFD8176FEAE37040F00100704705
:100BB0004FEA410C7FEA6C5C02D150EA013C07D15C
:100BC0004FEA430C7FEA6C5CD6D152EA033CD3D0A7
:100BD0005DF8040B704700BF8446104662468C46A1
:100BE0001946634600E000BF01B5FFF7B7FF0028D4
:100BF00048BF10F1000F01BD4DF808EDFFF7F4FFFD
:100C00000CBF012000205DF808FB00BF4DF808ED87
:100C1000FFF7EAFF34BF012000205DF808FB00BFAA
:100C20004DF808EDFFF7E0FF94BF012000205DF8CC
:100C300008FB00BF4DF808EDFFF7CEFF94BF012081
:100C400000205DF808FB00BF4DF808EDFFF7C4FF7A
:100C500034BF012000205DF808FB00BF4FEA410CC3
:100C60007FEA6C5C02D150EA013C0AD14FEA430CA6
:100C70007FEA6C5C02D152EA033C02D14FF00000E3
:100C800070474FF0010070474FEA410212F5001221
:100C900015D211D56FF47873B3EB625212D94FEAC3
:100CA000C12343F0004343EA505311F0004F23FAAD
:100CB00002F018BF404270474FF00000704750EA02
:100CC000013005D111F0004008BF6FF000407047BF
:100CD0004FF00000704700BF4A0011D212F5001219
:100CE00011D20DD56FF47873B3EB62520ED44FEA84
:100CF000C12343F0004343EA505323FA02F0704704
:100D00004FF00000704750EA013002D14FF0FF3041
:100D100070474FF00000704753B94AB9002908BF27
:100D200000281CBF4FF0FF314FF0FF3000F0A0B99A
:100D3000ADF1080C6DE904CE00F03CF8DDF804E0FC
:100D4000DDE9022304B0704738B5002200230446D1
:100D50000D46FFF75BFF28B920462946BDE838401D
:100D600000F00AB8204605F1004100F005F84042C5
:100D700061EB410138BD00BFD0B50C4B00220646E7
:100D80000F46FFF7D1FCFFF7A7FF0446FFF752FC21
:100D9000074B0022FFF7C8FC02460B463046394697
:100DA000FFF70AFBFFF798FF2146D0BD0000F03D9A
:100DB0000000F0412DE9F047089D0C46002B4ED174
:100DC00094468C458646B2FA82F262D94AB1C2F1A3
:100DD0002003914020FA03F30CFA02FC194300FAB5
:100DE00002FE4FEA1C471FFA8CF6B1FBF7F44FEAFC
:100DF0001E4307FB141143EA014304FB06F1994229
:100E00000AD91CEB030304F1FF3080F012819942F0
:100E100040F20F81023C6344591A1FFA8EF3B1FB72
:100E2000F7F007FB101143EA014300FB06F69E4270
:100E30000AD91CEB030300F1FF3180F0FC809E42D5
:100E400040F2F980634402389B1B40EA04400021D1
:100E50001DB1D3400022C5E90032BDE8F0878B42C6
:100E600005D90DB1C5E9000100210846F5E7B3FA3F
:100E700083F1002946D1A34202D39042C0F0F08012
:100E8000861A64EB03030120002DE6D0C5E9006358
:100E9000E3E7002A40F09080A1EB0C044FEA1C48E5
:100EA0001FFA8CF70121B4FBF8F64FEA1E4308FB4A
:100EB000164443EA044307FB06F0984208D91CEBAA
:100EC000030306F1FF3402D2984200F2CD80264699
:100ED0001C1A1FFA8EF3B4FBF8F008FB104443EA27
:100EE000044300FB07F79F4208D91CEB030300F102
:100EF000FF3402D29F4200F2B0802046DB1B40EA62
:100F00000640A5E7C1F120068B4022FA06F71F43F1
:100F100020FA06FC04FA01F343EA0C03F44000FA59
:100F200001F8380C4FEA1349B4FBF0FE1FFA87FCB6
:100F300000FB1E4449EA04440EFB0CF9A14502FAE9
:100F400001F20AD93C190EF1FF3A80F08480A145E4
:100F500040F28180AEF1020E3C44A4EB09041FFA7A
:100F600083F9B4FBF0F300FB134449EA044403FBA8
:100F70000CFCA44507D93C1903F1FF3067D2A44506
:100F800065D9023B3C4443EA0E40A0FB0293A4EB2C
:100F90000C049C42CE469C4651D34ED055B1B8EB82
:100FA0000E0364EB0C0404FA06F6CB401E43CC405F
:100FB000C5E90064002150E7C2F1200320FA03F1E3
:100FC0000CFA02FC24FA03F394400C434FEA1C4849
:100FD00000FA02FE1FFA8CF7B3FBF8F008FB1031A1
:100FE000230C43EA014300FB07F1994208D91CEBAB
:100FF000030300F1FF362CD299422AD90238634408
:101000005B1AA4B2B3FBF8F108FB113344EA0344C2
:1010100001FB07F3A34208D91CEB040401F1FF36DE
:1010200013D2A34211D902396444E41A41EA0041BF
:1010300039E70446F0E6084606E7C845AED2B9EB04
:10104000020E63EB070C0138A8E73146EDE70346D3
:1010500099E73046D4E7D6467FE7634402384DE748
:101060000646234608460FE7023E634430E700BFCA
:10107000704700BFF0B58DB00AAF764B764A9A60E4
:1010800062B600BF0EF03AFB00F000F900F090FBF2
:1010900002F0B2FC02F0E8FC02F064FD02F08CFD0C
:1010A00002F0B4FD6D4B002205926D4903AA03C9FD
:1010B00082E803006B4901AA03C982E803005A6869
:1010C00000921B6800226849684808F0CBF868491C
:1010D000664807F06DFF01224FF4005165480DF09E
:1010E0000FFE01224FF4004162480DF009FE01227B
:1010F0004FF480415F480DF003FE0023FB70642332
:10110000BB70012201215C480DF0FAFD584B9B7D1C
:10111000002B0CBF01230023DAB2554B9B7DFF2B24
:101120000CBF01230023DBB21343DAB2534B1B780D
:101130001343DBB2002B6AD0514809F019F84C4B2D
:101140000022DA714A4B01221A72494B01225A7568
:10115000474B00221A70464BC0225A72444BA822B9
:101160009A72434B0122DA72414ABB781373404BA7
:10117000FF225A733E4BFF229A733D4BFF22DA73D4
:101180003B4B00221A743A4BC0225A74384BA822A7
:101190009A74374B0122DA74354B01221A75344B9D
:1011A00044225A70324B84229A70314B2322DA70D7
:1011B0002F4B84221A712E4B44225A712C4AFB78F1
:1011C00093712B4B0022DA75294B00225A760022AC
:1011D0009A76274B2E229A75254E6C4606F10C0501
:1011E0000FCD0FC40FCD0FC495E803002060043469
:1011F000218002340B0C237096E80E001B4807F088
:10120000EBFE1B49194807F0D3FE00F0B5F8184B68
:101210001C4AC3F81B2000237B600DE01A4A7B6840
:10122000002142F83310184A7B68DB001344FF2288
:101230001A717B6801337B607B68602BEEDD0121D6
:101240000A4808F05DF900F0CBFB14F0BDF800BFD0
:10125000FDE700BF00ED00E00000010804000020F1
:10126000140000200C000020F45800200C0D002079
:101270001C0000200008024000000240600D002019
:1012800058A30308945900207C02002080B594B034
:1012900000AF07F1200330220021184626F0CCFCD5
:1012A00007F10C0300221A605A609A60DA601A6132
:1012B0000023BB602E4B1B6C2D4A43F080531364FC
:1012C0002B4B1B6C03F08053BB60BB6800237B601F
:1012D000284B1B68274A43F480431360254B1B6847
:1012E00003F480437B607B6801233B624FF48033CF
:1012F0007B620223BB634FF48003FB6306233B64E2
:10130000A0237B640223BB640423FB6407F1200356
:1013100018460CF0CFFB0346002B14BF012300231B
:10132000DBB2002B01D000F0EFF90F23FB600223AA
:101330003B6100237B614FF4A053BB614FF48053AA
:10134000FB6107F10C03052118460CF02BFE034648
:10135000002B14BF01230023DBB2002B01D000F0CF
:10136000D3F90CF005FF00BF5037BD4680BD00BF6C
:10137000003802400070004080B582B000AF01220A
:101380004FF400412E480DF0BBFC01224FF40051F8
:101390002B480DF0B5FC01224FF4804128480DF098
:1013A000AFFC00237B6032E000224FF480412448F0
:1013B0000DF0A6FC4FF496700EF0E2F901224FF406
:1013C00080411F480DF09CFC00224FF400511C4846
:1013D0000DF096FC4FF496700EF0D2F901224FF406
:1013E000005117480DF08CFC00224FF400411448C6
:1013F0000DF086FC4FF496700EF0C2F901224FF406
:1014000000410F480DF07CFC7B6801337B607B68FA
:10141000042BC9DD01224FF4004109480DF070FC96
:1014200001224FF4005106480DF06AFC01224FF4EE
:10143000804103480DF064FC00BF0837BD4680BD05
:101440000008024080B590B000AF78610B467B8207
:101450007B691A687D4BD3F81B301B689A4210D108
:101460007B4A7B8A1380794BD3F81B304FF4807210
:101470007849184610F0A5FB774B1B68184614F006
:1014800037F97B691B68754A934240F09E80744B24
:101490001B887A8AD31AFB87786910F04CFCB863F2
:1014A000BB6B002B65D0BB6B022B7BD16D4B1B88BC
:1014B0001A466D4B13446A4A128811466B4A11440E
:1014C000FA8F184626F0DFFC664B1B881A46FB8F06
:1014D0001344013B644AD35C0D2B09D0614B1B883C
:1014E0001A46FB8F1344013B5F4AD35C002B35D176
:1014F0005C4B1B881A46FB8F13445B4A0021D15476
:101500005B4B1B68574A128811460022184614F09C
:1015100061F978637B6B002B19D0554B19683B46FA
:101520000022184614F096F907F124033A4607CA38
:1015300083E807007B6A102BEFD04D4B1B68494AAC
:10154000128811460022184614F044F97863494B7A
:1015500000221A80434B00221A8006E0414B1A8871
:10156000FB8F13449AB23F4B1A803D4A7B8A13800B
:101570001DE03C4B1B881A463B4B1344384A1288EB
:1015800011463A4A1144FA8F184626F07CFC354B36
:101590001A88FB8F13449AB2324B1A80304B0022C8
:1015A0001A8004E0B96B344808F0E2FD00BF4FF444
:1015B00000722E49786910F061FB304B1B681A6885
:1015C0002E4B1B6822F008021A607B691B682C4AAC
:1015D000934236D17B8A1A462A49234826F053FC87
:1015E000294B1B68798A0022184614F0F3F83863F7
:1015F0003B6B002B17D0244B19683B460022184642
:1016000014F028F907F118033A4607CA83E80700DF
:10161000BB69102BEFD01C4B1B68798A002218463F
:1016200014F0D8F8386340F205121649786910F0C2
:1016300025FB164B1B681A68144B1B6822F0080226
:101640001A6000BF4037BD4680BD00BF1C000020AF
:10165000EC4C0020E44A00206C51002000140140B2
:10166000B0470020AC470020AC430020AC45002030
:101670005C510020AE47002068A30308E45A002014
:1016800000100140C848002060510020245A00206A
:1016900080B582B000AF78607B681B68064A9342D1
:1016A00005D1786810F00EFA044B01221A7000BFC1
:1016B0000837BD4680BD00BF001001404F0000202C
:1016C00080B582B000AF7860054B1B687A689A429B
:1016D00001D108F031FD00BF0837BD4680BD00BF15
:1016E000800D002080B582B000AF78607B681B68F9
:1016F000044A934201D10EF023F800BF0837BD46DB
:1017000080BD00BF0014004080B500AF034808F062
:101710002FFD72B600BF00BFFDE700BFA0A3030806
:1017200080B582B000AF786039607B68012B24D12E
:101730003B684FF6FF7293421FD1124808F065FBD9
:10174000114A12490F4824F0B2FF114808F05DFB1E
:101750000D4A0E490E4824F0AAFF0E4808F055FB2A
:10176000094A0A490B4824F0A2FF0B4808F000FA86
:10177000054A0A49084824F09AFF00BF0837BD46C9
:1017800080BD00BF7C0C0020000000206B9E010883
:10179000AC0C0020DC0C00200C0D00208D9B0108FF
:1017A00080B500AF4FF6FF710120FFF7B9FF80BD94
:1017B00080B58CB000AF07F11C0300221A605A609C
:1017C0009A60DA601A610023BB615C4B1B6B5B4A59
:1017D00043F010031363594B1B6B03F01003BB6101
:1017E000BB6900237B61554B1B6B544A43F00403D8
:1017F0001363524B1B6B03F004037B617B69002373
:101800003B614E4B1B6B4D4A43F0800313634B4BC4
:101810001B6B03F080033B613B690023FB60474B7C
:101820001B6B464A43F001031363444B1B6B03F0ED
:101830000103FB60FB680023BB60404B1B6B3F4A0E
:1018400043F0020313633D4B1B6B03F00203BB60C9
:10185000BB6800237B60394B1B6B384A43F008039D
:101860001363364B1B6B03F008037B607B6800221D
:101870004FF4604132480DF043FA002248F2010172
:1018800030480DF03DFA002213212F480DF038FAB0
:101890000423FB6100233B6202237B6207F11C03EC
:1018A00019462A480DF090F84FF46043FB6101237C
:1018B0003B6200237B620023BB6207F11C031946D5
:1018C0001F480DF081F848F20103FB6101233B62E0
:1018D00000237B620023BB6207F11C0319461948F1
:1018E0000DF072F81823FB6103233B6200237B6237
:1018F00007F11C03194613480DF066F84FF47F43B7
:10190000FB6100233B6202237B6207F11C03194643
:101910000D480DF059F81323FB6101233B620023AE
:101920007B620023BB6207F11C03194606480DF0D9
:101930004BF800BF3037BD4680BD00BF00380240C5
:101940000008024000000240000C0240001002406B
:1019500080B400AFBFF34F8F00BF064BDB6803F4CA
:10196000E0620449044B1343CB60BFF34F8F00BFC9
:1019700000BFFDE700ED00E00400FA0580B584B08B
:1019800000AF78600DF0F0FEF860FA687B689A426C
:1019900003D3FA687B68D31A03E0FA687B68D31A2A
:1019A000013B18461037BD4680BD000080B485B0AD
:1019B00000AFF860B9607A60FB68074A1A60BB68DC
:1019C000064A1A607B6880221A6000BF1437BD4641
:1019D0005DF8047B704700BF78510020F052002072
:1019E000B0B5C6B000AF0023C7F810310023C7F868
:1019F000143107F58873184613F05DFD03467B4AE2
:101A000013600023C7F808310023C7F80C3107F52D
:101A10008473184613F04FFD0346754A1360002384
:101A2000C7F800310023C7F8043107F5807301219E
:101A3000184613F0DDFD03466E4A13600023C7F815
:101A4000F8300023C7F8FC3007F1F80301211846ED
:101A500013F0CEFD0346684A13600023C7F8F03048
:101A60000023C7F8F43007F1F0030121184613F002
:101A7000BFFD0346614A13600023C7F8E830002326
:101A8000C7F8EC3007F1E8030121184613F0B0FD68
:101A900003465B4A13605B4B07F1D8040FCB84E825
:101AA0000F0007F1D8030021184613F06AFE034621
:101AB000554A1360554B07F1C8040FCB84E80F005B
:101AC00007F1C8030021184613F05BFE0346504A95
:101AD0001360504B07F1AC041D460FCD0FC495E8C1
:101AE000070084E8070007F1AC030021184613F053
:101AF00082FC0346484A1360484B07F190041D4698
:101B00000FCD0FC495E8070084E8070007F19003A4
:101B10000021184613F06FFC0346414A1360414B05
:101B200007F174041D460FCD0FC495E8070084E843
:101B3000070007F174030021184613F05CFC03460C
:101B4000394A1360394B07F158041D460FCD0FC4B5
:101B500095E8070084E8070007F1580300211846BC
:101B600013F049FC0346324A1360324B07F13C0440
:101B70001D460FCD0FC495E8070084E8070007F164
:101B80003C030021184613F036FC03462A4A136032
:101B90002A4B07F120041D460FCD0FC495E807001E
:101BA00084E8070007F120030021184613F023FC06
:101BB0000346234A136007F58C73A3F58A73214A01
:101BC0001C4615460FCD0FC495E8070084E80700B2
:101BD0003B1D0021184613F00EFC03461A4A136001
:101BE00000BF07F58C77BD46B0BD00BF385100205F
:101BF0003C51002064510020685100206C510020AD
:101C000070510020B0A303085C510020C0A303085A
:101C100060510020DCA3030840510020FCA303080E
:101C20004451002020A403084851002048A4030880
:101C30004C51002070A403085051002098A40308C0
:101C400054510020C0A403085851002080B588B02A
:101C500000AF734808F08CFA1021724809F086F939
:101C6000B860714ABB681360B968704808F080FAC0
:101C70000023FB6158E06E4BBB616A49FA69134669
:101C8000DB009B1A1B010B446C331B780A2B02D11F
:101C9000684BBB6136E06349FA691346DB009B1A67
:101CA0001B010B446C331B780B2B02D1624BBB61C5
:101CB00028E05C49FA691346DB009B1A1B010B44C0
:101CC0006C331B78142B02D15C4BBB611AE0554975
:101CD000FA691346DB009B1A1B010B446C331B781B
:101CE0001E2B02D1564BBB610CE04E49FA691346DC
:101CF000DB009B1A1B010B446C331B781F2B01D19B
:101D0000504BBB614749FA691346DB009B1A1B0124
:101D10000B4460331B781A46BB69F9694A4808F0DE
:101D200027FAFB690133FB61FA69BB689A4202D268
:101D3000FB690F2B9FD9454B1B684FF0FF311846AD
:101D400013F0D2FB00237B6100233B6158E035494F
:101D50003A691346DB009B1A1B010B4460331B7866
:101D6000002B4AD02F493A691346DB009B1A1B010E
:101D70000B4460331B78112B3FD82A493A6913462C
:101D8000DB009B1A1B010B446C331B781F2B01D10A
:101D9000062300E003237B600023FB6026E07B69D1
:101DA000D8B220493A691346DB009B1AFA681344FB
:101DB0001B010B440C3302461A703A691346DB00D0
:101DC0009B1A1B01174A1A4421497B6941F83320A9
:101DD000FB68D9B21E4A7B69DB0013440A461A71BC
:101DE0007B6901337B61FB680133FB60FA687B68C8
:101DF0009A4202DA7B695F2BD1DD3B6901333B619B
:101E00003A69BB689A42A2D3104B1B68184613F07C
:101E1000B9FB104808F0ACF900BF2037BD4680BDC3
:101E2000DCA403087C050020B447002000A50308BB
:101E30001CA5030824A503082CA5030838A503083E
:101E400040A503084CA5030858A503083C510020F1
:101E50007C02002078A5030880B586B000AF7860CA
:101E60000BF0ACF8444808F095F810224349444878
:101E700008F07EF9434806F0FFFF0346002B14BF2D
:101E800001230023DBB2002B03D03F4808F070F998
:101E900007E03E4808F06CF907F05AF83C4808F0B3
:101EA00067F93C4805F0FEFD09F04AFE09F06AFEBC
:101EB000394808F05DF900237B820023FB6040F283
:101EC0000512364936480FF0D9FE364B1B681A68A2
:101ED000344B1B6822F008021A60FFF7B7FE324B42
:101EE0001B684FF0FF31184613F0FEFA00237B61A8
:101EF00019E02E497A691346DB009B1A1B010B443B
:101F000060331B78002B0AD07A691346DB009B1ADA
:101F10001B01264A1344184609F090FB00E000BF5D
:101F20007B6901337B617A69214B1B689A42E0D35C
:101F30001D4B1B68184613F025FB0A2013F0A7FA67
:101F40000DF012FC02461B4B1B68D31A47F22F52AE
:101F500093428CBF01230023DBB2002BBFD00DF0D6
:101F600003FC0346134A1360114B1B68DBB219468E
:101F70000E4806F0CFFCB2E7DC590020A0A503080C
:101F8000ACA50308404D0020C4A50308E4A5030840
:101F90000CA603080C0D00202CA60308C84800203E
:101FA0004C590020245A00203C5100207C05002080
:101FB000B4470020F054002080B582B000AF7860B4
:101FC00001224FF4005120480CF09AFE01224FF4F8
:101FD00080411D480CF094FE01224FF400411A4844
:101FE0000CF08EFE4FF480421749184807F09EFE11
:101FF0004FF400521449164807F098FE4FF400427F
:102000001149144807F092FE0021104807F0EFFE36
:1020100000210F4807F0EBFE64234FF4FA62012120
:102020000C4807F0CEFE0B4807F09AFE074807F071
:10203000B8FD074807F0B5FD064807F0B2FD0120DE
:1020400013F025FA00BFF1E7000802407C0C0020E5
:10205000AC0C0020DC0C002090B58DB002AF786095
:1020600002E0012013F013FA634B5B68002BF8D0F9
:10207000624807F075FE4FF47A7013F008FA5F4873
:1020800007F092FE5E4823F039FA03461322194600
:102090005C4825F00BFE5B4B0022DA7400233B61A9
:1020A0000023FB8100220021102014F0A3F97862A4
:1020B0007B6A002B00F09B8051220021786A14F08B
:1020C00053FA0346FB75FB7D5BB2002B0CBF01236B
:1020D0000023DBB2002B00F08A80FF21786A14F025
:1020E0007BFA07F11C031946786A14F0A1FA03463B
:1020F000BB75BB7D5BB2002B0CBF01230023DBB2A1
:10210000002B6CD03D4807F02BFE3F4808F030F81C
:1021100045E0BB6907F10E0207F11001184616F001
:1021200029FAFB8940F2FF12934228BF13469BB263
:102130003B623B693A6A1946344825F0A4FE334AAB
:102140003B6A134400221A703049314808F010F8F5
:102150003B6A002B14D02F4B00221A704FF40072F0
:102160002C492A4804F022FCFC692A48FEF7C2F8F0
:1021700002460023009301232649204614F0DAFC8E
:10218000BB69184616F040FA0346DB43DBB2DB09B5
:10219000DBB2002BBDD1BB69184616F0CBF9FB6949
:1021A00007F118021146184614F04AFC03461A4675
:1021B000BA75002B0CBF01230023DBB2002BA8D182
:1021C000FB69184614F0B8FDFB69184614F0B0F925
:1021D000114807F0CDFF094807F0E6FD03E0FB6971
:1021E000184614F0A5F9142013F051F979E70120ED
:1021F00013F04DF956E700BFF4C000207C0C00201E
:10220000F8C00020D049002044A60308F454002060
:1022100054A60308F456002060A6030880B586B0D3
:1022200002AF78603E4BD3F81B304FF480723D49CB
:1022300018460FF0C6FC0346FB733B4B1B684FF080
:10224000FF31184613F006FA384B1B681B78102B29
:102250005FD10DF089FA0346354A9360344B5B68D1
:102260001846FFF78BFB0346314A53612C4BDB7D4D
:10227000002B02D0012B38D043E00DF075FA034655
:102280002B4AD3602A4B9B681846FFF777FB03461F
:10229000274A9361274B1B881946274B1B88274ADF
:1022A000204808F01FF9B860214B1969204B5A6982
:1022B0001F4B9B69224807F05BFFBB68002B0ADCC1
:1022C000BB6813F1020F03D11E4807F051FF02E073
:1022D0001D4807F04DFF154B1868BA68002300939E
:1022E0000123164914F026FC0FE0104B1868114B1F
:1022F0001B881A460023009301230A4914F01AFC94
:1023000003E0124807F034FF00BF0A4B00221A8096
:1023100002E0084B00221A80012013F0B8F88CE785
:102320001C000020E44A00206C51002054000020D2
:10233000640D0020EC4C0020B8470020E84B002042
:1023400070A60308B4A60308D4A60308FCA60308D5
:1023500080B58CB000AF786002E0012013F097F8F0
:102360006F4B5B68002BF8D007F118037B610023EB
:102370003B610023FB8100220021102014F03AF879
:102380000346684A1360674B1B68002B00F0C3804C
:10239000644B1B684FF4FB720021184614F0E4F8FC
:1023A000034687F82F3097F92F30002B40F0B38089
:1023B0005C4B1B68FF21184614F00EF9594B1B6843
:1023C0005949184614F034F9034687F82E3097F926
:1023D0002E30002B40F0968078E07B6907F10E02EA
:1023E00007F11001184616F0C5F80DF0BDF90346C7
:1023F0004E4A13604E4BDB7D002B02D0012B3FD0A9
:1024000051E03869FB8919464A4B4B4A08F02FF8CE
:10241000B862BB6A002B2FDDB96A474807F0F8FFA6
:102420000346002B14BF01230023DBB2002B02D193
:10243000424807F09DFE0DF097F903463B4A536072
:102440003A4B1B681846FFF799FA0346374A13615F
:10245000012210213A480CF053FC354BD3F81B00F5
:10246000BB6A9AB2642334490FF030FA002210217B
:1024700033480CF045FC1AE0324825F01BFA16E010
:10248000012210212E480CF03BFC294BD3F81B00F5
:102490003969FA8964230FF019FA002210212848BB
:1024A0000CF02EFC03E0284807F062FE00BF7B69B9
:1024B000184616F0A9F80346DB43DBB2DB09DBB2B2
:1024C000002B8AD17B69184616F034F8164B1B682E
:1024D00007F114021146184614F0B2FA0346002B15
:1024E0000CBF01230023DBB2002B7FF476AF0E4B31
:1024F0001B68184614F020FC0B4B1B68184614F0A0
:1025000017F804E0084B1B68184614F011F8012076
:1025100012F0BDFF52E70A2012F0B9FF2BE700BF0F
:10252000F4C000205000002054000020640D002062
:102530001C000020B8470020E449002010A7030831
:10254000000C024028A70308FCA6030880B58CB045
:1025500000AF78604FF400725F4960480FF08EFB67
:102560005F4B1B681A685E4B1B6822F008021A60FA
:102570005C4B196807F10C0341F28832184613F0DE
:1025800069F9FB68102B40F0A3800121564807F041
:10259000F4FB564803F000F8B862BB6A002B00F069
:1025A00094805349B86A03F02BFE78625149B86AA7
:1025B00003F026FE38625049B86A03F021FEF86144
:1025C0004E49B86A03F01CFEB861786A04F089F8D5
:1025D0000346002B0ED0786A01F0DEFE51EC100BA2
:1025E0004FF00002464BFEF707FB0346002B01D0DD
:1025F000012300E00023002B60D0002387F82F3058
:10260000F86904F057F80346002B14BF0123002398
:10261000DBB2002B03D0012387F82F3002E0002328
:1026200087F82F30386A04F05CF80346002B14BF9B
:1026300001230023DBB2002B3CD03B6A5B69013BEA
:10264000062B33D801A252F823F000BF69260108F7
:10265000772601087F2601088726010897260108AA
:10266000A52601088F26010897F82F301946B8696A
:1026700000F05CF825E0B86900F0DAFA21E0B8690A
:1026800000F08CFB1DE0B86900F02AFD19E0B86984
:1026900000F09EFE15E097F82F301946B86901F05A
:1026A0002BF80EE0B86901F0FFF80AE0154807F0D2
:1026B0005FFD06E0144807F05BFD02E0134807F0F9
:1026C00057FDB86A01F02EFF02E0114807F050FDF7
:1026D0000A2012F0DCFE4BE7AC450020DC5900205C
:1026E000E45A00205C510020AC0C0020AC430020D8
:1026F00044A7030848A7030854A7030864A70308CE
:102700000000F03F68A7030884A7030898A7030800
:10271000A8A7030880B582B000AF786007F07CFC02
:10272000012012F0B4FE00BFF8E700002DE9F043ED
:10273000B1B00AAF78600B46FB709749786803F038
:102740005FFDC7F890009549786803F059FDC7F818
:102750008C009349786803F053FDC7F888009149CD
:10276000786803F04DFDC7F884008F49786803F05E
:1027700047FDC7F880008D49786803F041FDF86790
:102780008B49786803F03CFDB8678A49786803F0A4
:1027900037FD78678849786803F032FD38678749E4
:1027A000786803F02DFDF8668549786803F028FD08
:1027B000B8668449786803F023FD7866002387F8BB
:1027C0009730D7F88C30002B13D0D7F88C0003F05B
:1027D00071FF0346002B0CD0D7F89030002B08D0A7
:1027E000D7F8900003F094FF0346002B01D001239B
:1027F00000E00023002B44D0D7F890301B693B66E3
:102800003B6E002B3DD03B6E1B78002B39D007F17F
:102810004C0107F1500207F14403019307F148030B
:1028200000930B466849386E25F0A0F80346042B48
:102830000DD13B6DFF2B0AD8FB6CFF2B07D8BB6C6F
:10284000FF2B04D87B6CFF2B01D8012300E0002371
:10285000002B13D03B6DDAB25C4B5A72FB6CDAB2D0
:102860005A4B9A72BB6CDAB2584BDA727B6CDAB2A2
:10287000564B1A73012387F8973002E0544807F04B
:1028800077FCD7F88430002B13D0D7F8840003F0FE
:1028900011FF0346002B0CD0D7F88830002B08D04E
:1028A000D7F8880003F034FF0346002B01D0012342
:1028B00000E00023002B58D0D7F888301B69FB6557
:1028C000FB6D002B51D0FB6D1B78002B4DD007F119
:1028D0003C0107F1400207F12C03039307F1300399
:1028E000029307F13403019307F1380300930B4679
:1028F0003849F86D25F03AF80346062B13D13B6CA6
:10290000FF2B10D8FB6BFF2B0DD8BB6BFF2B0AD80E
:102910007B6BFF2B07D83B6BFF2B04D8FB6AFF2B8D
:1029200001D8012300E00023002B1BD03B6CDAB25E
:10293000264B5A70FB6BDAB2244B9A70BB6BDAB23F
:10294000224BDA707B6BDAB2204B1A713B6BDAB236
:102950001E4B5A71FB6ADAB21C4B9A71012387F83D
:10296000973002E01C4807F003FCFB6F002B35D0CA
:10297000F86F03F09FFE0346002B2FD0D7F880306E
:10298000002B2BD0D7F8800003F0C2FE0346002BAB
:1029900024D0012323E000BFB8A70308BCA7030885
:1029A000C4A70308C8A70308D0A70308D8A703082B
:1029B000E4A70308ECA70308F4A70308F8A7030893
:1029C00000A8030808A8030810A803081C0000209A
:1029D0001CA803083CA8030850A803080023002BE8
:1029E00044D0D7F880301B69BB65BB6D002B3DD050
:1029F000BB6D1B78002B39D007F1240107F12802A9
:102A000007F11C03019307F1200300930B467E4955
:102A1000B86D24F0ABFF0346042B0DD1BB6AFF2B2E
:102A20000AD87B6AFF2B07D83B6AFF2B04D8FB69C7
:102A3000FF2B01D8012300E00023002B13D0BB6A39
:102A4000DAB2724B5A747B6ADAB2704B9A743B6A90
:102A5000DAB26E4BDA74FB69DAB26C4B1A75012389
:102A600087F8973002E06A4807F082FB7B6F002B03
:102A700010D0786F03F01EFE0346002B0AD0BB6F08
:102A8000002B07D0B86F03F043FE0346002B01D0A4
:102A9000012300E00023002B43D0BB6F1B697B6543
:102AA0007B6D002B3DD07B6D1B78002B39D007F15F
:102AB000140107F1180207F10C03019307F1100349
:102AC00000930B465049786D24F050FF0346042BC9
:102AD0000DD1BB69FF2B0AD87B69FF2B07D83B6957
:102AE000FF2B04D8FB68FF2B01D8012300E0002353
:102AF000002B13D0BB69DAB2444B5A737B69DAB24C
:102B0000424B9A733B69DAB2404BDA73FB68DAB234
:102B10003E4B1A74012387F8973002E03D4807F0D6
:102B200027FBFB6E002B0DD0F86E03F0C3FD0346B0
:102B3000002B07D03B6F002B04D0386F03F0E8FD6B
:102B40000346002B7B6E002B0AD0786E03F0B2FD9B
:102B50000346002B04D0BB6E002B01D0012300E004
:102B60000023002B0DD0B86E03F0A4FD0346002B0C
:102B700001D0012200E00022244B5A75012387F87E
:102B8000973097F89730002B36D0234807F0F0FAAB
:102B9000FB78002B33D01D4B1A6891465A6890463B
:102BA0009A68964603F10C046E4604F1200C3546F3
:102BB0002346186859689A68DB680FC510341036C8
:102BC0006445F4D1334622461068186091889279A2
:102BD00099809A71494642467346104806F0FCF9BE
:102BE0000346002B04D033210D4807F0C1FA06E05C
:102BF0000C4807F0BDFA02E00B4807F0B9FA00BF35
:102C00009C37BD46BDE8F08310A803081C000020D7
:102C100070A8030894A80308B4A803080C0D0020AA
:102C2000CCA80308E8A80308FCA8030800000000DB
:102C300080B588B000AF78604B4B1B78002B00F05C
:102C4000818003F023FDB86103F00CFD7861474BF0
:102C50001B684FF0FF31184612F046FC0023FB6161
:102C600040E003F013FDF860414AFB69DB001344C8
:102C70001B79FB723E4AFB6952F83320FB7A1B0139
:102C800013440C331B781846FDF7D4FC02460B4660
:102C900043EC102B3749F86803F0EEFB344AFB692C
:102CA00052F8333093F860301846FDF7C3FC024603
:102CB0000B4643EC102B3049F86803F0DDFBFB7A40
:102CC0001846FDF7B7FC02460B4643EC102B2B4988
:102CD000F86803F0D1FBF968786903F0E7FAFB695B
:102CE0000133FB61204B1B781A46FB699342B8DB2A
:102CF0001E4B1B68184612F045FC9FED170B204930
:102D0000B86903F0B9FB1F4A1F49B86903F0D8FB43
:102D10009FED130B1D49B86903F0AEFB7A691C499E
:102D2000B86903F031FBB86902F0CEFC386139694B
:102D3000184807F01DFA386923F0C6FCB86901F09D
:102D4000F1FB02E0144807F013FA00BF2037BD463C
:102D500080BD00BFAFF30080000000000000F03F26
:102D600000000000000000401C0000203C5100203A
:102D70007C02002018A903081CA9030828A903083D
:102D800044A70308A0A5030830A9030848A703081F
:102D900064A703083CA9030840A903082DE9F043F0
:102DA000A1B00AAF7860B849786803F029FA3865AD
:102DB000386D01F0F1FA53EC102B10461946FDF76F
:102DC00063FF0346FB64FB6C013B042B00F2528162
:102DD00001A252F823F000BFED2D01089F2E01083B
:102DE000012F0108092F010863300108A7497868FD
:102DF00003F006FA7861A649786803F001FA3861B1
:102E0000786901F0C9FA53EC102B10461946FDF70A
:102E10003BFF0346FB60386901F0BEFA53EC102B10
:102E200010461946FDF730FF0346BB60994807F08E
:102E30009FF9FEF70BFF984B1A6891465A68904627
:102E40009A68964603F10C046E4604F1200C354650
:102E50002346186859689A68DB680FC51034103625
:102E60006445F4D1334622461068186091889279FF
:102E700099809A71494642467346884806F0ACF8F4
:102E80000346002B04D03321854807F071F902E096
:102E9000844807F06DF9844807F06AF9EEE0834949
:102EA000786803F0ADF9F8628149786803F0A8F911
:102EB000B8628049786803F0A3F97862F86A01F093
:102EC0006BFA53EC102B10461946FDF7DDFE034656
:102ED0003B62B86A01F060FA53EC102B10461946B9
:102EE000FDF7D2FE0346FB61786A01F055FA53EC18
:102EF000102B10461946FDF7C7FE0346BB61BDE027
:102F00006D4807F035F9B9E06849786803F078F959
:102F1000B8646A49786803F073F978646849786836
:102F200003F06EF938646749786803F069F9F8636B
:102F3000B86C01F031FA53EC102B10461946FDF72E
:102F4000A3FE0346BB63786C01F026FA53EC102B0A
:102F500010461946FDF798FE03467B63386C03F074
:102F6000A9FB0346002B14BF0123002387F833304D
:102F7000F86B03F09FFB0346002B14BF01230023D3
:102F800087F83230504B1B684FF0FF31184612F073
:102F9000ABFA97F83230002B31D000237B6527E065
:102FA0004A4A7B6D52F83330002B1ED0474A7B6D66
:102FB000DB0013441B7987F83030444A7B6D52F8AC
:102FC000331097F830307A6B1B010B4404331A60CE
:102FD0003E4A7B6D52F8332097F8303097F8331023
:102FE0001B0113440B330A461A707B6D01337B655A
:102FF0007B6D5F2BD4DD364807F0BAF82BE0334AFF
:10300000BB6B52F83330002B22D0304ABB6BDB0055
:1030100013441B7987F831302C4ABB6B52F83310BC
:1030200097F831307A6B1B010B4404331A60274A3E
:10303000BB6B52F8332097F8313097F833101B01EF
:1030400013440B330A461A70214807F091F802E046
:10305000204807F08DF81C4B1B68184612F092FAB6
:103060000CE01D4807F084F840F6B83012F00FFA73
:10307000FEF76EFC194807F07BF800BF00BF5C3715
:10308000BD46BDE8F08300BF50A9030858A9030856
:1030900064A9030870A903081C0000200C0D00207F
:1030A000CCA80308E8A8030894A90308A4A9030866
:1030B000A8A90308B4A90308BCA90308CCA903085C
:1030C000D0A90308D4A903083C5100207C020020A9
:1030D000D8A90308DCA90308ECA90308FCA9030884
:1030E000F0B5A9B006AF786003F0D0FAB86703F086
:1030F000B9FA786703F0CAFA38679FED990B9E49D1
:10310000B86F03F0B9F99D4A9D49B86F03F0D8F93B
:103110009FED950B9B49B86F03F0AEF99A4B5B7A24
:103120001C46994B9B7A1A46974BDB7A1946964B6D
:103130001B7B07F144000293019100922346934ABE
:10314000142124F0BFFB07F144031A469049386F5D
:1031500003F0B6F98C4B5B781E468B4B9B781A4676
:10316000894BDB781946884B1B791C46864B5B796B
:103170001D46854B9B7907F130000493039502941B
:10318000019100923346834A142124F09BFB07F1FE
:1031900030031A468049386F03F092F97A4B5B7C12
:1031A0001C46794B9B7C1A46774BDB7C1946764B49
:1031B0001B7D07F11C000293019100922346734A84
:1031C000142124F07FFB07F11C031A467349386F62
:1031D00003F076F96C4B5B7B1C466B4B9B7B1A4672
:1031E000694BDB7B1946684B1B7C07F10800029397
:1031F000019100922346654A142124F063FB07F1F4
:1032000008031A466649386F03F05AF9654A664959
:10321000386F03F055F95C4B5B7D002B04D063499C
:10322000386F03F0C7F803E06049386F03F0E2F845
:103230000023C7F884300023C7F8803010E05C4AD0
:10324000D7F8803052F83330002B0ED0D7F88430C6
:103250000133C7F88430D7F880300133C7F88030A5
:10326000D7F880305F2BEADD00E000BF03F00EFAF4
:10327000F866D7F88400FDF7EDF902460B4643ECFB
:10328000102B4C49F86E03F0F7F89FED390B4A49C3
:10329000F86E03F0F1F8FA6E4849B86F03F074F86D
:1032A000786F01F03FF93A6F4549B86F03F06CF859
:1032B000B86F02F009FAB866B86EFDF71BF87866C9
:1032C00040F2FD533B667B6E40F2FD52934207D8BD
:1032D000B96E3C4806F0D4FF3B4806F0D1FF34E01D
:1032E0000023FB672AE07A6EFB6FD31A40F2FD528F
:1032F000934228BF1346FB65FA6FFB6D1344BA6E09
:1033000013441B7887F85B30FA6FFB6D1344BA6E79
:10331000134400221A70BA6EFB6F134419462948F1
:1033200006F0AEFFFA6FFB6D1344BA6E134497F8C4
:103330005B201A70FA6FFB6D1344FB67FA6F7B6EAC
:103340009A42D0D3204806F09BFFB86E03F0F8F9FC
:10335000B86F01F0E7F800BF8C37BD46F0BD00BF85
:10336000000000000000F03F0000000000001040DE
:10337000000000000000584044A70308A0A503086F
:1033800030A9030848A703081C00002010A8030860
:10339000B8A703083CA80308C4A70308D0A70308DC
:1033A000E4A703080CAA0308F4A7030800A803086D
:1033B0007C02002014AA03081CAA030824AA0308FC
:1033C00030AA03083CA9030838AA0308000000003B
:1033D00080B594B000AF78609749786802F010FF2C
:1033E00078639649786802F00BFF38637B6B002B9B
:1033F00008D0786B03F075F90346002B02D07B6B85
:103400005B6900E00023FB643B6B002B08D0386B4A
:1034100003F067F90346002B02D03B6B5B6900E0C9
:103420006023BB64BB6C142B01DD1423BB64FB6CF9
:10343000002B01DA0023FB64FB6C5F2B01DD5F23B3
:10344000FB6403F023F9F86203F00CF9B8629FED16
:10345000760B7B49F86A03F00FF87A4A7A49F86AE2
:1034600003F02EF89FED720B7849F86A03F004F828
:1034700000237B64FA6CBB6C13443B643B6C602B95
:1034800001DD60233B64FB6CFB636CE0704AFB6B0B
:1034900052F83330002B6FD003F0F8F878626C4AA2
:1034A000FB6BDB0013441B7987F82330F86BFDF7C7
:1034B000D1F802460B4643EC102B6649786A02F0BD
:1034C000DBFF634AFB6B52F8333093F860301846E9
:1034D000FDF7B0F802460B4643EC102B5E49786AC4
:1034E00002F0CAFF97F823301846FDF7A3F802460A
:1034F0000B4643EC102B5949786A02F0BDFF544A41
:10350000FB6B52F8332097F823301B01134404332C
:103510001B681846FDF78EF802460B4643EC102B4D
:103520004F49786A02F0A8FF494AFB6B52F83320F2
:1035300097F823301B0113440B331B78002B04D066
:103540004849786A02F036FF03E04649786A02F09B
:1035500051FF796AB86A02F0A9FE7B6C01337B6483
:10356000FB6B0133FB63FA6B3B6C9A4205DA7A6CB6
:10357000BB6C9A428ADB00E000BFF86CFDF76AF88A
:1035800002460B4643EC102B2B49F86A02F074FFFD
:10359000B86CFDF75FF802460B4643EC102B274949
:1035A000F86A02F069FF786CFDF754F802460B46A2
:1035B00043EC102B2C49F86A02F05EFFFA6C7B6C2E
:1035C00013445F2B09DCFA6C7B6C1344204A52F8DD
:1035D0003330002B01D0012300E000231A46234999
:1035E000F86A02F027FFBA6A2149F86A02F0CCFEB5
:1035F000F86A02F069F8F861F869FCF77BFEB861D7
:1036000040F2FD537B61BB6940F2FD52934207D803
:10361000F969184806F034FE174806F031FE5DE0FF
:103620000023BB6353E000BF000000000000F03F38
:103630000000000000001C403CAA030844AA030844
:1036400044A70308A0A5030830A9030848A7030856
:103650007C02002018A903084CAA030854AA0308F6
:1036600058AA03085CAA030814AA030864AA03085A
:1036700070AA03083CA9030838AA0308BA69BB6BFF
:10368000D31A40F2FD52934228BF13463B61BA6BF6
:103690003B691344FA6913441B78FB73BA6B3B69AB
:1036A0001344FA69134400221A70FA69BB6B13447D
:1036B00019460F4806F0E4FDBA6B3B691344FA69FA
:1036C0001344FA7B1A70BA6B3B691344BB63BA6B41
:1036D000BB699A42D2D3074806F0D2FDF86903F0DD
:1036E0002FF8F86A00F01EFF00BF5037BD4680BDBE
:1036F0003CA9030838AA03082DE9F04393B00AAFA8
:1037000078600B46FB705C49786802F079FDB8611F
:103710005A49786802F074FD78615949786802F076
:103720006FFD38615749786802F06AFDF860002340
:10373000FB777B69002B07D0786902F0BBFF03465B
:10374000002B01D0012300E00023002B1ED0BB6919
:10375000002B07D0B86902F0C4FF0346002B01D04C
:10376000012300E00023002B0DD0BB695B69FB72D5
:10377000454BDB7DFA7A9A4208D0434AFB7AD375EF
:103780000123FB7702E0414806F0F2FCFB68002BC6
:1037900007D0F86802F08EFF0346002B01D001230A
:1037A00000E00023002B21D03B69002B07D03869B3
:1037B00002F097FF0346002B01D0012300E0002315
:1037C000002B10D03B695B693B812F4BB3F819305C
:1037D0009BB23A899A4209D02B4B3A89A3F8192017
:1037E0000123FB7702E02A4806F0C2FCFB7F002B96
:1037F00033D0FB78002B30D0234B1A6891465A689F
:1038000090469A68964603F10C046E4604F1200C2B
:1038100035462346186859689A68DB680FC5103426
:1038200010366445F4D133462246106818609188FA
:10383000927999809A71494642467346154805F037
:10384000CBFB0346002B04D03321134806F090FC39
:103850000DE0124806F08CFC09E0FB7F83F00103C9
:10386000DBB2002B03D00E4806F082FCFFE700BF5E
:103870002437BD46BDE8F08378AA030880AA030870
:1038800088AA030890AA03081C00002098AA03082D
:10389000BCAA03080C0D0020CCA80308E8A8030864
:1038A000E0AA03080000000080B586B000AF786091
:1038B00002F0ECFE786102F0E9FE38619FED2C0B1E
:1038C0002F49786902F0D8FD2E4A2F49786902F015
:1038D000F7FD9FED290B2D49786902F0CDFD2C4BAA
:1038E000DB7D1846FCF7A6FE02460B4643EC102B88
:1038F0002849386902F0C0FD254BB3F819309BB256
:103900001846FCF797FE02460B4643EC102B224963
:10391000386902F0B1FD1E4BD3F81B305B681846C6
:10392000FCF788FE02460B4643EC102B1B49386916
:1039300002F0A2FD3A691A49786902F025FD78691A
:1039400001F0C2FEF860FB68002B09D0F968154849
:1039500006F096FC144806F093FCF86802F0F0FEBE
:10396000786900F0DFFD00BF1837BD4680BD00BF9D
:10397000000000000000F03F0000000000001840C0
:1039800044A70308A0A5030830A9030848A7030813
:103990001C00002078AA030888AA030800AB0308CB
:1039A00064A703083CA9030838AA030880B582B0BD
:1039B00000AF786039607B68012B0DD13B684FF612
:1039C000FF72934208D10AF0A5FC0346044AA2FB09
:1039D00003235B0B034A136000BF0837BD4680BD5D
:1039E00073B2E745BC47002080B500AF4FF6FF71CA
:1039F0000120FFF7DBFF80BD80B582B000AF002360
:103A00007B60184B1B6B174A43F480031363154B01
:103A10001B6B03F480037B607B6800220521392047
:103A20000BF042FE39200BF05BFE002205213A200C
:103A30000BF03AFE3A200BF053FE00220521452000
:103A40000BF032FE45200BF04BFE002205214620F4
:103A50000BF02AFE46200BF043FE00BF0837BD46A0
:103A600080BD00BF0038024080B500AF174B184A38
:103A70001A60164B4FF482725A60144B00229A60FF
:103A8000124B0022DA60114B00221A610F4B002208
:103A90005A610E4B4FF400729A610C4B1022DA619E
:103AA0000A4B00221A62094B00225A62074B00227D
:103AB0009A62064B0A22DA6204480DF0E1F80346E6
:103AC000002B01D0FDF720FE00BF80BDF458002080
:103AD000003C004080B58AB000AF786007F1140365
:103AE00000221A605A609A60DA601A617B681B686B
:103AF000194A93422CD100233B61184B1B6C174A87
:103B000043F400431364154B1B6C03F400433B6107
:103B10003B690023FB60114B1B6B104A43F004030D
:103B200013630E4B1B6B03F00403FB60FB684FF445
:103B3000E0537B610223BB610023FB6103233B62F3
:103B400006237B6207F11403194605480AF03CFF7F
:103B500000BF2837BD4680BD003C00400038024011
:103B60000008024080B500AF114B124A1A60104B9A
:103B70004FF4E1325A600E4B00229A600C4B002247
:103B8000DA600B4B00221A61094B0C225A61084B78
:103B900000229A61064B0022DA6105480DF046FECC
:103BA0000346002B01D0FDF7AFFD00BF80BD00BF75
:103BB0004C5900200010014080B500AF114B124A53
:103BC0001A60104B4FF4E1325A600E4B00229A609B
:103BD0000C4B0022DA600B4B00221A61094B0C22BD
:103BE0005A61084B00229A61064B0022DA610548AF
:103BF0000DF01CFE0346002B01D0FDF785FD00BF34
:103C000080BD00BF945900200044004080B500AF43
:103C1000114B124A1A60104B4FF4E1325A600E4BAE
:103C200000229A600C4B0022DA600B4B00221A61D2
:103C3000094B0C225A61084B00229A61064B002264
:103C4000DA6105480DF0F2FD0346002B01D0FDF7C7
:103C50005BFD00BF80BD00BFDC59002000140140A7
:103C600080B58EB000AF786007F1240300221A609F
:103C70005A609A60DA601A617B681B68674A9342EF
:103C800040F0918000233B62654B5B6C644A43F0DB
:103C900010035364624B5B6C03F010033B623B6A9E
:103CA0000023FB615E4B1B6B5D4A43F00203136311
:103CB0005B4B1B6B03F00203FB61FB69C0237B6260
:103CC0000223BB620023FB6203233B6307237B6366
:103CD00007F12403194653480AF076FE524B534A23
:103CE0001A60514B4FF000625A604F4B00229A60AD
:103CF0004D4B0022DA604C4B4FF480621A614A4B04
:103D000000225A61484B00229A61474B0022DA6137
:103D1000454B00221A62444B00225A6242480BF083
:103D200009F80346002B01D0FDF7EEFC7B683E4A04
:103D3000DA633D4A7B6893633D4B3E4A1A603C4BD5
:103D40004FF000625A603A4B40229A60384B002292
:103D5000DA60374B4FF480621A61354B00225A61AA
:103D6000334B00229A61324B0022DA61304B002241
:103D70001A622F4B00225A622D480AF0DBFF0346DD
:103D8000002B01D0FDF7C0FC7B68294A9A63284AC2
:103D90007B6893630022052125200BF085FC2520FC
:103DA0000BF09EFCE3E07B681B68234A934247D1FB
:103DB0000023BB611A4B1B6C194A43F40033136494
:103DC000174B1B6C03F40033BB61BB6900237B61A1
:103DD000134B1B6B124A43F008031363104B1B6B0E
:103DE00003F008037B617B6960237B620223BB6273
:103DF0000023FB6203233B6307237B6307F1240358
:103E000019460E480AF0E0FD0022052126200BF09D
:103E10004BFC26200BF064FCA9E000BF0010014021
:103E20000038024000040240245A0020406402404E
:103E3000845A0020B864024000440040000C024054
:103E40007B681B684C4A934240F0918000233B61A1
:103E50004A4B5B6C494A43F020035364474B5B6C0D
:103E600003F020033B613B690023FB60434B1B6B6A
:103E7000424A43F004031363404B1B6B03F00403FB
:103E8000FB60FB68C0237B620223BB620023FB62F2
:103E900003233B6308237B6307F124031946384857
:103EA0000AF092FD374B384A1A60364B4FF02062C9
:103EB0005A60344B00229A60324B0022DA60314B58
:103EC0004FF480621A612F4B00225A612D4B002261
:103ED0009A612C4B4FF48072DA612A4B00221A62ED
:103EE000284B00225A6227480AF024FF0346002B81
:103EF00001D0FDF709FC7B68224ADA63214A7B681E
:103F00009363224B224A1A60204B4FF020625A6082
:103F10001E4B40229A601D4B0022DA601B4B4FF46F
:103F200080621A61194B00225A61184B00229A6173
:103F3000164B0022DA61154B00221A62134B002245
:103F40005A6212480AF0F6FE0346002B01D0FDF734
:103F5000DBFB7B680D4A9A630C4A7B689363002203
:103F6000052147200BF0A0FB47200BF0B9FB00BF59
:103F70003837BD4680BD00BF001401400038024004
:103F800000080240E45A002028640240445B0020FC
:103F9000A064024080B500AF0AF022FA00BFFDE73E
:103FA00080B500AF024806F0E3F800BFFDE700BFB0
:103FB00004AB030880B400AF00BFFDE780B400AFDE
:103FC00000BFFDE780B400AF00BFFDE780B400AFE5
:103FD00000BFBD465DF8047B7047000080B500AFB0
:103FE00002480DF0B5FE00BF80BD00BF4C59002057
:103FF00080B500AF02480DF0ABFE00BF80BD00BF32
:104000009459002080B500AF024809F07BFB00BF47
:1040100080BD00BFA45B002080B500AF02480BF05C
:1040200021F800BF80BD00BFE45A002080B500AF7A
:1040300002480BF017F800BF80BD00BF245A0020D3
:1040400080B500AF02480BF045FF00BF80BD00BF48
:10405000ECBF002080B500AF02480BF003F800BFB2
:1040600080BD00BF845A002080B500AF02480AF02E
:10407000F9FF00BF80BD00BF445B002080B500AFEA
:1040800002480DF065FE00BF80BD00BFDC59002076
:1040900080B582B000AF00237B60124B5B6C114A8D
:1040A00043F4804353640F4B5B6C03F480437B60A9
:1040B0007B6800233B600B4B1B6C0A4A43F0805328
:1040C0001364084B1B6C03F080533B603B68002279
:1040D0000F216FF001000BF0E7FA00BF0837BD4673
:1040E00080BD00BF0038024080B58EB000AF786060
:1040F0000023FB620023BB620023FB60334B1B6C7D
:10410000324A43F020031364304B1B6C03F020034E
:10411000FB60FB6807F1100207F114031146184613
:104120000AF02CF93B6AFB62FB6A002B03D10AF010
:10413000FDF8786304E00AF0F9F803465B007B635E
:104140007B6B234AA2FB03239B0C013BBB62214BED
:10415000214A1A601F4B40F2E732DA601D4ABB6AFF
:1041600053601C4B00221A611A4B00229A60194BB3
:1041700000229A61174809F0FCF9034687F83330AA
:1041800097F83330002B1BD1124809F04BFA034645
:1041900087F8333097F83330002B11D137200BF0EC
:1041A0009FFA7B680F2B08D80022796837200BF024
:1041B0007BFA0A4A7B68136002E0012387F83330F8
:1041C00097F8333018463837BD4680BD0038024076
:1041D00083DE1B43A45B0020001400407C00002011
:1041E00080B400AF064BD3F88830054A43F470031F
:1041F000C2F8883000BFBD465DF8047B704700BF41
:1042000000ED00E080B400AF01231846BD465DF824
:10421000047B704780B483B000AF78603960054B91
:1042200016221A604FF0FF3318460C37BD465DF872
:10423000047B70475083012080B582B000AF786066
:104240004FF0FF317868FFF7E5FF00BFFDE780B56D
:1042500086B000AFF860B9607A6000237B610AE045
:10426000AFF300800146BB685A1CBA60CAB21A702C
:104270007B6901337B617A697B689A42F0DB7B68FA
:1042800018461837BD4680BD80B586B000AFF860CF
:10429000B9607A6000237B6109E0BB685A1CBA6090
:1042A0001B781846AFF300807B6901337B617A6924
:1042B0007B689A42F1DB7B6818461837BD4680BDA3
:1042C00080B483B000AF78604FF0FF3318460C37EE
:1042D000BD465DF8047B704780B483B000AF786062
:1042E00039603B684FF400525A60002318460C377F
:1042F000BD465DF8047B704780B483B000AF786042
:10430000012318460C37BD465DF8047B704780B426
:1043100085B000AFF860B9607A60002318461437A2
:10432000BD465DF8047B704780B487B000AF78600D
:10433000144A154BD31A7B617B693B61134B1B6895
:10434000002B02D1114B124A1A60104B1A687B687D
:1043500013443A699A4205D20E4B0C221A604FF070
:10436000FF3309E0094B1B68FB60084B1A687B6848
:104370001344064A1360FB6818461C37BD465DF8B7
:10438000047B70470000022000200000EC5B00204E
:10439000588301205083012080B582B000AF78603F
:1043A000786802F09EF90346002B03D14FF000021B
:1043B000064B02E07B68D3E9062343EC172BB0EEF3
:1043C000470AF0EE670A0837BD4680BD0000F87F57
:1043D00080B485B000AF786039607B68002B02D074
:1043E0003B68002B01D1012356E07A683B689A4272
:1043F0000DD1002350E07B681B78002B01D10023F6
:104400004AE07B6801337B603B6801333B607B683B
:104410001B78FB73FB7B0133224A13441B7803F0A8
:104420000303012B03D1FB7B03F1200200E0FA7BA5
:104430003B681B78BB73BB7B01331A490B441B7869
:1044400003F00303012B02D1BB7B203300E0BB7BD5
:104450009A42D0D07B681B787B737B7B0133114AF7
:1044600013441B7803F00303012B03D17B7B03F17F
:10447000200200E07A7B3B681B783B733B7B013377
:1044800008490B441B7803F00303012B02D13B7B4B
:10449000203300E03B7BD31A18461437BD465DF845
:1044A000047B7047080C040880B584B000AF7860C6
:1044B00039600023FB600023BB607B68002B01D1C7
:1044C000002315E07868FBF715FF03460133FB6016
:1044D0003B681B68F8689847B860BB68002B01D13F
:1044E000002305E0FA687968B86823F0CCFCBB6863
:1044F00018461037BD4680BD80B584B000AF7860E7
:104500007B681B6828209847F860FB68002B04D064
:1045100028220021F86823F08FFBFB68184610372B
:10452000BD4680BD80B584B000AF78600023FB60DD
:104530003DE07B681B68FB607B68DB6803F480738D
:10454000002B08D17B689B68002B04D07B689B689C
:104550001846FFF7E7FF7B68DB6803F48073002BE6
:104560000CD17B681B69002B08D0154B5B687A68FF
:104570001269104698477B6800221A617B68DB68E5
:1045800003F40073002B0CD17B681B6A002B08D04E
:104590000B4B5B687A68126A104698477B6800226A
:1045A0001A62074B5B6878689847FB687B607B689A
:1045B000002BBED100BF00BF1037BD4680BD00BF7D
:1045C0005C00002080B400AF2E231846BD465DF885
:1045D000047B70470000000080B58CB000AF7860AD
:1045E00039604FF000024FF00003C7E906230023B3
:1045F000FB60FFF7E7FF0346FB750023FB62002328
:10460000BB6200237B623B68002B03D03B681B68C6
:10461000002B01D10023C1E00023FB6230E03B68A6
:104620001A683B689968FB6A0B4413441B78452B56
:1046300017DC2B2B30DB2B3B01229A405C4B1340C9
:10464000002B14BF01230023DBB2002B0BD102F09F
:104650000803002B14BF01230023DBB2002B06D17B
:104660001AE0652B18D1BB6A0133BB6205E0BB6A57
:104670000133BB6201237B6200BFFB6A0133FB6233
:104680003B68002B0AD03B689A68FB6A1A443B6877
:104690005B689A42C3D301E000BF00E000BF3B6803
:1046A0001B69BA6A01321046984738613B69002B92
:1046B00001D1002372E03B681A683B689B68134491
:1046C000BA6A1946386923F0DEFB3A69BB6A1344BB
:1046D00000221A707B6A002B14D00023FB620DE0CD
:1046E0003A69FB6A13441B782E2B04D13A69FB6AA2
:1046F0001344FA7D1A70FB6A0133FB62FA6ABB6AE3
:104700009A42EDD307F10C031946386922F008FFED
:1047100087ED060BFB683A699A4205D13B685B69F5
:1047200038699847002339E07968D7E90623C1E959
:1047300006231DA3D3E90023D7E90601FCF77AFA83
:104740000346002B04D07B686FF000425A6115E0ED
:104750004FF00002174BD7E90601FCF761FA034658
:10476000002B04D07B684FF000425A6106E0D7E985
:104770000601FCF789FA02467B685A617B680822C9
:10478000DA603B689B68F9683A698A1A1A443B68A0
:104790009A603B685B69386998470123184630374F
:1047A000BD4680BDAFF300800000C0FFFFFFDF41CA
:1047B000E57F00040000E0C180B584B000AF786000
:1047C00039600023FB600023BB607B68002B03D0B3
:1047D0007B681B68002B01D1002383E07B685B684A
:1047E000002B07D07B689A687B685B689A4201D38C
:1047F000002377E03B68002B01DA002372E07B683E
:104800009A683B68134401333B607B685B683A6895
:104810009A4205D87B681A687B689B68134461E0FC
:104820007B681B69002B01D000235BE03B68B3F180
:10483000804F08D33B68002B03DB6FF00043BB6065
:1048400004E000234EE03B685B00BB607B681B6AB2
:10485000002B18D07B681B6A7A681268B96810460A
:104860009847F860FB68002B32D17B68DB697A6877
:104870001268104698477B6800225A607B680022C5
:104880001A6000232EE07B689B69B8689847F8603F
:10489000FB68002B0DD17B68DB697A6812681046D3
:1048A00098477B6800225A607B6800221A600023C8
:1048B00018E07B6819687B689B6801331A46F868C2
:1048C00023F0E1FA7B68DB697A6812681046984742
:1048D0007B68BA685A607B68FA681A607B689B6874
:1048E000FA68134418461037BD4680BD90B585B0B0
:1048F00000AF78600023FB607B68002B13D07B68DF
:104900001B68002B0FD07B681A687B689B68134478
:10491000FB607B689C68F868FBF7ECFC0346E218D8
:104920007B689A6000E000BF1437BD4690BD000070
:104930002DE9F04387B000AF87ED020B87ED001B38
:10494000B868FE6826F000413A687E6826F00043A9
:10495000FCF77AF90346002B04D0BC68FB6823F00F
:10496000004503E03C687B6823F00045C7E9044547
:10497000D7E90023D7E90201FBF71EFD02460B46EB
:10498000904623F000494FF000020C4BD7E9040198
:10499000FBF7CAFE02460B4601210C46404649463B
:1049A000FCF73EF90346002B01D100231C46E3B27D
:1049B00018461C37BD46BDE8F08300BF0000B03C80
:1049C000F0B593B000AF786039600023FB637B687B
:1049D000D3E90623C7E90C2300237B6400233B644F
:1049E00000237B6107F1180300221A605A609A6065
:1049F000DA601A619A82FFF7E5FD034687F82F30E7
:104A00004FF000024FF00003C7E902233B68002B80
:104A100001D10023B4E0D7E90C23D7E90C01FCF75E
:104A20001DF90346002B21D13C6B7B6B23F0004525
:104A300001231E464FF0FF32534B20462946FCF718
:104A40000DF90346002B0BD14FF0FF324E4B2046A1
:104A50002946FCF7E5F80346002B01D100231E464A
:104A6000F3B283F00103DBB2002B07D007F114038C
:104A70004649184622F05AFF78643FE07B685B693C
:104A80001846FBF7E7FD02460B46D7E90C01FCF799
:104A9000B3F80346002B09D07B685A6907F1140369
:104AA0003B49184622F042FF786427E007F11400E2
:104AB000D7E90C23374922F039FF786407F108025F
:104AC00007F114033449184622F050FF0346012B26
:104AD0000CD197ED027B97ED0C1BB0EE470AF0EE80
:104AE000670AFFF725FF0346002B07D107F11400E3
:104AF000D7E90C23294922F019FF78647B6C002B3D
:104B000002DB7B6C192B01DD002339E07B6C013368
:104B100019463868FFF750FEF863FB6B002B01D194
:104B200000232DE000233B641AE007F114023B6CE4
:104B300013441B7897F82F209A4205D1FA6B3B6CEF
:104B400013442E221A7008E0FA6B3B6C134407F1F1
:104B500014013A6C0A4412781A703B6C01333B64BE
:104B60007B6C3A6C9A42E0D3FA6B3B6C13440022A4
:104B70001A703B689A687B6C1A443B689A60012300
:104B800018464C37BD46F0BDFFFFEF7F1CAB030856
:104B900024AB030828AB030830AB030834AB03088D
:104BA00080B485B000AF78600023FB600023BB6059
:104BB0000023BB604CE07A68BB6813441B782F2B42
:104BC0000FD97A68BB6813441B78392B09D87A68E7
:104BD000BB6813441B781A46FB681344303BFB60E8
:104BE0002DE07A68BB6813441B78402B0FD97A6894
:104BF000BB6813441B78462B09D87A68BB681344FA
:104C00001B781A46FB681344373BFB6017E07A6851
:104C1000BB6813441B78602B0FD97A68BB681344B8
:104C20001B78662B09D87A68BB6813441B781A4630
:104C3000FB681344573BFB6001E000230CE0BB68BA
:104C4000022B02D8FB681B01FB60BB680133BB6011
:104C5000BB68032BAFD9FB6818461437BD465DF817
:104C6000047B704780B58AB000AFF860B9607A60A5
:104C700000237B620023FB61FB68BB61002387F894
:104C80002330002387F82230002387F821300023C7
:104C900087F82030BA68BB69D31A052B40F3B78078
:104CA000BB6902331846FFF77BFFF861FB69B3F578
:104CB0005C4F04D3FB69B3F5604FC0F0AA80FB6979
:104CC000B3F5584F37D3FB69B3F55C4F33D2BB69AB
:104CD00006337B6100233B610C2387F82130BA68DF
:104CE0007B69D31A052B40F396807B691B785C2B7C
:104CF00040F093807B6901331B78752B40F08D80E9
:104D00007B6902331846FFF74BFF38613B69B3F507
:104D10005C4FC0F084803B69B3F5604F7FD2FB6984
:104D20009A02434B13403A69C2F30902134303F555
:104D300080337B6204E0062387F82130FB697B62C5
:104D40007B6A7F2B03D8012387F823301FE07B6A1F
:104D5000B3F5006F06D2022387F82330C02387F80B
:104D6000203014E07B6AB3F5803F06D2032387F836
:104D70002330E02387F8203009E07B6AB3F5881FF1
:104D80004FD2042387F82330F02387F8203097F898
:104D90002330013B87F8223015E07B6ADBB203F059
:104DA0003F03DAB27B68196897F822300B4462F04F
:104DB0007F02D2B21A707B6A9B097B6297F822301D
:104DC000013B87F8223097F82230002BE5D197F885
:104DD0002330012B09D97B6AD9B27B681B6897F80D
:104DE00020200A43D2B21A7007E07B6ADAB27B68ED
:104DF0001B6802F07F02D2B21A707B681A6897F8BB
:104E000023301A447B681A6097F821300BE000BF0A
:104E100008E000BF06E000BF04E000BF02E000BF02
:104E200000E000BF002318462837BD4680BD00BF04
:104E300000FC0F0080B58AB000AF786039603B6835
:104E40001A683B689B68013313447B623B681A68AD
:104E50003B689B68013313443B620023FB600023E3
:104E6000FB613B681A683B689B6813441B78222BE4
:104E700040F0038100233B610023BB6117E03B6AE4
:104E80001B785C2B10D13B6A5A1C3B681B68D31AF9
:104E90001A463B685B689A4280F0F180BB69013337
:104EA000BB613B6A01333B623B6A01333B623B6857
:104EB0001B683A6AD31A1A463B685B689A4203D267
:104EC0003B6A1B78222BDAD13B681B683A6AD31AFB
:104ED0001A463B685B689A4280F0D3803B6A1B7835
:104EE000222B40F0CE803B681A683B689B681344D5
:104EF0003A6AD31A1A46BB69D31A3B613B681B69ED
:104F00003A69013210469847F861FB69002B00F0BE
:104F1000BA80FB69FB6094E07B6A1B785C2B08D04D
:104F20007A6A531C7B62FB68591CF96012781A700C
:104F300087E00223FB753A6A7B6AD31A002B40F3A1
:104F4000A4807B6A01331B78752B00F3A0805C2B57
:104F500004DA222B5CD02F2B5AD098E05C3B192B23
:104F600000F2958001A252F823F000BF1150010811
:104F70008F5001088F5001088F5001088F50010891
:104F80008F500108D54F01088F5001088F5001083C
:104F90008F500108E14F01088F5001088F50010820
:104FA0008F5001088F5001088F5001088F50010861
:104FB0008F500108ED4F01088F5001088F500108F4
:104FC0008F500108F94F01088F5001080550010862
:104FD00021500108FB685A1CFA6008221A702CE064
:104FE000FB685A1CFA600C221A7026E0FB685A1CF7
:104FF000FA600A221A7020E0FB685A1CFA600D223F
:105000001A701AE0FB685A1CFA6009221A7014E040
:105010007B6A5A1CFB68591CF96012781A700CE004
:1050200007F10C031A46396A786AFFF71BFE03463C
:10503000FB75FB7D002B2CD000BFFB7D7A6A1344EF
:105040007B627A6A3B6A9A42FFF466AFFB68002291
:105050001A707B681022DA607B68FA691A613B6813
:105060001B683A6AD31A1A463B689A603B689B6889
:105070005A1C3B689A60012320E000BF0AE000BF91
:1050800008E000BF06E000BF04E000BF02E000BF90
:1050900000E000BFFB69002B05D03B685B69F86945
:1050A00098470023FB617B6A002B06D03B681B6896
:1050B0007A6AD31A1A463B689A6000231846283742
:1050C000BD4680BD80B588B000AF786039600023F0
:1050D000FB6100233B610023BB610023FB600023D5
:1050E0007B613B68002B01D1002310E17B68002B22
:1050F00011D103213868FFF75FFB38613B69002B52
:1051000001D1002303E13B69834A11889278198019
:105110009A700123FBE07B68FB6124E0FB691B784C
:10512000222B0FDC082B13DB083B7C4A22FA03F30B
:1051300003F00103002B14BF01230023DBB2002B7B
:1051400002D105E05C2B03D17B6901337B6107E071
:10515000FB691B781F2B02D87B6905337B6100BF7D
:10516000FB690133FB61FB691B78002BD6D1FA691F
:105170007B68D31A1A467B691344FB60FB680333D0
:1051800019463868FFF718FB38613B69002B01D1DD
:105190000023BCE07B69002B17D13B6922221A70E7
:1051A0003B690133FA687968184622F06CFEFB68A7
:1051B00001333A69134422221A70FB6802333A69B8
:1051C000134400221A700123A1E03B6922221A70C5
:1051D0003B690133BB617B68FB6186E0FB691B783F
:1051E0001F2B0CD9FB691B78222B08D0FB691B787D
:1051F0005C2B04D0FB691A78BB691A706FE0BB693D
:105200005A1CBA615C221A70FB691B78222B3DDCA8
:10521000082B59DB083B1A2B56D801A252F823F071
:10522000A1520108C1520108B1520108C952010836
:10523000A9520108B9520108C9520108C95201080E
:10524000C9520108C9520108C9520108C9520108CE
:10525000C9520108C9520108C9520108C9520108BE
:10526000C9520108C9520108C9520108C9520108AE
:10527000C9520108C9520108C9520108C95201089E
:10528000C9520108C9520108995201085C2B1BD16F
:10529000BB695C221A7022E0BB6922221A701EE0F0
:1052A000BB6962221A701AE0BB6966221A7016E0A6
:1052B000BB696E221A7012E0BB6972221A700EE08E
:1052C000BB6974221A700AE0FB691B781A461449FC
:1052D000B86922F02BFBBB690433BB6100BFFB69DB
:1052E0000133FB61BB690133BB61FB691B78002B98
:1052F0007FF474AFFB6801333A69134422221A70B9
:10530000FB6802333A69134400221A7001231846DD
:105310002037BD4680BD00BF3CAB0308370000040A
:1053200040AB030880B582B000AF786039607B681D
:105330001B6939681846FFF7C5FE0346184608374B
:10534000BD4680BD80B483B000AF78607B68002B21
:1053500003D07B681B68002B01D100232CE07B6805
:10536000002B05D07B689A687B685B689A4206D3FD
:105370007B6821E07B689B685A1C7B689A607B682D
:10538000002B0DD07B689A687B685B689A4207D2D5
:105390007B681A687B689B6813441B78202BE9D9CB
:1053A0007B689A687B685B689A4204D17B689B68DB
:1053B0005A1E7B689A607B6818460C37BD465DF8BC
:1053C000047B704780B582B000AF78607B68002BAB
:1053D00007D07B681B68002B03D07B689B68002B81
:1053E00001D000231CE07B68002B18D07B689B68F1
:1053F0001A1D7B685B689A4211D27B681A687B68C9
:105400009B68134403220849184622F03DFC0346DA
:10541000002B04D17B689B68DA1C7B689A607B68F0
:1054200018460837BD4680BD48AB030880B586B036
:1054300000AFF860B9607A60FB68002B01D10023EF
:105440000CE0F868FAF756FF034601337B617B688E
:10545000BA687969F86800F005F803461846183705
:10546000BD4680BD80B58EB000AFF860B9607A608F
:105470003B6007F1180300221A605A609A60DA60F4
:105480001A615A619A6100237B63414B00221A60C2
:105490003F4B00225A60FB68002B42D0BB68002BB8
:1054A0003FD0FB68BB61BB68FB6100233B62394AAC
:1054B00007F1280307CA83E807003648FFF71CF8FE
:1054C00078637B6B002B2ED007F118031846FFF78B
:1054D00079FF03461846FFF735FF03461946786BF8
:1054E00000F002F90346002B1FD03B68002B0ED0C2
:1054F00007F118031846FFF725FF3A6AFB699A423D
:1055000015D2BA693B6A13441B78002B0FD17B6814
:10551000002B04D0BA693B6A1A447B681A607B6B23
:1055200031E000BF04E000BF02E000BF00E000BFC8
:105530007B6B002B02D0786BFEF7F4FFFB68002B2F
:1055400020D0FB683B6100237B613A6AFB699A4289
:1055500002D23B6A7B6105E0FB69002B02D0FB694C
:10556000013B7B617B68002B04D03A697B691A445C
:105570007B681A60064B1A4607F1100393E8030094
:1055800082E80300002318463837BD4680BD00BFBF
:10559000F05B00205C00002080B582B000AF786036
:1055A000002200217868FFF741FF034618460837BC
:1055B000BD4680BD80B58EB000AFF860B9607A603E
:1055C00000237B6307F1100324220021184622F0F8
:1055D00033FB7B681B683B4A1268104698470346BA
:1055E0003B61384B1B687B61BB687B627A6807F163
:1055F000280307CA83E807003B69002B42D007F164
:1056000010031946F86800F05BF90346002B3BD005
:1056100007F110031846FFF769F97B689B68002BB8
:105620000DD07B689B683869BA690132114698478A
:1056300078637B6B002B29D000233B6120E07B68E3
:105640001B68BA6901321046984778637B6B002B60
:105650001ED03969BB695A1C7B69934228BF134627
:105660001A46786B22F00FFCBB697A6B1344002258
:105670001A707B685B683A691046984700233B6163
:105680007B6B1AE000BF04E000BF02E000BF00E057
:1056900000BF3B69002B06D07B685B683A69104607
:1056A000984700233B617B6B002B05D07B685B68D0
:1056B000786B984700237B63002318463837BD4634
:1056C00080BD00BFC401040880B582B000AF78601F
:1056D000044A01217868FFF76DFF03461846083732
:1056E000BD4680BD5C00002080B582B000AF786010
:1056F00039603B68002B03D03B681B68002B01D14D
:105700000023D2E03B68002B1DD03B689B681A1D2C
:105710003B685B689A4216D83B681A683B689B688E
:10572000134404226349184622F0AEFA0346002BC4
:1057300009D17B680422DA603B689B681A1D3B68CC
:105740009A600123B1E03B68002B1DD03B689B6849
:105750005A1D3B685B689A4216D83B681A683B68DA
:105760009B68134405225449184622F08DFA0346DB
:10577000002B09D17B680122DA603B689B685A1DC7
:105780003B689A60012390E03B68002B20D03B6887
:105790009B681A1D3B685B689A4219D83B681A6877
:1057A0003B689B68134404224449184622F06CFA73
:1057B0000346002B0CD17B680222DA607B68012251
:1057C0005A613B689B681A1D3B689A6001236CE034
:1057D0003B68002B13D03B689A683B685B689A4231
:1057E0000DD23B681A683B689B6813441B78222BD8
:1057F00005D139687868FFF71DFB034655E03B6823
:10580000002B23D03B689A683B685B689A421DD2A4
:105810003B681A683B689B6813441B782D2B0FD09C
:105820003B681A683B689B6813441B782F2B0DD983
:105830003B681A683B689B6813441B78392B05D872
:1058400039687868FEF7C8FE03462EE03B68002BF7
:1058500013D03B689A683B685B689A420DD23B68FC
:105860001A683B689B6813441B785B2B05D1396829
:10587000786800F009F9034617E03B68002B13D065
:105880003B689A683B685B689A420DD23B681A682D
:105890003B689B6813441B787B2B05D1396878687B
:1058A00000F03CFA034600E0002318460837BD46E6
:1058B00080BD00BF1CAB03084CAB030854AB03080E
:1058C00080B584B000AF786039600023FB607B68EE
:1058D000002B02D03B68002B01D10023C9E07B687C
:1058E000DB68DBB2802B00F08E80802B00F3C08061
:1058F000202B49DC002B40F3BB80013B1F2B00F227
:10590000B78001A252F823F0B3590108D759010812
:10591000715A01088F590108715A0108715A01081A
:10592000715A0108FB590108715A0108715A01089E
:10593000715A0108715A0108715A0108715A010817
:10594000715A01084D5A0108715A0108715A01082B
:10595000715A0108715A0108715A0108715A0108F7
:10596000715A0108715A0108715A0108715A0108E7
:10597000715A0108715A0108715A0108715A0108D7
:10598000715A0108595A0108402B6BD070E005216B
:105990003868FEF711FFF860FB68002B01D1002387
:1059A00067E0FB68354A1068186012791A710123A4
:1059B0005FE006213868FEF7FFFEF860FB68002B09
:1059C00001D1002355E0FB682D4A106818609288C9
:1059D0009A8001234DE005213868FEF7EDFEF8605E
:1059E000FB68002B01D1002343E0FB68254A1068C7
:1059F000186012791A7101233BE039687868FEF764
:105A0000DFFF034635E00023BB607B681B69002B8A
:105A100001D100232DE07B681B691846FAF76AFC68
:105A200003460133BB60B9683868FEF7C5FEF8600D
:105A3000FB68002B01D100231BE07B681B69BA685F
:105A40001946F86822F01FFA012312E039687868D5
:105A5000FFF768FC03460CE03968786800F0D8F876
:105A6000034606E03968786800F064FA034600E00F
:105A7000002318461037BD4680BD00BF1CAB03088D
:105A80004CAB030854AB030880B586B000AF786018
:105A9000396000237B6100233B613B68DB68B3F521
:105AA0007A7F01D30023AFE03B68DB685A1C3B6878
:105AB000DA603B681A683B689B6813441B785B2B71
:105AC00040F094803B689B685A1C3B689A60386839
:105AD000FFF738FC3B68002B0DD03B689A683B68A9
