:020000040801F1
:100000000000022055D8010829CB010835CB010892
:1000100049CB010851CB010859CB01080000000071
:10002000000000000000000000000000816E0208D7
:1000300061CB010800000000D1700208397102088C
:10004000BDD80108BDD80108BDD80108BDD8010838
:10005000BDD80108BDD80108BDD80108BDD8010828
:10006000BDD80108BDD80108BDD80108BDD8010818
:10007000BDD80108BDD80108BDD80108BDD8010808
:10008000BDD80108BDD80108BDD80108BDD80108F8
:10009000BDD80108BDD80108BDD80108BDD80108E8
:1000A000BDD80108BDD80108BDD80108BDD80108D8
:1000B000BDD80108BDD80108BDD80108BDD80108C8
:1000C000BDD80108BDD80108BDD80108BDD80108B8
:1000D000BDD80108BDD8010871CB0108BDD8010801
:1000E000BDD80108BDD80108BDD80108BDD8010898
:1000F000BDD80108BDD80108BDD80108BDD8010888
:10010000BDD80108BDD80108BDD80108BDD8010877
:10011000BDD80108BDD80108BDD8010885CB0108AC
:10012000BDD8010899CB0108ADCB0108BDD80108A5
:10013000BDD80108C1CB0108BDD80108BDD8010850
:10014000BDD80108BDD80108BDD80108BDD8010837
:10015000BDD80108D5CB0108BDD80108E9CB0108FD
:10016000BDD80108BDD80108BDD80108BDD8010817
:10017000BDD80108BDD80108BDD8010800000000A5
:08018000BDD80108BDD801083B
:100188000000000000000000000000000000000067
:100198000000000000000000000000000000000057
:1001A8000000000000000000000000000000000047
:1001B8000000000000000000000000000000000037
:1001C8000000000000000000000000000000000027
:1001D8000000000000000000000000000000000017
:1001E8000000000000000000000000000000000007
:1001F8000000000000000000EFBEADDE05000000BA
:10020800436F6E74726F6C205057520000000000EC
:1002180000000000000000000000000000000000D6
:1002280000000000000000000000000000000000C6
:1002380000000000000000000000000000000000B6
:1002480000000000000000000000000000000000A6
:100258000000000000000000000000000000000096
:100268000000000000000000000000000000000086
:100278000000000000000000000000000000000076
:100288000000000000000000000000000000000066
:1002A00010B5054C237833B9044B13B10448AFF3B0
:1002B00000800123237010BD5007002000000000C3
:1002C0005CBA050808B5034B1BB103490348AFF3FB
:1002D000008008BD00000000540700205CBA05083B
:1002E00010F8012B11F8013B012A28BF9A42F7D0E0
:1002F000D01A70470000000000000000000000005D
:1003000001F0FF01102A2BDB10F0070F08D010F8C6
:10031000013B013A8B422DD010F0070F42B3F6D1CA
:10032000F0B441EA012141EA014122F007047FF0E3
:1003300000070023F0E80256083C85EA010586EA3A
:10034000010685FA47F5A3FA87F586FA47F6A5FA76
:1003500087F68EB9EED1F0BC01F0FF0102F0070282
:1003600032B110F8013B013A83EA010313B1F8D12D
:100370000020704701387047002D06BF354603380E
:10038000073815F0010F07D1013015F4807F02BF47
:10039000013015F4C03F0130F0BC0138704700BF98
:1003A000034613F8012B002AFBD1181A01387047B5
:1003B00081F0004102E000BF83F0004330B54FEA16
:1003C00041044FEA430594EA050F08BF90EA020F83
:1003D0001FBF54EA000C55EA020C7FEA645C7FEA16
:1003E000655C00F0E2804FEA5454D4EB5555B8BF39
:1003F0006D420CDD2C4480EA020281EA030382EAAA
:10040000000083EA010180EA020281EA0303362D3B
:1004100088BF30BD11F0004F4FEA01314FF4801C0E
:100420004CEA113102D0404261EB410113F0004F20
:100430004FEA03334CEA133302D0524263EB4303D7
:1004400094EA050F00F0A780A4F10104D5F1200E75
:100450000DDB02FA0EFC22FA05F2801841F10001D0
:1004600003FA0EF2801843FA05F359410EE0A5F1A4
:1004700020050EF1200E012A03FA0EFC28BF4CF0D5
:10048000020C43FA05F3C01851EBE37101F000458B
:1004900007D54FF0000EDCF1000C7EEB00006EEB98
:1004A0000101B1F5801F1BD3B1F5001F0CD3490822
:1004B0005FEA30004FEA3C0C04F101044FEA445279
:1004C00012F5800F80F09A80BCF1004F08BF5FEA00
:1004D000500C50F1000041EB045141EA050130BDE0
:1004E0005FEA4C0C404141EB0101013C28BFB1F5F2
:1004F000801FE9D291F0000F04BF01460020B1FA3D
:1005000081F308BF2033A3F10B03B3F120020CDA0F
:100510000C3208DD02F1140CC2F10C0201FA0CF0ED
:1005200021FA02F10CE002F11402D8BFC2F1200C52
:1005300001FA02F120FA0CFCDCBF41EA0C01904008
:10054000E41AA2BF01EB0451294330BD6FEA040451
:100550001F3C1CDA0C340EDC04F11404C4F120023C
:1005600020FA04F001FA02F340EA030021FA04F34E
:1005700045EA030130BDC4F10C04C4F1200220FAA5
:1005800002F001FA04F340EA0300294630BD21FAE3
:1005900004F0294630BD94F0000F83F4801306BFA9
:1005A00081F480110134013D4EE77FEA645C18BF9D
:1005B0007FEA655C29D094EA050F08BF90EA020F34
:1005C00005D054EA000C04BF1946104630BD91EA2C
:1005D000030F1EBF0021002030BD5FEA545C05D12F
:1005E0004000494128BF41F0004130BD14F580046E
:1005F0003CBF01F5801130BD01F0004545F0FE41E2
:1006000041F470014FF0000030BD7FEA645C1ABF16
:10061000194610467FEA655C1CBF0B46024650EA4D
:10062000013406BF52EA033591EA030F41F4002179
:1006300030BD00BF90F0000F04BF0021704730B5FF
:100640004FF4806404F132044FF000054FF00001D4
:1006500050E700BF90F0000F04BF0021704730B595
:100660004FF4806404F1320410F0004548BF40426A
:100670004FF000013EE700BF42004FEAE2014FEABF
:1006800031014FEA02701FBF12F07F4393F07F4F9A
:1006900081F06051704732F07F4208BF704793F09D
:1006A0007F4F04BF41F40021704730B54FF46074B0
:1006B00001F0004521F000411CE700BF50EA0102B3
:1006C00008BF704730B54FF000050AE050EA01025C
:1006D00008BF704730B511F0004502D5404261EBCC
:1006E00041014FF4806404F132045FEA915C3FF40D
:1006F000D8AE4FF003025FEADC0C18BF03325FEAAA
:10070000DC0C18BF033202EBDC02C2F1200300FA5A
:1007100003FC20FA02F001FA03FE40EA0E0021FA7F
:1007200002F11444BDE600BF70B54FF0FF0C4CF46D
:10073000E06C1CEA11541DBF1CEA135594EA0C0F1F
:1007400095EA0C0F00F0DEF82C4481EA030621EA5A
:100750004C5123EA4C5350EA013518BF52EA033595
:1007600041F4801143F4801338D0A0FB02CE4FF047
:100770000005E1FB02E506F00042E0FB03E54FF077
:100780000006E1FB03569CF0000F18BF4EF0010E6F
:10079000A4F1FF04B6F5007F64F5407404D25FEA6B
:1007A0004E0E6D4146EB060642EAC62141EA55511E
:1007B0004FEAC52040EA5E504FEACE2EB4F1FD0C60
:1007C00088BFBCF5E06F1ED8BEF1004F08BF5FEADE
:1007D000500E50F1000041EB045170BD06F0004690
:1007E00046EA010140EA020081EA0301B4EB5C043D
:1007F000C2BFD4EB0C0541EA045170BD41F4801135
:100800004FF0000E013C00F3AB8014F1360FDEBF59
:10081000002001F0004170BDC4F10004203C35DA35
:100820000C341BDC04F11404C4F1200500FA05F3B8
:1008300020FA04F001FA05F240EA020001F0004259
:1008400021F0004110EBD37021FA04F642EB0601CF
:100850005EEA430E08BF20EAD37070BDC4F10C04F9
:10086000C4F1200500FA04F320FA05F001FA04F2BD
:1008700040EA020001F0004110EBD37041F10001A9
:100880005EEA430E08BF20EAD37070BDC4F12005B4
:1008900000FA05F24EEA020E20FA04F301FA05F21C
:1008A00043EA020321FA04F001F0004121FA04F2C4
:1008B00020EA020000EBD3705EEA430E08BF20EA94
:1008C000D37070BD94F0000F0FD101F000464000CE
:1008D00041EB010111F4801F08BF013CF7D041EA50
:1008E000060195F0000F18BF704703F00046520054
:1008F00043EB030313F4801F08BF013DF7D043EA25
:100900000603704794EA0C0F0CEA135518BF95EADA
:100910000C0F0CD050EA410618BF52EA4306D1D161
:1009200081EA030101F000414FF0000070BD50EA80
:10093000410606BF1046194652EA430619D094EA0A
:100940000C0F02D150EA013613D195EA0C0F05D1F4
:1009500052EA03361CBF104619460AD181EA030148
:1009600001F0004141F0FE4141F470014FF0000000
:1009700070BD41F0FE4141F4780170BD70B54FF09B
:10098000FF0C4CF4E06C1CEA11541DBF1CEA13551B
:1009900094EA0C0F95EA0C0F00F0A7F8A4EB0504FD
:1009A00081EA030E52EA03354FEA013100F08880F4
:1009B0004FEA03334FF0805545EA131343EA1263BD
:1009C0004FEA022245EA111545EA10654FEA002672
:1009D0000EF000419D4208BF964244F1FD0404F52B
:1009E000407402D25B084FEA3202B61A65EB030587
:1009F0005B084FEA32024FF480104FF4002CB6EB44
:100A0000020E75EB030E22BFB61A754640EA0C00C3
:100A10005B084FEA3202B6EB020E75EB030E22BF03
:100A2000B61A754640EA5C005B084FEA3202B6EB44
:100A3000020E75EB030E22BFB61A754640EA9C0003
:100A40005B084FEA3202B6EB020E75EB030E22BFD3
:100A5000B61A754640EADC0055EA060E18D04FEA91
:100A6000051545EA16754FEA06164FEAC30343EA31
:100A700052734FEAC2025FEA1C1CC0D111F4801FFE
:100A80000BD141EA00014FF000004FF0004CB6E7F7
:100A900011F4801F04BF01430020B4F1FD0C88BF96
:100AA000BCF5E06F3FF6AFAEB5EB030C04BFB6EBA1
:100AB000020C5FEA500C50F1000041EB045170BD94
:100AC0000EF0004E4EEA113114EB5C04C2BFD4EBC1
:100AD0000C0541EA045170BD41F480114FF0000E45
:100AE000013C90E645EA060E8DE60CEA135594EAC1
:100AF0000C0F08BF95EA0C0F3FF43BAF94EA0C0FC4
:100B00000AD150EA01347FF434AF95EA0C0F7FF438
:100B100025AF104619462CE795EA0C0F06D152EA8C
:100B200003353FF4FDAE1046194622E750EA410670
:100B300018BF52EA43067FF4C5AE50EA41047FF481
:100B40000DAF52EA43057FF4EBAE12E74FF0FF3CE6
:100B500006E000BF4FF0010C02E000BF4FF0010CB7
:100B60004DF804CD4FEA410C7FEA6C5C4FEA430C30
:100B700018BF7FEA6C5C1BD001B050EA410C0CBF7F
:100B800052EA430C91EA030F02BF90EA020F0020E1
:100B9000704710F1000F91EA030F58BF994208BF48
:100BA00090422CBFD8176FEAE37040F00100704705
:100BB0004FEA410C7FEA6C5C02D150EA013C07D15C
:100BC0004FEA430C7FEA6C5CD6D152EA033CD3D0A7
:100BD0005DF8040B704700BF8446104662468C46A1
:100BE0001946634600E000BF01B5FFF7B7FF0028D4
:100BF00048BF10F1000F01BD4DF808EDFFF7F4FFFD
:100C00000CBF012000205DF808FB00BF4DF808ED87
:100C1000FFF7EAFF34BF012000205DF808FB00BFAA
:100C20004DF808EDFFF7E0FF94BF012000205DF8CC
:100C300008FB00BF4DF808EDFFF7CEFF94BF012081
:100C400000205DF808FB00BF4DF808EDFFF7C4FF7A
:100C500034BF012000205DF808FB00BF4FEA410CC3
:100C60007FEA6C5C02D150EA013C0AD14FEA430CA6
:100C70007FEA6C5C02D152EA033C02D14FF00000E3
:100C800070474FF0010070474FEA410212F5001221
:100C900015D211D56FF47873B3EB625212D94FEAC3
:100CA000C12343F0004343EA505311F0004F23FAAD
:100CB00002F018BF404270474FF00000704750EA02
:100CC000013005D111F0004008BF6FF000407047BF
:100CD0004FF00000704700BF4A0011D212F5001219
:100CE00011D20DD56FF47873B3EB62520ED44FEA84
:100CF000C12343F0004343EA505323FA02F0704704
:100D00004FF00000704750EA013002D14FF0FF3041
:100D100070474FF0000070474FEA4102B2F1E043E4
:100D200024BFB3F5001CDCF1FE5C0DD901F0004CD2
:100D30004FEAC0024CEA5070B2F1004F40EB830022
:100D400008BF20F00100704711F0804F21D113F14E
:100D50003872BCBF01F00040704741F480114FEA87
:100D60005252C2F11802C2F1200C10FA0CF320FA10
:100D700002F018BF40F001004FEAC1234FEAD3232D
:100D800003FA0CFC40EA0C0023FA02F34FEA430397
:100D9000CCE77FEA625307D150EA01331EBF4FF020
:100DA000FE4040F44000704701F0004040F0FE403B
:100DB00040F40000704700BF53B94AB9002908BF8A
:100DC00000281CBF4FF0FF314FF0FF3000F0A0B9FA
:100DD000ADF1080C6DE904CE00F03CF8DDF804E05C
:100DE000DDE9022304B0704738B500220023044631
:100DF0000D46FFF70BFF28B920462946BDE83840CD
:100E000000F00AB8204605F1004100F005F8404224
:100E100061EB410138BD00BFD0B50C4B0022064646
:100E20000F46FFF781FCFFF757FF0446FFF702FC70
:100E3000074B0022FFF778FC02460B463046394646
:100E4000FFF7BAFAFFF748FF2146D0BD0000F03D9A
:100E50000000F0412DE9F047089D0C46002B4ED1D3
:100E600094468C458646B2FA82F262D94AB1C2F102
:100E70002003914020FA03F30CFA02FC194300FA14
:100E800002FE4FEA1C471FFA8CF6B1FBF7F44FEA5B
:100E90001E4307FB141143EA014304FB06F1994288
:100EA0000AD91CEB030304F1FF3080F01281994250
:100EB00040F20F81023C6344591A1FFA8EF3B1FBD2
:100EC000F7F007FB101143EA014300FB06F69E42D0
:100ED0000AD91CEB030300F1FF3180F0FC809E4235
:100EE00040F2F980634402389B1B40EA0440002131
:100EF0001DB1D3400022C5E90032BDE8F0878B4226
:100F000005D90DB1C5E9000100210846F5E7B3FA9E
:100F100083F1002946D1A34202D39042C0F0F08071
:100F2000861A64EB03030120002DE6D0C5E90063B7
:100F3000E3E7002A40F09080A1EB0C044FEA1C4844
:100F40001FFA8CF70121B4FBF8F64FEA1E4308FBA9
:100F5000164443EA044307FB06F0984208D91CEB09
:100F6000030306F1FF3402D2984200F2CD802646F8
:100F70001C1A1FFA8EF3B4FBF8F008FB104443EA86
:100F8000044300FB07F79F4208D91CEB030300F161
:100F9000FF3402D29F4200F2B0802046DB1B40EAC1
:100FA0000640A5E7C1F120068B4022FA06F71F4351
:100FB00020FA06FC04FA01F343EA0C03F44000FAB9
:100FC00001F8380C4FEA1349B4FBF0FE1FFA87FC16
:100FD00000FB1E4449EA04440EFB0CF9A14502FA49
:100FE00001F20AD93C190EF1FF3A80F08480A14544
:100FF00040F28180AEF1020E3C44A4EB09041FFADA
:1010000083F9B4FBF0F300FB134449EA044403FB07
:101010000CFCA44507D93C1903F1FF3067D2A44565
:1010200065D9023B3C4443EA0E40A0FB0293A4EB8B
:101030000C049C42CE469C4651D34ED055B1B8EBE1
:101040000E0364EB0C0404FA06F6CB401E43CC40BE
:10105000C5E90064002150E7C2F1200320FA03F142
:101060000CFA02FC24FA03F394400C434FEA1C48A8
:1010700000FA02FE1FFA8CF7B3FBF8F008FB103100
:10108000230C43EA014300FB07F1994208D91CEB0A
:10109000030300F1FF362CD299422AD90238634467
:1010A0005B1AA4B2B3FBF8F108FB113344EA034422
:1010B00001FB07F3A34208D91CEB040401F1FF363E
:1010C00013D2A34211D902396444E41A41EA00411F
:1010D00039E70446F0E6084606E7C845AED2B9EB64
:1010E000020E63EB070C0138A8E73146EDE7034633
:1010F00099E73046D4E7D6467FE7634402384DE7A8
:101100000646234608460FE7023E634430E700BF29
:10111000704700BF80B582B000AF78607B685B6AC3
:10112000002B40F0A6807B68DB69022B50D0022B9D
:1011300000F3AE80002B3BD0012B40F0A9807B68F0
:101140001A697B685B689A422CD17B681B6A002B0A
:1011500015D17B68986A7B689B8D012219460FF038
:1011600041F97B685A697B689B69D21A7B681A616E
:101170007B6800225A607B6801221A628BE07B68E0
:10118000986A7B689B8D002219460FF02BF97B68CB
:101190009A697B681A617B6800225A607B6800222A
:1011A0001A6278E07B685B685A1C7B685A6072E060
:1011B0007B681B6A012B6DD17B68986A7B689B8D6D
:1011C000002219460FF00EF97B6800221A6261E0D6
:1011D0007B681A697B685B689A4244D17B681B6AAA
:1011E000002B2DD17B68986A7B689B8D0122194664
:1011F0000FF0F8F87B685A697B689B69D21A7B68A4
:101200001A617B6800225A607B6801221A627B683F
:101210009A687B68DB689A420CD17B6801225A622B
:101220007B680022DA617B6800229A607B6800227A
:10123000DA6030E07B689B685A1C7B689A602AE021
:101240007B68986A7B689B8D002219460FF0CAF86C
:101250007B689A697B681A617B6800225A607B68A8
:1012600000221A6217E07B685B685A1C7B685A6030
:1012700011E07B68986A7B689B8D012219460FF00C
:10128000B1F87B6800225A607B6801221A6202E092
:1012900000BF00E000BF00BF0837BD4680BD80B57D
:1012A00084B000AFF860B9601346FB80FB68BA6891
:1012B0009A62FB68FA889A85FB8801221946B86809
:1012C0000FF090F8FB6801221A6000BF1037BD468E
:1012D00080BD80B483B000AF78607B6800225A6222
:1012E00000BF0C37BD465DF8047B704780B483B007
:1012F00000AF78607B6801225A6200BF0C37BD46A0
:101300005DF8047B704780B485B000AFF860B960C9
:101310007A603B60FB68BA68DA61FB687A685A6198
:10132000FB683A689A6100BF1437BD465DF8047BDC
:10133000704780B483B000AF786039607B683A68EA
:10134000DA6100BF0C37BD465DF8047B704780B49E
:1013500083B000AF78607B6800221A607B6800224F
:101360005A607B6800229A607B680022DA607B68A2
:1013700000221A617B684FF47A725A617B6864229A
:101380009A617B680122DA617B6801221A627B68BC
:1013900001225A627B6800229A627B6800229A8549
:1013A0007B6818460C37BD465DF8047B704780B4F7
:1013B00083B000AF78607B6818460C37BD465DF897
:1013C000047B704780B582B000AF7860786802F027
:1013D0003CF90346002B03D14FF00002064B02E01C
:1013E0007B68D3E9062343EC172BB0EE470AF0EEF7
:1013F000670A0837BD4680BD0000F87F80B485B01D
:1014000000AF786039607B68002B02D03B68002B0E
:1014100001D1012356E07A683B689A420DD100233E
:1014200050E07B681B78002B01D100234AE07B68E9
:1014300001337B603B6801333B607B681B78FB7347
:10144000FB7B0133224A13441B7803F00303012B77
:1014500003D1FB7B03F1200200E0FA7B3B681B78A1
:10146000BB73BB7B01331A490B441B7803F00303A6
:10147000012B02D1BB7B203300E0BB7B9A42D0D052
:101480007B681B787B737B7B0133114A13441B7889
:1014900003F00303012B03D17B7B03F1200200E067
:1014A0007A7B3B681B783B733B7B013308490B44D9
:1014B0001B7803F00303012B02D13B7B203300E0B8
:1014C0003B7BD31A18461437BD465DF8047B704742
:1014D0004A46060880B584B000AF786039600023C2
:1014E000FB600023BB607B68002B01D1002315E06B
:1014F0007868FEF755FF03460133FB603B681B68C5
:10150000F8689847B860BB68002B01D1002305E05C
:10151000FA687968B86846F0A8FBBB6818461037C7
:10152000BD4680BD80B584B000AF78607B681B6825
:1015300028209847F860FB68002B04D0282200215F
:10154000F86844F04FFBFB6818461037BD4680BD75
:1015500080B584B000AF78600023FB603DE07B681D
:101560001B68FB607B68DB6803F48073002B08D189
:101570007B689B68002B04D07B689B681846FFF74C
:10158000E7FF7B68DB6803F48073002B0CD17B687A
:101590001B69002B08D0154B5B687A6812691046EE
:1015A00098477B6800221A617B68DB6803F400734C
:1015B000002B0CD17B681B6A002B08D00B4B5B689F
:1015C0007A68126A104698477B6800221A62074BB5
:1015D0005B6878689847FB687B607B68002BBED1AE
:1015E00000BF00BF1037BD4680BD00BF0400002013
:1015F00080B400AF2E231846BD465DF8047B7047CB
:1016000080B598B000AF786039604FF000024FF0BD
:101610000003C7E914230023BB64FFF7E9FF034677
:1016200087F84F300023FB653B68002B03D03B68F5
:101630001B68002B01D10023A0E00023FB653DE0E7
:101640003B681A683B689968FB6D0B4413441B7830
:10165000452B17DC2B2B40DB2B3B01229A404C4BBC
:101660001340002B14BF01230023DBB2002B0BD14E
:1016700002F00803002B14BF01230023DBB2002B70
:1016800011D12AE0652B28D13B681A683B6899681C
:10169000FB6D0B441344197807F10802FB6D1344EA
:1016A0000A461A7007E007F10802FB6D134497F829
:1016B0004F201A7000BFFB6D0133FB65FB6D3E2BA5
:1016C0000DD83B68002B0AD03B689A68FB6D1A4422
:1016D0003B685B689A42B3D301E000BF00E000BF03
:1016E00007F10802FB6D134400221A7007F148024B
:1016F00007F108031146184642F072FB87ED140B00
:10170000BA6C07F108039A4201D1002336E07968E8
:10171000D7E91423C1E906231BA3D3E90023D7E9A2
:101720001401FFF787FA0346002B04D07B686FF0A3
:1017300000425A6115E04FF00002164BD7E9140140
:10174000FFF76EFA0346002B04D07B684FF000428F
:101750005A6106E0D7E91401FFF796FA02467B6862
:101760005A617B680822DA603B689B68B96C07F1B4
:1017700008028A1A1A443B689A60012318466037A7
:10178000BD4680BDAFF300800000C0FFFFFFDF411A
:10179000E57F00040000E0C180B584B000AF786050
:1017A00039600023FB600023BB607B68002B03D003
:1017B0007B681B68002B01D1002383E07B685B689A
:1017C000002B07D07B689A687B685B689A4201D3DC
:1017D000002377E03B68002B01DA002372E07B688E
:1017E0009A683B68134401333B607B685B683A68E6
:1017F0009A4205D87B681A687B689B68134461E04D
:101800007B681B69002B01D000235BE03B68B3F1D0
:10181000804F08D33B68002B03DB6FF00043BB60B5
:1018200004E000234EE03B685B00BB607B681B6A02
:10183000002B18D07B681B6A7A681268B96810465A
:101840009847F860FB68002B32D17B68DB697A68C7
:101850001268104698477B6800225A607B68002215
:101860001A6000232EE07B689B69B8689847F8608F
:10187000FB68002B0DD17B68DB697A681268104623
:1018800098477B6800225A607B6800221A60002318
:1018900018E07B6819687B689B6801331A46F86812
:1018A00046F0E3F97B68DB697A681268104698476E
:1018B0007B68BA685A607B68FA681A607B689B68C4
:1018C000FA68134418461037BD4680BD90B585B000
:1018D00000AF78600023FB607B68002B13D07B682F
:1018E0001B68002B0FD07B681A687B689B681344C9
:1018F000FB607B689C68F868FEF752FD0346E218BF
:101900007B689A6000E000BF1437BD4690BD0000C0
:101910002DE9F04387B000AF87ED020B87ED001B88
:10192000B868FE6826F000413A687E6826F00043F9
:10193000FFF78AF90346002B04D0BC68FB6823F04C
:10194000004503E03C687B6823F00045C7E9044597
:10195000D7E90023D7E90201FEF72EFD02460B4628
:10196000904623F000494FF000020C4BD7E90401E8
:10197000FEF7DAFE02460B4601210C464046494678
:10198000FFF74EF90346002B01D100231C46E3B2BA
:1019900018461C37BD46BDE8F08300BF0000B03CD0
:1019A000F0B593B000AF786039600023FB637B68CB
:1019B000D3E90623C7E90C2300237B6400233B649F
:1019C00000237B6107F1180300221A605A609A60B5
:1019D000DA601A619A82FFF70BFE034687F82F3010
:1019E0004FF000024FF00003C7E902233B68002BD1
:1019F00001D10023B4E0D7E90C23D7E90C01FFF7AC
:101A00002DF90346002B21D13C6B7B6B23F0004565
:101A100001231E464FF0FF32534B20462946FFF765
:101A20001DF90346002B0BD14FF0FF324E4B2046E1
:101A30002946FFF7F5F80346002B01D100231E4687
:101A4000F3B283F00103DBB2002B07D007F11403DC
:101A50004649184643F03AFD78643FE07B685B698D
:101A60001846FEF7F7FD02460B46D7E90C01FFF7D3
:101A7000C3F80346002B09D07B685A6907F11403A9
:101A80003B49184643F022FD786427E007F1140033
:101A9000D7E90C23374943F019FD786407F10802B0
:101AA00007F114033449184643F030FD0346012B77
:101AB0000CD197ED027B97ED0C1BB0EE470AF0EED0
:101AC000670AFFF725FF0346002B07D107F1140033
:101AD000D7E90C23294943F0F9FC78647B6C002B8F
:101AE00002DB7B6C192B01DD002339E07B6C0133B9
:101AF00019463868FFF750FEF863FB6B002B01D1E5
:101B000000232DE000233B641AE007F114023B6C34
:101B100013441B7897F82F209A4205D1FA6B3B6C3F
:101B200013442E221A7008E0FA6B3B6C134407F141
:101B300014013A6C0A4412781A703B6C01333B640E
:101B40007B6C3A6C9A42E0D3FA6B3B6C13440022F4
:101B50001A703B689A687B6C1A443B689A60012350
:101B600018464C37BD46F0BDFFFFEF7F84BA05082D
:101B70008CBA050890BA050898BA05089CBA0508F9
:101B800080B485B000AF78600023FB600023BB60A9
:101B90000023BB604CE07A68BB6813441B782F2B92
:101BA0000FD97A68BB6813441B78392B09D87A6837
:101BB000BB6813441B781A46FB681344303BFB6038
:101BC0002DE07A68BB6813441B78402B0FD97A68E4
:101BD000BB6813441B78462B09D87A68BB6813444A
:101BE0001B781A46FB681344373BFB6017E07A68A2
:101BF000BB6813441B78602B0FD97A68BB68134409
:101C00001B78662B09D87A68BB6813441B781A4680
:101C1000FB681344573BFB6001E000230CE0BB680A
:101C2000022B02D8FB681B01FB60BB680133BB6061
:101C3000BB68032BAFD9FB6818461437BD465DF867
:101C4000047B704780B58AB000AFF860B9607A60F5
:101C500000237B620023FB61FB68BB61002387F8E4
:101C60002330002387F82230002387F82130002317
:101C700087F82030BA68BB69D31A052B40F3B780C8
:101C8000BB6902331846FFF77BFFF861FB69B3F5C8
:101C90005C4F04D3FB69B3F5604FC0F0AA80FB69C9
:101CA000B3F5584F37D3FB69B3F55C4F33D2BB69FB
:101CB00006337B6100233B610C2387F82130BA682F
:101CC0007B69D31A052B40F396807B691B785C2BCC
:101CD00040F093807B6901331B78752B40F08D8039
:101CE0007B6902331846FFF74BFF38613B69B3F558
:101CF0005C4FC0F084803B69B3F5604F7FD2FB69D5
:101D00009A02434B13403A69C2F30902134303F5A5
:101D100080337B6204E0062387F82130FB697B6215
:101D20007B6A7F2B03D8012387F823301FE07B6A6F
:101D3000B3F5006F06D2022387F82330C02387F85B
:101D4000203014E07B6AB3F5803F06D2032387F886
:101D50002330E02387F8203009E07B6AB3F5881F41
:101D60004FD2042387F82330F02387F8203097F8E8
:101D70002330013B87F8223015E07B6ADBB203F0A9
:101D80003F03DAB27B68196897F822300B4462F09F
:101D90007F02D2B21A707B6A9B097B6297F822306D
:101DA000013B87F8223097F82230002BE5D197F8D5
:101DB0002330012B09D97B6AD9B27B681B6897F85D
:101DC00020200A43D2B21A7007E07B6ADAB27B683D
:101DD0001B6802F07F02D2B21A707B681A6897F80B
:101DE00023301A447B681A6097F821300BE000BF5B
:101DF00008E000BF06E000BF04E000BF02E000BF53
:101E000000E000BF002318462837BD4680BD00BF54
:101E100000FC0F0080B58AB000AF786039603B6885
:101E20001A683B689B68013313447B623B681A68FD
:101E30003B689B68013313443B620023FB60002333
:101E4000FB613B681A683B689B6813441B78222B34
:101E500040F0038100233B610023BB6117E03B6A34
:101E60001B785C2B10D13B6A5A1C3B681B68D31A49
:101E70001A463B685B689A4280F0F180BB69013387
:101E8000BB613B6A01333B623B6A01333B623B68A7
:101E90001B683A6AD31A1A463B685B689A4203D2B7
:101EA0003B6A1B78222BDAD13B681B683A6AD31A4B
:101EB0001A463B685B689A4280F0D3803B6A1B7885
:101EC000222B40F0CE803B681A683B689B68134425
:101ED0003A6AD31A1A46BB69D31A3B613B681B693D
:101EE0003A69013210469847F861FB69002B00F00F
:101EF000BA80FB69FB6094E07B6A1B785C2B08D09E
:101F00007A6A531C7B62FB68591CF96012781A705C
:101F100087E00223FB753A6A7B6AD31A002B40F3F1
:101F2000A4807B6A01331B78752B00F3A0805C2BA7
:101F300004DA222B5CD02F2B5AD098E05C3B192B73
:101F400000F2958001A252F823F000BFF11F0108B2
:101F50006F2001086F2001086F2001086F20010821
:101F60006F200108B51F01086F2001086F200108CC
:101F70006F200108C11F01086F2001086F200108B0
:101F80006F2001086F2001086F2001086F200108F1
:101F90006F200108CD1F01086F2001086F20010884
:101FA0006F200108D91F01086F200108E51F0108F3
:101FB00001200108FB685A1CFA6008221A702CE004
:101FC000FB685A1CFA600C221A7026E0FB685A1C47
:101FD000FA600A221A7020E0FB685A1CFA600D228F
:101FE0001A701AE0FB685A1CFA6009221A7014E091
:101FF0007B6A5A1CFB68591CF96012781A700CE055
:1020000007F10C031A46396A786AFFF71BFE03468C
:10201000FB75FB7D002B2CD000BFFB7D7A6A13443F
:102020007B627A6A3B6A9A42FFF466AFFB680022E1
:102030001A707B681022DA607B68FA691A613B6863
:102040001B683A6AD31A1A463B689A603B689B68D9
:102050005A1C3B689A60012320E000BF0AE000BFE1
:1020600008E000BF06E000BF04E000BF02E000BFE0
:1020700000E000BFFB69002B05D03B685B69F86995
:1020800098470023FB617B6A002B06D03B681B68E6
:102090007A6AD31A1A463B689A6000231846283792
:1020A000BD4680BD80B588B000AF78603960002340
:1020B000FB6100233B610023BB610023FB60002325
:1020C0007B613B68002B01D1002310E17B68002B72
:1020D00011D103213868FFF75FFB38613B69002BA2
:1020E00001D1002303E13B69834A1188927819806A
:1020F0009A700123FBE07B68FB6124E0FB691B789D
:10210000222B0FDC082B13DB083B7C4A22FA03F35B
:1021100003F00103002B14BF01230023DBB2002BCB
:1021200002D105E05C2B03D17B6901337B6107E0C1
:10213000FB691B781F2B02D87B6905337B6100BFCD
:10214000FB690133FB61FB691B78002BD6D1FA696F
:102150007B68D31A1A467B691344FB60FB68033320
:1021600019463868FFF718FB38613B69002B01D12D
:102170000023BCE07B69002B17D13B6922221A7037
:102180003B690133FA687968184645F06EFDFB68D3
:1021900001333A69134422221A70FB6802333A6908
:1021A000134400221A700123A1E03B6922221A7015
:1021B0003B690133BB617B68FB6186E0FB691B788F
:1021C0001F2B0CD9FB691B78222B08D0FB691B78CD
:1021D0005C2B04D0FB691A78BB691A706FE0BB698D
:1021E0005A1CBA615C221A70FB691B78222B3DDCF9
:1021F000082B59DB083B1A2B56D801A252F823F0C2
:1022000081220108A122010891220108A9220108C6
:102210008922010899220108A9220108A92201089E
:10222000A9220108A9220108A9220108A92201085E
:10223000A9220108A9220108A9220108A92201084E
:10224000A9220108A9220108A9220108A92201083E
:10225000A9220108A9220108A9220108A92201082E
:10226000A9220108A9220108792201085C2B1BD1AF
:10227000BB695C221A7022E0BB6922221A701EE040
:10228000BB6962221A701AE0BB6966221A7016E0F6
:10229000BB696E221A7012E0BB6972221A700EE0DE
:1022A000BB6974221A700AE0FB691B781A4614494C
:1022B000B86943F00BF9BB690433BB6100BFFB692C
:1022C0000133FB61BB690133BB61FB691B78002BE8
:1022D0007FF474AFFB6801333A69134422221A7009
:1022E000FB6802333A69134400221A70012318462E
:1022F0002037BD4680BD00BFA4BA050837000004E2
:10230000A8BA050880B582B000AF786039607B68F4
:102310001B6939681846FFF7C5FE0346184608379B
:10232000BD4680BD80B483B000AF78607B68002B71
:1023300003D07B681B68002B01D100232CE07B6855
:10234000002B05D07B689A687B685B689A4206D34D
:102350007B6821E07B689B685A1C7B689A607B687D
:10236000002B0DD07B689A687B685B689A4207D225
:102370007B681A687B689B6813441B78202BE9D91B
:102380007B689A687B685B689A4204D17B689B682B
:102390005A1E7B689A607B6818460C37BD465DF80C
:1023A000047B704780B582B000AF78607B68002BFB
:1023B00007D07B681B68002B03D07B689B68002BD1
:1023C00001D000231CE07B68002B18D07B689B6841
:1023D0001A1D7B685B689A4211D27B681A687B6819
:1023E0009B68134403220849184643F0F5FD034651
:1023F000002B04D17B689B68DA1C7B689A607B6841
:1024000018460837BD4680BDB0BA050880B586B00D
:1024100000AFF860B9607A60FB68002B01D100233F
:102420000CE0F868FDF7BCFF034601337B617B6875
:10243000BA687969F86800F005F803461846183755
:10244000BD4680BD80B58EB000AFF860B9607A60DF
:102450003B6007F1180300221A605A609A60DA6044
:102460001A615A619A6100237B63414B00221A6012
:102470003F4B00225A60FB68002B42D0BB68002B08
:102480003FD0FB68BB61BB68FB6100233B62394AFC
:1024900007F1280307CA83E807003648FFF742F828
:1024A00078637B6B002B2ED007F118031846FFF7DB
:1024B00079FF03461846FFF735FF03461946786B48
:1024C00000F002F90346002B1FD03B68002B0ED012
:1024D00007F118031846FFF725FF3A6AFB699A428D
:1024E00015D2BA693B6A13441B78002B0FD17B6865
:1024F000002B04D0BA693B6A1A447B681A607B6B74
:1025000031E000BF04E000BF02E000BF00E000BF18
:102510007B6B002B02D0786BFFF71AF8FB68002B5F
:1025200020D0FB683B6100237B613A6AFB699A42D9
:1025300002D23B6A7B6105E0FB69002B02D0FB699C
:10254000013B7B617B68002B04D03A697B691A44AC
:102550007B681A60064B1A4607F1100393E80300E4
:1025600082E80300002318463837BD4680BD00BF0F
:102570006C0700200400002080B582B000AF7860B6
:10258000002200217868FFF741FF0346184608370C
:10259000BD4680BD80B58EB000AFF860B9607A608E
:1025A00000237B6307F1100324220021184643F027
:1025B00019FB7B681B683B4A126810469847034624
:1025C0003B61384B1B687B61BB687B627A6807F1B3
:1025D000280307CA83E807003B69002B42D007F1B4
:1025E00010031946F86800F05BF90346002B3BD056
:1025F00007F110031846FFF769F97B689B68002B09
:102600000DD07B689B683869BA69013211469847DA
:1026100078637B6B002B29D000233B6120E07B6833
:102620001B68BA6901321046984778637B6B002BB0
:102630001ED03969BB695A1C7B69934228BF134677
:102640001A46786B45F011FBBB697A6B1344002284
:102650001A707B685B683A691046984700233B61B3
:102660007B6B1AE000BF04E000BF02E000BF00E0A7
:1026700000BF3B69002B06D07B685B683A69104657
:10268000984700233B617B6B002B05D07B685B6820
:10269000786B984700237B63002318463837BD4684
:1026A00080BD00BFC407060880B582B000AF786067
:1026B000044A01217868FFF76DFF03461846083782
:1026C000BD4680BD0400002080B582B000AF7860B8
:1026D00039603B68002B03D03B681B68002B01D19D
:1026E0000023D2E03B68002B1DD03B689B681A1D7D
:1026F0003B685B689A4216D83B681A683B689B68DF
:10270000134404226349184643F066FC0346002B39
:1027100009D17B680422DA603B689B681A1D3B681C
:102720009A600123B1E03B68002B1DD03B689B6899
:102730005A1D3B685B689A4216D83B681A683B682A
:102740009B68134405225449184643F045FC034650
:10275000002B09D17B680122DA603B689B685A1D17
:102760003B689A60012390E03B68002B20D03B68D7
:102770009B681A1D3B685B689A4219D83B681A68C7
:102780003B689B68134404224449184643F024FCE8
:102790000346002B0CD17B680222DA607B680122A1
:1027A0005A613B689B681A1D3B689A6001236CE084
:1027B0003B68002B13D03B689A683B685B689A4281
:1027C0000DD23B681A683B689B6813441B78222B28
:1027D00005D139687868FFF71DFB034655E03B6873
:1027E000002B23D03B689A683B685B689A421DD2F5
:1027F0003B681A683B689B6813441B782D2B0FD0ED
:102800003B681A683B689B6813441B782F2B0DD9D3
:102810003B681A683B689B6813441B78392B05D8C2
:1028200039687868FEF7ECFE03462EE03B68002B23
:1028300013D03B689A683B685B689A420DD23B684C
:102840001A683B689B6813441B785B2B05D1396879
:10285000786800F009F9034617E03B68002B13D0B5
:102860003B689A683B685B689A420DD23B681A687D
:102870003B689B6813441B787B2B05D139687868CB
:1028800000F03CFA034600E0002318460837BD4636
:1028900080BD00BF84BA0508B4BA0508BCBA0508F3
:1028A00080B584B000AF786039600023FB607B683E
:1028B000002B02D03B68002B01D10023C9E07B68CC
:1028C000DB68DBB2802B00F08E80802B00F3C080B1
:1028D000202B49DC002B40F3BB80013B1F2B00F277
:1028E000B78001A252F823F093290108B729010803
:1028F000512A01086F290108512A0108512A0108AB
:10290000512A0108DB290108512A0108512A01082E
:10291000512A0108512A0108512A0108512A0108A7
:10292000512A01082D2A0108512A0108512A0108BB
:10293000512A0108512A0108512A0108512A010887
:10294000512A0108512A0108512A0108512A010877
:10295000512A0108512A0108512A0108512A010867
:10296000512A0108392A0108402B6BD070E005215B
:102970003868FEF711FFF860FB68002B01D10023D7
:1029800067E0FB68354A1068186012791A710123F4
:102990005FE006213868FEF7FFFEF860FB68002B59
:1029A00001D1002355E0FB682D4A10681860928819
:1029B0009A8001234DE005213868FEF7EDFEF860AE
:1029C000FB68002B01D1002343E0FB68254A106817
:1029D000186012791A7101233BE039687868FEF7B4
:1029E000DFFF034635E00023BB607B681B69002BDB
:1029F00001D100232DE07B681B691846FDF7D0FC50
:102A000003460133BB60B9683868FEF7C5FEF8605D
:102A1000FB68002B01D100231BE07B681B69BA68AF
:102A20001946F86845F021F9012312E03968786801
:102A3000FFF768FC03460CE03968786800F0D8F8C6
:102A4000034606E03968786800F064FA034600E05F
:102A5000002318461037BD4680BD00BF84BA050864
:102A6000B4BA0508BCBA050880B586B000AF786076
:102A7000396000237B6100233B613B68DB68B3F571
:102A80007A7F01D30023AFE03B68DB685A1C3B68C8
:102A9000DA603B681A683B689B6813441B785B2BC1
:102AA00040F094803B689B685A1C3B689A60386889
:102AB000FFF738FC3B68002B0DD03B689A683B68F9
:102AC0005B689A4207D23B681A683B689B6813446C
:102AD0001B785D2B61D03B68002B05D03B689A6862
:102AE0003B685B689A4205D33B689B685A1E3B680B
:102AF0009A6072E03B689B685A1E3B689A603B682C
:102B000010331846FEF70EFDF860FB68002B5FD00F
:102B10007B69002B04D1FB687B617B693B6107E02B
:102B20003B69FA681A60FB683A695A60FB683B6166
:102B30003B689B685A1C3B689A603868FFF7F2FB59
:102B400039683869FFF7C0FD0346002B42D038686A
:102B5000FFF7E8FB3B68002B0DD03B689A683B68A9
:102B60005B689A4207D23B681A683B689B681344CB
:102B70001B782C2BC3D03B68002B2DD03B689A6868
:102B80003B685B689A4227D23B681A683B689B683F
:102B900013441B785D2B1FD100E000BF3B68DB684E
:102BA0005A1E3B68DA607B69002B02D07B693A6968
:102BB0005A607B682022DA607B687A699A603B6899
:102BC0009B685A1C3B689A6001230DE000BF04E03B
:102BD00000BF02E000BF00E000BF7B69002B02D015
:102BE0007869FEF7B5FC002318461837BD4680BD4E
:102BF00080B586B000AF7860396000237B61002328
:102C0000FB607B689B683B613B68002B01D1002324
:102C100070E001213868FEF7BFFD78617B69002B09
:102C200001D1002366E07B695B221A703B689B68D8
:102C30005A1C3B689A603B68DB685A1C3B68DA6048
:102C40003DE039683869FFF72BFE0346002B01D1C0
:102C500000234FE03868FEF739FE3B691B68002B04
:102C60002AD03B685B69002B01D0022300E00123DE
:102C7000FB60FB68013319463868FEF78DFD78610B
:102C80007B69002B01D1002334E07B695A1C7A61F7
:102C90002C221A703B685B69002B04D07B695A1C9C
:102CA0007A6120221A707B6900221A703B689A6848
:102CB000FB681A443B689A603B691B683B613B694F
:102CC000002BBED102213868FEF766FD78617B6972
:102CD000002B01D100230DE07B695A1C7A615D2233
:102CE0001A707B6900221A703B68DB685A1E3B68C9
:102CF000DA60012318461837BD4680BD80B586B01E
:102D000000AF7860396000237B6100233B613B6842
:102D1000DB68B3F57A7F01D30023F7E03B68DB681B
:102D20005A1C3B68DA603B68002B00F0DB803B6894
:102D30009A683B685B689A4280F0D4803B681A6866
:102D40003B689B6813441B787B2B40F0CB803B682F
:102D50009B685A1C3B689A603868FFF7E3FA3B6847
:102D6000002B0ED03B689A683B685B689A4208D299
:102D70003B681A683B689B6813441B787D2B00F006
:102D800098803B68002B05D03B689A683B685B687D
:102D90009A4205D33B689B685A1E3B689A60AEE036
:102DA0003B689B685A1E3B689A603B681033184624
:102DB000FEF7B8FBF860FB68002B00F095807B699C
:102DC000002B04D1FB687B617B693B6107E03B69B9
:102DD000FA681A60FB683A695A60FB683B613B68B5
:102DE000002B00F083803B689B685A1C3B685B6843
:102DF0009A427BD23B689B685A1C3B689A60386851
:102E0000FFF790FA39683869FFF704F80346002B9A
:102E10006ED03868FFF786FA3B691A693B691A6217
:102E20003B6900221A613B68002B63D03B689A68BB
:102E30003B685B689A425DD23B681A683B689B6856
:102E400013441B783A2B55D13B689B685A1C3B684E
:102E50009A603868FFF766FA39683869FFF734FC1A
:102E60000346002B48D03868FFF75CFA3B68002B1C
:102E70000DD03B689A683B685B689A4207D23B6812
:102E80001A683B689B6813441B782C2B8DD03B68D9
:102E9000002B33D03B689A683B685B689A422DD21E
:102EA0003B681A683B689B6813441B787D2B25D1CF
:102EB00000E000BF3B68DB685A1E3B68DA607B6954
:102EC000002B02D07B693A695A607B684022DA6045
:102ED0007B687A699A603B689B685A1C3B689A6079
:102EE000012313E000BF0AE000BF08E000BF06E0D6
:102EF00000BF04E000BF02E000BF00E000BF7B694C
:102F0000002B02D07869FEF723FB00231846183700
:102F1000BD4680BD80B588B000AF786039600023C1
:102F2000FB610023FB607B689B68BB613B68002BF7
:102F300001D1002308E13B685B69002B01D002232B
:102F400000E00123FB60FB68013319463868FEF797
:102F500023FCF861FB69002B01D10023F4E0FB693D
:102F60005A1CFA617B221A703B68DB685A1C3B686A
:102F7000DA603B685B69002B04D0FB695A1CFA617C
:102F80000A221A703B689A68FB681A443B689A6088
:102F9000A0E03B685B69002B22D03B68DB681946E8
:102FA0003868FEF7F9FBF861FB69002B01D10023BB
:102FB000CAE000237B6107E0FB695A1CFA61092221
:102FC0001A707B6901337B613B68DB687A699A42DE
:102FD000F2D33B689A683B68DB681A443B689A60A6
:102FE000BB691B6A39681846FFF75CF80346002B7B
:102FF00001D10023A8E03868FEF768FC3B685B69F4
:10300000002B01D0022300E00123FB60F96838683F
:10301000FEF7C2FBF861FB69002B01D1002393E0AE
:10302000FB695A1CFA613A221A703B685B69002BF3
:1030300004D0FB695A1CFA6109221A703B689A682D
:10304000FB681A443B689A603968B869FFF728FC46
:103050000346002B01D1002376E03868FEF736FCEA
:103060003B685B69002B01D0012200E00022BB69B4
:103070001B68002B01D0012300E000231344FB60F8
:10308000FB68013319463868FEF786FBF861FB6977
:10309000002B01D1002357E0BB691B68002B04D033
:1030A000FB695A1CFA612C221A703B685B69002B81
:1030B00004D0FB695A1CFA610A221A70FB690022CB
:1030C0001A703B689A68FB681A443B689A60BB694F
:1030D0001B68BB61BB69002B7FF45BAF3B685B691E
:1030E000002B03D03B68DB68013300E00223194664
:1030F0003868FEF751FBF861FB69002B01D1002312
:1031000022E03B685B69002B10D000233B6107E0A5
:10311000FB695A1CFA6109221A703B6901333B6151
:103120003B68DB68013B3A699A42F1D3FB695A1C60
:10313000FA617D221A70FB6900221A703B68DB6815
:103140005A1E3B68DA60012318462037BD4680BD11
:1031500080B586B000AFF860B9607A6000237B610B
:10316000FB68002B02D0BB68002B01D1002333E0A9
:10317000FB689B687B617B68002B17D002E07B6952
:103180001B687B617B69002B1CD07B691B6A002B51
:1031900018D07B691B6A1946B868FDF7A1F8034689
:1031A000002BECD10EE07B691B687B617B69002BF7
:1031B00008D07B691B6A1946B868FEF71FF90346F9
:1031C000002BF0D17B69002B03D07B691B6A002B9D
:1031D00001D1002300E07B6918461837BD4680BD49
:1031E00080B582B000AF78603960012239687868B4
:1031F000FFF7AEFF034618460837BD4680BD80B4D2
:1032000083B000AF786039607B683A681A603B68C9
:103210007A685A6000BF0C37BD465DF8047B704782
:1032200080B584B000AF786039600023FB603B68F4
:10323000002B06D07B68002B03D07A683B689A424B
:1032400001D100231EE07B689B68FB60FB68002BBC
:1032500009D17B683A689A603B683A685A603B6873
:1032600000221A600DE0FB685B68002B09D0FB6848
:103270005B6839681846FFF7C2FF7B689B683A684D
:103280005A60012318461037BD4680BD80B582B014
:1032900000AF7860396039687868FFF7C1FF03468E
:1032A00018460837BD4680BD80B483B000AF786053
:1032B0007B6818460C37BD465DF8047B704780B5C7
:1032C00086B000AFF860B9607A603B6000237B6134
:1032D00000233B61FB68002B09D0BB68002B06D0A4
:1032E0007B68002B03D0FA687B689A4201D10023E7
:1032F00036E03B6A002B09D0B868FFF7D5FF78614C
:103300007B68DB6843F400733B610EE03968B868A2
:10331000FEF7E0F878617B69002B01D100231FE004
:103320007B68DB6823F400733B617B68DB6803F434
:103330000073002B09D17B681B6A002B05D03B680A
:103340005B687A68126A104698477B687A691A62E5
:103350007B683A69DA607968F868FFF761FF0346CD
:1033600018461837BD4680BD80B586B002AFF860FC
:10337000B9607A6000230093054B7A68B968F868F1
:10338000FFF79DFF034618461037BD4680BD00BFBE
:103390000400002080B586B002AF7860396000F08C
:1033A0007FF8F86000230093094BFA683968786861
:1033B000FFF785FF0346002B01D0FB6803E0F868A8
:1033C000FEF7C6F8002318461037BD4680BD00BF83
:1033D0000400002080B586B002AF7860396000F04C
:1033E00073F8F86000230093094BFA68396878682D
:1033F000FFF765FF0346002B01D0FB6803E0F86888
:10340000FEF7A6F8002318461037BD4680BD00BF62
:103410000400002080B588B002AFF860B96087ED85
:10342000000B97ED000B00F063F878610023009328
:10343000094B7A69B968F868FFF741FF0346002B2A
:1034400001D07B6903E07869FEF782F80023184613
:103450001837BD4680BD00BF0400002080B588B08D
:1034600002AFF860B9607A60786800F089F8786136
:1034700000230093094B7A69B968F868FFF71FFFCA
:103480000346002B01D07B6903E07869FEF760F802
:10349000002318461837BD4680BD00BF0400002039
:1034A00080B582B000AF0748FEF73CF878607B68D3
:1034B000002B02D07B680222DA607B68184608374E
:1034C000BD4680BD0400002080B582B000AF074833
:1034D000FEF728F878607B68002B02D07B68012219
:1034E000DA607B6818460837BD4680BD04000020BE
:1034F00080B584B000AF87ED000B1F48FEF712F8CF
:10350000F860FB68002B2CD0FB680822DA60F968B1
:10351000D7E90023C1E9062315A3D3E90023D7E99E
:103520000001FDF787FB0346002B04D0FB686FF01A
:1035300000425A6115E04FF00002104BD7E900013C
:10354000FDF76EFB0346002B04D0FB684FF00042F2
:103550005A6106E0D7E90001FDF796FB0246FB68D9
:103560005A61FB6818461037BD4680BDAFF3008036
:103570000000C0FFFFFFDF41040000200000E0C1A9
:1035800080B584B000AF78600F48FDF7CBFFF860DE
:10359000FB68002B12D0FB681022DA600A497868B9
:1035A000FDF798FF0246FB681A61FB681B69002B58
:1035B00004D1F868FDF7CCFF002300E0FB68184653
:1035C0001037BD4680BD00BF0400002080B582B02A
:1035D00000AF0748FDF7A6FF78607B68002B02D09C
:1035E0007B682022DA607B6818460837BD4680BDBC
:1035F0000400002080B582B000AF0748FDF792FFBD
:1036000078607B68002B02D07B684022DA607B68A0
:1036100018460837BD4680BD0400002080B483B042
:1036200000AF78607B68002B01D1002307E07B6846
:10363000DB68DBB2022B0CBF01230023DBB2184690
:103640000C37BD465DF8047B704780B483B000AF93
:1036500078607B68002B01D1002307E07B68DB6882
:10366000DBB2082B0CBF01230023DBB218460C375A
:10367000BD465DF8047B704780B483B000AF7860CE
:103680007B68002B01D1002307E07B68DB68DBB29D
:10369000102B0CBF01230023DBB218460C37BD46AC
:1036A0005DF8047B7047000080B582B000AF7860A1
:1036B000044B5B687868984700237B6000BF08373D
:1036C000BD4680BD0400002080B489B000AFF86022
:1036D000B9607A60FB68FB617B68DB43BB611AE021
:1036E000FB695A1CFA611B781A46BB695340BB61DF
:1036F00000237B610CE0BB695A08BB6903F001033E
:1037000059420E4B0B405340BB617B6901337B61D7
:103710007B69072BEFDDBB685A1EBA60002B14BF14
:1037200001230023DBB2002BDAD1BB69DB4318464F
:103730002437BD465DF8047B704700BF2083B8ED99
:1037400080B48BB000AF786039604FF0FF337B619D
:103750000023FB602C4B1B6B2B4A43F480531363F9
:10376000294B1B6B03F48053FB60FB68274B012242
:103770009A6000237B6209E07B6A9B007A681344AD
:10378000224A1B6813607B6A01337B623B689B089B
:103790007A6A9A42F0D33B6803F003033B613B69CA
:1037A000002B20D000233B623A683B69D31A7A6829
:1037B0001344FB610023BB610EE0FB695A1CFA61F4
:1037C0001B781A46BB69DB0002FA03F33A6A13431B
:1037D0003B62BB690133BB61BA693B699A42ECD376
:1037E0000A4A3B6A1360094B1B687B61064B1B6BE3
:1037F000054A23F4805313637B6918462C37BD4672
:103800005DF8047B704700BF003802400030024082
:1038100080B400AFBFF34F8F00BF064BDB6803F4EB
:10382000E0620449044B1343CB60BFF34F8F00BFEA
:1038300000BFFDE700ED00E00400FA0580B582B0AE
:1038400000AF78607868FCF7ABFD03461846083790
:10385000BD4680BD80B483B000AF786039603B68FE
:1038600018460C37BD465DF8047B704780B586B0BE
:1038700002AFF860B9607A60F86837F0F0FC024691
:103880007B680093BB680449044801F06FFC034661
:1038900018461037BD4680BDC4BA0508B93F0508B3
:1038A00090B585B000AF786039600A21386801F0C2
:1038B000A3FC044607F10C03184624F0F8F807F1BE
:1038C0000C0300222146786837F0E8F907F10C0371
:1038D000184624F0EEF80021786837F0A0FA044684
:1038E000786837F037FA03463A681946204601F0FF
:1038F000C3FC00BF78681437BD4690BD80B582B068
:1039000000AF7860786801F01DFD7B6818460837C5
:10391000BD4680BD80B582B000AF78607B68184638
:1039200001F000FD7B6818460837BD4680BD80B5B4
:1039300082B000AF78607B681846FFF7EBFF7B68CA
:1039400018460837BD4680BD80B582B000AF7860AC
:10395000786801F04CFD7B6818460837BD4680BD8D
:1039600080B582B000AF78607B68184601F02FFD0B
:103970007B6818460837BD4680BD80B582B000AF71
:1039800078607B681846FFF7EBFF7B6818460837BE
:10399000BD4680BD80B582B000AF78607B680022F4
:1039A0001A747B681833184637F06AF97B6800226E
:1039B00083F830207B6818460837BD4680BD80B547
:1039C00082B000AF78607B681833184637F08EF904
:1039D0007B6818460837BD4680BD0000F0B5ADF2E3
:1039E000246D4FF485676F4407F5FC73A3F5FA73F4
:1039F000186007F5FC73A3F5FC73196007F14C031D
:103A00001846FFF794FF07F140031846FFF7B5FF8C
:103A10000023C7F8F431CA4837F09EF9C7F8D80137
:103A2000002387F8F33126E0D7F8D421D7F8F43112
:103A3000D31A013307F5FC72A2F5D07007F5FC72BA
:103A4000A2F5FC71D7F8F421096837F0CDFC07F135
:103A5000580207F14C031146184601F00EFD07F11C
:103A60005803184637F042F9D7F8D421D7F8D8319F
:103A70001344C7F8F43107F5FC73A3F5FC73D7F8CA
:103A8000F421AF49186837F01EFCC7F8D401D7F805
:103A9000D431B3F1FF3F14BF01230023DBB2002B6D
:103AA000C2D107F14C03184601F0F8FC0346002B85
:103AB00014BF01230023DBB2002B00F0FC8207F1CE
:103AC0004C03184601F0EAFC0346C7F8D031002346
:103AD000C7F8EC31E7E20023C7F8F4310023C7F858
:103AE000D4310023C7F8CC310023C7F8C8310023F4
:103AF000C7F8C4310023C7F8C0310023C7F8BC3170
:103B000007F10C031846FFF745FF8E4837F024F9FC
:103B1000C7F8D801D7F8EC2107F14C031146184635
:103B200001F0D2FC034600228649184637F0CBFB51
:103B3000C7F8D401D7F8D431C7F8CC31D7F8D4318D
:103B4000B3F1FF3F13D107F10C0318337E49184638
:103B500037F081FA012387F8F33107F10C0207F1FE
:103B600040031146184601F0C2FC002490E2D7F849
:103B7000D421D7F8D8311344C7F8F431734837F05B
:103B8000EBF8C7F8D801D7F8EC2107F14C03114640
:103B9000184601F099FC0346D7F8F4216B49184602
:103BA00037F091FBC7F8D401D7F8D431C7F8C83142
:103BB000D7F8D431B3F1FF3F13D107F10C03183319
:103BC0006349184637F047FA012387F8F33107F1C4
:103BD0000C0207F140031146184601F088FC00244E
:103BE00056E2D7F8D421D7F8D8311344C7F8F431C6
:103BF000584837F0B1F8C7F8D801D7F8EC2107F1E9
:103C00004C031146184601F05FFC0346D7F8F42137
:103C10005049184637F057FBC7F8D401D7F8D431CC
:103C2000C7F8C431D7F8D431B3F1FF3F13D107F14E
:103C30000C0318334849184637F00DFA012387F86A
:103C4000F33107F10C0207F140031146184601F069
:103C50004EFC00241CE2D7F8D421D7F8D831134405
:103C6000C7F8F4313D4837F077F8C7F8D801D7F8EE
:103C7000EC2107F14C031146184601F025FC0346E0
:103C8000D7F8F4213549184637F01DFBC7F8D401A1
:103C9000D7F8D431C7F8C031D7F8D431B3F1FF3FEA
:103CA00013D107F10C0318332D49184637F0D3F917
:103CB000012387F8F33107F10C0207F140031146A5
:103CC000184601F014FC0024E2E1D7F8D421D7F81B
:103CD000D8311344C7F8F431194837F03DF8C7F824
:103CE000D801D7F8EC2107F14C031146184601F032
:103CF000EBFB0346D7F8F4211149184637F0E3FAF5
:103D0000C7F8D401D7F8D431C7F8BC31D7F8D431CB
:103D1000B3F1FF3F28D107F10C03183311491846BE
:103D200037F099F9012387F8F33107F10C0207F115
:103D300040031146184601F0DAFB0024A8E100BF59
:103D4000D807002078070020CCBA0508900700208B
:103D5000E4BA0508A8070020FCBA0508C00700203F
:103D600014BB05082CBB0508D7F8EC2107F14C0360
:103D70001146184601F0A8FB0446D7F8CC31591C6F
:103D8000D7F8C821D7F8CC31D31A013B07F5FC721C
:103D9000A2F5C4700A46214637F026FB07F17003EE
:103DA000184601F095F9034687F8BB3107F1700317
:103DB000184636F09BFF97F8BB31002B00F0558179
:103DC000D7F8EC2107F14C031146184601F07CFBB3
:103DD0000446D7F8CC31591CD7F8C821D7F8CC31D4
:103DE000D31A013B07F5FC72A2F5B8700A462146CA
:103DF00037F0FAFA07F188030A2200211846FFF784
:103E000035FD03461A4607F5FC73A3F5F6731A60F1
:103E100007F18803184636F069FFD7F8EC2107F15F
:103E20004C031146184601F04FFB0446D7F8C83141
:103E3000591CD7F8C421D7F8C831D31A013B07F56C
:103E4000FC72A2F5AC700A46214637F0CDFA07F1B4
:103E5000A003184601F03CF9034687F8BB3107F18F
:103E6000A003184636F042FF97F8BB31002B00F054
:103E7000F180D7F8EC2107F14C031146184601F008
:103E800023FB0446D7F8C831591CD7F8C421D7F80A
:103E9000C831D31A013B07F5FC72A2F5A0700A469F
:103EA000214637F0A1FA07F1B8030A22002118468B
:103EB000FFF7DCFC03461A4607F5FC73A3F5F6731F
:103EC0005A6007F1B803184636F010FFD7F8EC2116
:103ED00007F14C031146184601F0F6FA0446D7F8EC
:103EE000C431591CD7F8C021D7F8C431D31A013BCB
:103EF00007F5FC72A2F594700A46214637F074FA71
:103F000007F1D003184601F0E3F8034687F8BB3108
:103F100007F1D003184636F0E9FE97F8BB31002BC5
:103F200000F08D80D7F8EC2107F14C0311461846BC
:103F300001F0CAFA0446D7F8C431591CD7F8C02199
:103F4000D7F8C431D31A013B07F5FC72A2F588708B
:103F50000A46214637F048FA07F1E8030A22002111
:103F60001846FFF783FC03461A4607F5FC73A3F5D2
:103F7000F6739A6007F1E803184636F0B7FED7F8F3
:103F8000EC2107F14C031146184601F09DFA044656
:103F9000D7F8C031591CD7F8BC21D7F8C031D31A93
:103FA000013B07F580700A46214637F01DFA07F5F8
:103FB0008073184601F08CF8034687F8BB3107F58B
:103FC0008073184636F092FE97F8BB31002B2BD049
:103FD000D7F8EC2107F14C031146184601F074FAAA
:103FE0000446D7F8C031591CD7F8BC21D7F8C031E6
:103FF000D31A013B07F58C700A46214637F0F4F9D5
:1040000007F58C730A2200211846FFF72FFC0346A0
:104010001A4607F5FC73A3F5F673DA6007F58C739F
:10402000184636F063FE2AE007F10C031833D54931
:10403000184637F010F8012387F8F3311FE007F135
:104040000C031833D049184637F005F8012387F8D8
:10405000F33114E007F10C031833CC49184636F05D
:10406000FAFF012387F8F33109E007F10C03183355
:10407000C749184636F0EFFF012387F8F33107F1FF
:104080000C0207F140031146184601F030FA0124F2
:1040900007F10C031846FFF792FC012CD7F8EC311E
:1040A0000133C7F8EC31D7F8EC21D7F8D0319A4278
:1040B000FFF611AD1BE007F10C031846FFF76AFC91
:1040C00007F10C031833B349184636F0C4FF07F163
:1040D0000C0207F140031146184601F008FA0123CB
:1040E00087F8F33107F10C031846FFF768FC07F176
:1040F0004003184601F022FA0346C7F8B431002302
:10410000C7F8B03197F8F33183F00103DBB2002B2D
:1041100000F0C6860023C7F8E83100F0BABED7F831
:10412000E82107F140031146184601F01DFA034645
:104130001B68013B112B00F28C8601A252F823F080
:1041400089410108DD4201083F4401087B44010820
:10415000EF4501086B4701083D4801081349010874
:10416000F5490108494A0108834A0108C74A01087C
:10417000014B0108534B0108A54B0108F74B0108FF
:10418000494C0108954D0108D7F8E82107F1400393
:104190001146184601F0E8F90346DB68002B0CBF16
:1041A00001230023DBB2002B44D0D7F8E82107F12C
:1041B00040031146184601F0D7F903465B68DCB2AC
:1041C000D7F8E82107F140031146184601F0CCF971
:1041D00003469B68DBB21946204608F00FF8002121
:1041E0006D4803F0CCFD052010F0EEF96B4B1A681A
:1041F00016465A6815469A68144668460C3340F2CB
:104200002742194643F031FD31462A46234662488B
:1042100003F0CCFAD7F8E82107F14003114618461D
:1042200001F0A2F9034618335D49184636F013FF32
:1042300000F02ABED7F8E82107F1400311461846DE
:1042400001F092F90346DB68012B0CBF0123002328
:10425000DBB2002B0FD0D7F8E82107F1400311465D
:10426000184601F081F9034618334E49184636F0D6
:10427000F2FE00F009BED7F8E82107F1400311462D
:10428000184601F071F90346DB68022B0CBF0123CD
:104290000023DBB2002B11D007F0ECFFD7F8E821A8
:1042A00007F140031146184601F05EF90346183342
:1042B0003B49184636F0CFFE00F0E6BDD7F8E821BE
:1042C00007F140031146184601F04EF90346183332
:1042D0003549184636F0BFFE00F0D6BDD7F8E821C4
:1042E00007F140031146184601F03EF903465B68AA
:1042F000DCB2D7F8E82107F140031146184601F077
:1043000033F903469B68DDB2D7F8E82107F1400393
:104310001146184601F028F90346DB68DBB21A465D
:104320002946204607F04AFEC7F8B001D7F8B03159
:10433000032B58D0D7F8B031032B6FDCD7F8B0314E
:10434000012B04D0D7F8B031022B31D066E0D7F87A
:10435000E82107F140031146184601F005F903462C
:1043600018331249184636F076FED7F8E82107F1DF
:1043700040031146184601F0F7F80346012283F87E
:1043800030205AE044BB050860BB05087CBB05082B
:1043900098BB0508B4BB0508681500203000002054
:1043A000C8BB0508CCBB0508DCBB0508E8BB050895
:1043B000D7F8E82107F140031146184601F0D4F878
:1043C00003461833B449184636F045FED7F8E821BD
:1043D00007F140031146184601F0C6F803460122D2
:1043E00083F8302029E0D7F8E82107F1400311468F
:1043F000184601F0B9F803461833A849184636F0B4
:104400002AFED7F8E82107F140031146184601F0CB
:10441000ABF80346012283F830200EE0D7F8E821FC
:1044200007F140031146184601F09EF80346183381
:104430009B49184636F00FFE00BF00F025BDD7F8A7
:10444000E82107F140031146184601F08DF80346B4
:10445000DB68DBB2184607F049FED7F8E82107F120
:1044600040031146184601F07FF8034618338C4983
:10447000184636F0F0FD00F007BDD7F8E82107F147
:1044800040031146184601F06FF803465B68002BA5
:1044900014BF01230023DBB2002B45D0002387F893
:1044A000A9310023C7F8E4312AE07E4AD7F8E43185
:1044B00052F83330002B1ED07A4AD7F8E431DB00B3
:1044C00013441B7987F8A931D7F8E82107F1400395
:1044D0001146184601F048F803469968714AD7F822
:1044E000E43152F8332097F8A931C9B21B011344C3
:1044F0000B330A461A70D7F8E4310133C7F8E431B8
:10450000D7F8E4312F2BD0DDD7F8E82107F14003AD
:104510001146184601F028F803461833604918463A
:1045200036F099FD00F0B0BCD7F8E82107F1400360
:104530001146184601F018F80346DB68594A52F84C
:104540003330002B14BF01230023DBB2002B3ED0FD
:10455000D7F8E82107F140031146184601F004F8A6
:104560000346DB684F4ADB0013441B7987F8AA3106
:10457000D7F8E82107F140031146184600F0F4FF90
:1045800003469C68D7F8E82107F140031146184616
:1045900000F0EAFF0346DB68424A52F8332097F8FE
:1045A000AA31E1B21B0113440B330A461A70D7F843
:1045B000E82107F140031146184600F0D5FF0346F5
:1045C00018333749184636F046FD00F05DBCD7F881
:1045D000E82107F140031146184600F0C5FF0346E5
:1045E00018333149184636F036FD00F04DBCD7F887
:1045F000E82107F140031146184600F0B5FF0346D5
:104600005B68002B14BF01230023DBB2002B4DD0CD
:10461000002387F8AB310023C7F8E03128E0214AB6
:10462000D7F8E03152F83330002B1CD01D4AD7F8B0
:10463000E031DB0013441B7987F8AB31D7F8E82170
:1046400007F140031146184600F08EFF0246154957
:10465000D7F8E03151F8331097F8AB3192681B016D
:104660000B4404331A60D7F8E0310133C7F8E03166
:10467000D7F8E0312F2BD2DDD7F8E82107F140033E
:104680001146184600F070FF0346183304491846D7
:1046900036F0E1FCF8E300BF04BC050818BC0508CF
:1046A000C8BB05085813002030BC0508D7F8E8211E
:1046B00007F140031146184600F056FF0346DB6839
:1046C000C94A52F83330002B14BF01230023DBB258
:1046D000002B3BD0D7F8E82107F1400311461846DC
:1046E00000F042FF0346DB68BF4ADB0013441B793E
:1046F00087F8AC31D7F8E82107F140031146184696
:1047000000F032FF0446D7F8E82107F140031146D4
:10471000184600F029FF0346DB68B34A52F833100D
:1047200097F8AC31A2681B010B4404331A60D7F828
:10473000E82107F140031146184600F015FF034633
:104740001833AA49184636F086FC9DE3D7F8E821CD
:1047500007F140031146184600F006FF03461833E0
:10476000A349184636F077FC8EE3D7F8E82107F125
:1047700040031146184600F0F7FE0346DB689A4AEC
:1047800052F83330002B14BF01230023DBB2002B7F
:1047900045D0D7F8E82107F140031146184600F04C
:1047A000E3FE0346DB68904ADB0013441B7987F87D
:1047B000AD31D7F8E82107F140031146184600F063
:1047C000D3FE0346DB68884A52F8334097F8AD5170
:1047D000D7F8E82107F140031146184600F0C4FE5F
:1047E00002462B0123441B685361D7F8E82107F1E7
:1047F00040031146184600F0B7FE034601221A7422
:10480000D7F8E82107F140031146184600F0ACFE46
:10481000034618337549184636F01DFC34E3D7F8C3
:10482000E82107F140031146184600F09DFE0346BB
:1048300018336F49184636F00EFC25E3D7F8E82107
:1048400007F140031146184600F08EFE0346DB6870
:10485000654A52F83330002B14BF01230023DBB22A
:10486000002B47D0D7F8E82107F14003114618463E
:1048700000F07AFE0346DB685B4ADB0013441B79D9
:1048800087F8AE31D7F8E82107F140031146184602
:1048900000F06AFE0346DB68534A52F8332097F86B
:1048A000AE311B01134408331C88D7F8E82107F107
:1048B00040031146184600F057FE034622465A614F
:1048C000D7F8E82107F140031146184600F04CFEE6
:1048D000034601221A74D7F8E82107F14003114674
:1048E000184600F041FE034618334049184636F09A
:1048F000B2FBC9E2D7F8E82107F140031146184698
:1049000000F032FE034618333949184636F0A3FB4F
:10491000BAE2D7F8E82107F140031146184600F043
:1049200023FE0346DB68304A52F83330002B14BFB5
:1049300001230023DBB2002B47D0D7F8E82107F191
:1049400040031146184600F00FFE0346DB68264A76
:10495000DB0013441B7987F8AF31D7F8E82107F162
:1049600040031146184600F0FFFD0346DB681E4A6F
:1049700052F8332097F8AF311B0113440A331C78E7
:10498000D7F8E82107F140031146184600F0ECFD86
:10499000034622465A61D7F8E82107F14003114641
:1049A000184600F0E1FD034601221A74D7F8E82109
:1049B00007F140031146184600F0D6FD03461833B0
:1049C0000A49184636F047FB5EE2D7F8E82107F1BE
:1049D00040031146184600F0C7FD0346183304494A
:1049E000184636F038FB4FE258130020C8BB0508C4
:1049F00030BC05080021BB4803F0C1F905200FF0C9
:104A0000E3FDB94B1A6816465A6815469A6814466B
:104A100068460C3340F22742194643F026F93146E6
:104A20002A462346AF4802F0C1FED7F8E82107F135
:104A300040031146184600F097FD03461833AB4972
:104A4000184636F008FB1FE2D7F8E82107F14003CB
:104A50001146184600F088FD03469B68DAB2A24B67
:104A600083F80824D7F8E82107F1400311461846D7
:104A700000F07AFD034618339C49184636F0EBFAED
:104A800002E2D7F8E82107F140031146184600F08A
:104A90006BFD03469B68002B14BF01230023DBB290
:104AA000002B01D0FEF7B4FED7F8E82107F1400350
:104AB0001146184600F058FD034618338B49184636
:104AC00036F0C9FAE0E1D7F8E82107F140031146D2
:104AD000184600F049FD03469B68DAB2824B83F822
:104AE0001524D7F8E82107F140031146184600F0D5
:104AF0003BFD034618337D49184636F0ACFAC3E156
:104B0000D7F8E82107F140031146184600F02CFDC4
:104B100003469C68D7F8E82107F140031146184680
:104B200000F022FD03465B68E1B26F4A13440A4677
:104B300083F80924D7F8E82107F140031146184605
:104B400000F012FD034618336849184636F083FA20
:104B50009AE1D7F8E82107F140031146184600F022
:104B600003FD03469C68D7F8E82107F1400311468E
:104B7000184600F0F9FC03465B68E1B25A4A134458
:104B80000A4683F80D24D7F8E82107F140031146BF
:104B9000184600F0E9FC034618335449184636F02D
:104BA0005AFA71E1D7F8E82107F140031146184697
:104BB00000F0DAFC03469C68D7F8E82107F14003CF
:104BC0001146184600F0D0FC03465B68E1B2464A45
:104BD00013440A4683F81124D7F8E82107F140036B
:104BE0001146184600F0C0FC034618333F491846EA
:104BF00036F031FA48E1D7F8E82107F140031146D1
:104C0000184600F0B1FC03469C68D7F8E82107F18C
:104C100040031146184600F0A7FC03465B68E1B26A
:104C2000314A13440A4683F80124D7F8E82107F1F2
:104C300040031146184600F097FC034618332B49F1
:104C4000184636F008FA1FE1D7F8E82107F14003CB
:104C50001146184600F088FC0346DB68244A52F8E7
:104C60003330002B14BF01230023DBB2002B00F0F4
:104C70008280D7F8E82107F140031146184600F07A
:104C800073FC03465B68002B14BF01230023DBB2D7
:104C9000002B2FD0D7F8E82107F140031146184622
:104CA00000F062FC0346DB68114A52F83340D7F843
:104CB000E82107F140031146184600F055FC024672
:104CC000636B5361D7F8E82107F14003114618469A
:104CD00000F04AFC0346DB68054A52F833300022F4
:104CE0005A632EE06815002030000020C8BB05087C
:104CF00058130020D7F8E82107F140031146184661
:104D000000F032FC0346DB68CF4A52F83340D7F854
:104D1000E82107F140031146184600F025FC024641
:104D2000A36B5361D7F8E82107F1400311461846F9
:104D300000F01AFC0346DB68C34A52F83330002205
:104D40009A63D7F8E82107F140031146184600F0AE
:104D50000BFC034601221A74D7F8E82107F140033F
:104D60001146184600F000FC03461833B7491846B0
:104D700036F071F988E0D7F8E82107F140031146D1
:104D8000184600F0F1FB03461833B149184636F0D7
:104D900062F979E0D7F8E82107F140031146184697
:104DA00000F0E2FB03465B68002B14BF01230023E5
:104DB000DBB2002B25D0D7F8E82107F140031146DC
:104DC000184600F0D1FB03469B68002B14BF01235B
:104DD0000023DBB2002B2DD09E4B1A6816465A6872
:104DE00015469A68144668460C3340F22742194625
:104DF00042F03BFF31462A462346974802F0D6FC54
:104E000018E0944B93F81744D7F8E82107F14003D2
:104E10001146184600F0A8FB034622465A61D7F80F
:104E2000E82107F140031146184600F09DFB0346B8
:104E300001221A74D7F8E82107F1400311461846F9
:104E400000F092FB034618338049184636F003F908
:104E50001AE0D7F8E82107F140031146184600F0A0
:104E600083FB034618337D49184636F0F4F8D7F82B
:104E7000E82107F140031146184600F075FB034690
:104E8000012283F8302000BFD7F8E8310133C7F89A
:104E9000E831D7F8E821D7F8B4319A42FFF63FA9B4
:104EA00007F5FC73A3F5FA73186835F0E9FE97F877
:104EB000F33183F00103DBB2002B00F0D980002333
:104EC000C7F8DC31B8E0D7F8DC2107F14003114620
:104ED000184600F049FB034693F83030002B0CBF16
:104EE00001230023DBB2002B00F08E80D7F8DC21F9
:104EF00007F140031146184600F036FB03461A68D6
:104F000007F5A47311461846FEF7CAFC07F5987317
:104F100007F5A4725249184600F038FB07F598725D
:104F200007F5FC73A3F5FA731146186836F0EEF82E
:104F300007F59873184635F0D9FE07F5A47318469F
:104F400035F0D4FED7F8DC2107F1400311461846AE
:104F500000F00AFB03461B7C002B2CD0D7F8DC2189
:104F600007F140031146184600F0FEFA03465A695D
:104F700007F5BC7311461846FEF792FC07F5B073AF
:104F800007F5BC723749184600F000FB07F5B07210
:104F900007F5FC73A3F5FA731146186836F0B6F8F6
:104FA00007F5B073184635F0A1FE07F5BC73184637
:104FB00035F09CFE1FE0D7F8DC2107F140031146D5
:104FC000184600F0D1FA034603F1180207F5C8733A
:104FD0002549184600F0F2FA07F5C87207F5FC7388
:104FE000A3F5FA731146186836F090F807F5C87300
:104FF000184635F07BFE07F5FC73A3F5FA731B49E1
:10500000186836F083F812E0D7F8DC2107F1400386
:105010001146184600F0A8FA034603F1180207F5F6
:10502000FC73A3F5FA731146186836F06FF8D7F8D9
:10503000DC310133C7F8DC31D7F8DC21D7F8B431E3
:105040009A42FFF640AF24E058130020C8BB050881
:1050500030BC0508300000206815002040BC050861
:1050600078070020A807002058BC0508D8070020B2
:1050700007F140030021184600F076FA034603F1D9
:10508000180207F5FC73A3F5FA731146186836F099
:105090003DF800BF07F14003184600F0D3F907F1CF
:1050A0004C03184600F078F907F5FC73A3F5FA7382
:1050B00007F5FC72A2F5FA7212681A6007F5FC7324
:1050C000A3F5FA73186807F5FE77BD46F0BD00BF7B
:1050D00080B584B000AF7860786836F0C0F807F12A
:1050E0000C030A2219463EF067FFFB681B78002B71
:1050F0000CBF01230023DBB218461037BD4680BD2C
:1051000080B483B000AF7860064B1A687B681A6081
:10511000044B00221A607B6818460C37BD465DF8C8
:10512000047B70475C81012080B483B000AF78605D
:10513000074B1B68002B03D17B681B68044A136074
:105140007B6818460C37BD465DF8047B704700BF8E
:105150005C81012080B483B000AF78603970002397
:1051600018460C37BD465DF8047B704790B58BB090
:1051700000AFF860B9607A603B6007F1140318462D
:10518000FFF7BEFF07F11801FB68BA6B7868984714
:105190007862BB697A689A4202D1B8682FF00FF939
:1051A000144B1B68222B06D02146786AFFF7D2FFEA
:1051B0000346002B01D0012300E00023002B02D086
:1051C000B8682FF002F97B6A3B623B68002B05D080
:1051D000BA697B68D31A1A463B681A603C6A07F1C1
:1051E00014031846FFF7A0FF234618462C37BD4688
:1051F00090BD00BF5C81012080B487B000AF7860B3
:10520000396001237B613B6803FB03F33B613A6830
:105210003B6902FB03F3FB603A68FB6802FB03F3A4
:10522000BB603B687A689A4201D27B691DE07A686C
:105230003B699A4202D27B69013316E07A68FB68C7
:105240009A4202D27B6902330FE07A68BB689A42C5
:1052500002D27B69033308E07A68BB68B2FBF3F3E0
:105260007B607B6904337B61DBE718461C37BD46F6
:105270005DF8047B7047000080B489B000AFF8602F
:10528000B9607A60BB68013BFB6124E07A68234B1C
:10529000A3FB02135B09642101FB03F3D31A5B0038
:1052A0007B617B681D4AA2FB03235B097B607B69F2
:1052B0005A1CF968FB690B4419498A5C1A70FB692E
:1052C000013BFA68134416497A690A4412781A7045
:1052D000FB69023BFB617B68632BD7D87B68092B9A
:1052E00010D97B685B00BB61BB695A1CFB6801334A
:1052F0000B498A5C1A700A4ABB6913441A78FB6826
:105300001A7005E07B68DBB23033DAB2FB681A70E2
:1053100000BF2437BD465DF8047B70471F85EB5105
:10532000C807060880B582B000AF7860786800F0E2
:1053300090F97B68184600F098F97B6818460837A2
:10534000BD4680BD80B582B000AF7860786800F05F
:10535000A0F97B6818460837BD4680BD80B582B08D
:1053600000AF78607B6819687B689A687B681B6807
:10537000D31ADB10074A02FB03F31A46786800F0E1
:1053800093F97B681846FEF7B9FA7B681846083728
:10539000BD4680BDABAAAAAAB0B582B000AF786006
:1053A0007B681C687B685D687B68184600F08FF935
:1053B00003461A462946204600F094F97B681846B1
:1053C000FFF7CCFF7B6818460837BD46B0BD80B5F7
:1053D00082B000AF7860786800F092F97B68184678
:1053E00000F09AF97B6818460837BD4680BD80B545
:1053F00082B000AF7860786800F0A2F97B68184648
:105400000837BD4680BD000080B582B000AF78602F
:105410007B6819687B689A687B681B68D31A9B1045
:10542000074A02FB03F31A46786800F094F97B6898
:105430001846FEF789FA7B6818460837BD4680BDD6
:10544000C54EECC4B0B582B000AF78607B681C6814
:105450007B685D687B68184600F090F903461A4641
:105460002946204600F095F97B681846FFF7CCFFE7
:105470007B6818460837BD46B0BD80B582B000AF26
:1054800078603960386800F0D9F8034619467868C2
:1054900000F08DF900BF0837BD4680BD80B483B0F1
:1054A00000AF78607B685A687B681B68D31ADB1092
:1054B000044A02FB03F318460C37BD465DF8047B33
:1054C000704700BFABAAAAAA80B483B000AF7860CF
:1054D00039607B6819683A6813465B001344DB0047
:1054E0000B4418460C37BD465DF8047B704780B509
:1054F00082B000AF786039607B685A687B689B68CF
:105500009A420DD078687B685B683A68194600F06B
:105510007DF97B685B6803F134027B685A6008E0C0
:10552000786800F086F903463A681946786800F012
:10553000A7F900BF0837BD4680BD000080B483B026
:1055400000AF78607B685A687B681B68D31A9B1031
:10555000044A02FB03F318460C37BD465DF8047B92
:10556000704700BFC54EECC480B483B000AF786014
:1055700039607B681A683B68342101FB03F31344EC
:1055800018460C37BD465DF8047B704780B584B083
:1055900000AFF860B9607A60BA680021786835F0C9
:1055A00077FD0346184600F049F803461946F868A7
:1055B00035F07DFBF8681037BD4680BD80B588B0FA
:1055C00000AFF860B9607A60B868FEF737F9F86143
:1055D00007F118037968184635F043FE07F1140304
:1055E00007F118021146184600F00EFA07F11403ED
:1055F0001946F86835F04BFB07F11403184622F002
:1056000058FA07F11803184622F053FA786835F073
:10561000A1FB0246FB6913441946F86835F0DFFB2D
:10562000FA69B968F86835F061FD7968F86835F0AD
:105630006DFD00BFF8682037BD4680BD80B483B0E3
:1056400000AF78607B6818460C37BD465DF8047B78
:10565000704780B582B000AF7860786800F0E2F9FA
:105660007B6818460837BD4680BD80B483B000AF64
:1056700078607B6800221A607B6800225A607B6831
:1056800000229A607B6818460C37BD465DF8047BA3
:10569000704780B483B000AF78607B6818460C37E1
:1056A000BD465DF8047B704780B584B000AFF860FC
:1056B000B9607A60BB68002B05D0FB687A68B9686E
:1056C000184600F0BAF900BF1037BD4680BD80B45F
:1056D00083B000AF78607B6818460C37BD465DF834
:1056E000047B704780B584B000AFF860B9607A6021
:1056F000B968F86800F0B0F900BF1037BD4680BD4A
:1057000080B582B000AF7860786800F0B2F97B684D
:1057100018460837BD4680BD80B483B000AF7860BE
:105720007B6800221A607B6800225A607B68002236
:105730009A607B6818460C37BD465DF8047B70475D
:1057400080B483B000AF78607B6818460C37BD46E4
:105750005DF8047B704780B584B000AFF860B96035
:105760007A60BB68002B05D0FB687A68B968184678
:1057700000F08AF900BF1037BD4680BD80B483B009
:1057800000AF78607B6818460C37BD465DF8047B37
:10579000704780B584B000AFF860B9607A60B968CE
:1057A000F86800F080F900BF1037BD4680BDB0B585
:1057B00082B000AF786039607B685A687B689B680C
:1057C0009A4212D07C687B685D68386800F078F98E
:1057D00003461A462946204600F07DF97B685B683F
:1057E00003F118027B685A600CE0786800F086F9D3
:1057F0000446386800F064F903461A462146786882
:1058000000F0A4F900BF0837BD46B0BD80B584B034
:1058100000AFF860B9607A60786800F05FFA03461C
:105820001A46B968F86800F099FA00BF1037BD460B
:1058300080BD80B584B000AF78607B681A1D07F129
:105840000C031146184600F0A1FAFB681846103701
:10585000BD4680BD80B582B000AF184600F005F8A7
:10586000034618460837BD4680BD80B483B000AFFC
:105870003871012318460C37BD465DF8047B70472C
:10588000B0B58CB000AFF860B9607A605C4A0121B5
:10589000F86800F08BFAB862FB681B687B62FB68F3
:1058A0005B683B62F86800F0C8FA03467B6107F169
:1058B000140207F108031146184600F0CFFA034618
:1058C000FB61FB68B96A184600F0E2FAB861BB698F
:1058D000FB62FC68FB69342202FB03F3BA69D5184A
:1058E000786800F0FBF903461A4629462046FFF780
:1058F0008DFF0023FB62FFF7ADFF0346002B27D08F
:1059000007F10803184600F0EBFA03461C68FB6831
:105910001846FFF733FF0346BA692146786A00F05C
:10592000CBFAF862FB6A3433FB6207F108031846CE
:1059300000F0D6FA03461C68FB681846FFF71EFF06
:105940000346FA6A396A204600F0B6FAF86226E0A1
:1059500007F10803184600F0C3FA03461C68FB6809
:105960001846FFF70BFF0346BA692146786A00F034
:10597000C2FAF862FB6A3433FB6207F10803184687
:1059800000F0AEFA03461C68FB681846FFF7F6FE07
:105990000346FA6A396A204600F0ADFAF862FFF76A
:1059A00059FF034683F00103DBB2002B09D0FB68EB
:1059B0001846FFF7E3FE03461A46396A786AFFF78E
:1059C000E8FEF868FB689A687B6AD31A9B100D4A58
:1059D00002FB03F31A46796AFFF7BDFEFB68BA695A
:1059E0001A60FB68FA6A5A60BB6A342202FB03F34E
:1059F000BA691A44FB689A6000BF3037BD46B0BD33
:105A00005CBC0508C54EECC480B582B000AF7860C0
:105A100039607B683968184600F093FA786808376F
:105A2000BD4680BD80B483B000AF78607B68184607
:105A30000C37BD465DF8047B704780B584B000AF7D
:105A4000F860B9607A607A68B968F86800F086FA38
:105A500000BF1037BD4680BD80B582B000AF786012
:105A600039603968786800F08CFA00BF0837BD46A5
:105A700080BD80B483B000AF78607B6818460C3777
:105A8000BD465DF8047B704780B584B000AFF86018
:105A9000B9607A607A68B968F86800F08BFA00BF7C
:105AA0001037BD4680BD80B582B000AF78603960E8
:105AB0003968786800F090FA00BF0837BD4680BDAD
:105AC00080B483B000AF78607B6818460C37BD4661
:105AD0005DF8047B704780B584B000AFF860B960B2
