:020000040801F1
:1000000000000220510B020889F9010891F901084A
:1000100099F90108A1F90108A9F9010800000000F7
:1000200000000000000000000000000081B702088E
:10003000B1F9010800000000D1B9020839BA02087C
:10004000A10B0208A10B0208A10B0208A10B0208D8
:10005000A10B0208A10B0208A10B0208A10B0208C8
:10006000A10B0208BFF90108A10B0208A10B0208AD
:10007000A10B0208A10B0208A10B0208A10B0208A8
:10008000CDF90108E1F90108A10B0208A10B020852
:10009000A10B0208A10B0208A10B0208A10B020888
:1000A000A10B0208F5F90108A10B020809FA0108E1
:1000B000A10B02081DFA010831FA0108A10B020880
:1000C000A10B0208A10B0208A10B0208A10B020858
:1000D000A10B0208A10B020845FA0108A10B0208B6
:1000E00075FA0108A10B0208A10B0208A10B020876
:1000F000A10B0208A10B0208A10B0208A10B020828
:10010000A10B0208A10B0208A10B0208A10B020817
:10011000A10B0208A10B020895FA0108B1FA010827
:10012000A10B0208A10B0208A10B0208A10B0208F7
:10013000A10B0208C5FA0108A10B0208A10B0208D5
:10014000A10B0208A10B0208A10B0208A10B0208D7
:10015000A10B0208A10B0208A10B0208A10B0208C7
:10016000A10B0208A10B0208A10B0208A10B0208B7
:10017000A10B0208A10B0208A10B0208000000005D
:08018000A10B0208A10B02080B
:100188000000000000000000000000000000000067
:100198000000000000000000000000000000000057
:1001A8000000000000000000000000000000000047
:1001B8000000000000000000000000000000000037
:1001C8000000000000000000000000000000000027
:1001D8000000000000000000000000000000000017
:1001E8000000000000000000000000000000000007
:1001F8000000000000000000EFBEADDE11000000AE
:100208004D6F746F7220436F6E74726F6C6C657291
:100218002044657669636500000000000000000066
:1002280000000000000000000000000000000000C6
:1002380000000000000000000000000000000000B6
:1002480000000000000000000000000000000000A6
:100258000000000000000000000000000000000096
:100268000000000000000000000000000000000086
:100278000000000000000000000000000000000076
:100288000000000000000000000000000000000066
:1002A00010B5054C237833B9044B13B10448AFF3B0
:1002B00000800123237010BDA8030020000000006F
:1002C0002C0B060808B5034B1BB103490348AFF3D9
:1002D000008008BD00000000AC0300202C0B0608C5
:1002E00010F8012B11F8013B012A28BF9A42F7D0E0
:1002F000D01A70470000000000000000000000005D
:1003000001F0FF01102A2BDB10F0070F08D010F8C6
:10031000013B013A8B422DD010F0070F42B3F6D1CA
:10032000F0B441EA012141EA014122F007047FF0E3
:1003300000070023F0E80256083C85EA010586EA3A
:10034000010685FA47F5A3FA87F586FA47F6A5FA76
:1003500087F68EB9EED1F0BC01F0FF0102F0070282
:1003600032B110F8013B013A83EA010313B1F8D12D
:100370000020704701387047002D06BF354603380E
:10038000073815F0010F07D1013015F4807F02BF47
:10039000013015F4C03F0130F0BC0138704700BF98
:1003A000034613F8012B002AFBD1181A01387047B5
:1003B00081F0004102E000BF83F0004330B54FEA16
:1003C00041044FEA430594EA050F08BF90EA020F83
:1003D0001FBF54EA000C55EA020C7FEA645C7FEA16
:1003E000655C00F0E2804FEA5454D4EB5555B8BF39
:1003F0006D420CDD2C4480EA020281EA030382EAAA
:10040000000083EA010180EA020281EA0303362D3B
:1004100088BF30BD11F0004F4FEA01314FF4801C0E
:100420004CEA113102D0404261EB410113F0004F20
:100430004FEA03334CEA133302D0524263EB4303D7
:1004400094EA050F00F0A780A4F10104D5F1200E75
:100450000DDB02FA0EFC22FA05F2801841F10001D0
:1004600003FA0EF2801843FA05F359410EE0A5F1A4
:1004700020050EF1200E012A03FA0EFC28BF4CF0D5
:10048000020C43FA05F3C01851EBE37101F000458B
:1004900007D54FF0000EDCF1000C7EEB00006EEB98
:1004A0000101B1F5801F1BD3B1F5001F0CD3490822
:1004B0005FEA30004FEA3C0C04F101044FEA445279
:1004C00012F5800F80F09A80BCF1004F08BF5FEA00
:1004D000500C50F1000041EB045141EA050130BDE0
:1004E0005FEA4C0C404141EB0101013C28BFB1F5F2
:1004F000801FE9D291F0000F04BF01460020B1FA3D
:1005000081F308BF2033A3F10B03B3F120020CDA0F
:100510000C3208DD02F1140CC2F10C0201FA0CF0ED
:1005200021FA02F10CE002F11402D8BFC2F1200C52
:1005300001FA02F120FA0CFCDCBF41EA0C01904008
:10054000E41AA2BF01EB0451294330BD6FEA040451
:100550001F3C1CDA0C340EDC04F11404C4F120023C
:1005600020FA04F001FA02F340EA030021FA04F34E
:1005700045EA030130BDC4F10C04C4F1200220FAA5
:1005800002F001FA04F340EA0300294630BD21FAE3
:1005900004F0294630BD94F0000F83F4801306BFA9
:1005A00081F480110134013D4EE77FEA645C18BF9D
:1005B0007FEA655C29D094EA050F08BF90EA020F34
:1005C00005D054EA000C04BF1946104630BD91EA2C
:1005D000030F1EBF0021002030BD5FEA545C05D12F
:1005E0004000494128BF41F0004130BD14F580046E
:1005F0003CBF01F5801130BD01F0004545F0FE41E2
:1006000041F470014FF0000030BD7FEA645C1ABF16
:10061000194610467FEA655C1CBF0B46024650EA4D
:10062000013406BF52EA033591EA030F41F4002179
:1006300030BD00BF90F0000F04BF0021704730B5FF
:100640004FF4806404F132044FF000054FF00001D4
:1006500050E700BF90F0000F04BF0021704730B595
:100660004FF4806404F1320410F0004548BF40426A
:100670004FF000013EE700BF42004FEAE2014FEABF
:1006800031014FEA02701FBF12F07F4393F07F4F9A
:1006900081F06051704732F07F4208BF704793F09D
:1006A0007F4F04BF41F40021704730B54FF46074B0
:1006B00001F0004521F000411CE700BF50EA0102B3
:1006C00008BF704730B54FF000050AE050EA01025C
:1006D00008BF704730B511F0004502D5404261EBCC
:1006E00041014FF4806404F132045FEA915C3FF40D
:1006F000D8AE4FF003025FEADC0C18BF03325FEAAA
:10070000DC0C18BF033202EBDC02C2F1200300FA5A
:1007100003FC20FA02F001FA03FE40EA0E0021FA7F
:1007200002F11444BDE600BF70B54FF0FF0C4CF46D
:10073000E06C1CEA11541DBF1CEA135594EA0C0F1F
:1007400095EA0C0F00F0DEF82C4481EA030621EA5A
:100750004C5123EA4C5350EA013518BF52EA033595
:1007600041F4801143F4801338D0A0FB02CE4FF047
:100770000005E1FB02E506F00042E0FB03E54FF077
:100780000006E1FB03569CF0000F18BF4EF0010E6F
:10079000A4F1FF04B6F5007F64F5407404D25FEA6B
:1007A0004E0E6D4146EB060642EAC62141EA55511E
:1007B0004FEAC52040EA5E504FEACE2EB4F1FD0C60
:1007C00088BFBCF5E06F1ED8BEF1004F08BF5FEADE
:1007D000500E50F1000041EB045170BD06F0004690
:1007E00046EA010140EA020081EA0301B4EB5C043D
:1007F000C2BFD4EB0C0541EA045170BD41F4801135
:100800004FF0000E013C00F3AB8014F1360FDEBF59
:10081000002001F0004170BDC4F10004203C35DA35
:100820000C341BDC04F11404C4F1200500FA05F3B8
:1008300020FA04F001FA05F240EA020001F0004259
:1008400021F0004110EBD37021FA04F642EB0601CF
:100850005EEA430E08BF20EAD37070BDC4F10C04F9
:10086000C4F1200500FA04F320FA05F001FA04F2BD
:1008700040EA020001F0004110EBD37041F10001A9
:100880005EEA430E08BF20EAD37070BDC4F12005B4
:1008900000FA05F24EEA020E20FA04F301FA05F21C
:1008A00043EA020321FA04F001F0004121FA04F2C4
:1008B00020EA020000EBD3705EEA430E08BF20EA94
:1008C000D37070BD94F0000F0FD101F000464000CE
:1008D00041EB010111F4801F08BF013CF7D041EA50
:1008E000060195F0000F18BF704703F00046520054
:1008F00043EB030313F4801F08BF013DF7D043EA25
:100900000603704794EA0C0F0CEA135518BF95EADA
:100910000C0F0CD050EA410618BF52EA4306D1D161
:1009200081EA030101F000414FF0000070BD50EA80
:10093000410606BF1046194652EA430619D094EA0A
:100940000C0F02D150EA013613D195EA0C0F05D1F4
:1009500052EA03361CBF104619460AD181EA030148
:1009600001F0004141F0FE4141F470014FF0000000
:1009700070BD41F0FE4141F4780170BD70B54FF09B
:10098000FF0C4CF4E06C1CEA11541DBF1CEA13551B
:1009900094EA0C0F95EA0C0F00F0A7F8A4EB0504FD
:1009A00081EA030E52EA03354FEA013100F08880F4
:1009B0004FEA03334FF0805545EA131343EA1263BD
:1009C0004FEA022245EA111545EA10654FEA002672
:1009D0000EF000419D4208BF964244F1FD0404F52B
:1009E000407402D25B084FEA3202B61A65EB030587
:1009F0005B084FEA32024FF480104FF4002CB6EB44
:100A0000020E75EB030E22BFB61A754640EA0C00C3
:100A10005B084FEA3202B6EB020E75EB030E22BF03
:100A2000B61A754640EA5C005B084FEA3202B6EB44
:100A3000020E75EB030E22BFB61A754640EA9C0003
:100A40005B084FEA3202B6EB020E75EB030E22BFD3
:100A5000B61A754640EADC0055EA060E18D04FEA91
:100A6000051545EA16754FEA06164FEAC30343EA31
:100A700052734FEAC2025FEA1C1CC0D111F4801FFE
:100A80000BD141EA00014FF000004FF0004CB6E7F7
:100A900011F4801F04BF01430020B4F1FD0C88BF96
:100AA000BCF5E06F3FF6AFAEB5EB030C04BFB6EBA1
:100AB000020C5FEA500C50F1000041EB045170BD94
:100AC0000EF0004E4EEA113114EB5C04C2BFD4EBC1
:100AD0000C0541EA045170BD41F480114FF0000E45
:100AE000013C90E645EA060E8DE60CEA135594EAC1
:100AF0000C0F08BF95EA0C0F3FF43BAF94EA0C0FC4
:100B00000AD150EA01347FF434AF95EA0C0F7FF438
:100B100025AF104619462CE795EA0C0F06D152EA8C
:100B200003353FF4FDAE1046194622E750EA410670
:100B300018BF52EA43067FF4C5AE50EA41047FF481
:100B40000DAF52EA43057FF4EBAE12E74FF0FF3CE6
:100B500006E000BF4FF0010C02E000BF4FF0010CB7
:100B60004DF804CD4FEA410C7FEA6C5C4FEA430C30
:100B700018BF7FEA6C5C1BD001B050EA410C0CBF7F
:100B800052EA430C91EA030F02BF90EA020F0020E1
:100B9000704710F1000F91EA030F58BF994208BF48
:100BA00090422CBFD8176FEAE37040F00100704705
:100BB0004FEA410C7FEA6C5C02D150EA013C07D15C
:100BC0004FEA430C7FEA6C5CD6D152EA033CD3D0A7
:100BD0005DF8040B704700BF8446104662468C46A1
:100BE0001946634600E000BF01B5FFF7B7FF0028D4
:100BF00048BF10F1000F01BD4DF808EDFFF7F4FFFD
:100C00000CBF012000205DF808FB00BF4DF808ED87
:100C1000FFF7EAFF34BF012000205DF808FB00BFAA
:100C20004DF808EDFFF7E0FF94BF012000205DF8CC
:100C300008FB00BF4DF808EDFFF7CEFF94BF012081
:100C400000205DF808FB00BF4DF808EDFFF7C4FF7A
:100C500034BF012000205DF808FB00BF4FEA410CC3
:100C60007FEA6C5C02D150EA013C0AD14FEA430CA6
:100C70007FEA6C5C02D152EA033C02D14FF00000E3
:100C800070474FF0010070474FEA410212F5001221
:100C900015D211D56FF47873B3EB625212D94FEAC3
:100CA000C12343F0004343EA505311F0004F23FAAD
:100CB00002F018BF404270474FF00000704750EA02
:100CC000013005D111F0004008BF6FF000407047BF
:100CD0004FF00000704700BF4A0011D212F5001219
:100CE00011D20DD56FF47873B3EB62520ED44FEA84
:100CF000C12343F0004343EA505323FA02F0704704
:100D00004FF00000704750EA013002D14FF0FF3041
:100D100070474FF0000070474FEA4102B2F1E043E4
:100D200024BFB3F5001CDCF1FE5C0DD901F0004CD2
:100D30004FEAC0024CEA5070B2F1004F40EB830022
:100D400008BF20F00100704711F0804F21D113F14E
:100D50003872BCBF01F00040704741F480114FEA87
:100D60005252C2F11802C2F1200C10FA0CF320FA10
:100D700002F018BF40F001004FEAC1234FEAD3232D
:100D800003FA0CFC40EA0C0023FA02F34FEA430397
:100D9000CCE77FEA625307D150EA01331EBF4FF020
:100DA000FE4040F44000704701F0004040F0FE403B
:100DB00040F40000704700BF53B94AB9002908BF8A
:100DC00000281CBF4FF0FF314FF0FF3000F0A0B9FA
:100DD000ADF1080C6DE904CE00F03CF8DDF804E05C
:100DE000DDE9022304B0704738B500220023044631
:100DF0000D46FFF70BFF28B920462946BDE83840CD
:100E000000F00AB8204605F1004100F005F8404224
:100E100061EB410138BD00BFD0B50C4B0022064646
:100E20000F46FFF781FCFFF757FF0446FFF702FC70
:100E3000074B0022FFF778FC02460B463046394646
:100E4000FFF7BAFAFFF748FF2146D0BD0000F03D9A
:100E50000000F0412DE9F047089D0C46002B4ED1D3
:100E600094468C458646B2FA82F262D94AB1C2F102
:100E70002003914020FA03F30CFA02FC194300FA14
:100E800002FE4FEA1C471FFA8CF6B1FBF7F44FEA5B
:100E90001E4307FB141143EA014304FB06F1994288
:100EA0000AD91CEB030304F1FF3080F01281994250
:100EB00040F20F81023C6344591A1FFA8EF3B1FBD2
:100EC000F7F007FB101143EA014300FB06F69E42D0
:100ED0000AD91CEB030300F1FF3180F0FC809E4235
:100EE00040F2F980634402389B1B40EA0440002131
:100EF0001DB1D3400022C5E90032BDE8F0878B4226
:100F000005D90DB1C5E9000100210846F5E7B3FA9E
:100F100083F1002946D1A34202D39042C0F0F08071
:100F2000861A64EB03030120002DE6D0C5E90063B7
:100F3000E3E7002A40F09080A1EB0C044FEA1C4844
:100F40001FFA8CF70121B4FBF8F64FEA1E4308FBA9
:100F5000164443EA044307FB06F0984208D91CEB09
:100F6000030306F1FF3402D2984200F2CD802646F8
:100F70001C1A1FFA8EF3B4FBF8F008FB104443EA86
:100F8000044300FB07F79F4208D91CEB030300F161
:100F9000FF3402D29F4200F2B0802046DB1B40EAC1
:100FA0000640A5E7C1F120068B4022FA06F71F4351
:100FB00020FA06FC04FA01F343EA0C03F44000FAB9
:100FC00001F8380C4FEA1349B4FBF0FE1FFA87FC16
:100FD00000FB1E4449EA04440EFB0CF9A14502FA49
:100FE00001F20AD93C190EF1FF3A80F08480A14544
:100FF00040F28180AEF1020E3C44A4EB09041FFADA
:1010000083F9B4FBF0F300FB134449EA044403FB07
:101010000CFCA44507D93C1903F1FF3067D2A44565
:1010200065D9023B3C4443EA0E40A0FB0293A4EB8B
:101030000C049C42CE469C4651D34ED055B1B8EBE1
:101040000E0364EB0C0404FA06F6CB401E43CC40BE
:10105000C5E90064002150E7C2F1200320FA03F142
:101060000CFA02FC24FA03F394400C434FEA1C48A8
:1010700000FA02FE1FFA8CF7B3FBF8F008FB103100
:10108000230C43EA014300FB07F1994208D91CEB0A
:10109000030300F1FF362CD299422AD90238634467
:1010A0005B1AA4B2B3FBF8F108FB113344EA034422
:1010B00001FB07F3A34208D91CEB040401F1FF363E
:1010C00013D2A34211D902396444E41A41EA00411F
:1010D00039E70446F0E6084606E7C845AED2B9EB64
:1010E000020E63EB070C0138A8E73146EDE7034633
:1010F00099E73046D4E7D6467FE7634402384DE7A8
:101100000646234608460FE7023E634430E700BF29
:10111000704700BF80B582B000AF78607B685B6AC3
:10112000002B40F0AA807B68DB69022B50D0022B99
:1011300000F39F80002B3BD0012B40F09A807B680E
:101140001A697B685B689A422CD17B681B6A002B0A
:1011500015D17B68986A7B689B8D0122194612F035
:10116000FBFD7B685A697B689B69D21A7B681A61B0
:101170007B6800225A607B6801221A627CE07B68EF
:10118000986A7B689B8D0022194612F0E5FD7B680A
:101190009A697B681A617B6800225A607B6800222A
:1011A0001A6269E07B685B685A1C7B685A6063E07E
:1011B0007B681B6A012B5ED17B68986A7B689B8D7C
:1011C0000022194612F0C8FD7B6800221A6252E024
:1011D0007B681A697B685B689A4244D17B681B6AAA
:1011E000002B2DD17B68986A7B689B8D0122194664
:1011F00012F0B2FD7B685A697B689B69D21A7B68E2
:101200001A617B6800225A607B6801221A627B683F
:101210009A687B68DB689A420CD17B6801225A622B
:101220007B680022DA617B6800229A607B6800227A
:10123000DA6021E07B689B685A1C7B689A601BE03F
:101240007B68986A7B689B8D0022194612F084FDAA
:101250007B689A697B681A617B6800225A607B68A8
:1012600000221A6208E07B685B685A1C7B685A603F
:1012700002E000BF0FE000BF0DE07B68986A7B686A
:101280009B8D0122194612F067FD7B6800225A608F
:101290007B6801221A6200BF0837BD4680BD80B559
:1012A00084B000AFF860B9601346FB80FB68BA6891
:1012B0009A62FB68FA889A85FB8801221946B86809
:1012C00012F04AFDFB6801221A6000BF1037BD46CC
:1012D00080BD80B483B000AF78607B6800225A6222
:1012E00000BF0C37BD465DF8047B704780B483B007
:1012F00000AF78607B6801225A6200BF0C37BD46A0
:101300005DF8047B704780B485B000AFF860B960C9
:101310007A603B60FB68BA68DA61FB687A685A6198
:10132000FB683A689A6100BF1437BD465DF8047BDC
:10133000704780B483B000AF786039607B683A68EA
:10134000DA6100BF0C37BD465DF8047B704780B49E
:1013500083B000AF78607B6800221A607B6800224F
:101360005A607B6800229A607B680022DA607B68A2
:1013700000221A617B684FF47A725A617B6864229A
:101380009A617B680122DA617B6801221A627B68BC
:1013900001225A627B6818460C37BD465DF8047B13
:1013A000704780B483B000AF78607B6818460C3714
:1013B000BD465DF8047B704780B584B000AF3B4606
:1013C00000221A605A609A60DA60214B214A1A6042
:1013D0001F4B4FF480325A601D4B00229A601C4B09
:1013E00000221A611A4B00221A76194B002283F848
:1013F0002020174B0022DA62154B174A9A62144BD1
:101400000022DA60124B0122DA61114B002283F8CC
:1014100030200F4B01225A610D480FF089FD034621
:10142000002B01D00EF01AF903233B6001237B60EF
:101430000023BB603B46194605480FF0BDFD03463F
:10144000002B01D00EF00AF900BF1037BD4680BD59
:10145000C4030020002001400100000F80B58AB0C5
:1014600000AF786007F1140300221A605A609A6096
:10147000DA601A617B681B68174A934227D1002300
:101480003B61164B5B6C154A43F480735364134BFA
:101490005B6C03F480733B613B690023FB600F4B83
:1014A0001B6B0E4A43F0010313630C4B1B6B03F0E1
:1014B0000103FB60FB6808237B610323BB610023FE
:1014C000FB6107F114031946054812F091FA00BFB9
:1014D0002837BD4680BD00BF0020014000380240D3
:1014E0000000024080B582B000AF7860786802F0FA
:1014F0001CF90346002B03D14FF00002064B02E01B
:101500007B68D3E9062343EC172BB0EE470AF0EED5
:10151000670A0837BD4680BD0000F87F80B485B0FB
:1015200000AF786039607B68002B02D03B68002BED
:1015300001D1012356E07A683B689A420DD100231D
:1015400050E07B681B78002B01D100234AE07B68C8
:1015500001337B603B6801333B607B681B78FB7326
:10156000FB7B0133224A13441B7803F00303012B56
:1015700003D1FB7B03F1200200E0FA7B3B681B7880
:10158000BB73BB7B01331A490B441B7803F0030385
:10159000012B02D1BB7B203300E0BB7B9A42D0D031
:1015A0007B681B787B737B7B0133114A13441B7868
:1015B00003F00303012B03D17B7B03F1200200E046
:1015C0007A7B3B681B783B733B7B013308490B44B8
:1015D0001B7803F00303012B02D13B7B203300E097
:1015E0003B7BD31A18461437BD465DF8047B704721
:1015F000029E060880B584B000AF78603960002391
:10160000FB600023BB607B68002B01D1002315E049
:101610007868FEF7C5FE03460133FB603B681B6834
:10162000F8689847B860BB68002B01D1002305E03B
:10163000FA687968B8684BF07EFBBB6818461037CB
:10164000BD4680BD80B584B000AF78607B681B6804
:1016500028209847F860FB68002B04D0282200213E
:10166000F86849F0ADFAFB6818461037BD4680BDF2
:1016700080B584B000AF78600023FB603DE07B68FC
:101680001B68FB607B68DB6803F48073002B08D168
:101690007B689B68002B04D07B689B681846FFF72B
:1016A000E7FF7B68DB6803F48073002B0CD17B6859
:1016B0001B69002B08D0154B5B687A6812691046CD
:1016C00098477B6800221A617B68DB6803F400732B
:1016D000002B0CD17B681B6A002B08D00B4B5B687E
:1016E0007A68126A104698477B6800221A62074B94
:1016F0005B6878689847FB687B607B68002BBED18D
:1017000000BF00BF1037BD4680BD00BF04000020F1
:1017100080B400AF2E231846BD465DF8047B7047A9
:1017200080B598B000AF786039604FF000024FF09C
:101730000003C7E914230023BB64FFF7E9FF034656
:1017400087F84F300023FB653B68002B03D03B68D4
:101750001B68002B01D10023A0E00023FB653DE0C6
:101760003B681A683B689968FB6D0B4413441B780F
:10177000452B17DC2B2B40DB2B3B01229A404C4B9B
:101780001340002B14BF01230023DBB2002B0BD12D
:1017900002F00803002B14BF01230023DBB2002B4F
:1017A00011D12AE0652B28D13B681A683B689968FB
:1017B000FB6D0B441344197807F10802FB6D1344C9
:1017C0000A461A7007E007F10802FB6D134497F808
:1017D0004F201A7000BFFB6D0133FB65FB6D3E2B84
:1017E0000DD83B68002B0AD03B689A68FB6D1A4401
:1017F0003B685B689A42B3D301E000BF00E000BFE2
:1018000007F10802FB6D134400221A7007F1480229
:1018100007F108031146184647F02EFB87ED140B1D
:10182000BA6C07F108039A4201D1002336E07968C7
:10183000D7E91423C1E906231BA3D3E90023D7E981
:101840001401FFF7F7F90346002B04D07B686FF013
:1018500000425A6115E04FF00002164BD7E914011F
:10186000FFF7DEF90346002B04D07B684FF00042FF
:101870005A6106E0D7E91401FFF706FA02467B68D1
:101880005A617B680822DA603B689B68B96C07F193
:1018900008028A1A1A443B689A6001231846603786
:1018A000BD4680BDAFF300800000C0FFFFFFDF41F9
:1018B000E57F00040000E0C180B584B000AF78602F
:1018C00039600023FB600023BB607B68002B03D0E2
:1018D0007B681B68002B01D1002383E07B685B6879
:1018E000002B07D07B689A687B685B689A4201D3BB
:1018F000002377E03B68002B01DA002372E07B686D
:101900009A683B68134401333B607B685B683A68C4
:101910009A4205D87B681A687B689B68134461E02B
:101920007B681B69002B01D000235BE03B68B3F1AF
:10193000804F08D33B68002B03DB6FF00043BB6094
:1019400004E000234EE03B685B00BB607B681B6AE1
:10195000002B18D07B681B6A7A681268B968104639
:101960009847F860FB68002B32D17B68DB697A68A6
:101970001268104698477B6800225A607B680022F4
:101980001A6000232EE07B689B69B8689847F8606E
:10199000FB68002B0DD17B68DB697A681268104602
:1019A00098477B6800225A607B6800221A600023F7
:1019B00018E07B6819687B689B6801331A46F868F1
:1019C0004BF0B9F97B68DB697A6812681046984772
:1019D0007B68BA685A607B68FA681A607B689B68A3
:1019E000FA68134418461037BD4680BD90B585B0DF
:1019F00000AF78600023FB607B68002B13D07B680E
:101A00001B68002B0FD07B681A687B689B681344A7
:101A1000FB607B689C68F868FEF7C2FC0346E2182E
:101A20007B689A6000E000BF1437BD4690BD00009F
:101A30002DE9F04387B000AF87ED020B87ED001B67
:101A4000B868FE6826F000413A687E6826F00043D8
:101A5000FFF7FAF80346002B04D0BC68FB6823F0BC
:101A6000004503E03C687B6823F00045C7E9044576
:101A7000D7E90023D7E90201FEF79EFC02460B4698
:101A8000904623F000494FF000020C4BD7E90401C7
:101A9000FEF74AFE02460B4601210C4640464946E7
:101AA000FFF7BEF80346002B01D100231C46E3B22A
:101AB00018461C37BD46BDE8F08300BF0000B03CAF
:101AC000F0B593B000AF786039600023FB637B68AA
:101AD000D3E90623C7E90C2300237B6400233B647E
:101AE00000237B6107F1180300221A605A609A6094
:101AF000DA601A619A82FFF70BFE034687F82F30EF
:101B00004FF000024FF00003C7E902233B68002BAF
:101B100001D10023B4E0D7E90C23D7E90C01FFF78A
:101B20009DF80346002B21D13C6B7B6B23F00045D5
:101B300001231E464FF0FF32534B20462946FFF744
:101B40008DF80346002B0BD14FF0FF324E4B204651
:101B50002946FFF765F80346002B01D100231E46F6
:101B6000F3B283F00103DBB2002B07D007F11403BB
:101B70004649184648F098FC78643FE07B685B690A
:101B80001846FEF767FD02460B46D7E90C01FFF742
:101B900033F80346002B09D07B685A6907F1140318
:101BA0003B49184648F080FC786427E007F11400B0
:101BB000D7E90C23374948F077FC786407F108022D
:101BC00007F114033449184648F08EFC0346012BF4
:101BD0000CD197ED027B97ED0C1BB0EE470AF0EEAF
:101BE000670AFFF725FF0346002B07D107F1140012
:101BF000D7E90C23294948F057FC78647B6C002B0B
:101C000002DB7B6C192B01DD002339E07B6C013397
:101C100019463868FFF750FEF863FB6B002B01D1C3
:101C200000232DE000233B641AE007F114023B6C13
:101C300013441B7897F82F209A4205D1FA6B3B6C1E
:101C400013442E221A7008E0FA6B3B6C134407F120
:101C500014013A6C0A4412781A703B6C01333B64ED
:101C60007B6C3A6C9A42E0D3FA6B3B6C13440022D3
:101C70001A703B689A687B6C1A443B689A6001232F
:101C800018464C37BD46F0BDFFFFEF7F540B0608EA
:101C90005C0B0608600B0608680B06086C0B060850
:101CA00080B485B000AF78600023FB600023BB6088
:101CB0000023BB604CE07A68BB6813441B782F2B71
:101CC0000FD97A68BB6813441B78392B09D87A6816
:101CD000BB6813441B781A46FB681344303BFB6017
:101CE0002DE07A68BB6813441B78402B0FD97A68C3
:101CF000BB6813441B78462B09D87A68BB68134429
:101D00001B781A46FB681344373BFB6017E07A6880
:101D1000BB6813441B78602B0FD97A68BB681344E7
:101D20001B78662B09D87A68BB6813441B781A465F
:101D3000FB681344573BFB6001E000230CE0BB68E9
:101D4000022B02D8FB681B01FB60BB680133BB6040
:101D5000BB68032BAFD9FB6818461437BD465DF846
:101D6000047B704780B58AB000AFF860B9607A60D4
:101D700000237B620023FB61FB68BB61002387F8C3
:101D80002330002387F82230002387F821300023F6
:101D900087F82030BA68BB69D31A052B40F3B780A7
:101DA000BB6902331846FFF77BFFF861FB69B3F5A7
:101DB0005C4F04D3FB69B3F5604FC0F0AA80FB69A8
:101DC000B3F5584F37D3FB69B3F55C4F33D2BB69DA
:101DD00006337B6100233B610C2387F82130BA680E
:101DE0007B69D31A052B40F396807B691B785C2BAB
:101DF00040F093807B6901331B78752B40F08D8018
:101E00007B6902331846FFF74BFF38613B69B3F536
:101E10005C4FC0F084803B69B3F5604F7FD2FB69B3
:101E20009A02434B13403A69C2F30902134303F584
:101E300080337B6204E0062387F82130FB697B62F4
:101E40007B6A7F2B03D8012387F823301FE07B6A4E
:101E5000B3F5006F06D2022387F82330C02387F83A
:101E6000203014E07B6AB3F5803F06D2032387F865
:101E70002330E02387F8203009E07B6AB3F5881F20
:101E80004FD2042387F82330F02387F8203097F8C7
:101E90002330013B87F8223015E07B6ADBB203F088
:101EA0003F03DAB27B68196897F822300B4462F07E
:101EB0007F02D2B21A707B6A9B097B6297F822304C
:101EC000013B87F8223097F82230002BE5D197F8B4
:101ED0002330012B09D97B6AD9B27B681B6897F83C
:101EE00020200A43D2B21A7007E07B6ADAB27B681C
:101EF0001B6802F07F02D2B21A707B681A6897F8EA
:101F000023301A447B681A6097F821300BE000BF39
:101F100008E000BF06E000BF04E000BF02E000BF31
:101F200000E000BF002318462837BD4680BD00BF33
:101F300000FC0F0080B58AB000AF786039603B6864
:101F40001A683B689B68013313447B623B681A68DC
:101F50003B689B68013313443B620023FB60002312
:101F6000FB613B681A683B689B6813441B78222B13
:101F700040F0038100233B610023BB6117E03B6A13
:101F80001B785C2B10D13B6A5A1C3B681B68D31A28
:101F90001A463B685B689A4280F0F180BB69013366
:101FA000BB613B6A01333B623B6A01333B623B6886
:101FB0001B683A6AD31A1A463B685B689A4203D296
:101FC0003B6A1B78222BDAD13B681B683A6AD31A2A
:101FD0001A463B685B689A4280F0D3803B6A1B7864
:101FE000222B40F0CE803B681A683B689B68134404
:101FF0003A6AD31A1A46BB69D31A3B613B681B691C
:102000003A69013210469847F861FB69002B00F0ED
:10201000BA80FB69FB6094E07B6A1B785C2B08D07C
:102020007A6A531C7B62FB68591CF96012781A703B
:1020300087E00223FB753A6A7B6AD31A002B40F3D0
:10204000A4807B6A01331B78752B00F3A0805C2B86
:1020500004DA222B5CD02F2B5AD098E05C3B192B52
:1020600000F2958001A252F823F000BF112101086F
:102070008F2101088F2101088F2101088F2101087C
:102080008F210108D52001088F2101088F21010827
:102090008F210108E12001088F2101088F2101080B
:1020A0008F2101088F2101088F2101088F2101084C
:1020B0008F210108ED2001088F2101088F210108DF
:1020C0008F210108F92001088F210108052101084D
:1020D00021210108FB685A1CFA6008221A702CE0C2
:1020E000FB685A1CFA600C221A7026E0FB685A1C26
:1020F000FA600A221A7020E0FB685A1CFA600D226E
:102100001A701AE0FB685A1CFA6009221A7014E06F
:102110007B6A5A1CFB68591CF96012781A700CE033
:1021200007F10C031A46396A786AFFF71BFE03466B
:10213000FB75FB7D002B2CD000BFFB7D7A6A13441E
:102140007B627A6A3B6A9A42FFF466AFFB680022C0
:102150001A707B681022DA607B68FA691A613B6842
:102160001B683A6AD31A1A463B689A603B689B68B8
:102170005A1C3B689A60012320E000BF0AE000BFC0
:1021800008E000BF06E000BF04E000BF02E000BFBF
:1021900000E000BFFB69002B05D03B685B69F86974
:1021A00098470023FB617B6A002B06D03B681B68C5
:1021B0007A6AD31A1A463B689A6000231846283771
:1021C000BD4680BD80B588B000AF7860396000231F
:1021D000FB6100233B610023BB610023FB60002304
:1021E0007B613B68002B01D1002310E17B68002B51
:1021F00011D103213868FFF75FFB38613B69002B81
:1022000001D1002303E13B69834A11889278198048
:102210009A700123FBE07B68FB6124E0FB691B787B
:10222000222B0FDC082B13DB083B7C4A22FA03F33A
:1022300003F00103002B14BF01230023DBB2002BAA
:1022400002D105E05C2B03D17B6901337B6107E0A0
:10225000FB691B781F2B02D87B6905337B6100BFAC
:10226000FB690133FB61FB691B78002BD6D1FA694E
:102270007B68D31A1A467B691344FB60FB680333FF
:1022800019463868FFF718FB38613B69002B01D10C
:102290000023BCE07B69002B17D13B6922221A7016
:1022A0003B690133FA68796818464AF044FDFB68D7
:1022B00001333A69134422221A70FB6802333A69E7
:1022C000134400221A700123A1E03B6922221A70F4
:1022D0003B690133BB617B68FB6186E0FB691B786E
:1022E0001F2B0CD9FB691B78222B08D0FB691B78AC
:1022F0005C2B04D0FB691A78BB691A706FE0BB696C
:102300005A1CBA615C221A70FB691B78222B3DDCD7
:10231000082B59DB083B1A2B56D801A252F823F0A0
:10232000A1230108C1230108B1230108C923010821
:10233000A9230108B9230108C9230108C9230108F9
:10234000C9230108C9230108C9230108C9230108B9
:10235000C9230108C9230108C9230108C9230108A9
:10236000C9230108C9230108C9230108C923010899
:10237000C9230108C9230108C9230108C923010889
:10238000C9230108C9230108992301085C2B1BD12B
:10239000BB695C221A7022E0BB6922221A701EE01F
:1023A000BB6962221A701AE0BB6966221A7016E0D5
:1023B000BB696E221A7012E0BB6972221A700EE0BD
:1023C000BB6974221A700AE0FB691B781A4614492B
:1023D000B86948F069F8BB690433BB6100BFFB69A9
:1023E0000133FB61BB690133BB61FB691B78002BC7
:1023F0007FF474AFFB6801333A69134422221A70E8
:10240000FB6802333A69134400221A70012318460C
:102410002037BD4680BD00BF740B0608370000049E
:10242000780B060880B582B000AF786039607B68B1
:102430001B6939681846FFF7C5FE0346184608377A
:10244000BD4680BD80B483B000AF78607B68002B50
:1024500003D07B681B68002B01D100232CE07B6834
:10246000002B05D07B689A687B685B689A4206D32C
:102470007B6821E07B689B685A1C7B689A607B685C
:10248000002B0DD07B689A687B685B689A4207D204
:102490007B681A687B689B6813441B78202BE9D9FA
:1024A0007B689A687B685B689A4204D17B689B680A
:1024B0005A1E7B689A607B6818460C37BD465DF8EB
:1024C000047B704780B582B000AF78607B68002BDA
:1024D00007D07B681B68002B03D07B689B68002BB0
:1024E00001D000231CE07B68002B18D07B689B6820
:1024F0001A1D7B685B689A4211D27B681A687B68F8
:102500009B68134403220849184648F06FFD0346B0
:10251000002B04D17B689B68DA1C7B689A607B681F
:1025200018460837BD4680BD800B060880B586B0CA
:1025300000AFF860B9607A60FB68002B01D100231E
:102540000CE0F868FDF72CFF034601337B617B68E4
:10255000BA687969F86800F005F803461846183734
:10256000BD4680BD80B58EB000AFF860B9607A60BE
:102570003B6007F1180300221A605A609A60DA6023
:102580001A615A619A6100237B63414B00221A60F1
:102590003F4B00225A60FB68002B42D0BB68002BE7
:1025A0003FD0FB68BB61BB68FB6100233B62394ADB
:1025B00007F1280307CA83E807003648FFF742F807
:1025C00078637B6B002B2ED007F118031846FFF7BA
:1025D00079FF03461846FFF735FF03461946786B27
:1025E00000F002F90346002B1FD03B68002B0ED0F1
:1025F00007F118031846FFF725FF3A6AFB699A426C
:1026000015D2BA693B6A13441B78002B0FD17B6843
:10261000002B04D0BA693B6A1A447B681A607B6B52
:1026200031E000BF04E000BF02E000BF00E000BFF7
:102630007B6B002B02D0786BFFF71AF8FB68002B3E
:1026400020D0FB683B6100237B613A6AFB699A42B8
:1026500002D23B6A7B6105E0FB69002B02D0FB697B
:10266000013B7B617B68002B04D03A697B691A448B
:102670007B681A60064B1A4607F1100393E80300C3
:1026800082E80300002318463837BD4680BD00BFEE
:102690000C0400200400002080B582B000AF7860F8
:1026A000002200217868FFF741FF034618460837EB
:1026B000BD4680BD80B58EB000AFF860B9607A606D
:1026C00000237B6307F1100324220021184648F001
:1026D00077FA7B681B683B4A1268104698470346A6
:1026E0003B61384B1B687B61BB687B627A6807F192
:1026F000280307CA83E807003B69002B42D007F193
:1027000010031946F86800F05BF90346002B3BD034
:1027100007F110031846FFF769F97B689B68002BE7
:102720000DD07B689B683869BA69013211469847B9
:1027300078637B6B002B29D000233B6120E07B6812
:102740001B68BA6901321046984778637B6B002B8F
:102750001ED03969BB695A1C7B69934228BF134656
:102760001A46786B4AF0E7FABB697A6B1344002289
:102770001A707B685B683A691046984700233B6192
:102780007B6B1AE000BF04E000BF02E000BF00E086
:1027900000BF3B69002B06D07B685B683A69104636
:1027A000984700233B617B6B002B05D07B685B68FF
:1027B000786B984700237B63002318463837BD4663
:1027C00080BD00BF6461060880B582B000AF78604C
:1027D000044A01217868FFF76DFF03461846083761
:1027E000BD4680BD0400002080B582B000AF786097
:1027F00039603B68002B03D03B681B68002B01D17C
:102800000023D2E03B68002B1DD03B689B681A1D5B
:102810003B685B689A4216D83B681A683B689B68BD
:10282000134404226349184648F0E0FB0346002B9A
:1028300009D17B680422DA603B689B681A1D3B68FB
:102840009A600123B1E03B68002B1DD03B689B6878
:102850005A1D3B685B689A4216D83B681A683B6809
:102860009B68134405225449184648F0BFFB0346B1
:10287000002B09D17B680122DA603B689B685A1DF6
:102880003B689A60012390E03B68002B20D03B68B6
:102890009B681A1D3B685B689A4219D83B681A68A6
:1028A0003B689B68134404224449184648F09EFB49
:1028B0000346002B0CD17B680222DA607B68012280
:1028C0005A613B689B681A1D3B689A6001236CE063
:1028D0003B68002B13D03B689A683B685B689A4260
:1028E0000DD23B681A683B689B6813441B78222B07
:1028F00005D139687868FFF71DFB034655E03B6852
:10290000002B23D03B689A683B685B689A421DD2D3
:102910003B681A683B689B6813441B782D2B0FD0CB
:102920003B681A683B689B6813441B782F2B0DD9B2
:102930003B681A683B689B6813441B78392B05D8A1
:1029400039687868FEF7ECFE03462EE03B68002B02
:1029500013D03B689A683B685B689A420DD23B682B
:102960001A683B689B6813441B785B2B05D1396858
:10297000786800F009F9034617E03B68002B13D094
:102980003B689A683B685B689A420DD23B681A685C
:102990003B689B6813441B787B2B05D139687868AA
:1029A00000F03CFA034600E0002318460837BD4615
:1029B00080BD00BF540B0608840B06088C0B06086C
:1029C00080B584B000AF786039600023FB607B681D
:1029D000002B02D03B68002B01D10023C9E07B68AB
:1029E000DB68DBB2802B00F08E80802B00F3C08090
:1029F000202B49DC002B40F3BB80013B1F2B00F256
:102A0000B78001A252F823F0B32A0108D72A01089F
:102A1000712B01088F2A0108712B0108712B010805
:102A2000712B0108FB2A0108712B0108712B010889
:102A3000712B0108712B0108712B0108712B010802
:102A4000712B01084D2B0108712B0108712B010816
:102A5000712B0108712B0108712B0108712B0108E2
:102A6000712B0108712B0108712B0108712B0108D2
:102A7000712B0108712B0108712B0108712B0108C2
:102A8000712B0108592B0108402B6BD070E00521F8
:102A90003868FEF711FFF860FB68002B01D10023B6
:102AA00067E0FB68354A1068186012791A710123D3
:102AB0005FE006213868FEF7FFFEF860FB68002B38
:102AC00001D1002355E0FB682D4A106818609288F8
:102AD0009A8001234DE005213868FEF7EDFEF8608D
:102AE000FB68002B01D1002343E0FB68254A1068F6
:102AF000186012791A7101233BE039687868FEF793
:102B0000DFFF034635E00023BB607B681B69002BB9
:102B100001D100232DE07B681B691846FDF740FCBE
:102B200003460133BB60B9683868FEF7C5FEF8603C
:102B3000FB68002B01D100231BE07B681B69BA688E
:102B40001946F8684AF0F7F8012312E03968786806
:102B5000FFF768FC03460CE03968786800F0D8F8A5
:102B6000034606E03968786800F064FA034600E03E
:102B7000002318461037BD4680BD00BF540B060821
:102B8000840B06088C0B060880B586B000AF786011
:102B9000396000237B6100233B613B68DB68B3F550
:102BA0007A7F01D30023AFE03B68DB685A1C3B68A7
:102BB000DA603B681A683B689B6813441B785B2BA0
:102BC00040F094803B689B685A1C3B689A60386868
:102BD000FFF738FC3B68002B0DD03B689A683B68D8
:102BE0005B689A4207D23B681A683B689B6813444B
:102BF0001B785D2B61D03B68002B05D03B689A6841
:102C00003B685B689A4205D33B689B685A1E3B68E9
:102C10009A6072E03B689B685A1E3B689A603B680A
:102C200010331846FEF70EFDF860FB68002B5FD0EE
:102C30007B69002B04D1FB687B617B693B6107E00A
:102C40003B69FA681A60FB683A695A60FB683B6145
:102C50003B689B685A1C3B689A603868FFF7F2FB38
:102C600039683869FFF7C0FD0346002B42D0386849
:102C7000FFF7E8FB3B68002B0DD03B689A683B6888
:102C80005B689A4207D23B681A683B689B681344AA
:102C90001B782C2BC3D03B68002B2DD03B689A6847
:102CA0003B685B689A4227D23B681A683B689B681E
:102CB00013441B785D2B1FD100E000BF3B68DB682D
:102CC0005A1E3B68DA607B69002B02D07B693A6947
:102CD0005A607B682022DA607B687A699A603B6878
:102CE0009B685A1C3B689A6001230DE000BF04E01A
:102CF00000BF02E000BF00E000BF7B69002B02D0F4
:102D00007869FEF7B5FC002318461837BD4680BD2C
:102D100080B586B000AF7860396000237B61002306
:102D2000FB607B689B683B613B68002B01D1002303
:102D300070E001213868FEF7BFFD78617B69002BE8
:102D400001D1002366E07B695B221A703B689B68B7
:102D50005A1C3B689A603B68DB685A1C3B68DA6027
:102D60003DE039683869FFF72BFE0346002B01D19F
:102D700000234FE03868FEF739FE3B691B68002BE3
:102D80002AD03B685B69002B01D0022300E00123BD
:102D9000FB60FB68013319463868FEF78DFD7861EA
:102DA0007B69002B01D1002334E07B695A1C7A61D6
:102DB0002C221A703B685B69002B04D07B695A1C7B
:102DC0007A6120221A707B6900221A703B689A6827
:102DD000FB681A443B689A603B691B683B613B692E
:102DE000002BBED102213868FEF766FD78617B6951
:102DF000002B01D100230DE07B695A1C7A615D2212
:102E00001A707B6900221A703B68DB685A1E3B68A7
:102E1000DA60012318461837BD4680BD80B586B0FC
:102E200000AF7860396000237B6100233B613B6821
:102E3000DB68B3F57A7F01D30023F7E03B68DB68FA
:102E40005A1C3B68DA603B68002B00F0DB803B6873
:102E50009A683B685B689A4280F0D4803B681A6845
:102E60003B689B6813441B787B2B40F0CB803B680E
:102E70009B685A1C3B689A603868FFF7E3FA3B6826
:102E8000002B0ED03B689A683B685B689A4208D278
:102E90003B681A683B689B6813441B787D2B00F0E5
:102EA00098803B68002B05D03B689A683B685B685C
:102EB0009A4205D33B689B685A1E3B689A60AEE015
:102EC0003B689B685A1E3B689A603B681033184603
:102ED000FEF7B8FBF860FB68002B00F095807B697B
:102EE000002B04D1FB687B617B693B6107E03B6998
:102EF000FA681A60FB683A695A60FB683B613B6894
:102F0000002B00F083803B689B685A1C3B685B6821
:102F10009A427BD23B689B685A1C3B689A6038682F
:102F2000FFF790FA39683869FFF704F80346002B79
:102F30006ED03868FFF786FA3B691A693B691A62F6
:102F40003B6900221A613B68002B63D03B689A689A
:102F50003B685B689A425DD23B681A683B689B6835
:102F600013441B783A2B55D13B689B685A1C3B682D
:102F70009A603868FFF766FA39683869FFF734FCF9
:102F80000346002B48D03868FFF75CFA3B68002BFB
:102F90000DD03B689A683B685B689A4207D23B68F1
:102FA0001A683B689B6813441B782C2B8DD03B68B8
:102FB000002B33D03B689A683B685B689A422DD2FD
:102FC0003B681A683B689B6813441B787D2B25D1AE
:102FD00000E000BF3B68DB685A1E3B68DA607B6933
:102FE000002B02D07B693A695A607B684022DA6024
:102FF0007B687A699A603B689B685A1C3B689A6058
:10300000012313E000BF0AE000BF08E000BF06E0B4
:1030100000BF04E000BF02E000BF00E000BF7B692A
:10302000002B02D07869FEF723FB002318461837DF
:10303000BD4680BD80B588B000AF786039600023A0
:10304000FB610023FB607B689B68BB613B68002BD6
:1030500001D1002308E13B685B69002B01D002230A
:1030600000E00123FB60FB68013319463868FEF776
:1030700023FCF861FB69002B01D10023F4E0FB691C
:103080005A1CFA617B221A703B68DB685A1C3B6849
:10309000DA603B685B69002B04D0FB695A1CFA615B
:1030A0000A221A703B689A68FB681A443B689A6067
:1030B000A0E03B685B69002B22D03B68DB681946C7
:1030C0003868FEF7F9FBF861FB69002B01D100239A
:1030D000CAE000237B6107E0FB695A1CFA61092200
:1030E0001A707B6901337B613B68DB687A699A42BD
:1030F000F2D33B689A683B68DB681A443B689A6085
:10310000BB691B6A39681846FFF75CF80346002B59
:1031100001D10023A8E03868FEF768FC3B685B69D2
:10312000002B01D0022300E00123FB60F96838681E
:10313000FEF7C2FBF861FB69002B01D1002393E08D
:10314000FB695A1CFA613A221A703B685B69002BD2
:1031500004D0FB695A1CFA6109221A703B689A680C
:10316000FB681A443B689A603968B869FFF728FC25
:103170000346002B01D1002376E03868FEF736FCC9
:103180003B685B69002B01D0012200E00022BB6993
:103190001B68002B01D0012300E000231344FB60D7
:1031A000FB68013319463868FEF786FBF861FB6956
:1031B000002B01D1002357E0BB691B68002B04D012
:1031C000FB695A1CFA612C221A703B685B69002B60
:1031D00004D0FB695A1CFA610A221A70FB690022AA
:1031E0001A703B689A68FB681A443B689A60BB692E
:1031F0001B68BB61BB69002B7FF45BAF3B685B69FD
:10320000002B03D03B68DB68013300E00223194642
:103210003868FEF751FBF861FB69002B01D10023F0
:1032200022E03B685B69002B10D000233B6107E084
:10323000FB695A1CFA6109221A703B6901333B6130
:103240003B68DB68013B3A699A42F1D3FB695A1C3F
:10325000FA617D221A70FB6900221A703B68DB68F4
:103260005A1E3B68DA60012318462037BD4680BDF0
:1032700080B586B000AFF860B9607A6000237B61EA
:10328000FB68002B02D0BB68002B01D1002333E088
:10329000FB689B687B617B68002B17D002E07B6931
:1032A0001B687B617B69002B1CD07B691B6A002B30
:1032B00018D07B691B6A1946B868FDF711F80346F8
:1032C000002BECD10EE07B691B687B617B69002BD6
:1032D00008D07B691B6A1946B868FEF71FF90346D8
:1032E000002BF0D17B69002B03D07B691B6A002B7C
:1032F00001D1002300E07B6918461837BD4680BD28
:1033000080B582B000AF7860396001223968786892
:10331000FFF7AEFF034618460837BD4680BD80B4B0
:1033200083B000AF786039607B683A681A603B68A8
:103330007A685A6000BF0C37BD465DF8047B704761
:1033400080B584B000AF786039600023FB603B68D3
:10335000002B06D07B68002B03D07A683B689A422A
:1033600001D100231EE07B689B68FB60FB68002B9B
:1033700009D17B683A689A603B683A685A603B6852
:1033800000221A600DE0FB685B68002B09D0FB6827
:103390005B6839681846FFF7C2FF7B689B683A682C
:1033A0005A60012318461037BD4680BD80B483B0F3
:1033B00000AF78607B6818460C37BD465DF8047B2B
:1033C000704780B586B000AFF860B9607A603B6046
:1033D00000237B6100233B61FB68002B09D0BB68A5
:1033E000002B06D07B68002B03D0FA687B689A42DA
:1033F00001D1002336E03B6A002B09D0B868FFF703
:10340000D5FF78617B68DB6843F400733B610EE0B5
:103410003968B868FEF7EEF878617B69002B01D156
:1034200000231FE07B68DB6823F400733B617B684B
:10343000DB6803F40073002B09D17B681B6A002B47
:1034400005D03B685B687A68126A104698477B68CB
:103450007A691A627B683A69DA607968F868FFF716
:103460006FFF034618461837BD4680BD80B586B04D
:1034700002AFF860B9607A6000230093054B7A6868
:10348000B968F868FFF79DFF034618461037BD4638
:1034900080BD00BF0400002080B586B002AF786018
:1034A000396000F07FF8F86000230093094BFA6858
:1034B00039687868FFF785FF0346002B01D0FB6869
:1034C00003E0F868FEF7D4F8002318461037BD462D
:1034D00080BD00BF0400002080B586B002AF7860D8
:1034E000396000F073F8F86000230093094BFA6824
:1034F00039687868FFF765FF0346002B01D0FB6849
:1035000003E0F868FEF7B4F8002318461037BD460C
:1035100080BD00BF0400002080B588B002AFF86015
:10352000B96087ED000B97ED000B00F065F878614E
:1035300000230093094B7A69B968F868FFF741FFE7
:103540000346002B01D07B6903E07869FEF790F811
:10355000002318461837BD4680BD00BF0400002078
:1035600080B588B002AFF860B9607A60786800F022
:103570008BF8786100230093094B7A69B968F86881
:10358000FFF71FFF0346002B01D07B6903E078693A
:10359000FEF76EF8002318461837BD4680BD00BF01
:1035A0000400002080B582B000AF0748FEF74AF85B
:1035B00078607B68002B02D07B680222DA607B682F
:1035C00018460837BD4680BD0400002080B582B093
:1035D00000AF0748FEF736F878607B68002B02D012
:1035E0007B680122DA607B6818460837BD4680BDDB
:1035F000040000200000000080B584B000AF87ED1B
:10360000000B1F48FEF71EF8F860FB68002B2CD05B
:10361000FB680822DA60F968D7E90023C1E90623CC
:1036200015A3D3E90023D7E90001FDF703FB034607
:10363000002B04D0FB686FF000425A6115E04FF098
:103640000002104BD7E90001FDF7EAFA0346002B10
:1036500004D0FB684FF000425A6106E0D7E9000150
:10366000FDF712FB0246FB685A61FB6818461037EB
:10367000BD4680BDAFF300800000C0FFFFFFDF410B
:10368000040000200000E0C180B584B000AF786085
:103690000F48FDF7D7FFF860FB68002B12D0FB68DE
:1036A0001022DA600A497868FDF7A4FF0246FB6839
:1036B0001A61FB681B69002B04D1F868FDF7D8FF7D
:1036C000002300E0FB6818461037BD4680BD00BFF0
:1036D0000400002080B582B000AF0748FDF7B2FFBC
:1036E00078607B68002B02D07B684022DA607B68C0
:1036F00018460837BD4680BD0400002080B483B062
:1037000000AF78607B68002B01D1002307E07B6865
:10371000DB68DBB2022B0CBF01230023DBB21846AF
:103720000C37BD465DF8047B704780B483B000AFB2
:1037300078607B68002B01D1002307E07B68DB68A1
:10374000DBB2082B0CBF01230023DBB218460C3779
:10375000BD465DF8047B704780B483B000AF7860ED
:103760007B68002B01D1002307E07B68DB68DBB2BC
:10377000102B0CBF01230023DBB218460C37BD46CB
:103780005DF8047B7047000080B582B000AF7860C0
:10379000044B5B687868984700237B6000BF08375C
:1037A000BD4680BD0400002080B489B000AFF86041
:1037B000B9607A60FB68FB617B68DB43BB611AE040
:1037C000FB695A1CFA611B781A46BB695340BB61FE
:1037D00000237B610CE0BB695A08BB6903F001035D
:1037E00059420E4B0B405340BB617B6901337B61F7
:1037F0007B69072BEFDDBB685A1EBA60002B14BF34
:1038000001230023DBB2002BDAD1BB69DB4318466E
:103810002437BD465DF8047B704700BF2083B8EDB8
:1038200080B48BB000AF786039604FF0FF337B61BC
:103830000023FB602C4B1B6B2B4A43F48053136318
:10384000294B1B6B03F48053FB60FB68274B012261
:103850009A6000237B6209E07B6A9B007A681344CC
:10386000224A1B6813607B6A01337B623B689B08BA
:103870007A6A9A42F0D33B6803F003033B613B69E9
:10388000002B20D000233B623A683B69D31A7A6848
:103890001344FB610023BB610EE0FB695A1CFA6113
:1038A0001B781A46BB69DB0002FA03F33A6A13433A
:1038B0003B62BB690133BB61BA693B699A42ECD395
:1038C0000A4A3B6A1360094B1B687B61064B1B6B02
:1038D000054A23F4805313637B6918462C37BD4691
:1038E0005DF8047B704700BF0038024000300240A2
:1038F00080B582B000AF3B4600221A605A600F4B81
:103900000F4A1A600D480DF057FE0346002B01D0F8
:103910000BF0A4FE00233B6000237B603B460022AB
:10392000194606480DF0CAFE0346002B01D00BF0E5
:1039300095FE00BF0837BD4680BD00BF14040020BF
:103940000074004080B58AB000AF786007F11403BE
:1039500000221A605A609A60DA601A617B681B68FC
:103960001B4A93422FD100233B611A4B1B6C194A0F
:1039700043F000531364174B1B6C03F000533B617F
:103980003B690023FB60134B1B6B124A43F001039E
:103990001363104B1B6B03F00103FB60FB681023E8
:1039A0007B610323BB610023FB6107F1140319460C
:1039B000094810F01DF80022052136200DF0D2FD37
:1039C00036200DF0EBFD00BF2837BD4680BD00BF9F
:1039D00000740040003802400000024080B400AF94
:1039E000BFF34F8F00BF064BDB6803F4E06204496E
:1039F000044B1343CB60BFF34F8F00BF00BFFDE705
:103A000000ED00E00400FA0580B582B000AF7860F8
:103A10007868FCF7C5FC034618460837BD4680BDEC
:103A200080B483B000AF786039603B6818460C37CB
:103A3000BD465DF8047B704780B586B002AFF86084
:103A4000B9607A60F8683CF0A2F802467B6800939F
:103A5000BB680449044802F0CFFA03461846103701
:103A6000BD4680BD940B06085190050890B585B001
:103A700000AF786039600A21386802F003FB044621
:103A800007F10C03184628F0AAFC07F10C030022EA
:103A9000214678683BF09AFD07F10C03184628F0A0
:103AA000A0FC002178683BF052FE044678683BF0A9
:103AB000E9FD03463A681946204602F023FB00BFA1
:103AC00078681437BD4690BD80B483B000AF78608D
:103AD0007B681B6BD3F8843018460C37BD465DF805
:103AE000047B704780B483B000AF78607B681B6B49
:103AF0009B6A9B08DBB203F00303DBB218460C376A
:103B0000BD465DF8047B704780B483B000AF786039
:103B10000B46FB707B681B6B9B6A23F00C01FB78E8
:103B20009B0003F00C027B681B6B0A439A6200BF88
:103B30000C37BD465DF8047B704780B483B000AF9E
:103B400078607B681B6B9B6A03F00203002B14BF39
:103B500001230023DBB218460C37BD465DF8047B19
:103B6000704780B483B000AF78600B46FB70FB7881
:103B7000002B08D07B681B6B9A6A7B681B6B42F03A
:103B800002029A6207E07B681B6B9A6A7B681B6B78
:103B900022F002029A6200BF0C37BD465DF8047B3A
:103BA000704780B582B000AF7860786802F010FB93
:103BB0007B6818460837BD4680BD80B582B000AF2F
:103BC00078607B68184602F0F3FA7B68184608377D
:103BD000BD4680BD80B582B000AF78607B68184676
:103BE000FFF7EBFF7B6818460837BD4680BD80B500
:103BF00082B000AF7860786802F03FFB7B681846BF
:103C00000837BD4680BD80B582B000AF78607B6864
:103C1000184602F022FB7B6818460837BD4680BD77
:103C200080B582B000AF78607B681846FFF7EBFF85
:103C30007B6818460837BD4680BD80B582B000AFAE
:103C400078607B6800221A747B68183318463BF052
:103C5000AFFC7B68002283F830207B681846083769
:103C6000BD4680BD80B582B000AF78607B681833F8
:103C700018463BF0D3FC7B6818460837BD4680BD2C
:103C8000B0B5ADF51C7D22AF07F5F473A3F5F27363
:103C9000186007F5F473A3F5F473196007F14C038A
:103CA0001846FFF797FF07F140031846FFF7B8FFE4
:103CB0000023C7F8E431CA483BF0E6FCC7F8D0015E
:103CC000002387F8E33126E0D7F8CC21D7F8E43198
:103CD000D31A013307F5F472A2F5C87007F5F47230
:103CE000A2F5F471D7F8E42109683BF0FFFF07F172
:103CF000580207F14C031146184602F004FB07F185
:103D0000580318463BF08AFCD7F8CC21D7F8D031BD
:103D10001344C7F8E43107F5F473A3F5F473D7F847
:103D2000E421AF4918683BF066FFC7F8CC01D7F82B
:103D3000CC31B3F1FF3F14BF01230023DBB2002BD2
:103D4000C2D107F14C03184602F0EEFA0346002BED
:103D500014BF01230023DBB2002B00F0FC8207F12B
:103D60004C03184602F0E0FA0346C7F8C8310023B6
:103D7000C7F8DC31E7E20023C7F8E4310023C7F8D5
:103D8000CC310023C7F8C4310023C7F8C031002369
:103D9000C7F8BC310023C7F8B8310023C7F8B431E5
:103DA00007F10C031846FFF748FF8E483BF06CFC08
:103DB000C7F8D001D7F8DC2107F14C0311461846AB
:103DC00002F0C8FA03460022864918463BF013FF6A
:103DD000C7F8CC01D7F8CC31C7F8C431D7F8CC310B
:103DE000B3F1FF3F13D107F10C0318337E49184696
:103DF0003BF0C9FD012387F8E33107F10C0207F11D
:103E000040031146184602F0B8FA002490E2D7F8B1
:103E1000CC21D7F8D0311344C7F8E43173483BF0D4
:103E200033FCC7F8D001D7F8DC2107F14C03114669
:103E3000184602F08FFA0346D7F8E4216B4918467A
:103E40003BF0D9FEC7F8CC01D7F8CC31C7F8C03168
:103E5000D7F8CC31B3F1FF3F13D107F10C0318337E
:103E6000634918463BF08FFD012387F8E33107F1E2
:103E70000C0207F140031146184602F07EFA0024B6
:103E800056E2D7F8CC21D7F8D0311344C7F8E43143
:103E900058483BF0F9FBC7F8D001D7F8DC2107F10F
:103EA0004C031146184602F055FA0346D7F8E421B0
:103EB000504918463BF09FFEC7F8CC01D7F8CC31EB
:103EC000C7F8BC31D7F8CC31B3F1FF3F13D107F1BC
:103ED0000C031833484918463BF055FD012387F879
:103EE000E33107F10C0207F140031146184602F0D6
:103EF00044FA00241CE2D7F8CC21D7F8D03113447F
:103F0000C7F8E4313D483BF0BFFBC7F8D001D7F814
:103F1000DC2107F14C031146184602F01BFA034658
:103F2000D7F8E421354918463BF065FEC7F8CC01C7
:103F3000D7F8CC31C7F8B831D7F8CC31B3F1FF3F5F
:103F400013D107F10C0318332D4918463BF01BFD24
:103F5000012387F8E33107F10C0207F14003114612
:103F6000184602F00AFA0024E2E1D7F8CC21D7F88B
:103F7000D0311344C7F8E43119483BF085FBC7F84A
:103F8000D001D7F8DC2107F14C031146184602F0A6
:103F9000E1F90346D7F8E421114918463BF02BFE1E
:103FA000C7F8CC01D7F8CC31C7F8B431D7F8CC3149
:103FB000B3F1FF3F28D107F10C031833114918461C
:103FC0003BF0E1FC012387F8E33107F10C0207F134
:103FD00040031146184602F0D0F90024A8E100BFC2
:103FE0008C0400202C0400209C0B060844040020B4
:103FF000B40B06085C040020CC0B060874040020F7
:10400000E40B0608FC0B0608D7F8DC2107F14C038B
:104010001146184602F09EF90446D7F8C431591CDF
:10402000D7F8C021D7F8C431D31A013B07F5F47291
:10403000A2F5BC700A4621463BF058FE07F170031A
:10404000184601F08BFF034687F8B33107F1700380
:1040500018463BF0E3FA97F8B331002B00F0558196
:10406000D7F8DC2107F14C031146184602F072F92B
:104070000446D7F8C431591CD7F8C021D7F8C43149
:10408000D31A013B07F5F472A2F5B0700A46214637
:104090003BF02CFE07F188030A2200211846FFF7A7
:1040A000CBFC03461A4607F5F473A3F5EE731A60CA
:1040B00007F1880318463BF0B1FAD7F8DC2107F185
:1040C0004C031146184602F045F90446D7F8C031B2
:1040D000591CD7F8BC21D7F8C031D31A013B07F5DA
:1040E000F472A2F5A4700A4621463BF0FFFD07F1E9
:1040F000A003184601F032FF034687F8B33107F1F9
:10410000A00318463BF08AFA97F8B331002B00F071
:10411000F180D7F8DC2107F14C031146184602F074
:1041200019F90446D7F8C031591CD7F8BC21D7F883
:10413000C031D31A013B07F5F472A2F598700A4614
:1041400021463BF0D3FD07F1B8030A2200211846AF
:10415000FFF772FC03461A4607F5F473A3F5EE73F6
:104160005A6007F1B80318463BF058FAD7F8DC213B
:1041700007F14C031146184602F0ECF80446D7F854
:10418000BC31591CD7F8B821D7F8BC31D31A013B40
:1041900007F5F472A2F58C700A4621463BF0A6FDA5
:1041A00007F1D003184601F0D9FE034687F8B33172
:1041B00007F1D00318463BF031FA97F8B331002BE2
:1041C00000F08D80D7F8DC2107F14C03114618462A
:1041D00002F0C0F80446D7F8BC31591CD7F8B82112
:1041E000D7F8BC31D31A013B07F5F472A2F5807001
:1041F0000A4621463BF07AFD07F1E8030A22002136
:104200001846FFF719FC03461A4607F5F473A3F5A1
:10421000EE739A6007F1E80318463BF0FFF9D7F810
:10422000DC2107F14C031146184602F093F80446CE
:10423000D7F8B831591CD7F8B421D7F8B831D31A08
:10424000013B07F580700A4621463BF04FFD07F51C
:104250008073184601F082FE034687F8B33107F5F4
:10426000807318463BF0DAF997F8B331002B2BD066
:10427000D7F8DC2107F14C031146184602F06AF822
:104280000446D7F8B831591CD7F8B421D7F8B8315B
:10429000D31A013B07F58C700A4621463BF026FDF8
:1042A00007F58C730A2200211846FFF7C5FB034669
:1042B0001A4607F5F473A3F5EE73DA6007F58C730D
:1042C00018463BF0ABF92AE007F10C031833D44948
:1042D00018463BF058FB012387F8E3311FE007F154
:1042E0000C031833CF4918463BF04DFB012387F8E8
:1042F000E33114E007F10C031833CB4918463BF0C7
:1043000042FB012387F8E33109E007F10C0318337E
:10431000C64918463BF037FB012387F8E33107F124
:104320000C0207F140031146184602F026F801245A
:1043300007F10C031846FFF795FC012CD7F8DC3188
:104340000133C7F8DC31D7F8DC21D7F8C8319A42FD
:10435000FFF611AD1BE007F10C031846FFF76DFCEB
:1043600007F10C031833B24918463BF00CFB07F178
:104370000C0207F140031146184601F0FEFF01232D
:1043800087F8E33107F10C031846FFF76BFC07F1E0
:104390004003184602F018F80346C7F8AC3197F806
:1043A000E33183F00103DBB2002B01F0BF84002373
:1043B000C7F8D83101F0B3BCD7F8D82107F14003D2
:1043C0001146184602F016F803461B68013B202BE5
:1043D00001F2708401A252F823F000BF6144010889
:1043E0004946010873460108B55C01084B470108BE
:1043F00045490108EB5C0108294B0108994C01086B
:104400008F4D0108474E0108DF4E0108254F010876
:104410005F4F010835500108E15001088D51010836
:10442000B55C0108B55C010835520108D752010896
:10443000655401087B5501088D5601084157010854
:10444000B55C010825580108C3580108B55C01088E
:104450003B590108B3590108F55A0108215C0108CC
:10446000D7F8D82107F140031146184601F0C2FFE2
:1044700003465B68012B0CBF01230023DBB2002B3A
:104480002CD06C4B1B68184604F027FE03461C46D4
:10449000D7F8D82107F140031146184601F0AAFFCA
:1044A000034622465A61D7F8D82107F14003114646
:1044B000184601F09FFF034601221A74D7F8D8214D
:1044C00007F140031146184601F094FF03461833E4
:1044D000594918463BF057FA01F01CBC554B1B6874
:1044E000184603F0C3FC0346012B0CBF0123002335
:1044F000DBB2002B1BD0D7F8D82107F140031146BF
:10450000184601F077FF034618334C4918463BF034
:104510003AFAD7F8D82107F140031146184601F0BE
:1045200069FF0346012283F8302001F0F3BBD7F87E
:10453000D82107F140031146184601F05BFF0346FE
:104540009B68002B02D0012B2DD058E0D7F8D82142
:1045500007F140031146184601F04CFF0346DB68A3
:10456000002B14BF0123002387F8AA31314B1B68AD
:104570000021184604F0CAF82E4B1B6897F8AA21B0
:104580000121184604F000F8D7F8D82107F14003BC
:104590001146184601F02EFF0346183326491846E7
:1045A0003BF0F1F93AE0234B1B680121184604F077
:1045B000ADF8204B1B68184605F0B6F80346002BF3
:1045C0000ED0D7F8D82107F140031146184601F064
:1045D00011FF03461833184918463BF0D4F91DE083
:1045E000D7F8D82107F140031146184601F002FF21
:1045F00003461833124918463BF0C5F90EE0D7F8C8
:10460000D82107F140031146184601F0F3FE034696
:1046100018330C4918463BF0B6F900BF01F07ABBDD
:10462000140C0608300C06084C0C0608680C06082A
:10463000840C0608500C0020980C0608A00C0608F4
:10464000B00C0608BC0C0608CA4B1B68184604F0E0
:1046500045FBD7F8D82107F140031146184601F071
:10466000C9FE03461833C44918463BF08CF901F0E3
:1046700051BBD7F8D82107F140031146184601F085
:10468000B9FE03465B68002B0CBF01230023DBB29D
:10469000002B2FD0B74B1C68D7F8D82107F1400367
:1046A0001146184601F0A6FE03469B6819462046AF
:1046B00004F022FBAF4B1C68D7F8D82107F1400368
:1046C0001146184601F096FE0346DB68194620465F
:1046D00004F0A7FBD7F8D82107F14003114618468C
:1046E00001F088FE03461833A44918463BF04BF905
:1046F00001F010BB9F4B1D68D7F8D82107F140038C
:104700001146184601F076FE0446284604F078FC6F
:1047100003466361D7F8D82107F1400311461846D4
:1047200001F068FE034601221A74D7F8D82107F178
:1047300040031146184601F05DFE034618338F49C9
:1047400018463BF020F901F0E5BAD7F8D82107F177
:1047500040031146184601F04DFE03465B68032BEB
:1047600000F2D38001A252F823F000BF7D47010878
:10477000D54701082B4801087F4801087D4B1B687D
:10478000184604F0C5FC03461C46D7F8D82107F1AB
:1047900040031146184601F02DFE034622465A6199
:1047A000D7F8D82107F140031146184601F022FE40
:1047B000034601221A74D7F8D82107F140031146A5
:1047C000184601F017FE034618336C4918463BF0B3
:1047D000DAF8B5E0674B1B68184604F041FC044664
:1047E000D7F8D82107F140031146184601F002FE20
:1047F000034622465A61D7F8D82107F140031146F3
:10480000184601F0F7FD034601221A74D7F8D821A3
:1048100007F140031146184601F0ECFD034618333A
:10482000564918463BF0AFF88AE0524B1D68D7F85E
:10483000D82107F140031146184601F0DBFD04467C
:10484000284604F08AFD03466361D7F8D82107F1B2
:1048500040031146184601F0CDFD034601221A74AB
:10486000D7F8D82107F140031146184601F0C2FDE0
:1048700003461833414918463BF085F860E03D4B4C
:104880001B68184603F0F2FA03461C46D7F8D821F5
:1048900007F140031146184601F0ACFD03462246DD
:1048A0005A61D7F8D82107F140031146184601F0A4
:1048B000A1FD034601221A742E4B1B68184603F013
:1048C00020FB034683F00103DBB2002B0ED0D7F8A8
:1048D000D82107F140031146184601F08BFD03462D
:1048E0001833274918463BF04EF829E0D7F8D8216D
:1048F00007F140031146184601F07CFD03461833CA
:104900001E4918463BF03FF81AE0D7F8D82107F1C6
:1049100040031146184601F06DFD0346183319494E
:1049200018463BF030F8D7F8D82107F1400311467C
:10493000184601F05FFD0346012283F8302000BFD6
:1049400001F0E8B9D7F8D82107F14003114618461D
:1049500001F050FD03465B68032B00F2C88001A202
:1049600052F823F089490108094A01085D4A010803
:104970009B4A0108500C0020C40C0608980C06083D
:10498000D40C0608E80C0608CB4B1C68D7F8D821D5
:1049900007F140031146184601F02CFD03469B68C1
:1049A0001946204604F05DFAC44B1B684FF47A7137
:1049B000184614F0B7FA0346002B0CBF012300235E
:1049C000DBB2002B11D0BE4C684604F10C038422EC
:1049D000194648F0B0F994E80E00BA4806F0BBFD5D
:1049E000B64B1B68184614F0EBFAD7F8D82107F13C
:1049F00040031146184601F0FDFC03461833B24946
:104A000018463AF0C0FF8DE0AB4B1D68D7F8D821AF
:104A100007F140031146184601F0ECFC0446284615
:104A200004F0D4FA03466361D7F8D82107F14003B4
:104A30001146184601F0DEFC034601221A74D7F82D
:104A4000D82107F140031146184601F0D3FC034674
:104A500018339D4918463AF096FF63E0964B1C6860
:104A6000D7F8D82107F140031146184601F0C2FCDF
:104A700003469B681946204604F003FAD7F8D8216C
:104A800007F140031146184601F0B4FC0346183301
:104A90008D4918463AF077FF44E0874B1D68D7F8F8
:104AA000D82107F140031146184601F0A3FC044643
:104AB000284604F098FA03466361D7F8D82107F135
:104AC00040031146184601F095FC034601221A7472
:104AD000D7F8D82107F140031146184601F08AFCA7
:104AE00003461833784918463AF04DFF1AE0D7F8D4
:104AF000D82107F140031146184601F07BFC03461C
:104B00001833724918463AF03EFFD7F8D82107F11A
:104B100040031146184601F06DFC0346012283F85C
:104B2000302000BF01F0F6B8D7F8D82107F14003D4
:104B30001146184601F05EFC03465B68002B0CBF73
:104B400001230023DBB2002B79D0D7F8D82107F15D
:104B500040031146184601F04DFC03469B68002BAC
:104B600009D1554B1B68184604F0B7FA0346012BD0
:104B700001D1012300E00023002B15D04E4B1B6810
:104B80000021184604F012FAD7F8D82107F14003A3
:104B90001146184601F02EFC034618334A491846C0
:104BA0003AF0F1FE01F0B6B8D7F8D82107F140038A
:104BB0001146184601F01EFC03469B68002B09D0E5
:104BC0003D4B1B68184604F088FA0346012B01D1BF
:104BD000012300E00023002B15D0374B1B68012177
:104BE000184604F0E3F9D7F8D82107F1400311463D
:104BF000184601F0FFFB03461833334918463AF0D4
:104C0000C2FE01F087B8D7F8D82107F1400311465A
:104C1000184601F0EFFB034618332D4918463AF0C9
:104C2000B2FED7F8D82107F140031146184601F02B
:104C3000E1FB0346012283F8302001F06BB81E4BE4
:104C40001B68184604F03CFA03461C46D7F8D821E6
:104C500007F140031146184601F0CCFB03462246FB
:104C60005A61D7F8D82107F140031146184601F0E0
:104C7000C1FB034601221A74D7F8D82107F140037B
:104C80001146184601F0B6FB034618330E49184684
:104C90003AF079FE01F03EB8D7F8D82107F1400389
:104CA0001146184601F0A6FB03465B68002B11D0A5
:104CB000012B2FD05AE000BF500C002060090020CB
:104CC00010000020D02C0020980C0608E80C0608E4
:104CD000000D0608CD4B1C68D7F8D82107F140031A
:104CE0001146184601F086FB03469B68DBB2194665
:104CF000204604F0E5F8D7F8D82107F14003114623
:104D0000184601F077FB03461833C14918463AF0BC
:104D10003AFE3AE0BD4B1B68184604F0ECF9034636
:104D20001C46D7F8D82107F140031146184601F078
:104D300061FB034622465A61D7F8D82107F14003A8
:104D40001146184601F056FB034601221A74D7F8A3
:104D5000D82107F140031146184601F04BFB0346EA
:104D60001833AB4918463AF00EFE0EE0D7F8D821BA
:104D700007F140031146184601F03CFB0346183387
:104D8000A44918463AF0FFFD00BF00F0C3BFD7F8B2
:104D9000D82107F140031146184601F02BFB0346CA
:104DA0005B68002B0CBF01230023DBB2002B1FD05C
:104DB000964B1C68D7F8D82107F1400311461846D6
:104DC00001F018FB03469B681946204604F069F879
:104DD000D7F8D82107F140031146184601F00AFB25
:104DE000034618338A4918463AF0CDFD00F092BFC9
:104DF000864B1D68D7F8D82107F1400311461846A5
:104E000001F0F8FA0446284604F01CF903466361F1
:104E1000D7F8D82107F140031146184601F0EAFA05
:104E2000034601221A74D7F8D82107F1400311462E
:104E3000184601F0DFFA03461833754918463AF070
:104E4000A2FD00F067BF744B1B684FF47A711846DF
:104E500014F068F80346002B0CBF01230023DBB2DB
:104E6000002B2CD06D4C684604F10C0384221946AB
:104E700047F061FF94E80E00694806F06CFB0346BA
:104E800087F8AB31644B1B68184614F099F8D7F8D3
:104E9000D82107F140031146184601F0ABFA03464A
:104EA00003F1180297F8AB31002B01D05D4B00E005
:104EB0005D4B194610463AF066FD00F02BBFD7F85F
:104EC000D82107F140031146184601F093FA034632
:104ED0001833564918463AF056FD00F01BBFD7F874
:104EE000D82107F140031146184601F083FA034622
:104EF0009B68002B14BF01230023DBB2002B01D0E1
:104F0000FEF76CFDD7F8D82107F14003114618468B
:104F100001F070FA03461833424918463AF033FD5F
:104F200000F0F8BED7F8D82107F140031146184623
:104F300001F060FA03469B68DAB2384B9A74D7F8EE
:104F4000D82107F140031146184601F053FA0346F1
:104F50001833344918463AF016FD00F0DBBED7F896
:104F6000D82107F140031146184601F043FA0346E1
:104F70005B68032B94BF01230023DBB2002B28D0F6
:104F8000D7F8D82107F140031146184601F032FA4C
:104F900003469C68D7F8D82107F14003114618460C
:104FA00001F028FA03465B68E1B21C4A13440A4642
:104FB0009A71D7F8D82107F140031146184601F03D
:104FC00019FA03461833174918463AF0DCFC00F08A
:104FD000A1BED7F8D82107F140031146184601F0C9
:104FE00009FA03461833124918463AF0CCFCD7F8B0
:104FF000D82107F140031146184601F0FBF903469A
:10500000012283F8302000F085BE00BF500C002044
:10501000980C0608140D06086009002010000020F6
:10502000D02C00201C0D0608200D0608340D0608A3
:10503000400D0608D7F8D82107F14003114618465D
:1050400001F0D8F903465B68032B94BF01230023CA
:10505000DBB2002B28D0D7F8D82107F14003114646
:10506000184601F0C7F903469C68D7F8D82107F124
:1050700040031146184601F0BDF903465B68E1B2F2
:10508000D14A13440A469A72D7F8D82107F140034F
:105090001146184601F0AEF903461833CB491846BD
:1050A0003AF071FC00F036BED7F8D82107F1400382
:1050B0001146184601F09EF903461833C4491846B4
:1050C0003AF061FCD7F8D82107F1400311461846A1
:1050D00001F090F90346012283F8302000F01ABE57
:1050E000D7F8D82107F140031146184601F082F99C
:1050F00003465B68032B94BF01230023DBB2002B24
:1051000028D0D7F8D82107F140031146184601F0FE
:1051100071F903469C68D7F8D82107F1400311467E
:10512000184601F067F903465B68E1B2A64A1344EA
:105130000A469A73D7F8D82107F14003114618465A
:1051400001F058F903461833A04918463AF01BFC01
:1051500000F0E0BDD7F8D82107F14003114618460A
:1051600001F048F903461833994918463AF00BFC08
:10517000D7F8D82107F140031146184601F03AF953
:105180000346012283F8302000F0C4BDD7F8D821AF
:1051900007F140031146184601F02CF903465B68FD
:1051A000052B94BF01230023DBB2002B26D0D7F8B8
:1051B000D82107F140031146184601F01BF90346B8
:1051C0009C68D7F8D82107F140031146184601F032
:1051D00011F903465B68E1B27B4AD154D7F8D82174
:1051E00007F140031146184601F004F9034618334D
:1051F000764918463AF0C7FB00F08CBDD7F8D821A5
:1052000007F140031146184601F0F4F8034618333D
:105210006F4918463AF0B7FBD7F8D82107F1400399
:105220001146184601F0E6F80346012283F83020C3
:1052300000F070BDD7F8D82107F140031146184699
:1052400001F0D8F803465B68002B0CBF0123002354
:10525000DBB2002B00F04B855E4B1C68D7F8D821E1
:1052600007F140031146184601F0C4F803469B6855
:105270001946204604F03DF80346002B0FD0D7F81E
:10528000D82107F140031146184601F0B3F8034650
:105290001833514918463AF076FB00F028BDD7F88C
:1052A000D82107F140031146184601F0A3F8034640
:1052B00018334A4918463AF066FBD7F8D82107F167
:1052C00040031146184601F095F80346012283F881
:1052D000302000F00CBDD7F8D82107F1400311466B
:1052E000184601F087F803465B68012B0CBF0123C9
:1052F0000023DBB2002B2AD0364B1D68D7F8D8210B
:1053000007F140031146184601F074F80446284698
:1053100004F023F803466361D7F8D82107F140036E
:105320001146184601F066F8034601221A74D7F8B0
:10533000D82107F140031146184601F05BF80346F7
:105340001833254918463AF01EFB00F0D2BCD7F8B6
:10535000D82107F140031146184601F04BF80346E7
:105360005B68022B0CBF01230023DBB2002B37D07C
:10537000184B1D68D7F8D82107F14003114618468D
:1053800001F038F804462846FEF79EFB03466361A9
:10539000D7F8D82107F140031146184601F02AF842
:1053A000034601221A74D7F8D82107F140031146A9
:1053B000184601F01FF803461833074918463AF01B
:1053C000E2FA00F096BC00BF100000201C0D060899
:1053D000400D0608500C0020980C0608540D0608D5
:1053E000D7F8D82107F140031146184601F002F81A
:1053F00003465B68032B0CBF01230023DBB2002BA9
:1054000000F07784C94B1B68184604F0ABF90346DB
:10541000002B01D0012400E00024D7F8D82107F1A7
:1054200040031146184600F0E5FF03465C61D7F8DB
:10543000D82107F140031146184600F0DBFF034670
:1054400001221A74D7F8D82107F1400311461846F3
:1054500000F0D0FF03461833B54918463AF093FAE6
:1054600000F047BCD7F8D82107F140031146184691
:1054700000F0C0FF03465B68002B0CBF0123002334
:10548000DBB2002B34D0A94B1B680021184603F077
:10549000B3FF0346002B0FD0D7F8D82107F1400304
:1054A0001146184600F0A6FF03461833A0491846D7
:1054B0003AF069FA00F01FBCD7F8D82107F1400391
:1054C0001146184600F096FF0346183399491846CE
:1054D0003AF059FAD7F8D82107F140031146184697
:1054E00000F088FF0346012283F8302000F003BC5F
:1054F000D7F8D82107F140031146184600F07AFF8B
:1055000003465B68012B0CBF01230023DBB2002B99
:1055100000F0F183854B1B680021184603F0D6FF8D
:105520000346002B0ED0D7F8D82107F140031146CF
:10553000184600F05FFF034618337D4918463AF0DD
:1055400022FAD8E3D7F8D82107F1400311461846CC
:1055500000F050FF03461833764918463AF013FA24
:10556000D7F8D82107F140031146184600F042FF52
:105570000346012283F83020BDE3D7F8D82107F194
:1055800040031146184600F035FF03465B68002BC8
:105590000CBF01230023DBB2002B32D0634B1B680E
:1055A0000121184603F028FF0346002B0ED0D7F840
:1055B000D82107F140031146184600F01BFF0346AF
:1055C00018335B4918463AF0DEF996E3D7F8D8214C
:1055D00007F140031146184600F00CFF034618334C
:1055E000554918463AF0CFF9D7F8D82107F14003CA
:1055F0001146184600F0FEFE0346012283F83020D3
:105600007BE3D7F8D82107F140031146184600F094
:10561000F1FE03465B68012B0CBF01230023DBB2C4
:10562000002B00F06A83414B1B680121184603F0F0
:105630004DFF0346002B0ED0D7F8D82107F14003C9
:105640001146184600F0D6FE03461833384918466E
:105650003AF099F951E3D7F8D82107F14003114600
:10566000184600F0C7FE03461833334918463AF08F
:105670008AF9D7F8D82107F140031146184600F0FF
:10568000B9FE0346012283F8302036E3D7F8D8214B
:1056900007F140031146184600F0ACFE03465B6874
:1056A000002B0CBF01230023DBB2002B00F027836B
:1056B0001E4B1C68D7F8D82107F140031146184645
:1056C00000F098FE03469B681946204603F05DFEF5
:1056D0000346002B0ED0D7F8D82107F1400311461E
:1056E000184600F087FE03461833114918463AF071
:1056F0004AF904E3D7F8D82107F1400311461846C8
:1057000000F078FE034618330C4918463AF03BF98E
:10571000D7F8D82107F140031146184600F06AFE79
:105720000346012283F83020E9E200BF500C00203C
:10573000980C06086C0D0608840D06089C0D0608DA
:10574000D7F8D82107F140031146184600F052FE61
:1057500003465B68012B0CBF01230023DBB2002B47
:1057600000F0CF82D7F8D82107F140031146184640
:1057700000F040FE03469B68092B94BF01230023E1
:10578000DBB2002B33D0D7F8D82107F14003114604
:10579000184600F02FFE03469C68D7F8D82107F181
:1057A00040031146184600F025FE0246CA4904F19E
:1057B00014039B000B445B685361D7F8D82107F1B1
:1057C00040031146184600F015FE034601221A74E4
:1057D000D7F8D82107F140031146184600F00AFE19
:1057E00003461833BD4918463AF0CDF889E2D7F898
:1057F000D82107F140031146184600F0FBFD03468F
:105800001833B74918463AF0BEF8D7F8D82107F14F
:1058100040031146184600F0EDFD0346012283F8CF
:1058200030206EE2D7F8D82107F140031146184620
:1058300000F0E0FD03465B68002B0CBF0123002352
:10584000DBB2002B00F05F82A64B1C68D7F8D82192
:1058500007F140031146184600F0CCFD03469B6853
:105860001946204603F0EAFE0346002B0ED0D7F877
:10587000D82107F140031146184600F0BBFD03464E
:105880001833964918463AF07EF83CE2D7F8D8210A
:1058900007F140031146184600F0ACFD03461833EB
:1058A000914918463AF06FF8D7F8D82107F140032C
:1058B0001146184600F09EFD0346012283F8302071
:1058C00021E2D7F8D82107F140031146184600F02D
:1058D00091FD03465B68012B0CBF01230023DBB263
:1058E000002B00F012827F4B1D68D7F8D82107F1FA
:1058F00040031146184600F07DFD0446284603F09B
:1059000072FE03466361D7F8D82107F140031146C0
:10591000184600F06FFD034601221A74D7F8D8210B
:1059200007F140031146184600F064FD03461833A2
:105930006A4918463AF027F8E7E1D7F8D82107F185
:1059400040031146184600F055FD03465B68002BE6
:105950000CBF01230023DBB2002B00F0D881614B88
:105960001C68D7F8D82107F140031146184600F00B
:1059700041FD0346DD68D7F8D82107F14003114601
:10598000184600F037FD03469B681A462946204614
:1059900003F040FED7F8D82107F14003114618461E
:1059A00000F028FD034618334C49184639F0EBFF48
:1059B000ADE1D7F8D82107F140031146184600F0B1
:1059C00019FD03465B68002B0CBF01230023DBB2EB
:1059D000002B54D0434B1C68D7F8D82107F1400363
:1059E0001146184600F006FD03469B68DBB203F043
:1059F0000303DBB219462046FEF786F8D7F8D82114
:105A000007F140031146184600F0F4FC0346DB683A
:105A1000002B14BF01230023DBB2002B20D0334B1B
:105A20001B684FF47A71184613F07CFA0346002B7A
:105A30000CBF01230023DBB2002B11D0264C68469B
:105A400004F10C038422194647F075F994E80E001E
:105A5000274805F080FD254B1B68184613F0B0FA67
:105A6000D7F8D82107F140031146184600F0C2FCD0
:105A7000034618331949184639F085FF4AE1194B96
:105A80001B681846FEF72EF803461C46D7F8D821A7
:105A900007F140031146184600F0ACFC03462246CD
:105AA0005A61D7F8D82107F140031146184600F093
:105AB000A1FC034601221A74D7F8D82107F140034C
:105AC0001146184600F096FC034618330349184661
:105AD00039F059FF1EE100BF10000020980C0608A5
